{
	"contracts/votings.sol": {
		"voting": {
			"abi": [
				{
					"inputs": [
						{
							"internalType": "uint256",
							"name": "_polID",
							"type": "uint256"
						},
						{
							"internalType": "uint16",
							"name": "_time",
							"type": "uint16"
						},
						{
							"internalType": "bool",
							"name": "_allow",
							"type": "bool"
						}
					],
					"name": "AdminControl",
					"outputs": [],
					"stateMutability": "nonpayable",
					"type": "function"
				},
				{
					"inputs": [
						{
							"internalType": "string",
							"name": "_title",
							"type": "string"
						},
						{
							"internalType": "string[]",
							"name": "_options",
							"type": "string[]"
						},
						{
							"internalType": "uint256",
							"name": "_duration",
							"type": "uint256"
						}
					],
					"name": "Create_poll",
					"outputs": [],
					"stateMutability": "nonpayable",
					"type": "function"
				},
				{
					"inputs": [
						{
							"internalType": "uint256",
							"name": "",
							"type": "uint256"
						}
					],
					"name": "Polls",
					"outputs": [
						{
							"internalType": "bool",
							"name": "isActive",
							"type": "bool"
						},
						{
							"internalType": "uint256",
							"name": "EndTime",
							"type": "uint256"
						},
						{
							"internalType": "string",
							"name": "title",
							"type": "string"
						}
					],
					"stateMutability": "view",
					"type": "function"
				},
				{
					"inputs": [
						{
							"internalType": "uint256",
							"name": "_polID",
							"type": "uint256"
						}
					],
					"name": "Result",
					"outputs": [
						{
							"internalType": "string",
							"name": "title",
							"type": "string"
						},
						{
							"internalType": "string[]",
							"name": "options",
							"type": "string[]"
						},
						{
							"internalType": "uint256[]",
							"name": "counts",
							"type": "uint256[]"
						}
					],
					"stateMutability": "view",
					"type": "function"
				},
				{
					"inputs": [
						{
							"internalType": "uint256",
							"name": "_polID",
							"type": "uint256"
						},
						{
							"internalType": "uint8",
							"name": "_pollOption",
							"type": "uint8"
						}
					],
					"name": "Vote",
					"outputs": [],
					"stateMutability": "nonpayable",
					"type": "function"
				},
				{
					"inputs": [],
					"name": "admin",
					"outputs": [
						{
							"internalType": "address",
							"name": "",
							"type": "address"
						}
					],
					"stateMutability": "view",
					"type": "function"
				},
				{
					"inputs": [
						{
							"internalType": "uint256",
							"name": "_indx",
							"type": "uint256"
						}
					],
					"name": "check",
					"outputs": [
						{
							"internalType": "bool",
							"name": "isActive",
							"type": "bool"
						},
						{
							"internalType": "uint256",
							"name": "EndTime",
							"type": "uint256"
						},
						{
							"internalType": "string[]",
							"name": "options",
							"type": "string[]"
						},
						{
							"internalType": "string",
							"name": "title",
							"type": "string"
						}
					],
					"stateMutability": "view",
					"type": "function"
				},
				{
					"inputs": [
						{
							"internalType": "uint256",
							"name": "",
							"type": "uint256"
						},
						{
							"internalType": "address",
							"name": "",
							"type": "address"
						}
					],
					"name": "hasVoted",
					"outputs": [
						{
							"internalType": "bool",
							"name": "",
							"type": "bool"
						}
					],
					"stateMutability": "view",
					"type": "function"
				},
				{
					"inputs": [],
					"name": "totalpolls",
					"outputs": [
						{
							"internalType": "uint256",
							"name": "",
							"type": "uint256"
						}
					],
					"stateMutability": "view",
					"type": "function"
				},
				{
					"inputs": [
						{
							"internalType": "uint256",
							"name": "",
							"type": "uint256"
						},
						{
							"internalType": "uint8",
							"name": "",
							"type": "uint8"
						}
					],
					"name": "votesCount",
					"outputs": [
						{
							"internalType": "uint256",
							"name": "",
							"type": "uint256"
						}
					],
					"stateMutability": "view",
					"type": "function"
				}
			],
			"devdoc": {
				"kind": "dev",
				"methods": {},
				"version": 1
			},
			"evm": {
				"assembly": "    /* \"contracts/votings.sol\":58:3064  contract voting {... */\n  mstore(0x40, 0x80)\n    /* \"contracts/votings.sol\":805:847  0x5B38Da6a701c568545dCfcB03FcB875f56beddC4 */\n  0x5b38da6a701c568545dcfcb03fcb875f56beddc4\n    /* \"contracts/votings.sol\":782:847  address public admin = 0x5B38Da6a701c568545dCfcB03FcB875f56beddC4 */\n  0x04\n  exp(0x0100, 0x00)\n  dup2\n  sload\n  dup2\n  0xffffffffffffffffffffffffffffffffffffffff\n  mul\n  not\n  and\n  swap1\n  dup4\n  0xffffffffffffffffffffffffffffffffffffffff\n  and\n  mul\n  or\n  swap1\n  sstore\n  pop\n    /* \"contracts/votings.sol\":58:3064  contract voting {... */\n  callvalue\n  dup1\n  iszero\n  tag_1\n  jumpi\n  0x00\n  dup1\n  revert\ntag_1:\n  pop\n  dataSize(sub_0)\n  dup1\n  dataOffset(sub_0)\n  0x00\n  codecopy\n  0x00\n  return\nstop\n\nsub_0: assembly {\n        /* \"contracts/votings.sol\":58:3064  contract voting {... */\n      mstore(0x40, 0x80)\n      callvalue\n      dup1\n      iszero\n      tag_1\n      jumpi\n      0x00\n      dup1\n      revert\n    tag_1:\n      pop\n      jumpi(tag_2, lt(calldatasize, 0x04))\n      shr(0xe0, calldataload(0x00))\n      dup1\n      0xa9bb0fa1\n      gt\n      tag_13\n      jumpi\n      dup1\n      0xa9bb0fa1\n      eq\n      tag_8\n      jumpi\n      dup1\n      0xe18f1661\n      eq\n      tag_9\n      jumpi\n      dup1\n      0xed6ead00\n      eq\n      tag_10\n      jumpi\n      dup1\n      0xf716362a\n      eq\n      tag_11\n      jumpi\n      dup1\n      0xf851a440\n      eq\n      tag_12\n      jumpi\n      jump(tag_2)\n    tag_13:\n      dup1\n      0x023441de\n      eq\n      tag_3\n      jumpi\n      dup1\n      0x09aaf058\n      eq\n      tag_4\n      jumpi\n      dup1\n      0x43859632\n      eq\n      tag_5\n      jumpi\n      dup1\n      0x54616059\n      eq\n      tag_6\n      jumpi\n      dup1\n      0x5f72f450\n      eq\n      tag_7\n      jumpi\n    tag_2:\n      0x00\n      dup1\n      revert\n        /* \"contracts/votings.sol\":2285:2594  function AdminControl(uint256 _polID, uint16 _time, bool _allow) external  {... */\n    tag_3:\n      tag_14\n      0x04\n      dup1\n      calldatasize\n      sub\n      dup2\n      add\n      swap1\n      tag_15\n      swap2\n      swap1\n      tag_16\n      jump\t// in\n    tag_15:\n      tag_17\n      jump\t// in\n    tag_14:\n      stop\n        /* \"contracts/votings.sol\":201:235  mapping(uint => poll) public Polls */\n    tag_4:\n      tag_18\n      0x04\n      dup1\n      calldatasize\n      sub\n      dup2\n      add\n      swap1\n      tag_19\n      swap2\n      swap1\n      tag_20\n      jump\t// in\n    tag_19:\n      tag_21\n      jump\t// in\n    tag_18:\n      mload(0x40)\n      tag_22\n      swap4\n      swap3\n      swap2\n      swap1\n      tag_23\n      jump\t// in\n    tag_22:\n      mload(0x40)\n      dup1\n      swap2\n      sub\n      swap1\n      return\n        /* \"contracts/votings.sol\":241:303  mapping (uint256 => mapping (address => bool)) public hasVoted */\n    tag_5:\n      tag_24\n      0x04\n      dup1\n      calldatasize\n      sub\n      dup2\n      add\n      swap1\n      tag_25\n      swap2\n      swap1\n      tag_26\n      jump\t// in\n    tag_25:\n      tag_27\n      jump\t// in\n    tag_24:\n      mload(0x40)\n      tag_28\n      swap2\n      swap1\n      tag_29\n      jump\t// in\n    tag_28:\n      mload(0x40)\n      dup1\n      swap2\n      sub\n      swap1\n      return\n        /* \"contracts/votings.sol\":500:565  mapping (uint256 => mapping (uint8 => uint256)) public votesCount */\n    tag_6:\n      tag_30\n      0x04\n      dup1\n      calldatasize\n      sub\n      dup2\n      add\n      swap1\n      tag_31\n      swap2\n      swap1\n      tag_32\n      jump\t// in\n    tag_31:\n      tag_33\n      jump\t// in\n    tag_30:\n      mload(0x40)\n      tag_34\n      swap2\n      swap1\n      tag_35\n      jump\t// in\n    tag_34:\n      mload(0x40)\n      dup1\n      swap2\n      sub\n      swap1\n      return\n        /* \"contracts/votings.sol\":2600:3062  function check(... */\n    tag_7:\n      tag_36\n      0x04\n      dup1\n      calldatasize\n      sub\n      dup2\n      add\n      swap1\n      tag_37\n      swap2\n      swap1\n      tag_20\n      jump\t// in\n    tag_37:\n      tag_38\n      jump\t// in\n    tag_36:\n      mload(0x40)\n      tag_39\n      swap5\n      swap4\n      swap3\n      swap2\n      swap1\n      tag_40\n      jump\t// in\n    tag_39:\n      mload(0x40)\n      dup1\n      swap2\n      sub\n      swap1\n      return\n        /* \"contracts/votings.sol\":1788:2279  function Result(uint256 _polID) external view returns(string memory title, string[] memory options, uint256[] memory counts){... */\n    tag_8:\n      tag_41\n      0x04\n      dup1\n      calldatasize\n      sub\n      dup2\n      add\n      swap1\n      tag_42\n      swap2\n      swap1\n      tag_20\n      jump\t// in\n    tag_42:\n      tag_43\n      jump\t// in\n    tag_41:\n      mload(0x40)\n      tag_44\n      swap4\n      swap3\n      swap2\n      swap1\n      tag_45\n      jump\t// in\n    tag_44:\n      mload(0x40)\n      dup1\n      swap2\n      sub\n      swap1\n      return\n        /* \"contracts/votings.sol\":751:776  uint256 public totalpolls */\n    tag_9:\n      tag_46\n      tag_47\n      jump\t// in\n    tag_46:\n      mload(0x40)\n      tag_48\n      swap2\n      swap1\n      tag_35\n      jump\t// in\n    tag_48:\n      mload(0x40)\n      dup1\n      swap2\n      sub\n      swap1\n      return\n        /* \"contracts/votings.sol\":1372:1782  function Vote(uint256 _polID, uint8 _pollOption)  external {... */\n    tag_10:\n      tag_49\n      0x04\n      dup1\n      calldatasize\n      sub\n      dup2\n      add\n      swap1\n      tag_50\n      swap2\n      swap1\n      tag_32\n      jump\t// in\n    tag_50:\n      tag_51\n      jump\t// in\n    tag_49:\n      stop\n        /* \"contracts/votings.sol\":854:1366  function Create_poll(... */\n    tag_11:\n      tag_52\n      0x04\n      dup1\n      calldatasize\n      sub\n      dup2\n      add\n      swap1\n      tag_53\n      swap2\n      swap1\n      tag_54\n      jump\t// in\n    tag_53:\n      tag_55\n      jump\t// in\n    tag_52:\n      stop\n        /* \"contracts/votings.sol\":782:847  address public admin = 0x5B38Da6a701c568545dCfcB03FcB875f56beddC4 */\n    tag_12:\n      tag_56\n      tag_57\n      jump\t// in\n    tag_56:\n      mload(0x40)\n      tag_58\n      swap2\n      swap1\n      tag_59\n      jump\t// in\n    tag_58:\n      mload(0x40)\n      dup1\n      swap2\n      sub\n      swap1\n      return\n        /* \"contracts/votings.sol\":2285:2594  function AdminControl(uint256 _polID, uint16 _time, bool _allow) external  {... */\n    tag_17:\n        /* \"contracts/votings.sol\":2382:2392  msg.sender */\n      caller\n        /* \"contracts/votings.sol\":2375:2392  admin==msg.sender */\n      0xffffffffffffffffffffffffffffffffffffffff\n      and\n        /* \"contracts/votings.sol\":2375:2380  admin */\n      0x04\n      0x00\n      swap1\n      sload\n      swap1\n      0x0100\n      exp\n      swap1\n      div\n      0xffffffffffffffffffffffffffffffffffffffff\n      and\n        /* \"contracts/votings.sol\":2375:2392  admin==msg.sender */\n      0xffffffffffffffffffffffffffffffffffffffff\n      and\n      eq\n        /* \"contracts/votings.sol\":2370:2427  if(!(admin==msg.sender)) revert(\"not aligible to change\") */\n      tag_61\n      jumpi\n        /* \"contracts/votings.sol\":2395:2427  revert(\"not aligible to change\") */\n      mload(0x40)\n      0x08c379a000000000000000000000000000000000000000000000000000000000\n      dup2\n      mstore\n      0x04\n      add\n      tag_62\n      swap1\n      tag_63\n      jump\t// in\n    tag_62:\n      mload(0x40)\n      dup1\n      swap2\n      sub\n      swap1\n      revert\n        /* \"contracts/votings.sol\":2370:2427  if(!(admin==msg.sender)) revert(\"not aligible to change\") */\n    tag_61:\n        /* \"contracts/votings.sol\":2450:2455  Polls */\n      0x00\n        /* \"contracts/votings.sol\":2450:2463  Polls[_polID] */\n      dup1\n        /* \"contracts/votings.sol\":2456:2462  _polID */\n      dup5\n        /* \"contracts/votings.sol\":2450:2463  Polls[_polID] */\n      dup2\n      mstore\n      0x20\n      add\n      swap1\n      dup2\n      mstore\n      0x20\n      add\n      0x00\n      keccak256\n        /* \"contracts/votings.sol\":2450:2471  Polls[_polID].EndTime */\n      0x01\n      add\n      sload\n        /* \"contracts/votings.sol\":2442:2447  _time */\n      dup3\n        /* \"contracts/votings.sol\":2442:2471  _time < Polls[_polID].EndTime */\n      0xffff\n      and\n      lt\n        /* \"contracts/votings.sol\":2437:2506  if(!(_time < Polls[_polID].EndTime)) revert (\"ye time kam ho jay ga\") */\n      tag_64\n      jumpi\n        /* \"contracts/votings.sol\":2474:2506  revert (\"ye time kam ho jay ga\") */\n      mload(0x40)\n      0x08c379a000000000000000000000000000000000000000000000000000000000\n      dup2\n      mstore\n      0x04\n      add\n      tag_65\n      swap1\n      tag_66\n      jump\t// in\n    tag_65:\n      mload(0x40)\n      dup1\n      swap2\n      sub\n      swap1\n      revert\n        /* \"contracts/votings.sol\":2437:2506  if(!(_time < Polls[_polID].EndTime)) revert (\"ye time kam ho jay ga\") */\n    tag_64:\n        /* \"contracts/votings.sol\":2541:2546  _time */\n      dup2\n        /* \"contracts/votings.sol\":2517:2546  Polls[_polID].EndTime = _time */\n      0xffff\n      and\n        /* \"contracts/votings.sol\":2517:2522  Polls */\n      0x00\n        /* \"contracts/votings.sol\":2517:2530  Polls[_polID] */\n      dup1\n        /* \"contracts/votings.sol\":2523:2529  _polID */\n      dup6\n        /* \"contracts/votings.sol\":2517:2530  Polls[_polID] */\n      dup2\n      mstore\n      0x20\n      add\n      swap1\n      dup2\n      mstore\n      0x20\n      add\n      0x00\n      keccak256\n        /* \"contracts/votings.sol\":2517:2538  Polls[_polID].EndTime */\n      0x01\n      add\n        /* \"contracts/votings.sol\":2517:2546  Polls[_polID].EndTime = _time */\n      dup2\n      swap1\n      sstore\n      pop\n        /* \"contracts/votings.sol\":2581:2587  _allow */\n      dup1\n        /* \"contracts/votings.sol\":2556:2561  Polls */\n      0x00\n        /* \"contracts/votings.sol\":2556:2569  Polls[_polID] */\n      dup1\n        /* \"contracts/votings.sol\":2562:2568  _polID */\n      dup6\n        /* \"contracts/votings.sol\":2556:2569  Polls[_polID] */\n      dup2\n      mstore\n      0x20\n      add\n      swap1\n      dup2\n      mstore\n      0x20\n      add\n      0x00\n      keccak256\n        /* \"contracts/votings.sol\":2556:2578  Polls[_polID].isActive */\n      0x00\n      add\n      0x00\n        /* \"contracts/votings.sol\":2556:2587  Polls[_polID].isActive = _allow */\n      0x0100\n      exp\n      dup2\n      sload\n      dup2\n      0xff\n      mul\n      not\n      and\n      swap1\n      dup4\n      iszero\n      iszero\n      mul\n      or\n      swap1\n      sstore\n      pop\n        /* \"contracts/votings.sol\":2285:2594  function AdminControl(uint256 _polID, uint16 _time, bool _allow) external  {... */\n      pop\n      pop\n      pop\n      jump\t// out\n        /* \"contracts/votings.sol\":201:235  mapping(uint => poll) public Polls */\n    tag_21:\n      mstore(0x20, 0x00)\n      dup1\n      0x00\n      mstore\n      keccak256(0x00, 0x40)\n      0x00\n      swap2\n      pop\n      swap1\n      pop\n      dup1\n      0x00\n      add\n      0x00\n      swap1\n      sload\n      swap1\n      0x0100\n      exp\n      swap1\n      div\n      0xff\n      and\n      swap1\n      dup1\n      0x01\n      add\n      sload\n      swap1\n      dup1\n      0x03\n      add\n      dup1\n      sload\n      tag_67\n      swap1\n      tag_68\n      jump\t// in\n    tag_67:\n      dup1\n      0x1f\n      add\n      0x20\n      dup1\n      swap2\n      div\n      mul\n      0x20\n      add\n      mload(0x40)\n      swap1\n      dup2\n      add\n      0x40\n      mstore\n      dup1\n      swap3\n      swap2\n      swap1\n      dup2\n      dup2\n      mstore\n      0x20\n      add\n      dup3\n      dup1\n      sload\n      tag_69\n      swap1\n      tag_68\n      jump\t// in\n    tag_69:\n      dup1\n      iszero\n      tag_70\n      jumpi\n      dup1\n      0x1f\n      lt\n      tag_71\n      jumpi\n      0x0100\n      dup1\n      dup4\n      sload\n      div\n      mul\n      dup4\n      mstore\n      swap2\n      0x20\n      add\n      swap2\n      jump(tag_70)\n    tag_71:\n      dup3\n      add\n      swap2\n      swap1\n      0x00\n      mstore\n      keccak256(0x00, 0x20)\n      swap1\n    tag_72:\n      dup2\n      sload\n      dup2\n      mstore\n      swap1\n      0x01\n      add\n      swap1\n      0x20\n      add\n      dup1\n      dup4\n      gt\n      tag_72\n      jumpi\n      dup3\n      swap1\n      sub\n      0x1f\n      and\n      dup3\n      add\n      swap2\n    tag_70:\n      pop\n      pop\n      pop\n      pop\n      pop\n      swap1\n      pop\n      dup4\n      jump\t// out\n        /* \"contracts/votings.sol\":241:303  mapping (uint256 => mapping (address => bool)) public hasVoted */\n    tag_27:\n      mstore(0x20, 0x01)\n      dup2\n      0x00\n      mstore\n      mstore(0x20, keccak256(0x00, 0x40))\n      dup1\n      0x00\n      mstore\n      keccak256(0x00, 0x40)\n      0x00\n      swap2\n      pop\n      swap2\n      pop\n      swap1\n      sload\n      swap1\n      0x0100\n      exp\n      swap1\n      div\n      0xff\n      and\n      dup2\n      jump\t// out\n        /* \"contracts/votings.sol\":500:565  mapping (uint256 => mapping (uint8 => uint256)) public votesCount */\n    tag_33:\n      mstore(0x20, 0x02)\n      dup2\n      0x00\n      mstore\n      mstore(0x20, keccak256(0x00, 0x40))\n      dup1\n      0x00\n      mstore\n      keccak256(0x00, 0x40)\n      0x00\n      swap2\n      pop\n      swap2\n      pop\n      pop\n      sload\n      dup2\n      jump\t// out\n        /* \"contracts/votings.sol\":2600:3062  function check(... */\n    tag_38:\n        /* \"contracts/votings.sol\":2702:2715  bool isActive */\n      0x00\n        /* \"contracts/votings.sol\":2729:2744  uint256 EndTime */\n      dup1\n        /* \"contracts/votings.sol\":2758:2781  string[] memory options */\n      0x60\n        /* \"contracts/votings.sol\":2795:2814  string memory title */\n      dup1\n        /* \"contracts/votings.sol\":2839:2857  poll storage pooll */\n      0x00\n        /* \"contracts/votings.sol\":2860:2865  Polls */\n      dup1\n        /* \"contracts/votings.sol\":2860:2872  Polls[_indx] */\n      0x00\n        /* \"contracts/votings.sol\":2866:2871  _indx */\n      dup8\n        /* \"contracts/votings.sol\":2860:2872  Polls[_indx] */\n      dup2\n      mstore\n      0x20\n      add\n      swap1\n      dup2\n      mstore\n      0x20\n      add\n      0x00\n      keccak256\n        /* \"contracts/votings.sol\":2839:2872  poll storage pooll = Polls[_indx] */\n      swap1\n      pop\n        /* \"contracts/votings.sol\":2890:2895  pooll */\n      dup1\n        /* \"contracts/votings.sol\":2890:2904  pooll.isActive */\n      0x00\n      add\n      0x00\n      swap1\n      sload\n      swap1\n      0x0100\n      exp\n      swap1\n      div\n      0xff\n      and\n        /* \"contracts/votings.sol\":2906:2911  pooll */\n      dup2\n        /* \"contracts/votings.sol\":2906:2919  pooll.EndTime */\n      0x01\n      add\n      sload\n        /* \"contracts/votings.sol\":2921:2926  pooll */\n      dup3\n        /* \"contracts/votings.sol\":2921:2934  pooll.options */\n      0x02\n      add\n        /* \"contracts/votings.sol\":2936:2941  pooll */\n      dup4\n        /* \"contracts/votings.sol\":2936:2947  pooll.title */\n      0x03\n      add\n        /* \"contracts/votings.sol\":2882:2948  return (pooll.isActive, pooll.EndTime, pooll.options, pooll.title) */\n      dup2\n      dup1\n      sload\n      dup1\n      0x20\n      mul\n      0x20\n      add\n      mload(0x40)\n      swap1\n      dup2\n      add\n      0x40\n      mstore\n      dup1\n      swap3\n      swap2\n      swap1\n      dup2\n      dup2\n      mstore\n      0x20\n      add\n      0x00\n      swap1\n    tag_74:\n      dup3\n      dup3\n      lt\n      iszero\n      tag_75\n      jumpi\n      dup4\n      dup3\n      swap1\n      0x00\n      mstore\n      keccak256(0x00, 0x20)\n      add\n      dup1\n      sload\n      tag_77\n      swap1\n      tag_68\n      jump\t// in\n    tag_77:\n      dup1\n      0x1f\n      add\n      0x20\n      dup1\n      swap2\n      div\n      mul\n      0x20\n      add\n      mload(0x40)\n      swap1\n      dup2\n      add\n      0x40\n      mstore\n      dup1\n      swap3\n      swap2\n      swap1\n      dup2\n      dup2\n      mstore\n      0x20\n      add\n      dup3\n      dup1\n      sload\n      tag_78\n      swap1\n      tag_68\n      jump\t// in\n    tag_78:\n      dup1\n      iszero\n      tag_79\n      jumpi\n      dup1\n      0x1f\n      lt\n      tag_80\n      jumpi\n      0x0100\n      dup1\n      dup4\n      sload\n      div\n      mul\n      dup4\n      mstore\n      swap2\n      0x20\n      add\n      swap2\n      jump(tag_79)\n    tag_80:\n      dup3\n      add\n      swap2\n      swap1\n      0x00\n      mstore\n      keccak256(0x00, 0x20)\n      swap1\n    tag_81:\n      dup2\n      sload\n      dup2\n      mstore\n      swap1\n      0x01\n      add\n      swap1\n      0x20\n      add\n      dup1\n      dup4\n      gt\n      tag_81\n      jumpi\n      dup3\n      swap1\n      sub\n      0x1f\n      and\n      dup3\n      add\n      swap2\n    tag_79:\n      pop\n      pop\n      pop\n      pop\n      pop\n      dup2\n      mstore\n      0x20\n      add\n      swap1\n      0x01\n      add\n      swap1\n      jump(tag_74)\n    tag_75:\n      pop\n      pop\n      pop\n      pop\n      swap2\n      pop\n      dup1\n      dup1\n      sload\n      tag_82\n      swap1\n      tag_68\n      jump\t// in\n    tag_82:\n      dup1\n      0x1f\n      add\n      0x20\n      dup1\n      swap2\n      div\n      mul\n      0x20\n      add\n      mload(0x40)\n      swap1\n      dup2\n      add\n      0x40\n      mstore\n      dup1\n      swap3\n      swap2\n      swap1\n      dup2\n      dup2\n      mstore\n      0x20\n      add\n      dup3\n      dup1\n      sload\n      tag_83\n      swap1\n      tag_68\n      jump\t// in\n    tag_83:\n      dup1\n      iszero\n      tag_84\n      jumpi\n      dup1\n      0x1f\n      lt\n      tag_85\n      jumpi\n      0x0100\n      dup1\n      dup4\n      sload\n      div\n      mul\n      dup4\n      mstore\n      swap2\n      0x20\n      add\n      swap2\n      jump(tag_84)\n    tag_85:\n      dup3\n      add\n      swap2\n      swap1\n      0x00\n      mstore\n      keccak256(0x00, 0x20)\n      swap1\n    tag_86:\n      dup2\n      sload\n      dup2\n      mstore\n      swap1\n      0x01\n      add\n      swap1\n      0x20\n      add\n      dup1\n      dup4\n      gt\n      tag_86\n      jumpi\n      dup3\n      swap1\n      sub\n      0x1f\n      and\n      dup3\n      add\n      swap2\n    tag_84:\n      pop\n      pop\n      pop\n      pop\n      pop\n      swap1\n      pop\n      swap5\n      pop\n      swap5\n      pop\n      swap5\n      pop\n      swap5\n      pop\n      pop\n        /* \"contracts/votings.sol\":2600:3062  function check(... */\n      swap2\n      swap4\n      pop\n      swap2\n      swap4\n      jump\t// out\n        /* \"contracts/votings.sol\":1788:2279  function Result(uint256 _polID) external view returns(string memory title, string[] memory options, uint256[] memory counts){... */\n    tag_43:\n        /* \"contracts/votings.sol\":1842:1861  string memory title */\n      0x60\n        /* \"contracts/votings.sol\":1863:1886  string[] memory options */\n      dup1\n        /* \"contracts/votings.sol\":1888:1911  uint256[] memory counts */\n      0x60\n        /* \"contracts/votings.sol\":1922:1938  poll storage pol */\n      0x00\n        /* \"contracts/votings.sol\":1941:1946  Polls */\n      dup1\n        /* \"contracts/votings.sol\":1941:1954  Polls[_polID] */\n      0x00\n        /* \"contracts/votings.sol\":1947:1953  _polID */\n      dup7\n        /* \"contracts/votings.sol\":1941:1954  Polls[_polID] */\n      dup2\n      mstore\n      0x20\n      add\n      swap1\n      dup2\n      mstore\n      0x20\n      add\n      0x00\n      keccak256\n        /* \"contracts/votings.sol\":1922:1954  poll storage pol = Polls[_polID] */\n      swap1\n      pop\n        /* \"contracts/votings.sol\":1973:1976  pol */\n      dup1\n        /* \"contracts/votings.sol\":1973:1982  pol.title */\n      0x03\n      add\n        /* \"contracts/votings.sol\":1965:1982  title = pol.title */\n      dup1\n      sload\n      tag_88\n      swap1\n      tag_68\n      jump\t// in\n    tag_88:\n      dup1\n      0x1f\n      add\n      0x20\n      dup1\n      swap2\n      div\n      mul\n      0x20\n      add\n      mload(0x40)\n      swap1\n      dup2\n      add\n      0x40\n      mstore\n      dup1\n      swap3\n      swap2\n      swap1\n      dup2\n      dup2\n      mstore\n      0x20\n      add\n      dup3\n      dup1\n      sload\n      tag_89\n      swap1\n      tag_68\n      jump\t// in\n    tag_89:\n      dup1\n      iszero\n      tag_90\n      jumpi\n      dup1\n      0x1f\n      lt\n      tag_91\n      jumpi\n      0x0100\n      dup1\n      dup4\n      sload\n      div\n      mul\n      dup4\n      mstore\n      swap2\n      0x20\n      add\n      swap2\n      jump(tag_90)\n    tag_91:\n      dup3\n      add\n      swap2\n      swap1\n      0x00\n      mstore\n      keccak256(0x00, 0x20)\n      swap1\n    tag_92:\n      dup2\n      sload\n      dup2\n      mstore\n      swap1\n      0x01\n      add\n      swap1\n      0x20\n      add\n      dup1\n      dup4\n      gt\n      tag_92\n      jumpi\n      dup3\n      swap1\n      sub\n      0x1f\n      and\n      dup3\n      add\n      swap2\n    tag_90:\n      pop\n      pop\n      pop\n      pop\n      pop\n      swap4\n      pop\n        /* \"contracts/votings.sol\":1992:1998  uint n */\n      0x00\n        /* \"contracts/votings.sol\":2001:2004  pol */\n      dup2\n        /* \"contracts/votings.sol\":2001:2012  pol.options */\n      0x02\n      add\n        /* \"contracts/votings.sol\":2001:2019  pol.options.length */\n      dup1\n      sload\n      swap1\n      pop\n        /* \"contracts/votings.sol\":1992:2019  uint n = pol.options.length */\n      swap1\n      pop\n        /* \"contracts/votings.sol\":2053:2054  n */\n      dup1\n        /* \"contracts/votings.sol\":2039:2055  new uint256[](n) */\n      0xffffffffffffffff\n      dup2\n      gt\n      iszero\n      tag_93\n      jumpi\n      tag_94\n      tag_95\n      jump\t// in\n    tag_94:\n    tag_93:\n      mload(0x40)\n      swap1\n      dup1\n      dup3\n      mstore\n      dup1\n      0x20\n      mul\n      0x20\n      add\n      dup3\n      add\n      0x40\n      mstore\n      dup1\n      iszero\n      tag_96\n      jumpi\n      dup2\n      0x20\n      add\n      0x20\n      dup3\n      mul\n      dup1\n      calldatasize\n      dup4\n      calldatacopy\n      dup1\n      dup3\n      add\n      swap2\n      pop\n      pop\n      swap1\n      pop\n    tag_96:\n      pop\n        /* \"contracts/votings.sol\":2030:2055  counts = new uint256[](n) */\n      swap3\n      pop\n        /* \"contracts/votings.sol\":2070:2077  uint8 i */\n      0x00\n        /* \"contracts/votings.sol\":2065:2158  for (uint8 i ; i<n ; i++) ... */\n    tag_97:\n        /* \"contracts/votings.sol\":2082:2083  n */\n      dup2\n        /* \"contracts/votings.sol\":2080:2081  i */\n      dup2\n        /* \"contracts/votings.sol\":2080:2083  i<n */\n      0xff\n      and\n      lt\n        /* \"contracts/votings.sol\":2065:2158  for (uint8 i ; i<n ; i++) ... */\n      iszero\n      tag_98\n      jumpi\n        /* \"contracts/votings.sol\":2126:2136  votesCount */\n      0x02\n        /* \"contracts/votings.sol\":2126:2144  votesCount[_polID] */\n      0x00\n        /* \"contracts/votings.sol\":2137:2143  _polID */\n      dup9\n        /* \"contracts/votings.sol\":2126:2144  votesCount[_polID] */\n      dup2\n      mstore\n      0x20\n      add\n      swap1\n      dup2\n      mstore\n      0x20\n      add\n      0x00\n      keccak256\n        /* \"contracts/votings.sol\":2126:2147  votesCount[_polID][i] */\n      0x00\n        /* \"contracts/votings.sol\":2145:2146  i */\n      dup3\n        /* \"contracts/votings.sol\":2126:2147  votesCount[_polID][i] */\n      0xff\n      and\n      0xff\n      and\n      dup2\n      mstore\n      0x20\n      add\n      swap1\n      dup2\n      mstore\n      0x20\n      add\n      0x00\n      keccak256\n      sload\n        /* \"contracts/votings.sol\":2114:2120  counts */\n      dup5\n        /* \"contracts/votings.sol\":2121:2122  i */\n      dup3\n        /* \"contracts/votings.sol\":2114:2123  counts[i] */\n      0xff\n      and\n      dup2\n      mload\n      dup2\n      lt\n      tag_100\n      jumpi\n      tag_101\n      tag_102\n      jump\t// in\n    tag_101:\n    tag_100:\n      0x20\n      mul\n      0x20\n      add\n      add\n        /* \"contracts/votings.sol\":2114:2147  counts[i] = votesCount[_polID][i] */\n      dup2\n      dup2\n      mstore\n      pop\n      pop\n        /* \"contracts/votings.sol\":2086:2089  i++ */\n      dup1\n      dup1\n      tag_103\n      swap1\n      tag_104\n      jump\t// in\n    tag_103:\n      swap2\n      pop\n      pop\n        /* \"contracts/votings.sol\":2065:2158  for (uint8 i ; i<n ; i++) ... */\n      jump(tag_97)\n    tag_98:\n      pop\n        /* \"contracts/votings.sol\":2245:2250  title */\n      dup5\n        /* \"contracts/votings.sol\":2251:2254  pol */\n      dup3\n        /* \"contracts/votings.sol\":2251:2262  pol.options */\n      0x02\n      add\n        /* \"contracts/votings.sol\":2264:2270  counts */\n      dup5\n        /* \"contracts/votings.sol\":2238:2271  return(title,pol.options, counts) */\n      dup2\n      dup1\n      sload\n      dup1\n      0x20\n      mul\n      0x20\n      add\n      mload(0x40)\n      swap1\n      dup2\n      add\n      0x40\n      mstore\n      dup1\n      swap3\n      swap2\n      swap1\n      dup2\n      dup2\n      mstore\n      0x20\n      add\n      0x00\n      swap1\n    tag_105:\n      dup3\n      dup3\n      lt\n      iszero\n      tag_106\n      jumpi\n      dup4\n      dup3\n      swap1\n      0x00\n      mstore\n      keccak256(0x00, 0x20)\n      add\n      dup1\n      sload\n      tag_108\n      swap1\n      tag_68\n      jump\t// in\n    tag_108:\n      dup1\n      0x1f\n      add\n      0x20\n      dup1\n      swap2\n      div\n      mul\n      0x20\n      add\n      mload(0x40)\n      swap1\n      dup2\n      add\n      0x40\n      mstore\n      dup1\n      swap3\n      swap2\n      swap1\n      dup2\n      dup2\n      mstore\n      0x20\n      add\n      dup3\n      dup1\n      sload\n      tag_109\n      swap1\n      tag_68\n      jump\t// in\n    tag_109:\n      dup1\n      iszero\n      tag_110\n      jumpi\n      dup1\n      0x1f\n      lt\n      tag_111\n      jumpi\n      0x0100\n      dup1\n      dup4\n      sload\n      div\n      mul\n      dup4\n      mstore\n      swap2\n      0x20\n      add\n      swap2\n      jump(tag_110)\n    tag_111:\n      dup3\n      add\n      swap2\n      swap1\n      0x00\n      mstore\n      keccak256(0x00, 0x20)\n      swap1\n    tag_112:\n      dup2\n      sload\n      dup2\n      mstore\n      swap1\n      0x01\n      add\n      swap1\n      0x20\n      add\n      dup1\n      dup4\n      gt\n      tag_112\n      jumpi\n      dup3\n      swap1\n      sub\n      0x1f\n      and\n      dup3\n      add\n      swap2\n    tag_110:\n      pop\n      pop\n      pop\n      pop\n      pop\n      dup2\n      mstore\n      0x20\n      add\n      swap1\n      0x01\n      add\n      swap1\n      jump(tag_105)\n    tag_106:\n      pop\n      pop\n      pop\n      pop\n      swap2\n      pop\n      swap5\n      pop\n      swap5\n      pop\n      swap5\n      pop\n      pop\n      pop\n        /* \"contracts/votings.sol\":1788:2279  function Result(uint256 _polID) external view returns(string memory title, string[] memory options, uint256[] memory counts){... */\n      swap2\n      swap4\n      swap1\n      swap3\n      pop\n      jump\t// out\n        /* \"contracts/votings.sol\":751:776  uint256 public totalpolls */\n    tag_47:\n      sload(0x03)\n      dup2\n      jump\t// out\n        /* \"contracts/votings.sol\":1372:1782  function Vote(uint256 _polID, uint8 _pollOption)  external {... */\n    tag_51:\n        /* \"contracts/votings.sol\":1441:1457  poll storage pol */\n      0x00\n        /* \"contracts/votings.sol\":1460:1465  Polls */\n      dup1\n        /* \"contracts/votings.sol\":1460:1473  Polls[_polID] */\n      0x00\n        /* \"contracts/votings.sol\":1466:1472  _polID */\n      dup5\n        /* \"contracts/votings.sol\":1460:1473  Polls[_polID] */\n      dup2\n      mstore\n      0x20\n      add\n      swap1\n      dup2\n      mstore\n      0x20\n      add\n      0x00\n      keccak256\n        /* \"contracts/votings.sol\":1441:1473  poll storage pol = Polls[_polID] */\n      swap1\n      pop\n        /* \"contracts/votings.sol\":1488:1491  pol */\n      dup1\n        /* \"contracts/votings.sol\":1488:1500  pol.isActive */\n      0x00\n      add\n      0x00\n      swap1\n      sload\n      swap1\n      0x0100\n      exp\n      swap1\n      div\n      0xff\n      and\n        /* \"contracts/votings.sol\":1484:1522  if(!pol.isActive) revert(\"not active\") */\n      tag_114\n      jumpi\n        /* \"contracts/votings.sol\":1502:1522  revert(\"not active\") */\n      mload(0x40)\n      0x08c379a000000000000000000000000000000000000000000000000000000000\n      dup2\n      mstore\n      0x04\n      add\n      tag_115\n      swap1\n      tag_116\n      jump\t// in\n    tag_115:\n      mload(0x40)\n      dup1\n      swap2\n      sub\n      swap1\n      revert\n        /* \"contracts/votings.sol\":1484:1522  if(!pol.isActive) revert(\"not active\") */\n    tag_114:\n        /* \"contracts/votings.sol\":1549:1564  block.timestamp */\n      timestamp\n        /* \"contracts/votings.sol\":1535:1538  pol */\n      dup2\n        /* \"contracts/votings.sol\":1535:1546  pol.EndTime */\n      0x01\n      add\n      sload\n        /* \"contracts/votings.sol\":1535:1564  pol.EndTime < block.timestamp */\n      lt\n        /* \"contracts/votings.sol\":1532:1589  if(pol.EndTime < block.timestamp) revert(\"time had over\") */\n      iszero\n      tag_117\n      jumpi\n        /* \"contracts/votings.sol\":1566:1589  revert(\"time had over\") */\n      mload(0x40)\n      0x08c379a000000000000000000000000000000000000000000000000000000000\n      dup2\n      mstore\n      0x04\n      add\n      tag_118\n      swap1\n      tag_119\n      jump\t// in\n    tag_118:\n      mload(0x40)\n      dup1\n      swap2\n      sub\n      swap1\n      revert\n        /* \"contracts/votings.sol\":1532:1589  if(pol.EndTime < block.timestamp) revert(\"time had over\") */\n    tag_117:\n        /* \"contracts/votings.sol\":1602:1610  hasVoted */\n      0x01\n        /* \"contracts/votings.sol\":1602:1618  hasVoted[_polID] */\n      0x00\n        /* \"contracts/votings.sol\":1611:1617  _polID */\n      dup5\n        /* \"contracts/votings.sol\":1602:1618  hasVoted[_polID] */\n      dup2\n      mstore\n      0x20\n      add\n      swap1\n      dup2\n      mstore\n      0x20\n      add\n      0x00\n      keccak256\n        /* \"contracts/votings.sol\":1602:1630  hasVoted[_polID][msg.sender] */\n      0x00\n        /* \"contracts/votings.sol\":1619:1629  msg.sender */\n      caller\n        /* \"contracts/votings.sol\":1602:1630  hasVoted[_polID][msg.sender] */\n      0xffffffffffffffffffffffffffffffffffffffff\n      and\n      0xffffffffffffffffffffffffffffffffffffffff\n      and\n      dup2\n      mstore\n      0x20\n      add\n      swap1\n      dup2\n      mstore\n      0x20\n      add\n      0x00\n      keccak256\n      0x00\n      swap1\n      sload\n      swap1\n      0x0100\n      exp\n      swap1\n      div\n      0xff\n      and\n        /* \"contracts/votings.sol\":1599:1683  if(hasVoted[_polID][msg.sender]) revert (\"your vote for this poll has been marked \") */\n      iszero\n      tag_120\n      jumpi\n        /* \"contracts/votings.sol\":1632:1683  revert (\"your vote for this poll has been marked \") */\n      mload(0x40)\n      0x08c379a000000000000000000000000000000000000000000000000000000000\n      dup2\n      mstore\n      0x04\n      add\n      tag_121\n      swap1\n      tag_122\n      jump\t// in\n    tag_121:\n      mload(0x40)\n      dup1\n      swap2\n      sub\n      swap1\n      revert\n        /* \"contracts/votings.sol\":1599:1683  if(hasVoted[_polID][msg.sender]) revert (\"your vote for this poll has been marked \") */\n    tag_120:\n        /* \"contracts/votings.sol\":1694:1704  votesCount */\n      0x02\n        /* \"contracts/votings.sol\":1694:1712  votesCount[_polID] */\n      0x00\n        /* \"contracts/votings.sol\":1705:1711  _polID */\n      dup5\n        /* \"contracts/votings.sol\":1694:1712  votesCount[_polID] */\n      dup2\n      mstore\n      0x20\n      add\n      swap1\n      dup2\n      mstore\n      0x20\n      add\n      0x00\n      keccak256\n        /* \"contracts/votings.sol\":1694:1725  votesCount[_polID][_pollOption] */\n      0x00\n        /* \"contracts/votings.sol\":1713:1724  _pollOption */\n      dup4\n        /* \"contracts/votings.sol\":1694:1725  votesCount[_polID][_pollOption] */\n      0xff\n      and\n      0xff\n      and\n      dup2\n      mstore\n      0x20\n      add\n      swap1\n      dup2\n      mstore\n      0x20\n      add\n      0x00\n      keccak256\n      0x00\n        /* \"contracts/votings.sol\":1694:1728  votesCount[_polID][_pollOption] ++ */\n      dup2\n      sload\n      dup1\n      swap3\n      swap2\n      swap1\n      tag_123\n      swap1\n      tag_124\n      jump\t// in\n    tag_123:\n      swap2\n      swap1\n      pop\n      sstore\n      pop\n        /* \"contracts/votings.sol\":1770:1774  true */\n      0x01\n        /* \"contracts/votings.sol\":1739:1747  hasVoted */\n      dup1\n        /* \"contracts/votings.sol\":1739:1755  hasVoted[_polID] */\n      0x00\n        /* \"contracts/votings.sol\":1748:1754  _polID */\n      dup6\n        /* \"contracts/votings.sol\":1739:1755  hasVoted[_polID] */\n      dup2\n      mstore\n      0x20\n      add\n      swap1\n      dup2\n      mstore\n      0x20\n      add\n      0x00\n      keccak256\n        /* \"contracts/votings.sol\":1739:1767  hasVoted[_polID][msg.sender] */\n      0x00\n        /* \"contracts/votings.sol\":1756:1766  msg.sender */\n      caller\n        /* \"contracts/votings.sol\":1739:1767  hasVoted[_polID][msg.sender] */\n      0xffffffffffffffffffffffffffffffffffffffff\n      and\n      0xffffffffffffffffffffffffffffffffffffffff\n      and\n      dup2\n      mstore\n      0x20\n      add\n      swap1\n      dup2\n      mstore\n      0x20\n      add\n      0x00\n      keccak256\n      0x00\n        /* \"contracts/votings.sol\":1739:1774  hasVoted[_polID][msg.sender] = true */\n      0x0100\n      exp\n      dup2\n      sload\n      dup2\n      0xff\n      mul\n      not\n      and\n      swap1\n      dup4\n      iszero\n      iszero\n      mul\n      or\n      swap1\n      sstore\n      pop\n        /* \"contracts/votings.sol\":1431:1782  {... */\n      pop\n        /* \"contracts/votings.sol\":1372:1782  function Vote(uint256 _polID, uint8 _pollOption)  external {... */\n      pop\n      pop\n      jump\t// out\n        /* \"contracts/votings.sol\":854:1366  function Create_poll(... */\n    tag_55:\n        /* \"contracts/votings.sol\":1017:1022  admin */\n      0x04\n      0x00\n      swap1\n      sload\n      swap1\n      0x0100\n      exp\n      swap1\n      div\n      0xffffffffffffffffffffffffffffffffffffffff\n      and\n        /* \"contracts/votings.sol\":1003:1022  msg.sender == admin */\n      0xffffffffffffffffffffffffffffffffffffffff\n      and\n        /* \"contracts/votings.sol\":1003:1013  msg.sender */\n      caller\n        /* \"contracts/votings.sol\":1003:1022  msg.sender == admin */\n      0xffffffffffffffffffffffffffffffffffffffff\n      and\n      eq\n        /* \"contracts/votings.sol\":995:1044  require(msg.sender == admin, \"you are not admin\") */\n      tag_126\n      jumpi\n      mload(0x40)\n      0x08c379a000000000000000000000000000000000000000000000000000000000\n      dup2\n      mstore\n      0x04\n      add\n      tag_127\n      swap1\n      tag_128\n      jump\t// in\n    tag_127:\n      mload(0x40)\n      dup1\n      swap2\n      sub\n      swap1\n      revert\n    tag_126:\n        /* \"contracts/votings.sol\":1080:1081  2 */\n      0x02\n        /* \"contracts/votings.sol\":1062:1070  _options */\n      dup4\n      dup4\n        /* \"contracts/votings.sol\":1062:1077  _options.length */\n      swap1\n      pop\n        /* \"contracts/votings.sol\":1062:1081  _options.length > 2 */\n      gt\n        /* \"contracts/votings.sol\":1054:1110  require(_options.length > 2, \"must more than 2 options\") */\n      tag_129\n      jumpi\n      mload(0x40)\n      0x08c379a000000000000000000000000000000000000000000000000000000000\n      dup2\n      mstore\n      0x04\n      add\n      tag_130\n      swap1\n      tag_131\n      jump\t// in\n    tag_130:\n      mload(0x40)\n      dup1\n      swap2\n      sub\n      swap1\n      revert\n    tag_129:\n        /* \"contracts/votings.sol\":1121:1137  uint256 _endTime */\n      0x00\n        /* \"contracts/votings.sol\":1171:1173  60 */\n      0x3c\n        /* \"contracts/votings.sol\":1159:1168  _duration */\n      dup3\n        /* \"contracts/votings.sol\":1159:1173  _duration * 60 */\n      tag_132\n      swap2\n      swap1\n      tag_133\n      jump\t// in\n    tag_132:\n        /* \"contracts/votings.sol\":1140:1155  block.timestamp */\n      timestamp\n        /* \"contracts/votings.sol\":1140:1174  block.timestamp + (_duration * 60) */\n      tag_134\n      swap2\n      swap1\n      tag_135\n      jump\t// in\n    tag_134:\n        /* \"contracts/votings.sol\":1121:1174  uint256 _endTime = block.timestamp + (_duration * 60) */\n      swap1\n      pop\n        /* \"contracts/votings.sol\":1204:1337  poll({... */\n      mload(0x40)\n      dup1\n      0x80\n      add\n      0x40\n      mstore\n      dup1\n        /* \"contracts/votings.sol\":1291:1295  true */\n      0x01\n        /* \"contracts/votings.sol\":1204:1337  poll({... */\n      iszero\n      iszero\n      dup2\n      mstore\n      0x20\n      add\n        /* \"contracts/votings.sol\":1318:1326  _endTime */\n      dup3\n        /* \"contracts/votings.sol\":1204:1337  poll({... */\n      dup2\n      mstore\n      0x20\n      add\n        /* \"contracts/votings.sol\":1259:1267  _options */\n      dup6\n      dup6\n        /* \"contracts/votings.sol\":1204:1337  poll({... */\n      swap1\n      tag_136\n      swap2\n      swap1\n      tag_137\n      jump\t// in\n    tag_136:\n      dup2\n      mstore\n      0x20\n      add\n        /* \"contracts/votings.sol\":1230:1236  _title */\n      dup8\n      dup8\n        /* \"contracts/votings.sol\":1204:1337  poll({... */\n      dup1\n      dup1\n      0x1f\n      add\n      0x20\n      dup1\n      swap2\n      div\n      mul\n      0x20\n      add\n      mload(0x40)\n      swap1\n      dup2\n      add\n      0x40\n      mstore\n      dup1\n      swap4\n      swap3\n      swap2\n      swap1\n      dup2\n      dup2\n      mstore\n      0x20\n      add\n      dup4\n      dup4\n      dup1\n      dup3\n      dup5\n      calldatacopy\n      0x00\n      dup2\n      dup5\n      add\n      mstore\n      not(0x1f)\n      0x1f\n      dup3\n      add\n      and\n      swap1\n      pop\n      dup1\n      dup4\n      add\n      swap3\n      pop\n      pop\n      pop\n      pop\n      pop\n      pop\n      pop\n      dup2\n      mstore\n      pop\n        /* \"contracts/votings.sol\":1184:1189  Polls */\n      0x00\n        /* \"contracts/votings.sol\":1184:1201  Polls[totalpolls] */\n      dup1\n        /* \"contracts/votings.sol\":1190:1200  totalpolls */\n      sload(0x03)\n        /* \"contracts/votings.sol\":1184:1201  Polls[totalpolls] */\n      dup2\n      mstore\n      0x20\n      add\n      swap1\n      dup2\n      mstore\n      0x20\n      add\n      0x00\n      keccak256\n        /* \"contracts/votings.sol\":1184:1337  Polls[totalpolls] = poll({... */\n      0x00\n      dup3\n      add\n      mload\n      dup2\n      0x00\n      add\n      exp(0x0100, 0x00)\n      dup2\n      sload\n      dup2\n      0xff\n      mul\n      not\n      and\n      swap1\n      dup4\n      iszero\n      iszero\n      mul\n      or\n      swap1\n      sstore\n      pop\n      0x20\n      dup3\n      add\n      mload\n      dup2\n      0x01\n      add\n      sstore\n      0x40\n      dup3\n      add\n      mload\n      dup2\n      0x02\n      add\n      swap1\n      dup1\n      mload\n      swap1\n      0x20\n      add\n      swap1\n      tag_138\n      swap3\n      swap2\n      swap1\n      tag_139\n      jump\t// in\n    tag_138:\n      pop\n      0x60\n      dup3\n      add\n      mload\n      dup2\n      0x03\n      add\n      swap1\n      dup2\n      tag_140\n      swap2\n      swap1\n      tag_141\n      jump\t// in\n    tag_140:\n      pop\n      swap1\n      pop\n      pop\n        /* \"contracts/votings.sol\":1347:1357  totalpolls */\n      0x03\n      0x00\n        /* \"contracts/votings.sol\":1347:1359  totalpolls++ */\n      dup2\n      sload\n      dup1\n      swap3\n      swap2\n      swap1\n      tag_142\n      swap1\n      tag_124\n      jump\t// in\n    tag_142:\n      swap2\n      swap1\n      pop\n      sstore\n      pop\n        /* \"contracts/votings.sol\":985:1366  {... */\n      pop\n        /* \"contracts/votings.sol\":854:1366  function Create_poll(... */\n      pop\n      pop\n      pop\n      pop\n      pop\n      jump\t// out\n        /* \"contracts/votings.sol\":782:847  address public admin = 0x5B38Da6a701c568545dCfcB03FcB875f56beddC4 */\n    tag_57:\n      0x04\n      0x00\n      swap1\n      sload\n      swap1\n      0x0100\n      exp\n      swap1\n      div\n      0xffffffffffffffffffffffffffffffffffffffff\n      and\n      dup2\n      jump\t// out\n    tag_139:\n      dup3\n      dup1\n      sload\n      dup3\n      dup3\n      sstore\n      swap1\n      0x00\n      mstore\n      keccak256(0x00, 0x20)\n      swap1\n      dup2\n      add\n      swap3\n      dup3\n      iszero\n      tag_143\n      jumpi\n      swap2\n      0x20\n      mul\n      dup3\n      add\n    tag_144:\n      dup3\n      dup2\n      gt\n      iszero\n      tag_145\n      jumpi\n      dup3\n      mload\n      dup3\n      swap1\n      dup2\n      tag_146\n      swap2\n      swap1\n      tag_141\n      jump\t// in\n    tag_146:\n      pop\n      swap2\n      0x20\n      add\n      swap2\n      swap1\n      0x01\n      add\n      swap1\n      jump(tag_144)\n    tag_145:\n    tag_143:\n      pop\n      swap1\n      pop\n      tag_147\n      swap2\n      swap1\n      tag_148\n      jump\t// in\n    tag_147:\n      pop\n      swap1\n      jump\t// out\n    tag_148:\n    tag_149:\n      dup1\n      dup3\n      gt\n      iszero\n      tag_150\n      jumpi\n      0x00\n      dup2\n      dup2\n      tag_151\n      swap2\n      swap1\n      tag_152\n      jump\t// in\n    tag_151:\n      pop\n      0x01\n      add\n      jump(tag_149)\n    tag_150:\n      pop\n      swap1\n      jump\t// out\n    tag_152:\n      pop\n      dup1\n      sload\n      tag_153\n      swap1\n      tag_68\n      jump\t// in\n    tag_153:\n      0x00\n      dup3\n      sstore\n      dup1\n      0x1f\n      lt\n      tag_155\n      jumpi\n      pop\n      jump(tag_154)\n    tag_155:\n      0x1f\n      add\n      0x20\n      swap1\n      div\n      swap1\n      0x00\n      mstore\n      keccak256(0x00, 0x20)\n      swap1\n      dup2\n      add\n      swap1\n      tag_156\n      swap2\n      swap1\n      tag_157\n      jump\t// in\n    tag_156:\n    tag_154:\n      pop\n      jump\t// out\n    tag_157:\n    tag_158:\n      dup1\n      dup3\n      gt\n      iszero\n      tag_159\n      jumpi\n      0x00\n      dup2\n      0x00\n      swap1\n      sstore\n      pop\n      0x01\n      add\n      jump(tag_158)\n    tag_159:\n      pop\n      swap1\n      jump\t// out\n        /* \"#utility.yul\":7:82   */\n    tag_160:\n        /* \"#utility.yul\":40:46   */\n      0x00\n        /* \"#utility.yul\":73:75   */\n      0x40\n        /* \"#utility.yul\":67:76   */\n      mload\n        /* \"#utility.yul\":57:76   */\n      swap1\n      pop\n        /* \"#utility.yul\":7:82   */\n      swap1\n      jump\t// out\n        /* \"#utility.yul\":88:205   */\n    tag_161:\n        /* \"#utility.yul\":197:198   */\n      0x00\n        /* \"#utility.yul\":194:195   */\n      dup1\n        /* \"#utility.yul\":187:199   */\n      revert\n        /* \"#utility.yul\":211:328   */\n    tag_162:\n        /* \"#utility.yul\":320:321   */\n      0x00\n        /* \"#utility.yul\":317:318   */\n      dup1\n        /* \"#utility.yul\":310:322   */\n      revert\n        /* \"#utility.yul\":334:411   */\n    tag_163:\n        /* \"#utility.yul\":371:378   */\n      0x00\n        /* \"#utility.yul\":400:405   */\n      dup2\n        /* \"#utility.yul\":389:405   */\n      swap1\n      pop\n        /* \"#utility.yul\":334:411   */\n      swap2\n      swap1\n      pop\n      jump\t// out\n        /* \"#utility.yul\":417:539   */\n    tag_164:\n        /* \"#utility.yul\":490:514   */\n      tag_253\n        /* \"#utility.yul\":508:513   */\n      dup2\n        /* \"#utility.yul\":490:514   */\n      tag_163\n      jump\t// in\n    tag_253:\n        /* \"#utility.yul\":483:488   */\n      dup2\n        /* \"#utility.yul\":480:515   */\n      eq\n        /* \"#utility.yul\":470:533   */\n      tag_254\n      jumpi\n        /* \"#utility.yul\":529:530   */\n      0x00\n        /* \"#utility.yul\":526:527   */\n      dup1\n        /* \"#utility.yul\":519:531   */\n      revert\n        /* \"#utility.yul\":470:533   */\n    tag_254:\n        /* \"#utility.yul\":417:539   */\n      pop\n      jump\t// out\n        /* \"#utility.yul\":545:684   */\n    tag_165:\n        /* \"#utility.yul\":591:596   */\n      0x00\n        /* \"#utility.yul\":629:635   */\n      dup2\n        /* \"#utility.yul\":616:636   */\n      calldataload\n        /* \"#utility.yul\":607:636   */\n      swap1\n      pop\n        /* \"#utility.yul\":645:678   */\n      tag_256\n        /* \"#utility.yul\":672:677   */\n      dup2\n        /* \"#utility.yul\":645:678   */\n      tag_164\n      jump\t// in\n    tag_256:\n        /* \"#utility.yul\":545:684   */\n      swap3\n      swap2\n      pop\n      pop\n      jump\t// out\n        /* \"#utility.yul\":690:779   */\n    tag_166:\n        /* \"#utility.yul\":726:733   */\n      0x00\n        /* \"#utility.yul\":766:772   */\n      0xffff\n        /* \"#utility.yul\":759:764   */\n      dup3\n        /* \"#utility.yul\":755:773   */\n      and\n        /* \"#utility.yul\":744:773   */\n      swap1\n      pop\n        /* \"#utility.yul\":690:779   */\n      swap2\n      swap1\n      pop\n      jump\t// out\n        /* \"#utility.yul\":785:905   */\n    tag_167:\n        /* \"#utility.yul\":857:880   */\n      tag_259\n        /* \"#utility.yul\":874:879   */\n      dup2\n        /* \"#utility.yul\":857:880   */\n      tag_166\n      jump\t// in\n    tag_259:\n        /* \"#utility.yul\":850:855   */\n      dup2\n        /* \"#utility.yul\":847:881   */\n      eq\n        /* \"#utility.yul\":837:899   */\n      tag_260\n      jumpi\n        /* \"#utility.yul\":895:896   */\n      0x00\n        /* \"#utility.yul\":892:893   */\n      dup1\n        /* \"#utility.yul\":885:897   */\n      revert\n        /* \"#utility.yul\":837:899   */\n    tag_260:\n        /* \"#utility.yul\":785:905   */\n      pop\n      jump\t// out\n        /* \"#utility.yul\":911:1048   */\n    tag_168:\n        /* \"#utility.yul\":956:961   */\n      0x00\n        /* \"#utility.yul\":994:1000   */\n      dup2\n        /* \"#utility.yul\":981:1001   */\n      calldataload\n        /* \"#utility.yul\":972:1001   */\n      swap1\n      pop\n        /* \"#utility.yul\":1010:1042   */\n      tag_262\n        /* \"#utility.yul\":1036:1041   */\n      dup2\n        /* \"#utility.yul\":1010:1042   */\n      tag_167\n      jump\t// in\n    tag_262:\n        /* \"#utility.yul\":911:1048   */\n      swap3\n      swap2\n      pop\n      pop\n      jump\t// out\n        /* \"#utility.yul\":1054:1144   */\n    tag_169:\n        /* \"#utility.yul\":1088:1095   */\n      0x00\n        /* \"#utility.yul\":1131:1136   */\n      dup2\n        /* \"#utility.yul\":1124:1137   */\n      iszero\n        /* \"#utility.yul\":1117:1138   */\n      iszero\n        /* \"#utility.yul\":1106:1138   */\n      swap1\n      pop\n        /* \"#utility.yul\":1054:1144   */\n      swap2\n      swap1\n      pop\n      jump\t// out\n        /* \"#utility.yul\":1150:1266   */\n    tag_170:\n        /* \"#utility.yul\":1220:1241   */\n      tag_265\n        /* \"#utility.yul\":1235:1240   */\n      dup2\n        /* \"#utility.yul\":1220:1241   */\n      tag_169\n      jump\t// in\n    tag_265:\n        /* \"#utility.yul\":1213:1218   */\n      dup2\n        /* \"#utility.yul\":1210:1242   */\n      eq\n        /* \"#utility.yul\":1200:1260   */\n      tag_266\n      jumpi\n        /* \"#utility.yul\":1256:1257   */\n      0x00\n        /* \"#utility.yul\":1253:1254   */\n      dup1\n        /* \"#utility.yul\":1246:1258   */\n      revert\n        /* \"#utility.yul\":1200:1260   */\n    tag_266:\n        /* \"#utility.yul\":1150:1266   */\n      pop\n      jump\t// out\n        /* \"#utility.yul\":1272:1405   */\n    tag_171:\n        /* \"#utility.yul\":1315:1320   */\n      0x00\n        /* \"#utility.yul\":1353:1359   */\n      dup2\n        /* \"#utility.yul\":1340:1360   */\n      calldataload\n        /* \"#utility.yul\":1331:1360   */\n      swap1\n      pop\n        /* \"#utility.yul\":1369:1399   */\n      tag_268\n        /* \"#utility.yul\":1393:1398   */\n      dup2\n        /* \"#utility.yul\":1369:1399   */\n      tag_170\n      jump\t// in\n    tag_268:\n        /* \"#utility.yul\":1272:1405   */\n      swap3\n      swap2\n      pop\n      pop\n      jump\t// out\n        /* \"#utility.yul\":1411:2022   */\n    tag_16:\n        /* \"#utility.yul\":1484:1490   */\n      0x00\n        /* \"#utility.yul\":1492:1498   */\n      dup1\n        /* \"#utility.yul\":1500:1506   */\n      0x00\n        /* \"#utility.yul\":1549:1551   */\n      0x60\n        /* \"#utility.yul\":1537:1546   */\n      dup5\n        /* \"#utility.yul\":1528:1535   */\n      dup7\n        /* \"#utility.yul\":1524:1547   */\n      sub\n        /* \"#utility.yul\":1520:1552   */\n      slt\n        /* \"#utility.yul\":1517:1636   */\n      iszero\n      tag_270\n      jumpi\n        /* \"#utility.yul\":1555:1634   */\n      tag_271\n      tag_161\n      jump\t// in\n    tag_271:\n        /* \"#utility.yul\":1517:1636   */\n    tag_270:\n        /* \"#utility.yul\":1675:1676   */\n      0x00\n        /* \"#utility.yul\":1700:1753   */\n      tag_272\n        /* \"#utility.yul\":1745:1752   */\n      dup7\n        /* \"#utility.yul\":1736:1742   */\n      dup3\n        /* \"#utility.yul\":1725:1734   */\n      dup8\n        /* \"#utility.yul\":1721:1743   */\n      add\n        /* \"#utility.yul\":1700:1753   */\n      tag_165\n      jump\t// in\n    tag_272:\n        /* \"#utility.yul\":1690:1753   */\n      swap4\n      pop\n        /* \"#utility.yul\":1646:1763   */\n      pop\n        /* \"#utility.yul\":1802:1804   */\n      0x20\n        /* \"#utility.yul\":1828:1880   */\n      tag_273\n        /* \"#utility.yul\":1872:1879   */\n      dup7\n        /* \"#utility.yul\":1863:1869   */\n      dup3\n        /* \"#utility.yul\":1852:1861   */\n      dup8\n        /* \"#utility.yul\":1848:1870   */\n      add\n        /* \"#utility.yul\":1828:1880   */\n      tag_168\n      jump\t// in\n    tag_273:\n        /* \"#utility.yul\":1818:1880   */\n      swap3\n      pop\n        /* \"#utility.yul\":1773:1890   */\n      pop\n        /* \"#utility.yul\":1929:1931   */\n      0x40\n        /* \"#utility.yul\":1955:2005   */\n      tag_274\n        /* \"#utility.yul\":1997:2004   */\n      dup7\n        /* \"#utility.yul\":1988:1994   */\n      dup3\n        /* \"#utility.yul\":1977:1986   */\n      dup8\n        /* \"#utility.yul\":1973:1995   */\n      add\n        /* \"#utility.yul\":1955:2005   */\n      tag_171\n      jump\t// in\n    tag_274:\n        /* \"#utility.yul\":1945:2005   */\n      swap2\n      pop\n        /* \"#utility.yul\":1900:2015   */\n      pop\n        /* \"#utility.yul\":1411:2022   */\n      swap3\n      pop\n      swap3\n      pop\n      swap3\n      jump\t// out\n        /* \"#utility.yul\":2028:2357   */\n    tag_20:\n        /* \"#utility.yul\":2087:2093   */\n      0x00\n        /* \"#utility.yul\":2136:2138   */\n      0x20\n        /* \"#utility.yul\":2124:2133   */\n      dup3\n        /* \"#utility.yul\":2115:2122   */\n      dup5\n        /* \"#utility.yul\":2111:2134   */\n      sub\n        /* \"#utility.yul\":2107:2139   */\n      slt\n        /* \"#utility.yul\":2104:2223   */\n      iszero\n      tag_276\n      jumpi\n        /* \"#utility.yul\":2142:2221   */\n      tag_277\n      tag_161\n      jump\t// in\n    tag_277:\n        /* \"#utility.yul\":2104:2223   */\n    tag_276:\n        /* \"#utility.yul\":2262:2263   */\n      0x00\n        /* \"#utility.yul\":2287:2340   */\n      tag_278\n        /* \"#utility.yul\":2332:2339   */\n      dup5\n        /* \"#utility.yul\":2323:2329   */\n      dup3\n        /* \"#utility.yul\":2312:2321   */\n      dup6\n        /* \"#utility.yul\":2308:2330   */\n      add\n        /* \"#utility.yul\":2287:2340   */\n      tag_165\n      jump\t// in\n    tag_278:\n        /* \"#utility.yul\":2277:2340   */\n      swap2\n      pop\n        /* \"#utility.yul\":2233:2350   */\n      pop\n        /* \"#utility.yul\":2028:2357   */\n      swap3\n      swap2\n      pop\n      pop\n      jump\t// out\n        /* \"#utility.yul\":2363:2472   */\n    tag_172:\n        /* \"#utility.yul\":2444:2465   */\n      tag_280\n        /* \"#utility.yul\":2459:2464   */\n      dup2\n        /* \"#utility.yul\":2444:2465   */\n      tag_169\n      jump\t// in\n    tag_280:\n        /* \"#utility.yul\":2439:2442   */\n      dup3\n        /* \"#utility.yul\":2432:2466   */\n      mstore\n        /* \"#utility.yul\":2363:2472   */\n      pop\n      pop\n      jump\t// out\n        /* \"#utility.yul\":2478:2596   */\n    tag_173:\n        /* \"#utility.yul\":2565:2589   */\n      tag_282\n        /* \"#utility.yul\":2583:2588   */\n      dup2\n        /* \"#utility.yul\":2565:2589   */\n      tag_163\n      jump\t// in\n    tag_282:\n        /* \"#utility.yul\":2560:2563   */\n      dup3\n        /* \"#utility.yul\":2553:2590   */\n      mstore\n        /* \"#utility.yul\":2478:2596   */\n      pop\n      pop\n      jump\t// out\n        /* \"#utility.yul\":2602:2701   */\n    tag_174:\n        /* \"#utility.yul\":2654:2660   */\n      0x00\n        /* \"#utility.yul\":2688:2693   */\n      dup2\n        /* \"#utility.yul\":2682:2694   */\n      mload\n        /* \"#utility.yul\":2672:2694   */\n      swap1\n      pop\n        /* \"#utility.yul\":2602:2701   */\n      swap2\n      swap1\n      pop\n      jump\t// out\n        /* \"#utility.yul\":2707:2876   */\n    tag_175:\n        /* \"#utility.yul\":2791:2802   */\n      0x00\n        /* \"#utility.yul\":2825:2831   */\n      dup3\n        /* \"#utility.yul\":2820:2823   */\n      dup3\n        /* \"#utility.yul\":2813:2832   */\n      mstore\n        /* \"#utility.yul\":2865:2869   */\n      0x20\n        /* \"#utility.yul\":2860:2863   */\n      dup3\n        /* \"#utility.yul\":2856:2870   */\n      add\n        /* \"#utility.yul\":2841:2870   */\n      swap1\n      pop\n        /* \"#utility.yul\":2707:2876   */\n      swap3\n      swap2\n      pop\n      pop\n      jump\t// out\n        /* \"#utility.yul\":2882:3128   */\n    tag_176:\n        /* \"#utility.yul\":2963:2964   */\n      0x00\n        /* \"#utility.yul\":2973:3086   */\n    tag_286:\n        /* \"#utility.yul\":2987:2993   */\n      dup4\n        /* \"#utility.yul\":2984:2985   */\n      dup2\n        /* \"#utility.yul\":2981:2994   */\n      lt\n        /* \"#utility.yul\":2973:3086   */\n      iszero\n      tag_288\n      jumpi\n        /* \"#utility.yul\":3072:3073   */\n      dup1\n        /* \"#utility.yul\":3067:3070   */\n      dup3\n        /* \"#utility.yul\":3063:3074   */\n      add\n        /* \"#utility.yul\":3057:3075   */\n      mload\n        /* \"#utility.yul\":3053:3054   */\n      dup2\n        /* \"#utility.yul\":3048:3051   */\n      dup5\n        /* \"#utility.yul\":3044:3055   */\n      add\n        /* \"#utility.yul\":3037:3076   */\n      mstore\n        /* \"#utility.yul\":3009:3011   */\n      0x20\n        /* \"#utility.yul\":3006:3007   */\n      dup2\n        /* \"#utility.yul\":3002:3012   */\n      add\n        /* \"#utility.yul\":2997:3012   */\n      swap1\n      pop\n        /* \"#utility.yul\":2973:3086   */\n      jump(tag_286)\n    tag_288:\n        /* \"#utility.yul\":3120:3121   */\n      0x00\n        /* \"#utility.yul\":3111:3117   */\n      dup5\n        /* \"#utility.yul\":3106:3109   */\n      dup5\n        /* \"#utility.yul\":3102:3118   */\n      add\n        /* \"#utility.yul\":3095:3122   */\n      mstore\n        /* \"#utility.yul\":2944:3128   */\n      pop\n        /* \"#utility.yul\":2882:3128   */\n      pop\n      pop\n      pop\n      jump\t// out\n        /* \"#utility.yul\":3134:3236   */\n    tag_177:\n        /* \"#utility.yul\":3175:3181   */\n      0x00\n        /* \"#utility.yul\":3226:3228   */\n      0x1f\n        /* \"#utility.yul\":3222:3229   */\n      not\n        /* \"#utility.yul\":3217:3219   */\n      0x1f\n        /* \"#utility.yul\":3210:3215   */\n      dup4\n        /* \"#utility.yul\":3206:3220   */\n      add\n        /* \"#utility.yul\":3202:3230   */\n      and\n        /* \"#utility.yul\":3192:3230   */\n      swap1\n      pop\n        /* \"#utility.yul\":3134:3236   */\n      swap2\n      swap1\n      pop\n      jump\t// out\n        /* \"#utility.yul\":3242:3619   */\n    tag_178:\n        /* \"#utility.yul\":3330:3333   */\n      0x00\n        /* \"#utility.yul\":3358:3397   */\n      tag_291\n        /* \"#utility.yul\":3391:3396   */\n      dup3\n        /* \"#utility.yul\":3358:3397   */\n      tag_174\n      jump\t// in\n    tag_291:\n        /* \"#utility.yul\":3413:3484   */\n      tag_292\n        /* \"#utility.yul\":3477:3483   */\n      dup2\n        /* \"#utility.yul\":3472:3475   */\n      dup6\n        /* \"#utility.yul\":3413:3484   */\n      tag_175\n      jump\t// in\n    tag_292:\n        /* \"#utility.yul\":3406:3484   */\n      swap4\n      pop\n        /* \"#utility.yul\":3493:3558   */\n      tag_293\n        /* \"#utility.yul\":3551:3557   */\n      dup2\n        /* \"#utility.yul\":3546:3549   */\n      dup6\n        /* \"#utility.yul\":3539:3543   */\n      0x20\n        /* \"#utility.yul\":3532:3537   */\n      dup7\n        /* \"#utility.yul\":3528:3544   */\n      add\n        /* \"#utility.yul\":3493:3558   */\n      tag_176\n      jump\t// in\n    tag_293:\n        /* \"#utility.yul\":3583:3612   */\n      tag_294\n        /* \"#utility.yul\":3605:3611   */\n      dup2\n        /* \"#utility.yul\":3583:3612   */\n      tag_177\n      jump\t// in\n    tag_294:\n        /* \"#utility.yul\":3578:3581   */\n      dup5\n        /* \"#utility.yul\":3574:3613   */\n      add\n        /* \"#utility.yul\":3567:3613   */\n      swap2\n      pop\n        /* \"#utility.yul\":3334:3619   */\n      pop\n        /* \"#utility.yul\":3242:3619   */\n      swap3\n      swap2\n      pop\n      pop\n      jump\t// out\n        /* \"#utility.yul\":3625:4146   */\n    tag_23:\n        /* \"#utility.yul\":3788:3792   */\n      0x00\n        /* \"#utility.yul\":3826:3828   */\n      0x60\n        /* \"#utility.yul\":3815:3824   */\n      dup3\n        /* \"#utility.yul\":3811:3829   */\n      add\n        /* \"#utility.yul\":3803:3829   */\n      swap1\n      pop\n        /* \"#utility.yul\":3839:3904   */\n      tag_296\n        /* \"#utility.yul\":3901:3902   */\n      0x00\n        /* \"#utility.yul\":3890:3899   */\n      dup4\n        /* \"#utility.yul\":3886:3903   */\n      add\n        /* \"#utility.yul\":3877:3883   */\n      dup7\n        /* \"#utility.yul\":3839:3904   */\n      tag_172\n      jump\t// in\n    tag_296:\n        /* \"#utility.yul\":3914:3986   */\n      tag_297\n        /* \"#utility.yul\":3982:3984   */\n      0x20\n        /* \"#utility.yul\":3971:3980   */\n      dup4\n        /* \"#utility.yul\":3967:3985   */\n      add\n        /* \"#utility.yul\":3958:3964   */\n      dup6\n        /* \"#utility.yul\":3914:3986   */\n      tag_173\n      jump\t// in\n    tag_297:\n        /* \"#utility.yul\":4033:4042   */\n      dup2\n        /* \"#utility.yul\":4027:4031   */\n      dup2\n        /* \"#utility.yul\":4023:4043   */\n      sub\n        /* \"#utility.yul\":4018:4020   */\n      0x40\n        /* \"#utility.yul\":4007:4016   */\n      dup4\n        /* \"#utility.yul\":4003:4021   */\n      add\n        /* \"#utility.yul\":3996:4044   */\n      mstore\n        /* \"#utility.yul\":4061:4139   */\n      tag_298\n        /* \"#utility.yul\":4134:4138   */\n      dup2\n        /* \"#utility.yul\":4125:4131   */\n      dup5\n        /* \"#utility.yul\":4061:4139   */\n      tag_178\n      jump\t// in\n    tag_298:\n        /* \"#utility.yul\":4053:4139   */\n      swap1\n      pop\n        /* \"#utility.yul\":3625:4146   */\n      swap5\n      swap4\n      pop\n      pop\n      pop\n      pop\n      jump\t// out\n        /* \"#utility.yul\":4152:4278   */\n    tag_179:\n        /* \"#utility.yul\":4189:4196   */\n      0x00\n        /* \"#utility.yul\":4229:4271   */\n      0xffffffffffffffffffffffffffffffffffffffff\n        /* \"#utility.yul\":4222:4227   */\n      dup3\n        /* \"#utility.yul\":4218:4272   */\n      and\n        /* \"#utility.yul\":4207:4272   */\n      swap1\n      pop\n        /* \"#utility.yul\":4152:4278   */\n      swap2\n      swap1\n      pop\n      jump\t// out\n        /* \"#utility.yul\":4284:4380   */\n    tag_180:\n        /* \"#utility.yul\":4321:4328   */\n      0x00\n        /* \"#utility.yul\":4350:4374   */\n      tag_301\n        /* \"#utility.yul\":4368:4373   */\n      dup3\n        /* \"#utility.yul\":4350:4374   */\n      tag_179\n      jump\t// in\n    tag_301:\n        /* \"#utility.yul\":4339:4374   */\n      swap1\n      pop\n        /* \"#utility.yul\":4284:4380   */\n      swap2\n      swap1\n      pop\n      jump\t// out\n        /* \"#utility.yul\":4386:4508   */\n    tag_181:\n        /* \"#utility.yul\":4459:4483   */\n      tag_303\n        /* \"#utility.yul\":4477:4482   */\n      dup2\n        /* \"#utility.yul\":4459:4483   */\n      tag_180\n      jump\t// in\n    tag_303:\n        /* \"#utility.yul\":4452:4457   */\n      dup2\n        /* \"#utility.yul\":4449:4484   */\n      eq\n        /* \"#utility.yul\":4439:4502   */\n      tag_304\n      jumpi\n        /* \"#utility.yul\":4498:4499   */\n      0x00\n        /* \"#utility.yul\":4495:4496   */\n      dup1\n        /* \"#utility.yul\":4488:4500   */\n      revert\n        /* \"#utility.yul\":4439:4502   */\n    tag_304:\n        /* \"#utility.yul\":4386:4508   */\n      pop\n      jump\t// out\n        /* \"#utility.yul\":4514:4653   */\n    tag_182:\n        /* \"#utility.yul\":4560:4565   */\n      0x00\n        /* \"#utility.yul\":4598:4604   */\n      dup2\n        /* \"#utility.yul\":4585:4605   */\n      calldataload\n        /* \"#utility.yul\":4576:4605   */\n      swap1\n      pop\n        /* \"#utility.yul\":4614:4647   */\n      tag_306\n        /* \"#utility.yul\":4641:4646   */\n      dup2\n        /* \"#utility.yul\":4614:4647   */\n      tag_181\n      jump\t// in\n    tag_306:\n        /* \"#utility.yul\":4514:4653   */\n      swap3\n      swap2\n      pop\n      pop\n      jump\t// out\n        /* \"#utility.yul\":4659:5133   */\n    tag_26:\n        /* \"#utility.yul\":4727:4733   */\n      0x00\n        /* \"#utility.yul\":4735:4741   */\n      dup1\n        /* \"#utility.yul\":4784:4786   */\n      0x40\n        /* \"#utility.yul\":4772:4781   */\n      dup4\n        /* \"#utility.yul\":4763:4770   */\n      dup6\n        /* \"#utility.yul\":4759:4782   */\n      sub\n        /* \"#utility.yul\":4755:4787   */\n      slt\n        /* \"#utility.yul\":4752:4871   */\n      iszero\n      tag_308\n      jumpi\n        /* \"#utility.yul\":4790:4869   */\n      tag_309\n      tag_161\n      jump\t// in\n    tag_309:\n        /* \"#utility.yul\":4752:4871   */\n    tag_308:\n        /* \"#utility.yul\":4910:4911   */\n      0x00\n        /* \"#utility.yul\":4935:4988   */\n      tag_310\n        /* \"#utility.yul\":4980:4987   */\n      dup6\n        /* \"#utility.yul\":4971:4977   */\n      dup3\n        /* \"#utility.yul\":4960:4969   */\n      dup7\n        /* \"#utility.yul\":4956:4978   */\n      add\n        /* \"#utility.yul\":4935:4988   */\n      tag_165\n      jump\t// in\n    tag_310:\n        /* \"#utility.yul\":4925:4988   */\n      swap3\n      pop\n        /* \"#utility.yul\":4881:4998   */\n      pop\n        /* \"#utility.yul\":5037:5039   */\n      0x20\n        /* \"#utility.yul\":5063:5116   */\n      tag_311\n        /* \"#utility.yul\":5108:5115   */\n      dup6\n        /* \"#utility.yul\":5099:5105   */\n      dup3\n        /* \"#utility.yul\":5088:5097   */\n      dup7\n        /* \"#utility.yul\":5084:5106   */\n      add\n        /* \"#utility.yul\":5063:5116   */\n      tag_182\n      jump\t// in\n    tag_311:\n        /* \"#utility.yul\":5053:5116   */\n      swap2\n      pop\n        /* \"#utility.yul\":5008:5126   */\n      pop\n        /* \"#utility.yul\":4659:5133   */\n      swap3\n      pop\n      swap3\n      swap1\n      pop\n      jump\t// out\n        /* \"#utility.yul\":5139:5349   */\n    tag_29:\n        /* \"#utility.yul\":5226:5230   */\n      0x00\n        /* \"#utility.yul\":5264:5266   */\n      0x20\n        /* \"#utility.yul\":5253:5262   */\n      dup3\n        /* \"#utility.yul\":5249:5267   */\n      add\n        /* \"#utility.yul\":5241:5267   */\n      swap1\n      pop\n        /* \"#utility.yul\":5277:5342   */\n      tag_313\n        /* \"#utility.yul\":5339:5340   */\n      0x00\n        /* \"#utility.yul\":5328:5337   */\n      dup4\n        /* \"#utility.yul\":5324:5341   */\n      add\n        /* \"#utility.yul\":5315:5321   */\n      dup5\n        /* \"#utility.yul\":5277:5342   */\n      tag_172\n      jump\t// in\n    tag_313:\n        /* \"#utility.yul\":5139:5349   */\n      swap3\n      swap2\n      pop\n      pop\n      jump\t// out\n        /* \"#utility.yul\":5355:5441   */\n    tag_183:\n        /* \"#utility.yul\":5390:5397   */\n      0x00\n        /* \"#utility.yul\":5430:5434   */\n      0xff\n        /* \"#utility.yul\":5423:5428   */\n      dup3\n        /* \"#utility.yul\":5419:5435   */\n      and\n        /* \"#utility.yul\":5408:5435   */\n      swap1\n      pop\n        /* \"#utility.yul\":5355:5441   */\n      swap2\n      swap1\n      pop\n      jump\t// out\n        /* \"#utility.yul\":5447:5565   */\n    tag_184:\n        /* \"#utility.yul\":5518:5540   */\n      tag_316\n        /* \"#utility.yul\":5534:5539   */\n      dup2\n        /* \"#utility.yul\":5518:5540   */\n      tag_183\n      jump\t// in\n    tag_316:\n        /* \"#utility.yul\":5511:5516   */\n      dup2\n        /* \"#utility.yul\":5508:5541   */\n      eq\n        /* \"#utility.yul\":5498:5559   */\n      tag_317\n      jumpi\n        /* \"#utility.yul\":5555:5556   */\n      0x00\n        /* \"#utility.yul\":5552:5553   */\n      dup1\n        /* \"#utility.yul\":5545:5557   */\n      revert\n        /* \"#utility.yul\":5498:5559   */\n    tag_317:\n        /* \"#utility.yul\":5447:5565   */\n      pop\n      jump\t// out\n        /* \"#utility.yul\":5571:5706   */\n    tag_185:\n        /* \"#utility.yul\":5615:5620   */\n      0x00\n        /* \"#utility.yul\":5653:5659   */\n      dup2\n        /* \"#utility.yul\":5640:5660   */\n      calldataload\n        /* \"#utility.yul\":5631:5660   */\n      swap1\n      pop\n        /* \"#utility.yul\":5669:5700   */\n      tag_319\n        /* \"#utility.yul\":5694:5699   */\n      dup2\n        /* \"#utility.yul\":5669:5700   */\n      tag_184\n      jump\t// in\n    tag_319:\n        /* \"#utility.yul\":5571:5706   */\n      swap3\n      swap2\n      pop\n      pop\n      jump\t// out\n        /* \"#utility.yul\":5712:6182   */\n    tag_32:\n        /* \"#utility.yul\":5778:5784   */\n      0x00\n        /* \"#utility.yul\":5786:5792   */\n      dup1\n        /* \"#utility.yul\":5835:5837   */\n      0x40\n        /* \"#utility.yul\":5823:5832   */\n      dup4\n        /* \"#utility.yul\":5814:5821   */\n      dup6\n        /* \"#utility.yul\":5810:5833   */\n      sub\n        /* \"#utility.yul\":5806:5838   */\n      slt\n        /* \"#utility.yul\":5803:5922   */\n      iszero\n      tag_321\n      jumpi\n        /* \"#utility.yul\":5841:5920   */\n      tag_322\n      tag_161\n      jump\t// in\n    tag_322:\n        /* \"#utility.yul\":5803:5922   */\n    tag_321:\n        /* \"#utility.yul\":5961:5962   */\n      0x00\n        /* \"#utility.yul\":5986:6039   */\n      tag_323\n        /* \"#utility.yul\":6031:6038   */\n      dup6\n        /* \"#utility.yul\":6022:6028   */\n      dup3\n        /* \"#utility.yul\":6011:6020   */\n      dup7\n        /* \"#utility.yul\":6007:6029   */\n      add\n        /* \"#utility.yul\":5986:6039   */\n      tag_165\n      jump\t// in\n    tag_323:\n        /* \"#utility.yul\":5976:6039   */\n      swap3\n      pop\n        /* \"#utility.yul\":5932:6049   */\n      pop\n        /* \"#utility.yul\":6088:6090   */\n      0x20\n        /* \"#utility.yul\":6114:6165   */\n      tag_324\n        /* \"#utility.yul\":6157:6164   */\n      dup6\n        /* \"#utility.yul\":6148:6154   */\n      dup3\n        /* \"#utility.yul\":6137:6146   */\n      dup7\n        /* \"#utility.yul\":6133:6155   */\n      add\n        /* \"#utility.yul\":6114:6165   */\n      tag_185\n      jump\t// in\n    tag_324:\n        /* \"#utility.yul\":6104:6165   */\n      swap2\n      pop\n        /* \"#utility.yul\":6059:6175   */\n      pop\n        /* \"#utility.yul\":5712:6182   */\n      swap3\n      pop\n      swap3\n      swap1\n      pop\n      jump\t// out\n        /* \"#utility.yul\":6188:6410   */\n    tag_35:\n        /* \"#utility.yul\":6281:6285   */\n      0x00\n        /* \"#utility.yul\":6319:6321   */\n      0x20\n        /* \"#utility.yul\":6308:6317   */\n      dup3\n        /* \"#utility.yul\":6304:6322   */\n      add\n        /* \"#utility.yul\":6296:6322   */\n      swap1\n      pop\n        /* \"#utility.yul\":6332:6403   */\n      tag_326\n        /* \"#utility.yul\":6400:6401   */\n      0x00\n        /* \"#utility.yul\":6389:6398   */\n      dup4\n        /* \"#utility.yul\":6385:6402   */\n      add\n        /* \"#utility.yul\":6376:6382   */\n      dup5\n        /* \"#utility.yul\":6332:6403   */\n      tag_173\n      jump\t// in\n    tag_326:\n        /* \"#utility.yul\":6188:6410   */\n      swap3\n      swap2\n      pop\n      pop\n      jump\t// out\n        /* \"#utility.yul\":6416:6540   */\n    tag_186:\n        /* \"#utility.yul\":6493:6499   */\n      0x00\n        /* \"#utility.yul\":6527:6532   */\n      dup2\n        /* \"#utility.yul\":6521:6533   */\n      mload\n        /* \"#utility.yul\":6511:6533   */\n      swap1\n      pop\n        /* \"#utility.yul\":6416:6540   */\n      swap2\n      swap1\n      pop\n      jump\t// out\n        /* \"#utility.yul\":6546:6740   */\n    tag_187:\n        /* \"#utility.yul\":6655:6666   */\n      0x00\n        /* \"#utility.yul\":6689:6695   */\n      dup3\n        /* \"#utility.yul\":6684:6687   */\n      dup3\n        /* \"#utility.yul\":6677:6696   */\n      mstore\n        /* \"#utility.yul\":6729:6733   */\n      0x20\n        /* \"#utility.yul\":6724:6727   */\n      dup3\n        /* \"#utility.yul\":6720:6734   */\n      add\n        /* \"#utility.yul\":6705:6734   */\n      swap1\n      pop\n        /* \"#utility.yul\":6546:6740   */\n      swap3\n      swap2\n      pop\n      pop\n      jump\t// out\n        /* \"#utility.yul\":6746:6888   */\n    tag_188:\n        /* \"#utility.yul\":6823:6827   */\n      0x00\n        /* \"#utility.yul\":6846:6849   */\n      dup2\n        /* \"#utility.yul\":6838:6849   */\n      swap1\n      pop\n        /* \"#utility.yul\":6876:6880   */\n      0x20\n        /* \"#utility.yul\":6871:6874   */\n      dup3\n        /* \"#utility.yul\":6867:6881   */\n      add\n        /* \"#utility.yul\":6859:6881   */\n      swap1\n      pop\n        /* \"#utility.yul\":6746:6888   */\n      swap2\n      swap1\n      pop\n      jump\t// out\n        /* \"#utility.yul\":6894:7053   */\n    tag_189:\n        /* \"#utility.yul\":6968:6979   */\n      0x00\n        /* \"#utility.yul\":7002:7008   */\n      dup3\n        /* \"#utility.yul\":6997:7000   */\n      dup3\n        /* \"#utility.yul\":6990:7009   */\n      mstore\n        /* \"#utility.yul\":7042:7046   */\n      0x20\n        /* \"#utility.yul\":7037:7040   */\n      dup3\n        /* \"#utility.yul\":7033:7047   */\n      add\n        /* \"#utility.yul\":7018:7047   */\n      swap1\n      pop\n        /* \"#utility.yul\":6894:7053   */\n      swap3\n      swap2\n      pop\n      pop\n      jump\t// out\n        /* \"#utility.yul\":7059:7416   */\n    tag_190:\n        /* \"#utility.yul\":7137:7140   */\n      0x00\n        /* \"#utility.yul\":7165:7204   */\n      tag_332\n        /* \"#utility.yul\":7198:7203   */\n      dup3\n        /* \"#utility.yul\":7165:7204   */\n      tag_174\n      jump\t// in\n    tag_332:\n        /* \"#utility.yul\":7220:7281   */\n      tag_333\n        /* \"#utility.yul\":7274:7280   */\n      dup2\n        /* \"#utility.yul\":7269:7272   */\n      dup6\n        /* \"#utility.yul\":7220:7281   */\n      tag_189\n      jump\t// in\n    tag_333:\n        /* \"#utility.yul\":7213:7281   */\n      swap4\n      pop\n        /* \"#utility.yul\":7290:7355   */\n      tag_334\n        /* \"#utility.yul\":7348:7354   */\n      dup2\n        /* \"#utility.yul\":7343:7346   */\n      dup6\n        /* \"#utility.yul\":7336:7340   */\n      0x20\n        /* \"#utility.yul\":7329:7334   */\n      dup7\n        /* \"#utility.yul\":7325:7341   */\n      add\n        /* \"#utility.yul\":7290:7355   */\n      tag_176\n      jump\t// in\n    tag_334:\n        /* \"#utility.yul\":7380:7409   */\n      tag_335\n        /* \"#utility.yul\":7402:7408   */\n      dup2\n        /* \"#utility.yul\":7380:7409   */\n      tag_177\n      jump\t// in\n    tag_335:\n        /* \"#utility.yul\":7375:7378   */\n      dup5\n        /* \"#utility.yul\":7371:7410   */\n      add\n        /* \"#utility.yul\":7364:7410   */\n      swap2\n      pop\n        /* \"#utility.yul\":7141:7416   */\n      pop\n        /* \"#utility.yul\":7059:7416   */\n      swap3\n      swap2\n      pop\n      pop\n      jump\t// out\n        /* \"#utility.yul\":7422:7618   */\n    tag_191:\n        /* \"#utility.yul\":7511:7521   */\n      0x00\n        /* \"#utility.yul\":7546:7612   */\n      tag_337\n        /* \"#utility.yul\":7608:7611   */\n      dup4\n        /* \"#utility.yul\":7600:7606   */\n      dup4\n        /* \"#utility.yul\":7546:7612   */\n      tag_190\n      jump\t// in\n    tag_337:\n        /* \"#utility.yul\":7532:7612   */\n      swap1\n      pop\n        /* \"#utility.yul\":7422:7618   */\n      swap3\n      swap2\n      pop\n      pop\n      jump\t// out\n        /* \"#utility.yul\":7624:7747   */\n    tag_192:\n        /* \"#utility.yul\":7704:7708   */\n      0x00\n        /* \"#utility.yul\":7736:7740   */\n      0x20\n        /* \"#utility.yul\":7731:7734   */\n      dup3\n        /* \"#utility.yul\":7727:7741   */\n      add\n        /* \"#utility.yul\":7719:7741   */\n      swap1\n      pop\n        /* \"#utility.yul\":7624:7747   */\n      swap2\n      swap1\n      pop\n      jump\t// out\n        /* \"#utility.yul\":7781:8772   */\n    tag_193:\n        /* \"#utility.yul\":7920:7923   */\n      0x00\n        /* \"#utility.yul\":7949:8013   */\n      tag_340\n        /* \"#utility.yul\":8007:8012   */\n      dup3\n        /* \"#utility.yul\":7949:8013   */\n      tag_186\n      jump\t// in\n    tag_340:\n        /* \"#utility.yul\":8029:8125   */\n      tag_341\n        /* \"#utility.yul\":8118:8124   */\n      dup2\n        /* \"#utility.yul\":8113:8116   */\n      dup6\n        /* \"#utility.yul\":8029:8125   */\n      tag_187\n      jump\t// in\n    tag_341:\n        /* \"#utility.yul\":8022:8125   */\n      swap4\n      pop\n        /* \"#utility.yul\":8151:8154   */\n      dup4\n        /* \"#utility.yul\":8196:8200   */\n      0x20\n        /* \"#utility.yul\":8188:8194   */\n      dup3\n        /* \"#utility.yul\":8184:8201   */\n      mul\n        /* \"#utility.yul\":8179:8182   */\n      dup6\n        /* \"#utility.yul\":8175:8202   */\n      add\n        /* \"#utility.yul\":8226:8292   */\n      tag_342\n        /* \"#utility.yul\":8286:8291   */\n      dup6\n        /* \"#utility.yul\":8226:8292   */\n      tag_188\n      jump\t// in\n    tag_342:\n        /* \"#utility.yul\":8315:8322   */\n      dup1\n        /* \"#utility.yul\":8346:8347   */\n      0x00\n        /* \"#utility.yul\":8331:8727   */\n    tag_343:\n        /* \"#utility.yul\":8356:8362   */\n      dup6\n        /* \"#utility.yul\":8353:8354   */\n      dup2\n        /* \"#utility.yul\":8350:8363   */\n      lt\n        /* \"#utility.yul\":8331:8727   */\n      iszero\n      tag_345\n      jumpi\n        /* \"#utility.yul\":8427:8436   */\n      dup5\n        /* \"#utility.yul\":8421:8425   */\n      dup5\n        /* \"#utility.yul\":8417:8437   */\n      sub\n        /* \"#utility.yul\":8412:8415   */\n      dup10\n        /* \"#utility.yul\":8405:8438   */\n      mstore\n        /* \"#utility.yul\":8478:8484   */\n      dup2\n        /* \"#utility.yul\":8472:8485   */\n      mload\n        /* \"#utility.yul\":8506:8590   */\n      tag_346\n        /* \"#utility.yul\":8585:8589   */\n      dup6\n        /* \"#utility.yul\":8570:8583   */\n      dup3\n        /* \"#utility.yul\":8506:8590   */\n      tag_191\n      jump\t// in\n    tag_346:\n        /* \"#utility.yul\":8498:8590   */\n      swap5\n      pop\n        /* \"#utility.yul\":8613:8683   */\n      tag_347\n        /* \"#utility.yul\":8676:8682   */\n      dup4\n        /* \"#utility.yul\":8613:8683   */\n      tag_192\n      jump\t// in\n    tag_347:\n        /* \"#utility.yul\":8603:8683   */\n      swap3\n      pop\n        /* \"#utility.yul\":8712:8716   */\n      0x20\n        /* \"#utility.yul\":8707:8710   */\n      dup11\n        /* \"#utility.yul\":8703:8717   */\n      add\n        /* \"#utility.yul\":8696:8717   */\n      swap10\n      pop\n        /* \"#utility.yul\":8391:8727   */\n      pop\n        /* \"#utility.yul\":8378:8379   */\n      0x01\n        /* \"#utility.yul\":8375:8376   */\n      dup2\n        /* \"#utility.yul\":8371:8380   */\n      add\n        /* \"#utility.yul\":8366:8380   */\n      swap1\n      pop\n        /* \"#utility.yul\":8331:8727   */\n      jump(tag_343)\n    tag_345:\n        /* \"#utility.yul\":8335:8349   */\n      pop\n        /* \"#utility.yul\":8743:8747   */\n      dup3\n        /* \"#utility.yul\":8736:8747   */\n      swap8\n      pop\n        /* \"#utility.yul\":8763:8766   */\n      dup8\n        /* \"#utility.yul\":8756:8766   */\n      swap6\n      pop\n        /* \"#utility.yul\":7925:8772   */\n      pop\n      pop\n      pop\n      pop\n      pop\n        /* \"#utility.yul\":7781:8772   */\n      swap3\n      swap2\n      pop\n      pop\n      jump\t// out\n        /* \"#utility.yul\":8778:9601   */\n    tag_40:\n        /* \"#utility.yul\":9039:9043   */\n      0x00\n        /* \"#utility.yul\":9077:9080   */\n      0x80\n        /* \"#utility.yul\":9066:9075   */\n      dup3\n        /* \"#utility.yul\":9062:9081   */\n      add\n        /* \"#utility.yul\":9054:9081   */\n      swap1\n      pop\n        /* \"#utility.yul\":9091:9156   */\n      tag_349\n        /* \"#utility.yul\":9153:9154   */\n      0x00\n        /* \"#utility.yul\":9142:9151   */\n      dup4\n        /* \"#utility.yul\":9138:9155   */\n      add\n        /* \"#utility.yul\":9129:9135   */\n      dup8\n        /* \"#utility.yul\":9091:9156   */\n      tag_172\n      jump\t// in\n    tag_349:\n        /* \"#utility.yul\":9166:9238   */\n      tag_350\n        /* \"#utility.yul\":9234:9236   */\n      0x20\n        /* \"#utility.yul\":9223:9232   */\n      dup4\n        /* \"#utility.yul\":9219:9237   */\n      add\n        /* \"#utility.yul\":9210:9216   */\n      dup7\n        /* \"#utility.yul\":9166:9238   */\n      tag_173\n      jump\t// in\n    tag_350:\n        /* \"#utility.yul\":9285:9294   */\n      dup2\n        /* \"#utility.yul\":9279:9283   */\n      dup2\n        /* \"#utility.yul\":9275:9295   */\n      sub\n        /* \"#utility.yul\":9270:9272   */\n      0x40\n        /* \"#utility.yul\":9259:9268   */\n      dup4\n        /* \"#utility.yul\":9255:9273   */\n      add\n        /* \"#utility.yul\":9248:9296   */\n      mstore\n        /* \"#utility.yul\":9313:9441   */\n      tag_351\n        /* \"#utility.yul\":9436:9440   */\n      dup2\n        /* \"#utility.yul\":9427:9433   */\n      dup6\n        /* \"#utility.yul\":9313:9441   */\n      tag_193\n      jump\t// in\n    tag_351:\n        /* \"#utility.yul\":9305:9441   */\n      swap1\n      pop\n        /* \"#utility.yul\":9488:9497   */\n      dup2\n        /* \"#utility.yul\":9482:9486   */\n      dup2\n        /* \"#utility.yul\":9478:9498   */\n      sub\n        /* \"#utility.yul\":9473:9475   */\n      0x60\n        /* \"#utility.yul\":9462:9471   */\n      dup4\n        /* \"#utility.yul\":9458:9476   */\n      add\n        /* \"#utility.yul\":9451:9499   */\n      mstore\n        /* \"#utility.yul\":9516:9594   */\n      tag_352\n        /* \"#utility.yul\":9589:9593   */\n      dup2\n        /* \"#utility.yul\":9580:9586   */\n      dup5\n        /* \"#utility.yul\":9516:9594   */\n      tag_178\n      jump\t// in\n    tag_352:\n        /* \"#utility.yul\":9508:9594   */\n      swap1\n      pop\n        /* \"#utility.yul\":8778:9601   */\n      swap6\n      swap5\n      pop\n      pop\n      pop\n      pop\n      pop\n      jump\t// out\n        /* \"#utility.yul\":9607:9721   */\n    tag_194:\n        /* \"#utility.yul\":9674:9680   */\n      0x00\n        /* \"#utility.yul\":9708:9713   */\n      dup2\n        /* \"#utility.yul\":9702:9714   */\n      mload\n        /* \"#utility.yul\":9692:9714   */\n      swap1\n      pop\n        /* \"#utility.yul\":9607:9721   */\n      swap2\n      swap1\n      pop\n      jump\t// out\n        /* \"#utility.yul\":9727:9911   */\n    tag_195:\n        /* \"#utility.yul\":9826:9837   */\n      0x00\n        /* \"#utility.yul\":9860:9866   */\n      dup3\n        /* \"#utility.yul\":9855:9858   */\n      dup3\n        /* \"#utility.yul\":9848:9867   */\n      mstore\n        /* \"#utility.yul\":9900:9904   */\n      0x20\n        /* \"#utility.yul\":9895:9898   */\n      dup3\n        /* \"#utility.yul\":9891:9905   */\n      add\n        /* \"#utility.yul\":9876:9905   */\n      swap1\n      pop\n        /* \"#utility.yul\":9727:9911   */\n      swap3\n      swap2\n      pop\n      pop\n      jump\t// out\n        /* \"#utility.yul\":9917:10049   */\n    tag_196:\n        /* \"#utility.yul\":9984:9988   */\n      0x00\n        /* \"#utility.yul\":10007:10010   */\n      dup2\n        /* \"#utility.yul\":9999:10010   */\n      swap1\n      pop\n        /* \"#utility.yul\":10037:10041   */\n      0x20\n        /* \"#utility.yul\":10032:10035   */\n      dup3\n        /* \"#utility.yul\":10028:10042   */\n      add\n        /* \"#utility.yul\":10020:10042   */\n      swap1\n      pop\n        /* \"#utility.yul\":9917:10049   */\n      swap2\n      swap1\n      pop\n      jump\t// out\n        /* \"#utility.yul\":10055:10163   */\n    tag_197:\n        /* \"#utility.yul\":10132:10156   */\n      tag_357\n        /* \"#utility.yul\":10150:10155   */\n      dup2\n        /* \"#utility.yul\":10132:10156   */\n      tag_163\n      jump\t// in\n    tag_357:\n        /* \"#utility.yul\":10127:10130   */\n      dup3\n        /* \"#utility.yul\":10120:10157   */\n      mstore\n        /* \"#utility.yul\":10055:10163   */\n      pop\n      pop\n      jump\t// out\n        /* \"#utility.yul\":10169:10348   */\n    tag_198:\n        /* \"#utility.yul\":10238:10248   */\n      0x00\n        /* \"#utility.yul\":10259:10305   */\n      tag_359\n        /* \"#utility.yul\":10301:10304   */\n      dup4\n        /* \"#utility.yul\":10293:10299   */\n      dup4\n        /* \"#utility.yul\":10259:10305   */\n      tag_197\n      jump\t// in\n    tag_359:\n        /* \"#utility.yul\":10337:10341   */\n      0x20\n        /* \"#utility.yul\":10332:10335   */\n      dup4\n        /* \"#utility.yul\":10328:10342   */\n      add\n        /* \"#utility.yul\":10314:10342   */\n      swap1\n      pop\n        /* \"#utility.yul\":10169:10348   */\n      swap3\n      swap2\n      pop\n      pop\n      jump\t// out\n        /* \"#utility.yul\":10354:10467   */\n    tag_199:\n        /* \"#utility.yul\":10424:10428   */\n      0x00\n        /* \"#utility.yul\":10456:10460   */\n      0x20\n        /* \"#utility.yul\":10451:10454   */\n      dup3\n        /* \"#utility.yul\":10447:10461   */\n      add\n        /* \"#utility.yul\":10439:10461   */\n      swap1\n      pop\n        /* \"#utility.yul\":10354:10467   */\n      swap2\n      swap1\n      pop\n      jump\t// out\n        /* \"#utility.yul\":10503:11235   */\n    tag_200:\n        /* \"#utility.yul\":10622:10625   */\n      0x00\n        /* \"#utility.yul\":10651:10705   */\n      tag_362\n        /* \"#utility.yul\":10699:10704   */\n      dup3\n        /* \"#utility.yul\":10651:10705   */\n      tag_194\n      jump\t// in\n    tag_362:\n        /* \"#utility.yul\":10721:10807   */\n      tag_363\n        /* \"#utility.yul\":10800:10806   */\n      dup2\n        /* \"#utility.yul\":10795:10798   */\n      dup6\n        /* \"#utility.yul\":10721:10807   */\n      tag_195\n      jump\t// in\n    tag_363:\n        /* \"#utility.yul\":10714:10807   */\n      swap4\n      pop\n        /* \"#utility.yul\":10831:10887   */\n      tag_364\n        /* \"#utility.yul\":10881:10886   */\n      dup4\n        /* \"#utility.yul\":10831:10887   */\n      tag_196\n      jump\t// in\n    tag_364:\n        /* \"#utility.yul\":10910:10917   */\n      dup1\n        /* \"#utility.yul\":10941:10942   */\n      0x00\n        /* \"#utility.yul\":10926:11210   */\n    tag_365:\n        /* \"#utility.yul\":10951:10957   */\n      dup4\n        /* \"#utility.yul\":10948:10949   */\n      dup2\n        /* \"#utility.yul\":10945:10958   */\n      lt\n        /* \"#utility.yul\":10926:11210   */\n      iszero\n      tag_367\n      jumpi\n        /* \"#utility.yul\":11027:11033   */\n      dup2\n        /* \"#utility.yul\":11021:11034   */\n      mload\n        /* \"#utility.yul\":11054:11117   */\n      tag_368\n        /* \"#utility.yul\":11113:11116   */\n      dup9\n        /* \"#utility.yul\":11098:11111   */\n      dup3\n        /* \"#utility.yul\":11054:11117   */\n      tag_198\n      jump\t// in\n    tag_368:\n        /* \"#utility.yul\":11047:11117   */\n      swap8\n      pop\n        /* \"#utility.yul\":11140:11200   */\n      tag_369\n        /* \"#utility.yul\":11193:11199   */\n      dup4\n        /* \"#utility.yul\":11140:11200   */\n      tag_199\n      jump\t// in\n    tag_369:\n        /* \"#utility.yul\":11130:11200   */\n      swap3\n      pop\n        /* \"#utility.yul\":10986:11210   */\n      pop\n        /* \"#utility.yul\":10973:10974   */\n      0x01\n        /* \"#utility.yul\":10970:10971   */\n      dup2\n        /* \"#utility.yul\":10966:10975   */\n      add\n        /* \"#utility.yul\":10961:10975   */\n      swap1\n      pop\n        /* \"#utility.yul\":10926:11210   */\n      jump(tag_365)\n    tag_367:\n        /* \"#utility.yul\":10930:10944   */\n      pop\n        /* \"#utility.yul\":11226:11229   */\n      dup6\n        /* \"#utility.yul\":11219:11229   */\n      swap4\n      pop\n        /* \"#utility.yul\":10627:11235   */\n      pop\n      pop\n      pop\n        /* \"#utility.yul\":10503:11235   */\n      swap3\n      swap2\n      pop\n      pop\n      jump\t// out\n        /* \"#utility.yul\":11241:12116   */\n    tag_45:\n        /* \"#utility.yul\":11530:11534   */\n      0x00\n        /* \"#utility.yul\":11568:11570   */\n      0x60\n        /* \"#utility.yul\":11557:11566   */\n      dup3\n        /* \"#utility.yul\":11553:11571   */\n      add\n        /* \"#utility.yul\":11545:11571   */\n      swap1\n      pop\n        /* \"#utility.yul\":11617:11626   */\n      dup2\n        /* \"#utility.yul\":11611:11615   */\n      dup2\n        /* \"#utility.yul\":11607:11627   */\n      sub\n        /* \"#utility.yul\":11603:11604   */\n      0x00\n        /* \"#utility.yul\":11592:11601   */\n      dup4\n        /* \"#utility.yul\":11588:11605   */\n      add\n        /* \"#utility.yul\":11581:11628   */\n      mstore\n        /* \"#utility.yul\":11645:11723   */\n      tag_371\n        /* \"#utility.yul\":11718:11722   */\n      dup2\n        /* \"#utility.yul\":11709:11715   */\n      dup7\n        /* \"#utility.yul\":11645:11723   */\n      tag_178\n      jump\t// in\n    tag_371:\n        /* \"#utility.yul\":11637:11723   */\n      swap1\n      pop\n        /* \"#utility.yul\":11770:11779   */\n      dup2\n        /* \"#utility.yul\":11764:11768   */\n      dup2\n        /* \"#utility.yul\":11760:11780   */\n      sub\n        /* \"#utility.yul\":11755:11757   */\n      0x20\n        /* \"#utility.yul\":11744:11753   */\n      dup4\n        /* \"#utility.yul\":11740:11758   */\n      add\n        /* \"#utility.yul\":11733:11781   */\n      mstore\n        /* \"#utility.yul\":11798:11926   */\n      tag_372\n        /* \"#utility.yul\":11921:11925   */\n      dup2\n        /* \"#utility.yul\":11912:11918   */\n      dup6\n        /* \"#utility.yul\":11798:11926   */\n      tag_193\n      jump\t// in\n    tag_372:\n        /* \"#utility.yul\":11790:11926   */\n      swap1\n      pop\n        /* \"#utility.yul\":11973:11982   */\n      dup2\n        /* \"#utility.yul\":11967:11971   */\n      dup2\n        /* \"#utility.yul\":11963:11983   */\n      sub\n        /* \"#utility.yul\":11958:11960   */\n      0x40\n        /* \"#utility.yul\":11947:11956   */\n      dup4\n        /* \"#utility.yul\":11943:11961   */\n      add\n        /* \"#utility.yul\":11936:11984   */\n      mstore\n        /* \"#utility.yul\":12001:12109   */\n      tag_373\n        /* \"#utility.yul\":12104:12108   */\n      dup2\n        /* \"#utility.yul\":12095:12101   */\n      dup5\n        /* \"#utility.yul\":12001:12109   */\n      tag_200\n      jump\t// in\n    tag_373:\n        /* \"#utility.yul\":11993:12109   */\n      swap1\n      pop\n        /* \"#utility.yul\":11241:12116   */\n      swap5\n      swap4\n      pop\n      pop\n      pop\n      pop\n      jump\t// out\n        /* \"#utility.yul\":12122:12239   */\n    tag_201:\n        /* \"#utility.yul\":12231:12232   */\n      0x00\n        /* \"#utility.yul\":12228:12229   */\n      dup1\n        /* \"#utility.yul\":12221:12233   */\n      revert\n        /* \"#utility.yul\":12245:12362   */\n    tag_202:\n        /* \"#utility.yul\":12354:12355   */\n      0x00\n        /* \"#utility.yul\":12351:12352   */\n      dup1\n        /* \"#utility.yul\":12344:12356   */\n      revert\n        /* \"#utility.yul\":12368:12485   */\n    tag_203:\n        /* \"#utility.yul\":12477:12478   */\n      0x00\n        /* \"#utility.yul\":12474:12475   */\n      dup1\n        /* \"#utility.yul\":12467:12479   */\n      revert\n        /* \"#utility.yul\":12505:13058   */\n    tag_204:\n        /* \"#utility.yul\":12563:12571   */\n      0x00\n        /* \"#utility.yul\":12573:12579   */\n      dup1\n        /* \"#utility.yul\":12623:12626   */\n      dup4\n        /* \"#utility.yul\":12616:12620   */\n      0x1f\n        /* \"#utility.yul\":12608:12614   */\n      dup5\n        /* \"#utility.yul\":12604:12621   */\n      add\n        /* \"#utility.yul\":12600:12627   */\n      slt\n        /* \"#utility.yul\":12590:12712   */\n      tag_378\n      jumpi\n        /* \"#utility.yul\":12631:12710   */\n      tag_379\n      tag_201\n      jump\t// in\n    tag_379:\n        /* \"#utility.yul\":12590:12712   */\n    tag_378:\n        /* \"#utility.yul\":12744:12750   */\n      dup3\n        /* \"#utility.yul\":12731:12751   */\n      calldataload\n        /* \"#utility.yul\":12721:12751   */\n      swap1\n      pop\n        /* \"#utility.yul\":12774:12792   */\n      0xffffffffffffffff\n        /* \"#utility.yul\":12766:12772   */\n      dup2\n        /* \"#utility.yul\":12763:12793   */\n      gt\n        /* \"#utility.yul\":12760:12877   */\n      iszero\n      tag_380\n      jumpi\n        /* \"#utility.yul\":12796:12875   */\n      tag_381\n      tag_202\n      jump\t// in\n    tag_381:\n        /* \"#utility.yul\":12760:12877   */\n    tag_380:\n        /* \"#utility.yul\":12910:12914   */\n      0x20\n        /* \"#utility.yul\":12902:12908   */\n      dup4\n        /* \"#utility.yul\":12898:12915   */\n      add\n        /* \"#utility.yul\":12886:12915   */\n      swap2\n      pop\n        /* \"#utility.yul\":12964:12967   */\n      dup4\n        /* \"#utility.yul\":12956:12960   */\n      0x01\n        /* \"#utility.yul\":12948:12954   */\n      dup3\n        /* \"#utility.yul\":12944:12961   */\n      mul\n        /* \"#utility.yul\":12934:12942   */\n      dup4\n        /* \"#utility.yul\":12930:12962   */\n      add\n        /* \"#utility.yul\":12927:12968   */\n      gt\n        /* \"#utility.yul\":12924:13052   */\n      iszero\n      tag_382\n      jumpi\n        /* \"#utility.yul\":12971:13050   */\n      tag_383\n      tag_203\n      jump\t// in\n    tag_383:\n        /* \"#utility.yul\":12924:13052   */\n    tag_382:\n        /* \"#utility.yul\":12505:13058   */\n      swap3\n      pop\n      swap3\n      swap1\n      pop\n      jump\t// out\n        /* \"#utility.yul\":13080:13660   */\n    tag_205:\n        /* \"#utility.yul\":13165:13173   */\n      0x00\n        /* \"#utility.yul\":13175:13181   */\n      dup1\n        /* \"#utility.yul\":13225:13228   */\n      dup4\n        /* \"#utility.yul\":13218:13222   */\n      0x1f\n        /* \"#utility.yul\":13210:13216   */\n      dup5\n        /* \"#utility.yul\":13206:13223   */\n      add\n        /* \"#utility.yul\":13202:13229   */\n      slt\n        /* \"#utility.yul\":13192:13314   */\n      tag_385\n      jumpi\n        /* \"#utility.yul\":13233:13312   */\n      tag_386\n      tag_201\n      jump\t// in\n    tag_386:\n        /* \"#utility.yul\":13192:13314   */\n    tag_385:\n        /* \"#utility.yul\":13346:13352   */\n      dup3\n        /* \"#utility.yul\":13333:13353   */\n      calldataload\n        /* \"#utility.yul\":13323:13353   */\n      swap1\n      pop\n        /* \"#utility.yul\":13376:13394   */\n      0xffffffffffffffff\n        /* \"#utility.yul\":13368:13374   */\n      dup2\n        /* \"#utility.yul\":13365:13395   */\n      gt\n        /* \"#utility.yul\":13362:13479   */\n      iszero\n      tag_387\n      jumpi\n        /* \"#utility.yul\":13398:13477   */\n      tag_388\n      tag_202\n      jump\t// in\n    tag_388:\n        /* \"#utility.yul\":13362:13479   */\n    tag_387:\n        /* \"#utility.yul\":13512:13516   */\n      0x20\n        /* \"#utility.yul\":13504:13510   */\n      dup4\n        /* \"#utility.yul\":13500:13517   */\n      add\n        /* \"#utility.yul\":13488:13517   */\n      swap2\n      pop\n        /* \"#utility.yul\":13566:13569   */\n      dup4\n        /* \"#utility.yul\":13558:13562   */\n      0x20\n        /* \"#utility.yul\":13550:13556   */\n      dup3\n        /* \"#utility.yul\":13546:13563   */\n      mul\n        /* \"#utility.yul\":13536:13544   */\n      dup4\n        /* \"#utility.yul\":13532:13564   */\n      add\n        /* \"#utility.yul\":13529:13570   */\n      gt\n        /* \"#utility.yul\":13526:13654   */\n      iszero\n      tag_389\n      jumpi\n        /* \"#utility.yul\":13573:13652   */\n      tag_390\n      tag_203\n      jump\t// in\n    tag_390:\n        /* \"#utility.yul\":13526:13654   */\n    tag_389:\n        /* \"#utility.yul\":13080:13660   */\n      swap3\n      pop\n      swap3\n      swap1\n      pop\n      jump\t// out\n        /* \"#utility.yul\":13666:14739   */\n    tag_54:\n        /* \"#utility.yul\":13794:13800   */\n      0x00\n        /* \"#utility.yul\":13802:13808   */\n      dup1\n        /* \"#utility.yul\":13810:13816   */\n      0x00\n        /* \"#utility.yul\":13818:13824   */\n      dup1\n        /* \"#utility.yul\":13826:13832   */\n      0x00\n        /* \"#utility.yul\":13875:13877   */\n      0x60\n        /* \"#utility.yul\":13863:13872   */\n      dup7\n        /* \"#utility.yul\":13854:13861   */\n      dup9\n        /* \"#utility.yul\":13850:13873   */\n      sub\n        /* \"#utility.yul\":13846:13878   */\n      slt\n        /* \"#utility.yul\":13843:13962   */\n      iszero\n      tag_392\n      jumpi\n        /* \"#utility.yul\":13881:13960   */\n      tag_393\n      tag_161\n      jump\t// in\n    tag_393:\n        /* \"#utility.yul\":13843:13962   */\n    tag_392:\n        /* \"#utility.yul\":14029:14030   */\n      0x00\n        /* \"#utility.yul\":14018:14027   */\n      dup7\n        /* \"#utility.yul\":14014:14031   */\n      add\n        /* \"#utility.yul\":14001:14032   */\n      calldataload\n        /* \"#utility.yul\":14059:14077   */\n      0xffffffffffffffff\n        /* \"#utility.yul\":14051:14057   */\n      dup2\n        /* \"#utility.yul\":14048:14078   */\n      gt\n        /* \"#utility.yul\":14045:14162   */\n      iszero\n      tag_394\n      jumpi\n        /* \"#utility.yul\":14081:14160   */\n      tag_395\n      tag_162\n      jump\t// in\n    tag_395:\n        /* \"#utility.yul\":14045:14162   */\n    tag_394:\n        /* \"#utility.yul\":14194:14259   */\n      tag_396\n        /* \"#utility.yul\":14251:14258   */\n      dup9\n        /* \"#utility.yul\":14242:14248   */\n      dup3\n        /* \"#utility.yul\":14231:14240   */\n      dup10\n        /* \"#utility.yul\":14227:14249   */\n      add\n        /* \"#utility.yul\":14194:14259   */\n      tag_204\n      jump\t// in\n    tag_396:\n        /* \"#utility.yul\":14176:14259   */\n      swap6\n      pop\n      swap6\n      pop\n        /* \"#utility.yul\":13972:14269   */\n      pop\n        /* \"#utility.yul\":14336:14338   */\n      0x20\n        /* \"#utility.yul\":14325:14334   */\n      dup7\n        /* \"#utility.yul\":14321:14339   */\n      add\n        /* \"#utility.yul\":14308:14340   */\n      calldataload\n        /* \"#utility.yul\":14367:14385   */\n      0xffffffffffffffff\n        /* \"#utility.yul\":14359:14365   */\n      dup2\n        /* \"#utility.yul\":14356:14386   */\n      gt\n        /* \"#utility.yul\":14353:14470   */\n      iszero\n      tag_397\n      jumpi\n        /* \"#utility.yul\":14389:14468   */\n      tag_398\n      tag_162\n      jump\t// in\n    tag_398:\n        /* \"#utility.yul\":14353:14470   */\n    tag_397:\n        /* \"#utility.yul\":14502:14594   */\n      tag_399\n        /* \"#utility.yul\":14586:14593   */\n      dup9\n        /* \"#utility.yul\":14577:14583   */\n      dup3\n        /* \"#utility.yul\":14566:14575   */\n      dup10\n        /* \"#utility.yul\":14562:14584   */\n      add\n        /* \"#utility.yul\":14502:14594   */\n      tag_205\n      jump\t// in\n    tag_399:\n        /* \"#utility.yul\":14484:14594   */\n      swap4\n      pop\n      swap4\n      pop\n        /* \"#utility.yul\":14279:14604   */\n      pop\n        /* \"#utility.yul\":14643:14645   */\n      0x40\n        /* \"#utility.yul\":14669:14722   */\n      tag_400\n        /* \"#utility.yul\":14714:14721   */\n      dup9\n        /* \"#utility.yul\":14705:14711   */\n      dup3\n        /* \"#utility.yul\":14694:14703   */\n      dup10\n        /* \"#utility.yul\":14690:14712   */\n      add\n        /* \"#utility.yul\":14669:14722   */\n      tag_165\n      jump\t// in\n    tag_400:\n        /* \"#utility.yul\":14659:14722   */\n      swap2\n      pop\n        /* \"#utility.yul\":14614:14732   */\n      pop\n        /* \"#utility.yul\":13666:14739   */\n      swap3\n      swap6\n      pop\n      swap3\n      swap6\n      swap1\n      swap4\n      pop\n      jump\t// out\n        /* \"#utility.yul\":14745:14863   */\n    tag_206:\n        /* \"#utility.yul\":14832:14856   */\n      tag_402\n        /* \"#utility.yul\":14850:14855   */\n      dup2\n        /* \"#utility.yul\":14832:14856   */\n      tag_180\n      jump\t// in\n    tag_402:\n        /* \"#utility.yul\":14827:14830   */\n      dup3\n        /* \"#utility.yul\":14820:14857   */\n      mstore\n        /* \"#utility.yul\":14745:14863   */\n      pop\n      pop\n      jump\t// out\n        /* \"#utility.yul\":14869:15091   */\n    tag_59:\n        /* \"#utility.yul\":14962:14966   */\n      0x00\n        /* \"#utility.yul\":15000:15002   */\n      0x20\n        /* \"#utility.yul\":14989:14998   */\n      dup3\n        /* \"#utility.yul\":14985:15003   */\n      add\n        /* \"#utility.yul\":14977:15003   */\n      swap1\n      pop\n        /* \"#utility.yul\":15013:15084   */\n      tag_404\n        /* \"#utility.yul\":15081:15082   */\n      0x00\n        /* \"#utility.yul\":15070:15079   */\n      dup4\n        /* \"#utility.yul\":15066:15083   */\n      add\n        /* \"#utility.yul\":15057:15063   */\n      dup5\n        /* \"#utility.yul\":15013:15084   */\n      tag_206\n      jump\t// in\n    tag_404:\n        /* \"#utility.yul\":14869:15091   */\n      swap3\n      swap2\n      pop\n      pop\n      jump\t// out\n        /* \"#utility.yul\":15097:15269   */\n    tag_207:\n        /* \"#utility.yul\":15237:15261   */\n      0x6e6f7420616c696769626c6520746f206368616e676500000000000000000000\n        /* \"#utility.yul\":15233:15234   */\n      0x00\n        /* \"#utility.yul\":15225:15231   */\n      dup3\n        /* \"#utility.yul\":15221:15235   */\n      add\n        /* \"#utility.yul\":15214:15262   */\n      mstore\n        /* \"#utility.yul\":15097:15269   */\n      pop\n      jump\t// out\n        /* \"#utility.yul\":15275:15641   */\n    tag_208:\n        /* \"#utility.yul\":15417:15420   */\n      0x00\n        /* \"#utility.yul\":15438:15505   */\n      tag_407\n        /* \"#utility.yul\":15502:15504   */\n      0x16\n        /* \"#utility.yul\":15497:15500   */\n      dup4\n        /* \"#utility.yul\":15438:15505   */\n      tag_175\n      jump\t// in\n    tag_407:\n        /* \"#utility.yul\":15431:15505   */\n      swap2\n      pop\n        /* \"#utility.yul\":15514:15607   */\n      tag_408\n        /* \"#utility.yul\":15603:15606   */\n      dup3\n        /* \"#utility.yul\":15514:15607   */\n      tag_207\n      jump\t// in\n    tag_408:\n        /* \"#utility.yul\":15632:15634   */\n      0x20\n        /* \"#utility.yul\":15627:15630   */\n      dup3\n        /* \"#utility.yul\":15623:15635   */\n      add\n        /* \"#utility.yul\":15616:15635   */\n      swap1\n      pop\n        /* \"#utility.yul\":15275:15641   */\n      swap2\n      swap1\n      pop\n      jump\t// out\n        /* \"#utility.yul\":15647:16066   */\n    tag_63:\n        /* \"#utility.yul\":15813:15817   */\n      0x00\n        /* \"#utility.yul\":15851:15853   */\n      0x20\n        /* \"#utility.yul\":15840:15849   */\n      dup3\n        /* \"#utility.yul\":15836:15854   */\n      add\n        /* \"#utility.yul\":15828:15854   */\n      swap1\n      pop\n        /* \"#utility.yul\":15900:15909   */\n      dup2\n        /* \"#utility.yul\":15894:15898   */\n      dup2\n        /* \"#utility.yul\":15890:15910   */\n      sub\n        /* \"#utility.yul\":15886:15887   */\n      0x00\n        /* \"#utility.yul\":15875:15884   */\n      dup4\n        /* \"#utility.yul\":15871:15888   */\n      add\n        /* \"#utility.yul\":15864:15911   */\n      mstore\n        /* \"#utility.yul\":15928:16059   */\n      tag_410\n        /* \"#utility.yul\":16054:16058   */\n      dup2\n        /* \"#utility.yul\":15928:16059   */\n      tag_208\n      jump\t// in\n    tag_410:\n        /* \"#utility.yul\":15920:16059   */\n      swap1\n      pop\n        /* \"#utility.yul\":15647:16066   */\n      swap2\n      swap1\n      pop\n      jump\t// out\n        /* \"#utility.yul\":16072:16243   */\n    tag_209:\n        /* \"#utility.yul\":16212:16235   */\n      0x79652074696d65206b616d20686f206a61792067610000000000000000000000\n        /* \"#utility.yul\":16208:16209   */\n      0x00\n        /* \"#utility.yul\":16200:16206   */\n      dup3\n        /* \"#utility.yul\":16196:16210   */\n      add\n        /* \"#utility.yul\":16189:16236   */\n      mstore\n        /* \"#utility.yul\":16072:16243   */\n      pop\n      jump\t// out\n        /* \"#utility.yul\":16249:16615   */\n    tag_210:\n        /* \"#utility.yul\":16391:16394   */\n      0x00\n        /* \"#utility.yul\":16412:16479   */\n      tag_413\n        /* \"#utility.yul\":16476:16478   */\n      0x15\n        /* \"#utility.yul\":16471:16474   */\n      dup4\n        /* \"#utility.yul\":16412:16479   */\n      tag_175\n      jump\t// in\n    tag_413:\n        /* \"#utility.yul\":16405:16479   */\n      swap2\n      pop\n        /* \"#utility.yul\":16488:16581   */\n      tag_414\n        /* \"#utility.yul\":16577:16580   */\n      dup3\n        /* \"#utility.yul\":16488:16581   */\n      tag_209\n      jump\t// in\n    tag_414:\n        /* \"#utility.yul\":16606:16608   */\n      0x20\n        /* \"#utility.yul\":16601:16604   */\n      dup3\n        /* \"#utility.yul\":16597:16609   */\n      add\n        /* \"#utility.yul\":16590:16609   */\n      swap1\n      pop\n        /* \"#utility.yul\":16249:16615   */\n      swap2\n      swap1\n      pop\n      jump\t// out\n        /* \"#utility.yul\":16621:17040   */\n    tag_66:\n        /* \"#utility.yul\":16787:16791   */\n      0x00\n        /* \"#utility.yul\":16825:16827   */\n      0x20\n        /* \"#utility.yul\":16814:16823   */\n      dup3\n        /* \"#utility.yul\":16810:16828   */\n      add\n        /* \"#utility.yul\":16802:16828   */\n      swap1\n      pop\n        /* \"#utility.yul\":16874:16883   */\n      dup2\n        /* \"#utility.yul\":16868:16872   */\n      dup2\n        /* \"#utility.yul\":16864:16884   */\n      sub\n        /* \"#utility.yul\":16860:16861   */\n      0x00\n        /* \"#utility.yul\":16849:16858   */\n      dup4\n        /* \"#utility.yul\":16845:16862   */\n      add\n        /* \"#utility.yul\":16838:16885   */\n      mstore\n        /* \"#utility.yul\":16902:17033   */\n      tag_416\n        /* \"#utility.yul\":17028:17032   */\n      dup2\n        /* \"#utility.yul\":16902:17033   */\n      tag_210\n      jump\t// in\n    tag_416:\n        /* \"#utility.yul\":16894:17033   */\n      swap1\n      pop\n        /* \"#utility.yul\":16621:17040   */\n      swap2\n      swap1\n      pop\n      jump\t// out\n        /* \"#utility.yul\":17046:17226   */\n    tag_211:\n        /* \"#utility.yul\":17094:17171   */\n      0x4e487b7100000000000000000000000000000000000000000000000000000000\n        /* \"#utility.yul\":17091:17092   */\n      0x00\n        /* \"#utility.yul\":17084:17172   */\n      mstore\n        /* \"#utility.yul\":17191:17195   */\n      0x22\n        /* \"#utility.yul\":17188:17189   */\n      0x04\n        /* \"#utility.yul\":17181:17196   */\n      mstore\n        /* \"#utility.yul\":17215:17219   */\n      0x24\n        /* \"#utility.yul\":17212:17213   */\n      0x00\n        /* \"#utility.yul\":17205:17220   */\n      revert\n        /* \"#utility.yul\":17232:17552   */\n    tag_68:\n        /* \"#utility.yul\":17276:17282   */\n      0x00\n        /* \"#utility.yul\":17313:17314   */\n      0x02\n        /* \"#utility.yul\":17307:17311   */\n      dup3\n        /* \"#utility.yul\":17303:17315   */\n      div\n        /* \"#utility.yul\":17293:17315   */\n      swap1\n      pop\n        /* \"#utility.yul\":17360:17361   */\n      0x01\n        /* \"#utility.yul\":17354:17358   */\n      dup3\n        /* \"#utility.yul\":17350:17362   */\n      and\n        /* \"#utility.yul\":17381:17399   */\n      dup1\n        /* \"#utility.yul\":17371:17452   */\n      tag_419\n      jumpi\n        /* \"#utility.yul\":17437:17441   */\n      0x7f\n        /* \"#utility.yul\":17429:17435   */\n      dup3\n        /* \"#utility.yul\":17425:17442   */\n      and\n        /* \"#utility.yul\":17415:17442   */\n      swap2\n      pop\n        /* \"#utility.yul\":17371:17452   */\n    tag_419:\n        /* \"#utility.yul\":17499:17501   */\n      0x20\n        /* \"#utility.yul\":17491:17497   */\n      dup3\n        /* \"#utility.yul\":17488:17502   */\n      lt\n        /* \"#utility.yul\":17468:17486   */\n      dup2\n        /* \"#utility.yul\":17465:17503   */\n      sub\n        /* \"#utility.yul\":17462:17546   */\n      tag_420\n      jumpi\n        /* \"#utility.yul\":17518:17536   */\n      tag_421\n      tag_211\n      jump\t// in\n    tag_421:\n        /* \"#utility.yul\":17462:17546   */\n    tag_420:\n        /* \"#utility.yul\":17283:17552   */\n      pop\n        /* \"#utility.yul\":17232:17552   */\n      swap2\n      swap1\n      pop\n      jump\t// out\n        /* \"#utility.yul\":17558:17738   */\n    tag_95:\n        /* \"#utility.yul\":17606:17683   */\n      0x4e487b7100000000000000000000000000000000000000000000000000000000\n        /* \"#utility.yul\":17603:17604   */\n      0x00\n        /* \"#utility.yul\":17596:17684   */\n      mstore\n        /* \"#utility.yul\":17703:17707   */\n      0x41\n        /* \"#utility.yul\":17700:17701   */\n      0x04\n        /* \"#utility.yul\":17693:17708   */\n      mstore\n        /* \"#utility.yul\":17727:17731   */\n      0x24\n        /* \"#utility.yul\":17724:17725   */\n      0x00\n        /* \"#utility.yul\":17717:17732   */\n      revert\n        /* \"#utility.yul\":17744:17924   */\n    tag_102:\n        /* \"#utility.yul\":17792:17869   */\n      0x4e487b7100000000000000000000000000000000000000000000000000000000\n        /* \"#utility.yul\":17789:17790   */\n      0x00\n        /* \"#utility.yul\":17782:17870   */\n      mstore\n        /* \"#utility.yul\":17889:17893   */\n      0x32\n        /* \"#utility.yul\":17886:17887   */\n      0x04\n        /* \"#utility.yul\":17879:17894   */\n      mstore\n        /* \"#utility.yul\":17913:17917   */\n      0x24\n        /* \"#utility.yul\":17910:17911   */\n      0x00\n        /* \"#utility.yul\":17903:17918   */\n      revert\n        /* \"#utility.yul\":17930:18110   */\n    tag_212:\n        /* \"#utility.yul\":17978:18055   */\n      0x4e487b7100000000000000000000000000000000000000000000000000000000\n        /* \"#utility.yul\":17975:17976   */\n      0x00\n        /* \"#utility.yul\":17968:18056   */\n      mstore\n        /* \"#utility.yul\":18075:18079   */\n      0x11\n        /* \"#utility.yul\":18072:18073   */\n      0x04\n        /* \"#utility.yul\":18065:18080   */\n      mstore\n        /* \"#utility.yul\":18099:18103   */\n      0x24\n        /* \"#utility.yul\":18096:18097   */\n      0x00\n        /* \"#utility.yul\":18089:18104   */\n      revert\n        /* \"#utility.yul\":18116:18283   */\n    tag_104:\n        /* \"#utility.yul\":18153:18156   */\n      0x00\n        /* \"#utility.yul\":18176:18198   */\n      tag_426\n        /* \"#utility.yul\":18192:18197   */\n      dup3\n        /* \"#utility.yul\":18176:18198   */\n      tag_183\n      jump\t// in\n    tag_426:\n        /* \"#utility.yul\":18167:18198   */\n      swap2\n      pop\n        /* \"#utility.yul\":18220:18224   */\n      0xff\n        /* \"#utility.yul\":18213:18218   */\n      dup3\n        /* \"#utility.yul\":18210:18225   */\n      sub\n        /* \"#utility.yul\":18207:18248   */\n      tag_427\n      jumpi\n        /* \"#utility.yul\":18228:18246   */\n      tag_428\n      tag_212\n      jump\t// in\n    tag_428:\n        /* \"#utility.yul\":18207:18248   */\n    tag_427:\n        /* \"#utility.yul\":18275:18276   */\n      0x01\n        /* \"#utility.yul\":18268:18273   */\n      dup3\n        /* \"#utility.yul\":18264:18277   */\n      add\n        /* \"#utility.yul\":18257:18277   */\n      swap1\n      pop\n        /* \"#utility.yul\":18116:18283   */\n      swap2\n      swap1\n      pop\n      jump\t// out\n        /* \"#utility.yul\":18289:18449   */\n    tag_213:\n        /* \"#utility.yul\":18429:18441   */\n      0x6e6f742061637469766500000000000000000000000000000000000000000000\n        /* \"#utility.yul\":18425:18426   */\n      0x00\n        /* \"#utility.yul\":18417:18423   */\n      dup3\n        /* \"#utility.yul\":18413:18427   */\n      add\n        /* \"#utility.yul\":18406:18442   */\n      mstore\n        /* \"#utility.yul\":18289:18449   */\n      pop\n      jump\t// out\n        /* \"#utility.yul\":18455:18821   */\n    tag_214:\n        /* \"#utility.yul\":18597:18600   */\n      0x00\n        /* \"#utility.yul\":18618:18685   */\n      tag_431\n        /* \"#utility.yul\":18682:18684   */\n      0x0a\n        /* \"#utility.yul\":18677:18680   */\n      dup4\n        /* \"#utility.yul\":18618:18685   */\n      tag_175\n      jump\t// in\n    tag_431:\n        /* \"#utility.yul\":18611:18685   */\n      swap2\n      pop\n        /* \"#utility.yul\":18694:18787   */\n      tag_432\n        /* \"#utility.yul\":18783:18786   */\n      dup3\n        /* \"#utility.yul\":18694:18787   */\n      tag_213\n      jump\t// in\n    tag_432:\n        /* \"#utility.yul\":18812:18814   */\n      0x20\n        /* \"#utility.yul\":18807:18810   */\n      dup3\n        /* \"#utility.yul\":18803:18815   */\n      add\n        /* \"#utility.yul\":18796:18815   */\n      swap1\n      pop\n        /* \"#utility.yul\":18455:18821   */\n      swap2\n      swap1\n      pop\n      jump\t// out\n        /* \"#utility.yul\":18827:19246   */\n    tag_116:\n        /* \"#utility.yul\":18993:18997   */\n      0x00\n        /* \"#utility.yul\":19031:19033   */\n      0x20\n        /* \"#utility.yul\":19020:19029   */\n      dup3\n        /* \"#utility.yul\":19016:19034   */\n      add\n        /* \"#utility.yul\":19008:19034   */\n      swap1\n      pop\n        /* \"#utility.yul\":19080:19089   */\n      dup2\n        /* \"#utility.yul\":19074:19078   */\n      dup2\n        /* \"#utility.yul\":19070:19090   */\n      sub\n        /* \"#utility.yul\":19066:19067   */\n      0x00\n        /* \"#utility.yul\":19055:19064   */\n      dup4\n        /* \"#utility.yul\":19051:19068   */\n      add\n        /* \"#utility.yul\":19044:19091   */\n      mstore\n        /* \"#utility.yul\":19108:19239   */\n      tag_434\n        /* \"#utility.yul\":19234:19238   */\n      dup2\n        /* \"#utility.yul\":19108:19239   */\n      tag_214\n      jump\t// in\n    tag_434:\n        /* \"#utility.yul\":19100:19239   */\n      swap1\n      pop\n        /* \"#utility.yul\":18827:19246   */\n      swap2\n      swap1\n      pop\n      jump\t// out\n        /* \"#utility.yul\":19252:19415   */\n    tag_215:\n        /* \"#utility.yul\":19392:19407   */\n      0x74696d6520686164206f76657200000000000000000000000000000000000000\n        /* \"#utility.yul\":19388:19389   */\n      0x00\n        /* \"#utility.yul\":19380:19386   */\n      dup3\n        /* \"#utility.yul\":19376:19390   */\n      add\n        /* \"#utility.yul\":19369:19408   */\n      mstore\n        /* \"#utility.yul\":19252:19415   */\n      pop\n      jump\t// out\n        /* \"#utility.yul\":19421:19787   */\n    tag_216:\n        /* \"#utility.yul\":19563:19566   */\n      0x00\n        /* \"#utility.yul\":19584:19651   */\n      tag_437\n        /* \"#utility.yul\":19648:19650   */\n      0x0d\n        /* \"#utility.yul\":19643:19646   */\n      dup4\n        /* \"#utility.yul\":19584:19651   */\n      tag_175\n      jump\t// in\n    tag_437:\n        /* \"#utility.yul\":19577:19651   */\n      swap2\n      pop\n        /* \"#utility.yul\":19660:19753   */\n      tag_438\n        /* \"#utility.yul\":19749:19752   */\n      dup3\n        /* \"#utility.yul\":19660:19753   */\n      tag_215\n      jump\t// in\n    tag_438:\n        /* \"#utility.yul\":19778:19780   */\n      0x20\n        /* \"#utility.yul\":19773:19776   */\n      dup3\n        /* \"#utility.yul\":19769:19781   */\n      add\n        /* \"#utility.yul\":19762:19781   */\n      swap1\n      pop\n        /* \"#utility.yul\":19421:19787   */\n      swap2\n      swap1\n      pop\n      jump\t// out\n        /* \"#utility.yul\":19793:20212   */\n    tag_119:\n        /* \"#utility.yul\":19959:19963   */\n      0x00\n        /* \"#utility.yul\":19997:19999   */\n      0x20\n        /* \"#utility.yul\":19986:19995   */\n      dup3\n        /* \"#utility.yul\":19982:20000   */\n      add\n        /* \"#utility.yul\":19974:20000   */\n      swap1\n      pop\n        /* \"#utility.yul\":20046:20055   */\n      dup2\n        /* \"#utility.yul\":20040:20044   */\n      dup2\n        /* \"#utility.yul\":20036:20056   */\n      sub\n        /* \"#utility.yul\":20032:20033   */\n      0x00\n        /* \"#utility.yul\":20021:20030   */\n      dup4\n        /* \"#utility.yul\":20017:20034   */\n      add\n        /* \"#utility.yul\":20010:20057   */\n      mstore\n        /* \"#utility.yul\":20074:20205   */\n      tag_440\n        /* \"#utility.yul\":20200:20204   */\n      dup2\n        /* \"#utility.yul\":20074:20205   */\n      tag_216\n      jump\t// in\n    tag_440:\n        /* \"#utility.yul\":20066:20205   */\n      swap1\n      pop\n        /* \"#utility.yul\":19793:20212   */\n      swap2\n      swap1\n      pop\n      jump\t// out\n        /* \"#utility.yul\":20218:20445   */\n    tag_217:\n        /* \"#utility.yul\":20358:20392   */\n      0x796f757220766f746520666f72207468697320706f6c6c20686173206265656e\n        /* \"#utility.yul\":20354:20355   */\n      0x00\n        /* \"#utility.yul\":20346:20352   */\n      dup3\n        /* \"#utility.yul\":20342:20356   */\n      add\n        /* \"#utility.yul\":20335:20393   */\n      mstore\n        /* \"#utility.yul\":20427:20437   */\n      0x206d61726b656420000000000000000000000000000000000000000000000000\n        /* \"#utility.yul\":20422:20424   */\n      0x20\n        /* \"#utility.yul\":20414:20420   */\n      dup3\n        /* \"#utility.yul\":20410:20425   */\n      add\n        /* \"#utility.yul\":20403:20438   */\n      mstore\n        /* \"#utility.yul\":20218:20445   */\n      pop\n      jump\t// out\n        /* \"#utility.yul\":20451:20817   */\n    tag_218:\n        /* \"#utility.yul\":20593:20596   */\n      0x00\n        /* \"#utility.yul\":20614:20681   */\n      tag_443\n        /* \"#utility.yul\":20678:20680   */\n      0x28\n        /* \"#utility.yul\":20673:20676   */\n      dup4\n        /* \"#utility.yul\":20614:20681   */\n      tag_175\n      jump\t// in\n    tag_443:\n        /* \"#utility.yul\":20607:20681   */\n      swap2\n      pop\n        /* \"#utility.yul\":20690:20783   */\n      tag_444\n        /* \"#utility.yul\":20779:20782   */\n      dup3\n        /* \"#utility.yul\":20690:20783   */\n      tag_217\n      jump\t// in\n    tag_444:\n        /* \"#utility.yul\":20808:20810   */\n      0x40\n        /* \"#utility.yul\":20803:20806   */\n      dup3\n        /* \"#utility.yul\":20799:20811   */\n      add\n        /* \"#utility.yul\":20792:20811   */\n      swap1\n      pop\n        /* \"#utility.yul\":20451:20817   */\n      swap2\n      swap1\n      pop\n      jump\t// out\n        /* \"#utility.yul\":20823:21242   */\n    tag_122:\n        /* \"#utility.yul\":20989:20993   */\n      0x00\n        /* \"#utility.yul\":21027:21029   */\n      0x20\n        /* \"#utility.yul\":21016:21025   */\n      dup3\n        /* \"#utility.yul\":21012:21030   */\n      add\n        /* \"#utility.yul\":21004:21030   */\n      swap1\n      pop\n        /* \"#utility.yul\":21076:21085   */\n      dup2\n        /* \"#utility.yul\":21070:21074   */\n      dup2\n        /* \"#utility.yul\":21066:21086   */\n      sub\n        /* \"#utility.yul\":21062:21063   */\n      0x00\n        /* \"#utility.yul\":21051:21060   */\n      dup4\n        /* \"#utility.yul\":21047:21064   */\n      add\n        /* \"#utility.yul\":21040:21087   */\n      mstore\n        /* \"#utility.yul\":21104:21235   */\n      tag_446\n        /* \"#utility.yul\":21230:21234   */\n      dup2\n        /* \"#utility.yul\":21104:21235   */\n      tag_218\n      jump\t// in\n    tag_446:\n        /* \"#utility.yul\":21096:21235   */\n      swap1\n      pop\n        /* \"#utility.yul\":20823:21242   */\n      swap2\n      swap1\n      pop\n      jump\t// out\n        /* \"#utility.yul\":21248:21481   */\n    tag_124:\n        /* \"#utility.yul\":21287:21290   */\n      0x00\n        /* \"#utility.yul\":21310:21334   */\n      tag_448\n        /* \"#utility.yul\":21328:21333   */\n      dup3\n        /* \"#utility.yul\":21310:21334   */\n      tag_163\n      jump\t// in\n    tag_448:\n        /* \"#utility.yul\":21301:21334   */\n      swap2\n      pop\n        /* \"#utility.yul\":21356:21422   */\n      0xffffffffffffffffffffffffffffffffffffffffffffffffffffffffffffffff\n        /* \"#utility.yul\":21349:21354   */\n      dup3\n        /* \"#utility.yul\":21346:21423   */\n      sub\n        /* \"#utility.yul\":21343:21446   */\n      tag_449\n      jumpi\n        /* \"#utility.yul\":21426:21444   */\n      tag_450\n      tag_212\n      jump\t// in\n    tag_450:\n        /* \"#utility.yul\":21343:21446   */\n    tag_449:\n        /* \"#utility.yul\":21473:21474   */\n      0x01\n        /* \"#utility.yul\":21466:21471   */\n      dup3\n        /* \"#utility.yul\":21462:21475   */\n      add\n        /* \"#utility.yul\":21455:21475   */\n      swap1\n      pop\n        /* \"#utility.yul\":21248:21481   */\n      swap2\n      swap1\n      pop\n      jump\t// out\n        /* \"#utility.yul\":21487:21654   */\n    tag_219:\n        /* \"#utility.yul\":21627:21646   */\n      0x796f7520617265206e6f742061646d696e000000000000000000000000000000\n        /* \"#utility.yul\":21623:21624   */\n      0x00\n        /* \"#utility.yul\":21615:21621   */\n      dup3\n        /* \"#utility.yul\":21611:21625   */\n      add\n        /* \"#utility.yul\":21604:21647   */\n      mstore\n        /* \"#utility.yul\":21487:21654   */\n      pop\n      jump\t// out\n        /* \"#utility.yul\":21660:22026   */\n    tag_220:\n        /* \"#utility.yul\":21802:21805   */\n      0x00\n        /* \"#utility.yul\":21823:21890   */\n      tag_453\n        /* \"#utility.yul\":21887:21889   */\n      0x11\n        /* \"#utility.yul\":21882:21885   */\n      dup4\n        /* \"#utility.yul\":21823:21890   */\n      tag_175\n      jump\t// in\n    tag_453:\n        /* \"#utility.yul\":21816:21890   */\n      swap2\n      pop\n        /* \"#utility.yul\":21899:21992   */\n      tag_454\n        /* \"#utility.yul\":21988:21991   */\n      dup3\n        /* \"#utility.yul\":21899:21992   */\n      tag_219\n      jump\t// in\n    tag_454:\n        /* \"#utility.yul\":22017:22019   */\n      0x20\n        /* \"#utility.yul\":22012:22015   */\n      dup3\n        /* \"#utility.yul\":22008:22020   */\n      add\n        /* \"#utility.yul\":22001:22020   */\n      swap1\n      pop\n        /* \"#utility.yul\":21660:22026   */\n      swap2\n      swap1\n      pop\n      jump\t// out\n        /* \"#utility.yul\":22032:22451   */\n    tag_128:\n        /* \"#utility.yul\":22198:22202   */\n      0x00\n        /* \"#utility.yul\":22236:22238   */\n      0x20\n        /* \"#utility.yul\":22225:22234   */\n      dup3\n        /* \"#utility.yul\":22221:22239   */\n      add\n        /* \"#utility.yul\":22213:22239   */\n      swap1\n      pop\n        /* \"#utility.yul\":22285:22294   */\n      dup2\n        /* \"#utility.yul\":22279:22283   */\n      dup2\n        /* \"#utility.yul\":22275:22295   */\n      sub\n        /* \"#utility.yul\":22271:22272   */\n      0x00\n        /* \"#utility.yul\":22260:22269   */\n      dup4\n        /* \"#utility.yul\":22256:22273   */\n      add\n        /* \"#utility.yul\":22249:22296   */\n      mstore\n        /* \"#utility.yul\":22313:22444   */\n      tag_456\n        /* \"#utility.yul\":22439:22443   */\n      dup2\n        /* \"#utility.yul\":22313:22444   */\n      tag_220\n      jump\t// in\n    tag_456:\n        /* \"#utility.yul\":22305:22444   */\n      swap1\n      pop\n        /* \"#utility.yul\":22032:22451   */\n      swap2\n      swap1\n      pop\n      jump\t// out\n        /* \"#utility.yul\":22457:22631   */\n    tag_221:\n        /* \"#utility.yul\":22597:22623   */\n      0x6d757374206d6f7265207468616e2032206f7074696f6e730000000000000000\n        /* \"#utility.yul\":22593:22594   */\n      0x00\n        /* \"#utility.yul\":22585:22591   */\n      dup3\n        /* \"#utility.yul\":22581:22595   */\n      add\n        /* \"#utility.yul\":22574:22624   */\n      mstore\n        /* \"#utility.yul\":22457:22631   */\n      pop\n      jump\t// out\n        /* \"#utility.yul\":22637:23003   */\n    tag_222:\n        /* \"#utility.yul\":22779:22782   */\n      0x00\n        /* \"#utility.yul\":22800:22867   */\n      tag_459\n        /* \"#utility.yul\":22864:22866   */\n      0x18\n        /* \"#utility.yul\":22859:22862   */\n      dup4\n        /* \"#utility.yul\":22800:22867   */\n      tag_175\n      jump\t// in\n    tag_459:\n        /* \"#utility.yul\":22793:22867   */\n      swap2\n      pop\n        /* \"#utility.yul\":22876:22969   */\n      tag_460\n        /* \"#utility.yul\":22965:22968   */\n      dup3\n        /* \"#utility.yul\":22876:22969   */\n      tag_221\n      jump\t// in\n    tag_460:\n        /* \"#utility.yul\":22994:22996   */\n      0x20\n        /* \"#utility.yul\":22989:22992   */\n      dup3\n        /* \"#utility.yul\":22985:22997   */\n      add\n        /* \"#utility.yul\":22978:22997   */\n      swap1\n      pop\n        /* \"#utility.yul\":22637:23003   */\n      swap2\n      swap1\n      pop\n      jump\t// out\n        /* \"#utility.yul\":23009:23428   */\n    tag_131:\n        /* \"#utility.yul\":23175:23179   */\n      0x00\n        /* \"#utility.yul\":23213:23215   */\n      0x20\n        /* \"#utility.yul\":23202:23211   */\n      dup3\n        /* \"#utility.yul\":23198:23216   */\n      add\n        /* \"#utility.yul\":23190:23216   */\n      swap1\n      pop\n        /* \"#utility.yul\":23262:23271   */\n      dup2\n        /* \"#utility.yul\":23256:23260   */\n      dup2\n        /* \"#utility.yul\":23252:23272   */\n      sub\n        /* \"#utility.yul\":23248:23249   */\n      0x00\n        /* \"#utility.yul\":23237:23246   */\n      dup4\n        /* \"#utility.yul\":23233:23250   */\n      add\n        /* \"#utility.yul\":23226:23273   */\n      mstore\n        /* \"#utility.yul\":23290:23421   */\n      tag_462\n        /* \"#utility.yul\":23416:23420   */\n      dup2\n        /* \"#utility.yul\":23290:23421   */\n      tag_222\n      jump\t// in\n    tag_462:\n        /* \"#utility.yul\":23282:23421   */\n      swap1\n      pop\n        /* \"#utility.yul\":23009:23428   */\n      swap2\n      swap1\n      pop\n      jump\t// out\n        /* \"#utility.yul\":23434:23844   */\n    tag_133:\n        /* \"#utility.yul\":23474:23481   */\n      0x00\n        /* \"#utility.yul\":23497:23517   */\n      tag_464\n        /* \"#utility.yul\":23515:23516   */\n      dup3\n        /* \"#utility.yul\":23497:23517   */\n      tag_163\n      jump\t// in\n    tag_464:\n        /* \"#utility.yul\":23492:23517   */\n      swap2\n      pop\n        /* \"#utility.yul\":23531:23551   */\n      tag_465\n        /* \"#utility.yul\":23549:23550   */\n      dup4\n        /* \"#utility.yul\":23531:23551   */\n      tag_163\n      jump\t// in\n    tag_465:\n        /* \"#utility.yul\":23526:23551   */\n      swap3\n      pop\n        /* \"#utility.yul\":23586:23587   */\n      dup3\n        /* \"#utility.yul\":23583:23584   */\n      dup3\n        /* \"#utility.yul\":23579:23588   */\n      mul\n        /* \"#utility.yul\":23608:23638   */\n      tag_466\n        /* \"#utility.yul\":23626:23637   */\n      dup2\n        /* \"#utility.yul\":23608:23638   */\n      tag_163\n      jump\t// in\n    tag_466:\n        /* \"#utility.yul\":23597:23638   */\n      swap2\n      pop\n        /* \"#utility.yul\":23787:23788   */\n      dup3\n        /* \"#utility.yul\":23778:23785   */\n      dup3\n        /* \"#utility.yul\":23774:23789   */\n      div\n        /* \"#utility.yul\":23771:23772   */\n      dup5\n        /* \"#utility.yul\":23768:23790   */\n      eq\n        /* \"#utility.yul\":23748:23749   */\n      dup4\n        /* \"#utility.yul\":23741:23750   */\n      iszero\n        /* \"#utility.yul\":23721:23804   */\n      or\n        /* \"#utility.yul\":23698:23837   */\n      tag_467\n      jumpi\n        /* \"#utility.yul\":23817:23835   */\n      tag_468\n      tag_212\n      jump\t// in\n    tag_468:\n        /* \"#utility.yul\":23698:23837   */\n    tag_467:\n        /* \"#utility.yul\":23482:23844   */\n      pop\n        /* \"#utility.yul\":23434:23844   */\n      swap3\n      swap2\n      pop\n      pop\n      jump\t// out\n        /* \"#utility.yul\":23850:24041   */\n    tag_135:\n        /* \"#utility.yul\":23890:23893   */\n      0x00\n        /* \"#utility.yul\":23909:23929   */\n      tag_470\n        /* \"#utility.yul\":23927:23928   */\n      dup3\n        /* \"#utility.yul\":23909:23929   */\n      tag_163\n      jump\t// in\n    tag_470:\n        /* \"#utility.yul\":23904:23929   */\n      swap2\n      pop\n        /* \"#utility.yul\":23943:23963   */\n      tag_471\n        /* \"#utility.yul\":23961:23962   */\n      dup4\n        /* \"#utility.yul\":23943:23963   */\n      tag_163\n      jump\t// in\n    tag_471:\n        /* \"#utility.yul\":23938:23963   */\n      swap3\n      pop\n        /* \"#utility.yul\":23986:23987   */\n      dup3\n        /* \"#utility.yul\":23983:23984   */\n      dup3\n        /* \"#utility.yul\":23979:23988   */\n      add\n        /* \"#utility.yul\":23972:23988   */\n      swap1\n      pop\n        /* \"#utility.yul\":24007:24010   */\n      dup1\n        /* \"#utility.yul\":24004:24005   */\n      dup3\n        /* \"#utility.yul\":24001:24011   */\n      gt\n        /* \"#utility.yul\":23998:24034   */\n      iszero\n      tag_472\n      jumpi\n        /* \"#utility.yul\":24014:24032   */\n      tag_473\n      tag_212\n      jump\t// in\n    tag_473:\n        /* \"#utility.yul\":23998:24034   */\n    tag_472:\n        /* \"#utility.yul\":23850:24041   */\n      swap3\n      swap2\n      pop\n      pop\n      jump\t// out\n        /* \"#utility.yul\":24047:24328   */\n    tag_223:\n        /* \"#utility.yul\":24130:24157   */\n      tag_475\n        /* \"#utility.yul\":24152:24156   */\n      dup3\n        /* \"#utility.yul\":24130:24157   */\n      tag_177\n      jump\t// in\n    tag_475:\n        /* \"#utility.yul\":24122:24128   */\n      dup2\n        /* \"#utility.yul\":24118:24158   */\n      add\n        /* \"#utility.yul\":24260:24266   */\n      dup2\n        /* \"#utility.yul\":24248:24258   */\n      dup2\n        /* \"#utility.yul\":24245:24267   */\n      lt\n        /* \"#utility.yul\":24224:24242   */\n      0xffffffffffffffff\n        /* \"#utility.yul\":24212:24222   */\n      dup3\n        /* \"#utility.yul\":24209:24243   */\n      gt\n        /* \"#utility.yul\":24206:24268   */\n      or\n        /* \"#utility.yul\":24203:24291   */\n      iszero\n      tag_476\n      jumpi\n        /* \"#utility.yul\":24271:24289   */\n      tag_477\n      tag_95\n      jump\t// in\n    tag_477:\n        /* \"#utility.yul\":24203:24291   */\n    tag_476:\n        /* \"#utility.yul\":24311:24321   */\n      dup1\n        /* \"#utility.yul\":24307:24309   */\n      0x40\n        /* \"#utility.yul\":24300:24322   */\n      mstore\n        /* \"#utility.yul\":24090:24328   */\n      pop\n        /* \"#utility.yul\":24047:24328   */\n      pop\n      pop\n      jump\t// out\n        /* \"#utility.yul\":24334:24463   */\n    tag_224:\n        /* \"#utility.yul\":24368:24374   */\n      0x00\n        /* \"#utility.yul\":24395:24415   */\n      tag_479\n      tag_160\n      jump\t// in\n    tag_479:\n        /* \"#utility.yul\":24385:24415   */\n      swap1\n      pop\n        /* \"#utility.yul\":24424:24457   */\n      tag_480\n        /* \"#utility.yul\":24452:24456   */\n      dup3\n        /* \"#utility.yul\":24444:24450   */\n      dup3\n        /* \"#utility.yul\":24424:24457   */\n      tag_223\n      jump\t// in\n    tag_480:\n        /* \"#utility.yul\":24334:24463   */\n      swap2\n      swap1\n      pop\n      jump\t// out\n        /* \"#utility.yul\":24469:24790   */\n    tag_225:\n        /* \"#utility.yul\":24556:24560   */\n      0x00\n        /* \"#utility.yul\":24646:24664   */\n      0xffffffffffffffff\n        /* \"#utility.yul\":24638:24644   */\n      dup3\n        /* \"#utility.yul\":24635:24665   */\n      gt\n        /* \"#utility.yul\":24632:24688   */\n      iszero\n      tag_482\n      jumpi\n        /* \"#utility.yul\":24668:24686   */\n      tag_483\n      tag_95\n      jump\t// in\n    tag_483:\n        /* \"#utility.yul\":24632:24688   */\n    tag_482:\n        /* \"#utility.yul\":24718:24722   */\n      0x20\n        /* \"#utility.yul\":24710:24716   */\n      dup3\n        /* \"#utility.yul\":24706:24723   */\n      mul\n        /* \"#utility.yul\":24698:24723   */\n      swap1\n      pop\n        /* \"#utility.yul\":24778:24782   */\n      0x20\n        /* \"#utility.yul\":24772:24776   */\n      dup2\n        /* \"#utility.yul\":24768:24783   */\n      add\n        /* \"#utility.yul\":24760:24783   */\n      swap1\n      pop\n        /* \"#utility.yul\":24469:24790   */\n      swap2\n      swap1\n      pop\n      jump\t// out\n        /* \"#utility.yul\":24796:24913   */\n    tag_226:\n        /* \"#utility.yul\":24905:24906   */\n      0x00\n        /* \"#utility.yul\":24902:24903   */\n      dup1\n        /* \"#utility.yul\":24895:24907   */\n      revert\n        /* \"#utility.yul\":24919:25227   */\n    tag_227:\n        /* \"#utility.yul\":24981:24985   */\n      0x00\n        /* \"#utility.yul\":25071:25089   */\n      0xffffffffffffffff\n        /* \"#utility.yul\":25063:25069   */\n      dup3\n        /* \"#utility.yul\":25060:25090   */\n      gt\n        /* \"#utility.yul\":25057:25113   */\n      iszero\n      tag_486\n      jumpi\n        /* \"#utility.yul\":25093:25111   */\n      tag_487\n      tag_95\n      jump\t// in\n    tag_487:\n        /* \"#utility.yul\":25057:25113   */\n    tag_486:\n        /* \"#utility.yul\":25131:25160   */\n      tag_488\n        /* \"#utility.yul\":25153:25159   */\n      dup3\n        /* \"#utility.yul\":25131:25160   */\n      tag_177\n      jump\t// in\n    tag_488:\n        /* \"#utility.yul\":25123:25160   */\n      swap1\n      pop\n        /* \"#utility.yul\":25215:25219   */\n      0x20\n        /* \"#utility.yul\":25209:25213   */\n      dup2\n        /* \"#utility.yul\":25205:25220   */\n      add\n        /* \"#utility.yul\":25197:25220   */\n      swap1\n      pop\n        /* \"#utility.yul\":24919:25227   */\n      swap2\n      swap1\n      pop\n      jump\t// out\n        /* \"#utility.yul\":25233:25379   */\n    tag_228:\n        /* \"#utility.yul\":25330:25336   */\n      dup3\n        /* \"#utility.yul\":25325:25328   */\n      dup2\n        /* \"#utility.yul\":25320:25323   */\n      dup4\n        /* \"#utility.yul\":25307:25337   */\n      calldatacopy\n        /* \"#utility.yul\":25371:25372   */\n      0x00\n        /* \"#utility.yul\":25362:25368   */\n      dup4\n        /* \"#utility.yul\":25357:25360   */\n      dup4\n        /* \"#utility.yul\":25353:25369   */\n      add\n        /* \"#utility.yul\":25346:25373   */\n      mstore\n        /* \"#utility.yul\":25233:25379   */\n      pop\n      pop\n      pop\n      jump\t// out\n        /* \"#utility.yul\":25385:25810   */\n    tag_229:\n        /* \"#utility.yul\":25463:25468   */\n      0x00\n        /* \"#utility.yul\":25488:25554   */\n      tag_491\n        /* \"#utility.yul\":25504:25553   */\n      tag_492\n        /* \"#utility.yul\":25546:25552   */\n      dup5\n        /* \"#utility.yul\":25504:25553   */\n      tag_227\n      jump\t// in\n    tag_492:\n        /* \"#utility.yul\":25488:25554   */\n      tag_224\n      jump\t// in\n    tag_491:\n        /* \"#utility.yul\":25479:25554   */\n      swap1\n      pop\n        /* \"#utility.yul\":25577:25583   */\n      dup3\n        /* \"#utility.yul\":25570:25575   */\n      dup2\n        /* \"#utility.yul\":25563:25584   */\n      mstore\n        /* \"#utility.yul\":25615:25619   */\n      0x20\n        /* \"#utility.yul\":25608:25613   */\n      dup2\n        /* \"#utility.yul\":25604:25620   */\n      add\n        /* \"#utility.yul\":25653:25656   */\n      dup5\n        /* \"#utility.yul\":25644:25650   */\n      dup5\n        /* \"#utility.yul\":25639:25642   */\n      dup5\n        /* \"#utility.yul\":25635:25651   */\n      add\n        /* \"#utility.yul\":25632:25657   */\n      gt\n        /* \"#utility.yul\":25629:25741   */\n      iszero\n      tag_493\n      jumpi\n        /* \"#utility.yul\":25660:25739   */\n      tag_494\n      tag_226\n      jump\t// in\n    tag_494:\n        /* \"#utility.yul\":25629:25741   */\n    tag_493:\n        /* \"#utility.yul\":25750:25804   */\n      tag_495\n        /* \"#utility.yul\":25797:25803   */\n      dup5\n        /* \"#utility.yul\":25792:25795   */\n      dup3\n        /* \"#utility.yul\":25787:25790   */\n      dup6\n        /* \"#utility.yul\":25750:25804   */\n      tag_228\n      jump\t// in\n    tag_495:\n        /* \"#utility.yul\":25469:25810   */\n      pop\n        /* \"#utility.yul\":25385:25810   */\n      swap4\n      swap3\n      pop\n      pop\n      pop\n      jump\t// out\n        /* \"#utility.yul\":25830:26170   */\n    tag_230:\n        /* \"#utility.yul\":25886:25891   */\n      0x00\n        /* \"#utility.yul\":25935:25938   */\n      dup3\n        /* \"#utility.yul\":25928:25932   */\n      0x1f\n        /* \"#utility.yul\":25920:25926   */\n      dup4\n        /* \"#utility.yul\":25916:25933   */\n      add\n        /* \"#utility.yul\":25912:25939   */\n      slt\n        /* \"#utility.yul\":25902:26024   */\n      tag_497\n      jumpi\n        /* \"#utility.yul\":25943:26022   */\n      tag_498\n      tag_201\n      jump\t// in\n    tag_498:\n        /* \"#utility.yul\":25902:26024   */\n    tag_497:\n        /* \"#utility.yul\":26060:26066   */\n      dup2\n        /* \"#utility.yul\":26047:26067   */\n      calldataload\n        /* \"#utility.yul\":26085:26164   */\n      tag_499\n        /* \"#utility.yul\":26160:26163   */\n      dup5\n        /* \"#utility.yul\":26152:26158   */\n      dup3\n        /* \"#utility.yul\":26145:26149   */\n      0x20\n        /* \"#utility.yul\":26137:26143   */\n      dup7\n        /* \"#utility.yul\":26133:26150   */\n      add\n        /* \"#utility.yul\":26085:26164   */\n      tag_229\n      jump\t// in\n    tag_499:\n        /* \"#utility.yul\":26076:26164   */\n      swap2\n      pop\n        /* \"#utility.yul\":25892:26170   */\n      pop\n        /* \"#utility.yul\":25830:26170   */\n      swap3\n      swap2\n      pop\n      pop\n      jump\t// out\n        /* \"#utility.yul\":26192:27137   */\n    tag_231:\n        /* \"#utility.yul\":26298:26303   */\n      0x00\n        /* \"#utility.yul\":26323:26414   */\n      tag_501\n        /* \"#utility.yul\":26339:26413   */\n      tag_502\n        /* \"#utility.yul\":26406:26412   */\n      dup5\n        /* \"#utility.yul\":26339:26413   */\n      tag_225\n      jump\t// in\n    tag_502:\n        /* \"#utility.yul\":26323:26414   */\n      tag_224\n      jump\t// in\n    tag_501:\n        /* \"#utility.yul\":26314:26414   */\n      swap1\n      pop\n        /* \"#utility.yul\":26434:26439   */\n      dup1\n        /* \"#utility.yul\":26463:26469   */\n      dup4\n        /* \"#utility.yul\":26456:26461   */\n      dup3\n        /* \"#utility.yul\":26449:26470   */\n      mstore\n        /* \"#utility.yul\":26497:26501   */\n      0x20\n        /* \"#utility.yul\":26490:26495   */\n      dup3\n        /* \"#utility.yul\":26486:26502   */\n      add\n        /* \"#utility.yul\":26479:26502   */\n      swap1\n      pop\n        /* \"#utility.yul\":26550:26554   */\n      0x20\n        /* \"#utility.yul\":26542:26548   */\n      dup5\n        /* \"#utility.yul\":26538:26555   */\n      mul\n        /* \"#utility.yul\":26530:26536   */\n      dup4\n        /* \"#utility.yul\":26526:26556   */\n      add\n        /* \"#utility.yul\":26579:26582   */\n      dup6\n        /* \"#utility.yul\":26571:26577   */\n      dup2\n        /* \"#utility.yul\":26568:26583   */\n      gt\n        /* \"#utility.yul\":26565:26687   */\n      iszero\n      tag_503\n      jumpi\n        /* \"#utility.yul\":26598:26677   */\n      tag_504\n      tag_203\n      jump\t// in\n    tag_504:\n        /* \"#utility.yul\":26565:26687   */\n    tag_503:\n        /* \"#utility.yul\":26713:26719   */\n      dup4\n        /* \"#utility.yul\":26696:27131   */\n    tag_505:\n        /* \"#utility.yul\":26730:26736   */\n      dup2\n        /* \"#utility.yul\":26725:26728   */\n      dup2\n        /* \"#utility.yul\":26722:26737   */\n      lt\n        /* \"#utility.yul\":26696:27131   */\n      iszero\n      tag_507\n      jumpi\n        /* \"#utility.yul\":26819:26822   */\n      dup1\n        /* \"#utility.yul\":26806:26823   */\n      calldataload\n        /* \"#utility.yul\":26855:26873   */\n      0xffffffffffffffff\n        /* \"#utility.yul\":26842:26853   */\n      dup2\n        /* \"#utility.yul\":26839:26874   */\n      gt\n        /* \"#utility.yul\":26836:26958   */\n      iszero\n      tag_508\n      jumpi\n        /* \"#utility.yul\":26877:26956   */\n      tag_509\n      tag_201\n      jump\t// in\n    tag_509:\n        /* \"#utility.yul\":26836:26958   */\n    tag_508:\n        /* \"#utility.yul\":27001:27012   */\n      dup1\n        /* \"#utility.yul\":26993:26999   */\n      dup7\n        /* \"#utility.yul\":26989:27013   */\n      add\n        /* \"#utility.yul\":27039:27086   */\n      tag_510\n        /* \"#utility.yul\":27082:27085   */\n      dup10\n        /* \"#utility.yul\":27070:27080   */\n      dup3\n        /* \"#utility.yul\":27039:27086   */\n      tag_230\n      jump\t// in\n    tag_510:\n        /* \"#utility.yul\":27034:27037   */\n      dup6\n        /* \"#utility.yul\":27027:27087   */\n      mstore\n        /* \"#utility.yul\":27116:27120   */\n      0x20\n        /* \"#utility.yul\":27111:27114   */\n      dup6\n        /* \"#utility.yul\":27107:27121   */\n      add\n        /* \"#utility.yul\":27100:27121   */\n      swap5\n      pop\n        /* \"#utility.yul\":26772:27131   */\n      pop\n      pop\n        /* \"#utility.yul\":26756:26760   */\n      0x20\n        /* \"#utility.yul\":26751:26754   */\n      dup2\n        /* \"#utility.yul\":26747:26761   */\n      add\n        /* \"#utility.yul\":26740:26761   */\n      swap1\n      pop\n        /* \"#utility.yul\":26696:27131   */\n      jump(tag_505)\n    tag_507:\n        /* \"#utility.yul\":26700:26721   */\n      pop\n        /* \"#utility.yul\":26304:27137   */\n      pop\n      pop\n        /* \"#utility.yul\":26192:27137   */\n      swap4\n      swap3\n      pop\n      pop\n      pop\n      jump\t// out\n        /* \"#utility.yul\":27143:27490   */\n    tag_137:\n        /* \"#utility.yul\":27281:27290   */\n      0x00\n        /* \"#utility.yul\":27380:27483   */\n      tag_512\n        /* \"#utility.yul\":27468:27482   */\n      calldatasize\n        /* \"#utility.yul\":27460:27466   */\n      dup5\n        /* \"#utility.yul\":27453:27458   */\n      dup5\n        /* \"#utility.yul\":27380:27483   */\n      tag_231\n      jump\t// in\n    tag_512:\n        /* \"#utility.yul\":27358:27483   */\n      swap1\n      pop\n        /* \"#utility.yul\":27143:27490   */\n      swap3\n      swap2\n      pop\n      pop\n      jump\t// out\n        /* \"#utility.yul\":27496:27637   */\n    tag_232:\n        /* \"#utility.yul\":27545:27549   */\n      0x00\n        /* \"#utility.yul\":27568:27571   */\n      dup2\n        /* \"#utility.yul\":27560:27571   */\n      swap1\n      pop\n        /* \"#utility.yul\":27591:27594   */\n      dup2\n        /* \"#utility.yul\":27588:27589   */\n      0x00\n        /* \"#utility.yul\":27581:27595   */\n      mstore\n        /* \"#utility.yul\":27625:27629   */\n      0x20\n        /* \"#utility.yul\":27622:27623   */\n      0x00\n        /* \"#utility.yul\":27612:27630   */\n      keccak256\n        /* \"#utility.yul\":27604:27630   */\n      swap1\n      pop\n        /* \"#utility.yul\":27496:27637   */\n      swap2\n      swap1\n      pop\n      jump\t// out\n        /* \"#utility.yul\":27643:27736   */\n    tag_233:\n        /* \"#utility.yul\":27680:27686   */\n      0x00\n        /* \"#utility.yul\":27727:27729   */\n      0x20\n        /* \"#utility.yul\":27722:27724   */\n      0x1f\n        /* \"#utility.yul\":27715:27720   */\n      dup4\n        /* \"#utility.yul\":27711:27725   */\n      add\n        /* \"#utility.yul\":27707:27730   */\n      div\n        /* \"#utility.yul\":27697:27730   */\n      swap1\n      pop\n        /* \"#utility.yul\":27643:27736   */\n      swap2\n      swap1\n      pop\n      jump\t// out\n        /* \"#utility.yul\":27742:27849   */\n    tag_234:\n        /* \"#utility.yul\":27786:27794   */\n      0x00\n        /* \"#utility.yul\":27836:27841   */\n      dup3\n        /* \"#utility.yul\":27830:27834   */\n      dup3\n        /* \"#utility.yul\":27826:27842   */\n      shl\n        /* \"#utility.yul\":27805:27842   */\n      swap1\n      pop\n        /* \"#utility.yul\":27742:27849   */\n      swap3\n      swap2\n      pop\n      pop\n      jump\t// out\n        /* \"#utility.yul\":27855:28248   */\n    tag_235:\n        /* \"#utility.yul\":27924:27930   */\n      0x00\n        /* \"#utility.yul\":27974:27975   */\n      0x08\n        /* \"#utility.yul\":27962:27972   */\n      dup4\n        /* \"#utility.yul\":27958:27976   */\n      mul\n        /* \"#utility.yul\":27997:28094   */\n      tag_517\n        /* \"#utility.yul\":28027:28093   */\n      0xffffffffffffffffffffffffffffffffffffffffffffffffffffffffffffffff\n        /* \"#utility.yul\":28016:28025   */\n      dup3\n        /* \"#utility.yul\":27997:28094   */\n      tag_234\n      jump\t// in\n    tag_517:\n        /* \"#utility.yul\":28115:28154   */\n      tag_518\n        /* \"#utility.yul\":28145:28153   */\n      dup7\n        /* \"#utility.yul\":28134:28143   */\n      dup4\n        /* \"#utility.yul\":28115:28154   */\n      tag_234\n      jump\t// in\n    tag_518:\n        /* \"#utility.yul\":28103:28154   */\n      swap6\n      pop\n        /* \"#utility.yul\":28187:28191   */\n      dup1\n        /* \"#utility.yul\":28183:28192   */\n      not\n        /* \"#utility.yul\":28176:28181   */\n      dup5\n        /* \"#utility.yul\":28172:28193   */\n      and\n        /* \"#utility.yul\":28163:28193   */\n      swap4\n      pop\n        /* \"#utility.yul\":28236:28240   */\n      dup1\n        /* \"#utility.yul\":28226:28234   */\n      dup7\n        /* \"#utility.yul\":28222:28241   */\n      and\n        /* \"#utility.yul\":28215:28220   */\n      dup5\n        /* \"#utility.yul\":28212:28242   */\n      or\n        /* \"#utility.yul\":28202:28242   */\n      swap3\n      pop\n        /* \"#utility.yul\":27931:28248   */\n      pop\n      pop\n        /* \"#utility.yul\":27855:28248   */\n      swap4\n      swap3\n      pop\n      pop\n      pop\n      jump\t// out\n        /* \"#utility.yul\":28254:28314   */\n    tag_236:\n        /* \"#utility.yul\":28282:28285   */\n      0x00\n        /* \"#utility.yul\":28303:28308   */\n      dup2\n        /* \"#utility.yul\":28296:28308   */\n      swap1\n      pop\n        /* \"#utility.yul\":28254:28314   */\n      swap2\n      swap1\n      pop\n      jump\t// out\n        /* \"#utility.yul\":28320:28462   */\n    tag_237:\n        /* \"#utility.yul\":28370:28379   */\n      0x00\n        /* \"#utility.yul\":28403:28456   */\n      tag_521\n        /* \"#utility.yul\":28421:28455   */\n      tag_522\n        /* \"#utility.yul\":28430:28454   */\n      tag_523\n        /* \"#utility.yul\":28448:28453   */\n      dup5\n        /* \"#utility.yul\":28430:28454   */\n      tag_163\n      jump\t// in\n    tag_523:\n        /* \"#utility.yul\":28421:28455   */\n      tag_236\n      jump\t// in\n    tag_522:\n        /* \"#utility.yul\":28403:28456   */\n      tag_163\n      jump\t// in\n    tag_521:\n        /* \"#utility.yul\":28390:28456   */\n      swap1\n      pop\n        /* \"#utility.yul\":28320:28462   */\n      swap2\n      swap1\n      pop\n      jump\t// out\n        /* \"#utility.yul\":28468:28543   */\n    tag_238:\n        /* \"#utility.yul\":28511:28514   */\n      0x00\n        /* \"#utility.yul\":28532:28537   */\n      dup2\n        /* \"#utility.yul\":28525:28537   */\n      swap1\n      pop\n        /* \"#utility.yul\":28468:28543   */\n      swap2\n      swap1\n      pop\n      jump\t// out\n        /* \"#utility.yul\":28549:28818   */\n    tag_239:\n        /* \"#utility.yul\":28659:28698   */\n      tag_526\n        /* \"#utility.yul\":28690:28697   */\n      dup4\n        /* \"#utility.yul\":28659:28698   */\n      tag_237\n      jump\t// in\n    tag_526:\n        /* \"#utility.yul\":28720:28811   */\n      tag_527\n        /* \"#utility.yul\":28769:28810   */\n      tag_528\n        /* \"#utility.yul\":28793:28809   */\n      dup3\n        /* \"#utility.yul\":28769:28810   */\n      tag_238\n      jump\t// in\n    tag_528:\n        /* \"#utility.yul\":28761:28767   */\n      dup5\n        /* \"#utility.yul\":28754:28758   */\n      dup5\n        /* \"#utility.yul\":28748:28759   */\n      sload\n        /* \"#utility.yul\":28720:28811   */\n      tag_235\n      jump\t// in\n    tag_527:\n        /* \"#utility.yul\":28714:28718   */\n      dup3\n        /* \"#utility.yul\":28707:28812   */\n      sstore\n        /* \"#utility.yul\":28625:28818   */\n      pop\n        /* \"#utility.yul\":28549:28818   */\n      pop\n      pop\n      pop\n      jump\t// out\n        /* \"#utility.yul\":28824:28897   */\n    tag_240:\n        /* \"#utility.yul\":28869:28872   */\n      0x00\n        /* \"#utility.yul\":28824:28897   */\n      swap1\n      jump\t// out\n        /* \"#utility.yul\":28903:29092   */\n    tag_241:\n        /* \"#utility.yul\":28980:29012   */\n      tag_531\n      tag_240\n      jump\t// in\n    tag_531:\n        /* \"#utility.yul\":29021:29086   */\n      tag_532\n        /* \"#utility.yul\":29079:29085   */\n      dup2\n        /* \"#utility.yul\":29071:29077   */\n      dup5\n        /* \"#utility.yul\":29065:29069   */\n      dup5\n        /* \"#utility.yul\":29021:29086   */\n      tag_239\n      jump\t// in\n    tag_532:\n        /* \"#utility.yul\":28956:29092   */\n      pop\n        /* \"#utility.yul\":28903:29092   */\n      pop\n      pop\n      jump\t// out\n        /* \"#utility.yul\":29098:29284   */\n    tag_242:\n        /* \"#utility.yul\":29158:29278   */\n    tag_534:\n        /* \"#utility.yul\":29175:29178   */\n      dup2\n        /* \"#utility.yul\":29168:29173   */\n      dup2\n        /* \"#utility.yul\":29165:29179   */\n      lt\n        /* \"#utility.yul\":29158:29278   */\n      iszero\n      tag_536\n      jumpi\n        /* \"#utility.yul\":29229:29268   */\n      tag_537\n        /* \"#utility.yul\":29266:29267   */\n      0x00\n        /* \"#utility.yul\":29259:29264   */\n      dup3\n        /* \"#utility.yul\":29229:29268   */\n      tag_241\n      jump\t// in\n    tag_537:\n        /* \"#utility.yul\":29202:29203   */\n      0x01\n        /* \"#utility.yul\":29195:29200   */\n      dup2\n        /* \"#utility.yul\":29191:29204   */\n      add\n        /* \"#utility.yul\":29182:29204   */\n      swap1\n      pop\n        /* \"#utility.yul\":29158:29278   */\n      jump(tag_534)\n    tag_536:\n        /* \"#utility.yul\":29098:29284   */\n      pop\n      pop\n      jump\t// out\n        /* \"#utility.yul\":29290:29833   */\n    tag_243:\n        /* \"#utility.yul\":29391:29393   */\n      0x1f\n        /* \"#utility.yul\":29386:29389   */\n      dup3\n        /* \"#utility.yul\":29383:29394   */\n      gt\n        /* \"#utility.yul\":29380:29826   */\n      iszero\n      tag_539\n      jumpi\n        /* \"#utility.yul\":29425:29463   */\n      tag_540\n        /* \"#utility.yul\":29457:29462   */\n      dup2\n        /* \"#utility.yul\":29425:29463   */\n      tag_232\n      jump\t// in\n    tag_540:\n        /* \"#utility.yul\":29509:29538   */\n      tag_541\n        /* \"#utility.yul\":29527:29537   */\n      dup5\n        /* \"#utility.yul\":29509:29538   */\n      tag_233\n      jump\t// in\n    tag_541:\n        /* \"#utility.yul\":29499:29507   */\n      dup2\n        /* \"#utility.yul\":29495:29539   */\n      add\n        /* \"#utility.yul\":29692:29694   */\n      0x20\n        /* \"#utility.yul\":29680:29690   */\n      dup6\n        /* \"#utility.yul\":29677:29695   */\n      lt\n        /* \"#utility.yul\":29674:29723   */\n      iszero\n      tag_542\n      jumpi\n        /* \"#utility.yul\":29713:29721   */\n      dup2\n        /* \"#utility.yul\":29698:29721   */\n      swap1\n      pop\n        /* \"#utility.yul\":29674:29723   */\n    tag_542:\n        /* \"#utility.yul\":29736:29816   */\n      tag_543\n        /* \"#utility.yul\":29792:29814   */\n      tag_544\n        /* \"#utility.yul\":29810:29813   */\n      dup6\n        /* \"#utility.yul\":29792:29814   */\n      tag_233\n      jump\t// in\n    tag_544:\n        /* \"#utility.yul\":29782:29790   */\n      dup4\n        /* \"#utility.yul\":29778:29815   */\n      add\n        /* \"#utility.yul\":29765:29776   */\n      dup3\n        /* \"#utility.yul\":29736:29816   */\n      tag_242\n      jump\t// in\n    tag_543:\n        /* \"#utility.yul\":29395:29826   */\n      pop\n      pop\n        /* \"#utility.yul\":29380:29826   */\n    tag_539:\n        /* \"#utility.yul\":29290:29833   */\n      pop\n      pop\n      pop\n      jump\t// out\n        /* \"#utility.yul\":29839:29956   */\n    tag_244:\n        /* \"#utility.yul\":29893:29901   */\n      0x00\n        /* \"#utility.yul\":29943:29948   */\n      dup3\n        /* \"#utility.yul\":29937:29941   */\n      dup3\n        /* \"#utility.yul\":29933:29949   */\n      shr\n        /* \"#utility.yul\":29912:29949   */\n      swap1\n      pop\n        /* \"#utility.yul\":29839:29956   */\n      swap3\n      swap2\n      pop\n      pop\n      jump\t// out\n        /* \"#utility.yul\":29962:30131   */\n    tag_245:\n        /* \"#utility.yul\":30006:30012   */\n      0x00\n        /* \"#utility.yul\":30039:30090   */\n      tag_547\n        /* \"#utility.yul\":30087:30088   */\n      0x00\n        /* \"#utility.yul\":30083:30089   */\n      not\n        /* \"#utility.yul\":30075:30080   */\n      dup5\n        /* \"#utility.yul\":30072:30073   */\n      0x08\n        /* \"#utility.yul\":30068:30081   */\n      mul\n        /* \"#utility.yul\":30039:30090   */\n      tag_244\n      jump\t// in\n    tag_547:\n        /* \"#utility.yul\":30035:30091   */\n      not\n        /* \"#utility.yul\":30120:30124   */\n      dup1\n        /* \"#utility.yul\":30114:30118   */\n      dup4\n        /* \"#utility.yul\":30110:30125   */\n      and\n        /* \"#utility.yul\":30100:30125   */\n      swap2\n      pop\n        /* \"#utility.yul\":30013:30131   */\n      pop\n        /* \"#utility.yul\":29962:30131   */\n      swap3\n      swap2\n      pop\n      pop\n      jump\t// out\n        /* \"#utility.yul\":30136:30431   */\n    tag_246:\n        /* \"#utility.yul\":30212:30216   */\n      0x00\n        /* \"#utility.yul\":30358:30387   */\n      tag_549\n        /* \"#utility.yul\":30383:30386   */\n      dup4\n        /* \"#utility.yul\":30377:30381   */\n      dup4\n        /* \"#utility.yul\":30358:30387   */\n      tag_245\n      jump\t// in\n    tag_549:\n        /* \"#utility.yul\":30350:30387   */\n      swap2\n      pop\n        /* \"#utility.yul\":30420:30423   */\n      dup3\n        /* \"#utility.yul\":30417:30418   */\n      0x02\n        /* \"#utility.yul\":30413:30424   */\n      mul\n        /* \"#utility.yul\":30407:30411   */\n      dup3\n        /* \"#utility.yul\":30404:30425   */\n      or\n        /* \"#utility.yul\":30396:30425   */\n      swap1\n      pop\n        /* \"#utility.yul\":30136:30431   */\n      swap3\n      swap2\n      pop\n      pop\n      jump\t// out\n        /* \"#utility.yul\":30436:31831   */\n    tag_141:\n        /* \"#utility.yul\":30553:30590   */\n      tag_551\n        /* \"#utility.yul\":30586:30589   */\n      dup3\n        /* \"#utility.yul\":30553:30590   */\n      tag_174\n      jump\t// in\n    tag_551:\n        /* \"#utility.yul\":30655:30673   */\n      0xffffffffffffffff\n        /* \"#utility.yul\":30647:30653   */\n      dup2\n        /* \"#utility.yul\":30644:30674   */\n      gt\n        /* \"#utility.yul\":30641:30697   */\n      iszero\n      tag_552\n      jumpi\n        /* \"#utility.yul\":30677:30695   */\n      tag_553\n      tag_95\n      jump\t// in\n    tag_553:\n        /* \"#utility.yul\":30641:30697   */\n    tag_552:\n        /* \"#utility.yul\":30721:30759   */\n      tag_554\n        /* \"#utility.yul\":30753:30757   */\n      dup3\n        /* \"#utility.yul\":30747:30758   */\n      sload\n        /* \"#utility.yul\":30721:30759   */\n      tag_68\n      jump\t// in\n    tag_554:\n        /* \"#utility.yul\":30806:30873   */\n      tag_555\n        /* \"#utility.yul\":30866:30872   */\n      dup3\n        /* \"#utility.yul\":30858:30864   */\n      dup3\n        /* \"#utility.yul\":30852:30856   */\n      dup6\n        /* \"#utility.yul\":30806:30873   */\n      tag_243\n      jump\t// in\n    tag_555:\n        /* \"#utility.yul\":30900:30901   */\n      0x00\n        /* \"#utility.yul\":30924:30928   */\n      0x20\n        /* \"#utility.yul\":30911:30928   */\n      swap1\n      pop\n        /* \"#utility.yul\":30956:30958   */\n      0x1f\n        /* \"#utility.yul\":30948:30954   */\n      dup4\n        /* \"#utility.yul\":30945:30959   */\n      gt\n        /* \"#utility.yul\":30973:30974   */\n      0x01\n        /* \"#utility.yul\":30968:31586   */\n      dup2\n      eq\n      tag_557\n      jumpi\n        /* \"#utility.yul\":31630:31631   */\n      0x00\n        /* \"#utility.yul\":31647:31653   */\n      dup5\n        /* \"#utility.yul\":31644:31721   */\n      iszero\n      tag_558\n      jumpi\n        /* \"#utility.yul\":31696:31705   */\n      dup3\n        /* \"#utility.yul\":31691:31694   */\n      dup8\n        /* \"#utility.yul\":31687:31706   */\n      add\n        /* \"#utility.yul\":31681:31707   */\n      mload\n        /* \"#utility.yul\":31672:31707   */\n      swap1\n      pop\n        /* \"#utility.yul\":31644:31721   */\n    tag_558:\n        /* \"#utility.yul\":31747:31814   */\n      tag_559\n        /* \"#utility.yul\":31807:31813   */\n      dup6\n        /* \"#utility.yul\":31800:31805   */\n      dup3\n        /* \"#utility.yul\":31747:31814   */\n      tag_246\n      jump\t// in\n    tag_559:\n        /* \"#utility.yul\":31741:31745   */\n      dup7\n        /* \"#utility.yul\":31734:31815   */\n      sstore\n        /* \"#utility.yul\":31603:31825   */\n      pop\n        /* \"#utility.yul\":30938:31825   */\n      jump(tag_556)\n        /* \"#utility.yul\":30968:31586   */\n    tag_557:\n        /* \"#utility.yul\":31020:31024   */\n      0x1f\n        /* \"#utility.yul\":31016:31025   */\n      not\n        /* \"#utility.yul\":31008:31014   */\n      dup5\n        /* \"#utility.yul\":31004:31026   */\n      and\n        /* \"#utility.yul\":31054:31091   */\n      tag_560\n        /* \"#utility.yul\":31086:31090   */\n      dup7\n        /* \"#utility.yul\":31054:31091   */\n      tag_232\n      jump\t// in\n    tag_560:\n        /* \"#utility.yul\":31113:31114   */\n      0x00\n        /* \"#utility.yul\":31127:31335   */\n    tag_561:\n        /* \"#utility.yul\":31141:31148   */\n      dup3\n        /* \"#utility.yul\":31138:31139   */\n      dup2\n        /* \"#utility.yul\":31135:31149   */\n      lt\n        /* \"#utility.yul\":31127:31335   */\n      iszero\n      tag_563\n      jumpi\n        /* \"#utility.yul\":31220:31229   */\n      dup5\n        /* \"#utility.yul\":31215:31218   */\n      dup10\n        /* \"#utility.yul\":31211:31230   */\n      add\n        /* \"#utility.yul\":31205:31231   */\n      mload\n        /* \"#utility.yul\":31197:31203   */\n      dup3\n        /* \"#utility.yul\":31190:31232   */\n      sstore\n        /* \"#utility.yul\":31271:31272   */\n      0x01\n        /* \"#utility.yul\":31263:31269   */\n      dup3\n        /* \"#utility.yul\":31259:31273   */\n      add\n        /* \"#utility.yul\":31249:31273   */\n      swap2\n      pop\n        /* \"#utility.yul\":31318:31320   */\n      0x20\n        /* \"#utility.yul\":31307:31316   */\n      dup6\n        /* \"#utility.yul\":31303:31321   */\n      add\n        /* \"#utility.yul\":31290:31321   */\n      swap5\n      pop\n        /* \"#utility.yul\":31164:31168   */\n      0x20\n        /* \"#utility.yul\":31161:31162   */\n      dup2\n        /* \"#utility.yul\":31157:31169   */\n      add\n        /* \"#utility.yul\":31152:31169   */\n      swap1\n      pop\n        /* \"#utility.yul\":31127:31335   */\n      jump(tag_561)\n    tag_563:\n        /* \"#utility.yul\":31363:31369   */\n      dup7\n        /* \"#utility.yul\":31354:31361   */\n      dup4\n        /* \"#utility.yul\":31351:31370   */\n      lt\n        /* \"#utility.yul\":31348:31527   */\n      iszero\n      tag_564\n      jumpi\n        /* \"#utility.yul\":31421:31430   */\n      dup5\n        /* \"#utility.yul\":31416:31419   */\n      dup10\n        /* \"#utility.yul\":31412:31431   */\n      add\n        /* \"#utility.yul\":31406:31432   */\n      mload\n        /* \"#utility.yul\":31464:31512   */\n      tag_565\n        /* \"#utility.yul\":31506:31510   */\n      0x1f\n        /* \"#utility.yul\":31498:31504   */\n      dup10\n        /* \"#utility.yul\":31494:31511   */\n      and\n        /* \"#utility.yul\":31483:31492   */\n      dup3\n        /* \"#utility.yul\":31464:31512   */\n      tag_245\n      jump\t// in\n    tag_565:\n        /* \"#utility.yul\":31456:31462   */\n      dup4\n        /* \"#utility.yul\":31449:31513   */\n      sstore\n        /* \"#utility.yul\":31371:31527   */\n      pop\n        /* \"#utility.yul\":31348:31527   */\n    tag_564:\n        /* \"#utility.yul\":31573:31574   */\n      0x01\n        /* \"#utility.yul\":31569:31570   */\n      0x02\n        /* \"#utility.yul\":31561:31567   */\n      dup9\n        /* \"#utility.yul\":31557:31571   */\n      mul\n        /* \"#utility.yul\":31553:31575   */\n      add\n        /* \"#utility.yul\":31547:31551   */\n      dup9\n        /* \"#utility.yul\":31540:31576   */\n      sstore\n        /* \"#utility.yul\":30975:31586   */\n      pop\n      pop\n      pop\n        /* \"#utility.yul\":30938:31825   */\n    tag_556:\n      pop\n        /* \"#utility.yul\":30528:31831   */\n      pop\n      pop\n      pop\n        /* \"#utility.yul\":30436:31831   */\n      pop\n      pop\n      jump\t// out\n\n    auxdata: 0xa264697066735822122074774c8056586299da9c971f08f028cd06329fbc2208e357ca4c15fead011f3564736f6c63430008140033\n}\n",
				"bytecode": {
					"linkReferences": {},
					"object": "6080604052735b38da6a701c568545dcfcb03fcb875f56beddc460045f6101000a81548173ffffffffffffffffffffffffffffffffffffffff021916908373ffffffffffffffffffffffffffffffffffffffff160217905550348015610063575f80fd5b50611d4a806100715f395ff3fe608060405234801561000f575f80fd5b506004361061009c575f3560e01c8063a9bb0fa111610064578063a9bb0fa114610181578063e18f1661146101b3578063ed6ead00146101d1578063f716362a146101ed578063f851a440146102095761009c565b8063023441de146100a057806309aaf058146100bc57806343859632146100ee578063546160591461011e5780635f72f4501461014e575b5f80fd5b6100ba60048036038101906100b59190610dc2565b610227565b005b6100d660048036038101906100d19190610e12565b610359565b6040516100e593929190610ee5565b60405180910390f35b61010860048036038101906101039190610f7b565b610410565b6040516101159190610fb9565b60405180910390f35b61013860048036038101906101339190611008565b61043a565b6040516101459190611046565b60405180910390f35b61016860048036038101906101639190610e12565b61045a565b6040516101789493929190611162565b60405180910390f35b61019b60048036038101906101969190610e12565b6105f7565b6040516101aa9392919061126a565b60405180910390f35b6101bb61083f565b6040516101c89190611046565b60405180910390f35b6101eb60048036038101906101e69190611008565b610845565b005b6102076004803603810190610202919061136a565b610a2a565b005b610211610c1b565b60405161021e919061140a565b60405180910390f35b3373ffffffffffffffffffffffffffffffffffffffff1660045f9054906101000a900473ffffffffffffffffffffffffffffffffffffffff1673ffffffffffffffffffffffffffffffffffffffff16146102b6576040517f08c379a00000000000000000000000000000000000000000000000000000000081526004016102ad9061146d565b60405180910390fd5b5f808481526020019081526020015f20600101548261ffff161061030f576040517f08c379a0000000000000000000000000000000000000000000000000000000008152600401610306906114d5565b60405180910390fd5b8161ffff165f808581526020019081526020015f2060010181905550805f808581526020019081526020015f205f015f6101000a81548160ff021916908315150217905550505050565b5f602052805f5260405f205f91509050805f015f9054906101000a900460ff169080600101549080600301805461038f90611520565b80601f01602080910402602001604051908101604052809291908181526020018280546103bb90611520565b80156104065780601f106103dd57610100808354040283529160200191610406565b820191905f5260205f20905b8154815290600101906020018083116103e957829003601f168201915b5050505050905083565b6001602052815f5260405f20602052805f5260405f205f915091509054906101000a900460ff1681565b6002602052815f5260405f20602052805f5260405f205f91509150505481565b5f806060805f805f8781526020019081526020015f209050805f015f9054906101000a900460ff168160010154826002018360030181805480602002602001604051908101604052809291908181526020015f905b82821015610557578382905f5260205f200180546104cc90611520565b80601f01602080910402602001604051908101604052809291908181526020018280546104f890611520565b80156105435780601f1061051a57610100808354040283529160200191610543565b820191905f5260205f20905b81548152906001019060200180831161052657829003601f168201915b5050505050815260200190600101906104af565b50505050915080805461056990611520565b80601f016020809104026020016040519081016040528092919081815260200182805461059590611520565b80156105e05780601f106105b7576101008083540402835291602001916105e0565b820191905f5260205f20905b8154815290600101906020018083116105c357829003601f168201915b505050505090509450945094509450509193509193565b60608060605f805f8681526020019081526020015f20905080600301805461061e90611520565b80601f016020809104026020016040519081016040528092919081815260200182805461064a90611520565b80156106955780601f1061066c57610100808354040283529160200191610695565b820191905f5260205f20905b81548152906001019060200180831161067857829003601f168201915b505050505093505f816002018054905090508067ffffffffffffffff8111156106c1576106c0611550565b5b6040519080825280602002602001820160405280156106ef5781602001602082028036833780820191505090505b5092505f5b818160ff16101561075b5760025f8881526020019081526020015f205f8260ff1660ff1681526020019081526020015f2054848260ff168151811061073c5761073b61157d565b5b6020026020010181815250508080610753906115d7565b9150506106f4565b5084826002018481805480602002602001604051908101604052809291908181526020015f905b8282101561082a578382905f5260205f2001805461079f90611520565b80601f01602080910402602001604051908101604052809291908181526020018280546107cb90611520565b80156108165780601f106107ed57610100808354040283529160200191610816565b820191905f5260205f20905b8154815290600101906020018083116107f957829003601f168201915b505050505081526020019060010190610782565b50505050915094509450945050509193909250565b60035481565b5f805f8481526020019081526020015f209050805f015f9054906101000a900460ff166108a7576040517f08c379a000000000000000000000000000000000000000000000000000000000815260040161089e90611649565b60405180910390fd5b42816001015410156108ee576040517f08c379a00000000000000000000000000000000000000000000000000000000081526004016108e5906116b1565b60405180910390fd5b60015f8481526020019081526020015f205f3373ffffffffffffffffffffffffffffffffffffffff1673ffffffffffffffffffffffffffffffffffffffff1681526020019081526020015f205f9054906101000a900460ff1615610987576040517f08c379a000000000000000000000000000000000000000000000000000000000815260040161097e9061173f565b60405180910390fd5b60025f8481526020019081526020015f205f8360ff1660ff1681526020019081526020015f205f8154809291906109bd9061175d565b91905055506001805f8581526020019081526020015f205f3373ffffffffffffffffffffffffffffffffffffffff1673ffffffffffffffffffffffffffffffffffffffff1681526020019081526020015f205f6101000a81548160ff021916908315150217905550505050565b60045f9054906101000a900473ffffffffffffffffffffffffffffffffffffffff1673ffffffffffffffffffffffffffffffffffffffff163373ffffffffffffffffffffffffffffffffffffffff1614610ab9576040517f08c379a0000000000000000000000000000000000000000000000000000000008152600401610ab0906117ee565b60405180910390fd5b60028383905011610aff576040517f08c379a0000000000000000000000000000000000000000000000000000000008152600401610af690611856565b60405180910390fd5b5f603c82610b0d9190611874565b42610b1891906118b5565b90506040518060800160405280600115158152602001828152602001858590610b419190611a94565b815260200187878080601f0160208091040260200160405190810160405280939291908181526020018383808284375f81840152601f19601f820116905080830192505050505050508152505f8060035481526020019081526020015f205f820151815f015f6101000a81548160ff021916908315150217905550602082015181600101556040820151816002019080519060200190610be2929190610c40565b506060820151816003019081610bf89190611c45565b5090505060035f815480929190610c0e9061175d565b9190505550505050505050565b60045f9054906101000a900473ffffffffffffffffffffffffffffffffffffffff1681565b828054828255905f5260205f20908101928215610c86579160200282015b82811115610c85578251829081610c759190611c45565b5091602001919060010190610c5e565b5b509050610c939190610c97565b5090565b5b80821115610cb6575f8181610cad9190610cba565b50600101610c98565b5090565b508054610cc690611520565b5f825580601f10610cd75750610cf4565b601f0160209004905f5260205f2090810190610cf39190610cf7565b5b50565b5b80821115610d0e575f815f905550600101610cf8565b5090565b5f604051905090565b5f80fd5b5f80fd5b5f819050919050565b610d3581610d23565b8114610d3f575f80fd5b50565b5f81359050610d5081610d2c565b92915050565b5f61ffff82169050919050565b610d6c81610d56565b8114610d76575f80fd5b50565b5f81359050610d8781610d63565b92915050565b5f8115159050919050565b610da181610d8d565b8114610dab575f80fd5b50565b5f81359050610dbc81610d98565b92915050565b5f805f60608486031215610dd957610dd8610d1b565b5b5f610de686828701610d42565b9350506020610df786828701610d79565b9250506040610e0886828701610dae565b9150509250925092565b5f60208284031215610e2757610e26610d1b565b5b5f610e3484828501610d42565b91505092915050565b610e4681610d8d565b82525050565b610e5581610d23565b82525050565b5f81519050919050565b5f82825260208201905092915050565b5f5b83811015610e92578082015181840152602081019050610e77565b5f8484015250505050565b5f601f19601f8301169050919050565b5f610eb782610e5b565b610ec18185610e65565b9350610ed1818560208601610e75565b610eda81610e9d565b840191505092915050565b5f606082019050610ef85f830186610e3d565b610f056020830185610e4c565b8181036040830152610f178184610ead565b9050949350505050565b5f73ffffffffffffffffffffffffffffffffffffffff82169050919050565b5f610f4a82610f21565b9050919050565b610f5a81610f40565b8114610f64575f80fd5b50565b5f81359050610f7581610f51565b92915050565b5f8060408385031215610f9157610f90610d1b565b5b5f610f9e85828601610d42565b9250506020610faf85828601610f67565b9150509250929050565b5f602082019050610fcc5f830184610e3d565b92915050565b5f60ff82169050919050565b610fe781610fd2565b8114610ff1575f80fd5b50565b5f8135905061100281610fde565b92915050565b5f806040838503121561101e5761101d610d1b565b5b5f61102b85828601610d42565b925050602061103c85828601610ff4565b9150509250929050565b5f6020820190506110595f830184610e4c565b92915050565b5f81519050919050565b5f82825260208201905092915050565b5f819050602082019050919050565b5f82825260208201905092915050565b5f6110a282610e5b565b6110ac8185611088565b93506110bc818560208601610e75565b6110c581610e9d565b840191505092915050565b5f6110db8383611098565b905092915050565b5f602082019050919050565b5f6110f98261105f565b6111038185611069565b93508360208202850161111585611079565b805f5b85811015611150578484038952815161113185826110d0565b945061113c836110e3565b925060208a01995050600181019050611118565b50829750879550505050505092915050565b5f6080820190506111755f830187610e3d565b6111826020830186610e4c565b818103604083015261119481856110ef565b905081810360608301526111a88184610ead565b905095945050505050565b5f81519050919050565b5f82825260208201905092915050565b5f819050602082019050919050565b6111e581610d23565b82525050565b5f6111f683836111dc565b60208301905092915050565b5f602082019050919050565b5f611218826111b3565b61122281856111bd565b935061122d836111cd565b805f5b8381101561125d57815161124488826111eb565b975061124f83611202565b925050600181019050611230565b5085935050505092915050565b5f6060820190508181035f8301526112828186610ead565b9050818103602083015261129681856110ef565b905081810360408301526112aa818461120e565b9050949350505050565b5f80fd5b5f80fd5b5f80fd5b5f8083601f8401126112d5576112d46112b4565b5b8235905067ffffffffffffffff8111156112f2576112f16112b8565b5b60208301915083600182028301111561130e5761130d6112bc565b5b9250929050565b5f8083601f84011261132a576113296112b4565b5b8235905067ffffffffffffffff811115611347576113466112b8565b5b602083019150836020820283011115611363576113626112bc565b5b9250929050565b5f805f805f6060868803121561138357611382610d1b565b5b5f86013567ffffffffffffffff8111156113a05761139f610d1f565b5b6113ac888289016112c0565b9550955050602086013567ffffffffffffffff8111156113cf576113ce610d1f565b5b6113db88828901611315565b935093505060406113ee88828901610d42565b9150509295509295909350565b61140481610f40565b82525050565b5f60208201905061141d5f8301846113fb565b92915050565b7f6e6f7420616c696769626c6520746f206368616e6765000000000000000000005f82015250565b5f611457601683610e65565b915061146282611423565b602082019050919050565b5f6020820190508181035f8301526114848161144b565b9050919050565b7f79652074696d65206b616d20686f206a617920676100000000000000000000005f82015250565b5f6114bf601583610e65565b91506114ca8261148b565b602082019050919050565b5f6020820190508181035f8301526114ec816114b3565b9050919050565b7f4e487b71000000000000000000000000000000000000000000000000000000005f52602260045260245ffd5b5f600282049050600182168061153757607f821691505b60208210810361154a576115496114f3565b5b50919050565b7f4e487b71000000000000000000000000000000000000000000000000000000005f52604160045260245ffd5b7f4e487b71000000000000000000000000000000000000000000000000000000005f52603260045260245ffd5b7f4e487b71000000000000000000000000000000000000000000000000000000005f52601160045260245ffd5b5f6115e182610fd2565b915060ff82036115f4576115f36115aa565b5b600182019050919050565b7f6e6f7420616374697665000000000000000000000000000000000000000000005f82015250565b5f611633600a83610e65565b915061163e826115ff565b602082019050919050565b5f6020820190508181035f83015261166081611627565b9050919050565b7f74696d6520686164206f766572000000000000000000000000000000000000005f82015250565b5f61169b600d83610e65565b91506116a682611667565b602082019050919050565b5f6020820190508181035f8301526116c88161168f565b9050919050565b7f796f757220766f746520666f72207468697320706f6c6c20686173206265656e5f8201527f206d61726b656420000000000000000000000000000000000000000000000000602082015250565b5f611729602883610e65565b9150611734826116cf565b604082019050919050565b5f6020820190508181035f8301526117568161171d565b9050919050565b5f61176782610d23565b91507fffffffffffffffffffffffffffffffffffffffffffffffffffffffffffffffff8203611799576117986115aa565b5b600182019050919050565b7f796f7520617265206e6f742061646d696e0000000000000000000000000000005f82015250565b5f6117d8601183610e65565b91506117e3826117a4565b602082019050919050565b5f6020820190508181035f830152611805816117cc565b9050919050565b7f6d757374206d6f7265207468616e2032206f7074696f6e7300000000000000005f82015250565b5f611840601883610e65565b915061184b8261180c565b602082019050919050565b5f6020820190508181035f83015261186d81611834565b9050919050565b5f61187e82610d23565b915061188983610d23565b925082820261189781610d23565b915082820484148315176118ae576118ad6115aa565b5b5092915050565b5f6118bf82610d23565b91506118ca83610d23565b92508282019050808211156118e2576118e16115aa565b5b92915050565b6118f182610e9d565b810181811067ffffffffffffffff821117156119105761190f611550565b5b80604052505050565b5f611922610d12565b905061192e82826118e8565b919050565b5f67ffffffffffffffff82111561194d5761194c611550565b5b602082029050602081019050919050565b5f80fd5b5f67ffffffffffffffff82111561197c5761197b611550565b5b61198582610e9d565b9050602081019050919050565b828183375f83830152505050565b5f6119b26119ad84611962565b611919565b9050828152602081018484840111156119ce576119cd61195e565b5b6119d9848285611992565b509392505050565b5f82601f8301126119f5576119f46112b4565b5b8135611a058482602086016119a0565b91505092915050565b5f611a20611a1b84611933565b611919565b90508083825260208201905060208402830185811115611a4357611a426112bc565b5b835b81811015611a8a57803567ffffffffffffffff811115611a6857611a676112b4565b5b808601611a7589826119e1565b85526020850194505050602081019050611a45565b5050509392505050565b5f611aa0368484611a0e565b905092915050565b5f819050815f5260205f209050919050565b5f6020601f8301049050919050565b5f82821b905092915050565b5f60088302611b047fffffffffffffffffffffffffffffffffffffffffffffffffffffffffffffffff82611ac9565b611b0e8683611ac9565b95508019841693508086168417925050509392505050565b5f819050919050565b5f611b49611b44611b3f84610d23565b611b26565b610d23565b9050919050565b5f819050919050565b611b6283611b2f565b611b76611b6e82611b50565b848454611ad5565b825550505050565b5f90565b611b8a611b7e565b611b95818484611b59565b505050565b5b81811015611bb857611bad5f82611b82565b600181019050611b9b565b5050565b601f821115611bfd57611bce81611aa8565b611bd784611aba565b81016020851015611be6578190505b611bfa611bf285611aba565b830182611b9a565b50505b505050565b5f82821c905092915050565b5f611c1d5f1984600802611c02565b1980831691505092915050565b5f611c358383611c0e565b9150826002028217905092915050565b611c4e82610e5b565b67ffffffffffffffff811115611c6757611c66611550565b5b611c718254611520565b611c7c828285611bbc565b5f60209050601f831160018114611cad575f8415611c9b578287015190505b611ca58582611c2a565b865550611d0c565b601f198416611cbb86611aa8565b5f5b82811015611ce257848901518255600182019150602085019450602081019050611cbd565b86831015611cff5784890151611cfb601f891682611c0e565b8355505b6001600288020188555050505b50505050505056fea264697066735822122074774c8056586299da9c971f08f028cd06329fbc2208e357ca4c15fead011f3564736f6c63430008140033",
					"opcodes": "PUSH1 0x80 PUSH1 0x40 MSTORE PUSH20 0x5B38DA6A701C568545DCFCB03FCB875F56BEDDC4 PUSH1 0x4 PUSH0 PUSH2 0x100 EXP DUP2 SLOAD DUP2 PUSH20 0xFFFFFFFFFFFFFFFFFFFFFFFFFFFFFFFFFFFFFFFF MUL NOT AND SWAP1 DUP4 PUSH20 0xFFFFFFFFFFFFFFFFFFFFFFFFFFFFFFFFFFFFFFFF AND MUL OR SWAP1 SSTORE POP CALLVALUE DUP1 ISZERO PUSH2 0x63 JUMPI PUSH0 DUP1 REVERT JUMPDEST POP PUSH2 0x1D4A DUP1 PUSH2 0x71 PUSH0 CODECOPY PUSH0 RETURN INVALID PUSH1 0x80 PUSH1 0x40 MSTORE CALLVALUE DUP1 ISZERO PUSH2 0xF JUMPI PUSH0 DUP1 REVERT JUMPDEST POP PUSH1 0x4 CALLDATASIZE LT PUSH2 0x9C JUMPI PUSH0 CALLDATALOAD PUSH1 0xE0 SHR DUP1 PUSH4 0xA9BB0FA1 GT PUSH2 0x64 JUMPI DUP1 PUSH4 0xA9BB0FA1 EQ PUSH2 0x181 JUMPI DUP1 PUSH4 0xE18F1661 EQ PUSH2 0x1B3 JUMPI DUP1 PUSH4 0xED6EAD00 EQ PUSH2 0x1D1 JUMPI DUP1 PUSH4 0xF716362A EQ PUSH2 0x1ED JUMPI DUP1 PUSH4 0xF851A440 EQ PUSH2 0x209 JUMPI PUSH2 0x9C JUMP JUMPDEST DUP1 PUSH4 0x23441DE EQ PUSH2 0xA0 JUMPI DUP1 PUSH4 0x9AAF058 EQ PUSH2 0xBC JUMPI DUP1 PUSH4 0x43859632 EQ PUSH2 0xEE JUMPI DUP1 PUSH4 0x54616059 EQ PUSH2 0x11E JUMPI DUP1 PUSH4 0x5F72F450 EQ PUSH2 0x14E JUMPI JUMPDEST PUSH0 DUP1 REVERT JUMPDEST PUSH2 0xBA PUSH1 0x4 DUP1 CALLDATASIZE SUB DUP2 ADD SWAP1 PUSH2 0xB5 SWAP2 SWAP1 PUSH2 0xDC2 JUMP JUMPDEST PUSH2 0x227 JUMP JUMPDEST STOP JUMPDEST PUSH2 0xD6 PUSH1 0x4 DUP1 CALLDATASIZE SUB DUP2 ADD SWAP1 PUSH2 0xD1 SWAP2 SWAP1 PUSH2 0xE12 JUMP JUMPDEST PUSH2 0x359 JUMP JUMPDEST PUSH1 0x40 MLOAD PUSH2 0xE5 SWAP4 SWAP3 SWAP2 SWAP1 PUSH2 0xEE5 JUMP JUMPDEST PUSH1 0x40 MLOAD DUP1 SWAP2 SUB SWAP1 RETURN JUMPDEST PUSH2 0x108 PUSH1 0x4 DUP1 CALLDATASIZE SUB DUP2 ADD SWAP1 PUSH2 0x103 SWAP2 SWAP1 PUSH2 0xF7B JUMP JUMPDEST PUSH2 0x410 JUMP JUMPDEST PUSH1 0x40 MLOAD PUSH2 0x115 SWAP2 SWAP1 PUSH2 0xFB9 JUMP JUMPDEST PUSH1 0x40 MLOAD DUP1 SWAP2 SUB SWAP1 RETURN JUMPDEST PUSH2 0x138 PUSH1 0x4 DUP1 CALLDATASIZE SUB DUP2 ADD SWAP1 PUSH2 0x133 SWAP2 SWAP1 PUSH2 0x1008 JUMP JUMPDEST PUSH2 0x43A JUMP JUMPDEST PUSH1 0x40 MLOAD PUSH2 0x145 SWAP2 SWAP1 PUSH2 0x1046 JUMP JUMPDEST PUSH1 0x40 MLOAD DUP1 SWAP2 SUB SWAP1 RETURN JUMPDEST PUSH2 0x168 PUSH1 0x4 DUP1 CALLDATASIZE SUB DUP2 ADD SWAP1 PUSH2 0x163 SWAP2 SWAP1 PUSH2 0xE12 JUMP JUMPDEST PUSH2 0x45A JUMP JUMPDEST PUSH1 0x40 MLOAD PUSH2 0x178 SWAP5 SWAP4 SWAP3 SWAP2 SWAP1 PUSH2 0x1162 JUMP JUMPDEST PUSH1 0x40 MLOAD DUP1 SWAP2 SUB SWAP1 RETURN JUMPDEST PUSH2 0x19B PUSH1 0x4 DUP1 CALLDATASIZE SUB DUP2 ADD SWAP1 PUSH2 0x196 SWAP2 SWAP1 PUSH2 0xE12 JUMP JUMPDEST PUSH2 0x5F7 JUMP JUMPDEST PUSH1 0x40 MLOAD PUSH2 0x1AA SWAP4 SWAP3 SWAP2 SWAP1 PUSH2 0x126A JUMP JUMPDEST PUSH1 0x40 MLOAD DUP1 SWAP2 SUB SWAP1 RETURN JUMPDEST PUSH2 0x1BB PUSH2 0x83F JUMP JUMPDEST PUSH1 0x40 MLOAD PUSH2 0x1C8 SWAP2 SWAP1 PUSH2 0x1046 JUMP JUMPDEST PUSH1 0x40 MLOAD DUP1 SWAP2 SUB SWAP1 RETURN JUMPDEST PUSH2 0x1EB PUSH1 0x4 DUP1 CALLDATASIZE SUB DUP2 ADD SWAP1 PUSH2 0x1E6 SWAP2 SWAP1 PUSH2 0x1008 JUMP JUMPDEST PUSH2 0x845 JUMP JUMPDEST STOP JUMPDEST PUSH2 0x207 PUSH1 0x4 DUP1 CALLDATASIZE SUB DUP2 ADD SWAP1 PUSH2 0x202 SWAP2 SWAP1 PUSH2 0x136A JUMP JUMPDEST PUSH2 0xA2A JUMP JUMPDEST STOP JUMPDEST PUSH2 0x211 PUSH2 0xC1B JUMP JUMPDEST PUSH1 0x40 MLOAD PUSH2 0x21E SWAP2 SWAP1 PUSH2 0x140A JUMP JUMPDEST PUSH1 0x40 MLOAD DUP1 SWAP2 SUB SWAP1 RETURN JUMPDEST CALLER PUSH20 0xFFFFFFFFFFFFFFFFFFFFFFFFFFFFFFFFFFFFFFFF AND PUSH1 0x4 PUSH0 SWAP1 SLOAD SWAP1 PUSH2 0x100 EXP SWAP1 DIV PUSH20 0xFFFFFFFFFFFFFFFFFFFFFFFFFFFFFFFFFFFFFFFF AND PUSH20 0xFFFFFFFFFFFFFFFFFFFFFFFFFFFFFFFFFFFFFFFF AND EQ PUSH2 0x2B6 JUMPI PUSH1 0x40 MLOAD PUSH32 0x8C379A000000000000000000000000000000000000000000000000000000000 DUP2 MSTORE PUSH1 0x4 ADD PUSH2 0x2AD SWAP1 PUSH2 0x146D JUMP JUMPDEST PUSH1 0x40 MLOAD DUP1 SWAP2 SUB SWAP1 REVERT JUMPDEST PUSH0 DUP1 DUP5 DUP2 MSTORE PUSH1 0x20 ADD SWAP1 DUP2 MSTORE PUSH1 0x20 ADD PUSH0 KECCAK256 PUSH1 0x1 ADD SLOAD DUP3 PUSH2 0xFFFF AND LT PUSH2 0x30F JUMPI PUSH1 0x40 MLOAD PUSH32 0x8C379A000000000000000000000000000000000000000000000000000000000 DUP2 MSTORE PUSH1 0x4 ADD PUSH2 0x306 SWAP1 PUSH2 0x14D5 JUMP JUMPDEST PUSH1 0x40 MLOAD DUP1 SWAP2 SUB SWAP1 REVERT JUMPDEST DUP2 PUSH2 0xFFFF AND PUSH0 DUP1 DUP6 DUP2 MSTORE PUSH1 0x20 ADD SWAP1 DUP2 MSTORE PUSH1 0x20 ADD PUSH0 KECCAK256 PUSH1 0x1 ADD DUP2 SWAP1 SSTORE POP DUP1 PUSH0 DUP1 DUP6 DUP2 MSTORE PUSH1 0x20 ADD SWAP1 DUP2 MSTORE PUSH1 0x20 ADD PUSH0 KECCAK256 PUSH0 ADD PUSH0 PUSH2 0x100 EXP DUP2 SLOAD DUP2 PUSH1 0xFF MUL NOT AND SWAP1 DUP4 ISZERO ISZERO MUL OR SWAP1 SSTORE POP POP POP POP JUMP JUMPDEST PUSH0 PUSH1 0x20 MSTORE DUP1 PUSH0 MSTORE PUSH1 0x40 PUSH0 KECCAK256 PUSH0 SWAP2 POP SWAP1 POP DUP1 PUSH0 ADD PUSH0 SWAP1 SLOAD SWAP1 PUSH2 0x100 EXP SWAP1 DIV PUSH1 0xFF AND SWAP1 DUP1 PUSH1 0x1 ADD SLOAD SWAP1 DUP1 PUSH1 0x3 ADD DUP1 SLOAD PUSH2 0x38F SWAP1 PUSH2 0x1520 JUMP JUMPDEST DUP1 PUSH1 0x1F ADD PUSH1 0x20 DUP1 SWAP2 DIV MUL PUSH1 0x20 ADD PUSH1 0x40 MLOAD SWAP1 DUP2 ADD PUSH1 0x40 MSTORE DUP1 SWAP3 SWAP2 SWAP1 DUP2 DUP2 MSTORE PUSH1 0x20 ADD DUP3 DUP1 SLOAD PUSH2 0x3BB SWAP1 PUSH2 0x1520 JUMP JUMPDEST DUP1 ISZERO PUSH2 0x406 JUMPI DUP1 PUSH1 0x1F LT PUSH2 0x3DD JUMPI PUSH2 0x100 DUP1 DUP4 SLOAD DIV MUL DUP4 MSTORE SWAP2 PUSH1 0x20 ADD SWAP2 PUSH2 0x406 JUMP JUMPDEST DUP3 ADD SWAP2 SWAP1 PUSH0 MSTORE PUSH1 0x20 PUSH0 KECCAK256 SWAP1 JUMPDEST DUP2 SLOAD DUP2 MSTORE SWAP1 PUSH1 0x1 ADD SWAP1 PUSH1 0x20 ADD DUP1 DUP4 GT PUSH2 0x3E9 JUMPI DUP3 SWAP1 SUB PUSH1 0x1F AND DUP3 ADD SWAP2 JUMPDEST POP POP POP POP POP SWAP1 POP DUP4 JUMP JUMPDEST PUSH1 0x1 PUSH1 0x20 MSTORE DUP2 PUSH0 MSTORE PUSH1 0x40 PUSH0 KECCAK256 PUSH1 0x20 MSTORE DUP1 PUSH0 MSTORE PUSH1 0x40 PUSH0 KECCAK256 PUSH0 SWAP2 POP SWAP2 POP SWAP1 SLOAD SWAP1 PUSH2 0x100 EXP SWAP1 DIV PUSH1 0xFF AND DUP2 JUMP JUMPDEST PUSH1 0x2 PUSH1 0x20 MSTORE DUP2 PUSH0 MSTORE PUSH1 0x40 PUSH0 KECCAK256 PUSH1 0x20 MSTORE DUP1 PUSH0 MSTORE PUSH1 0x40 PUSH0 KECCAK256 PUSH0 SWAP2 POP SWAP2 POP POP SLOAD DUP2 JUMP JUMPDEST PUSH0 DUP1 PUSH1 0x60 DUP1 PUSH0 DUP1 PUSH0 DUP8 DUP2 MSTORE PUSH1 0x20 ADD SWAP1 DUP2 MSTORE PUSH1 0x20 ADD PUSH0 KECCAK256 SWAP1 POP DUP1 PUSH0 ADD PUSH0 SWAP1 SLOAD SWAP1 PUSH2 0x100 EXP SWAP1 DIV PUSH1 0xFF AND DUP2 PUSH1 0x1 ADD SLOAD DUP3 PUSH1 0x2 ADD DUP4 PUSH1 0x3 ADD DUP2 DUP1 SLOAD DUP1 PUSH1 0x20 MUL PUSH1 0x20 ADD PUSH1 0x40 MLOAD SWAP1 DUP2 ADD PUSH1 0x40 MSTORE DUP1 SWAP3 SWAP2 SWAP1 DUP2 DUP2 MSTORE PUSH1 0x20 ADD PUSH0 SWAP1 JUMPDEST DUP3 DUP3 LT ISZERO PUSH2 0x557 JUMPI DUP4 DUP3 SWAP1 PUSH0 MSTORE PUSH1 0x20 PUSH0 KECCAK256 ADD DUP1 SLOAD PUSH2 0x4CC SWAP1 PUSH2 0x1520 JUMP JUMPDEST DUP1 PUSH1 0x1F ADD PUSH1 0x20 DUP1 SWAP2 DIV MUL PUSH1 0x20 ADD PUSH1 0x40 MLOAD SWAP1 DUP2 ADD PUSH1 0x40 MSTORE DUP1 SWAP3 SWAP2 SWAP1 DUP2 DUP2 MSTORE PUSH1 0x20 ADD DUP3 DUP1 SLOAD PUSH2 0x4F8 SWAP1 PUSH2 0x1520 JUMP JUMPDEST DUP1 ISZERO PUSH2 0x543 JUMPI DUP1 PUSH1 0x1F LT PUSH2 0x51A JUMPI PUSH2 0x100 DUP1 DUP4 SLOAD DIV MUL DUP4 MSTORE SWAP2 PUSH1 0x20 ADD SWAP2 PUSH2 0x543 JUMP JUMPDEST DUP3 ADD SWAP2 SWAP1 PUSH0 MSTORE PUSH1 0x20 PUSH0 KECCAK256 SWAP1 JUMPDEST DUP2 SLOAD DUP2 MSTORE SWAP1 PUSH1 0x1 ADD SWAP1 PUSH1 0x20 ADD DUP1 DUP4 GT PUSH2 0x526 JUMPI DUP3 SWAP1 SUB PUSH1 0x1F AND DUP3 ADD SWAP2 JUMPDEST POP POP POP POP POP DUP2 MSTORE PUSH1 0x20 ADD SWAP1 PUSH1 0x1 ADD SWAP1 PUSH2 0x4AF JUMP JUMPDEST POP POP POP POP SWAP2 POP DUP1 DUP1 SLOAD PUSH2 0x569 SWAP1 PUSH2 0x1520 JUMP JUMPDEST DUP1 PUSH1 0x1F ADD PUSH1 0x20 DUP1 SWAP2 DIV MUL PUSH1 0x20 ADD PUSH1 0x40 MLOAD SWAP1 DUP2 ADD PUSH1 0x40 MSTORE DUP1 SWAP3 SWAP2 SWAP1 DUP2 DUP2 MSTORE PUSH1 0x20 ADD DUP3 DUP1 SLOAD PUSH2 0x595 SWAP1 PUSH2 0x1520 JUMP JUMPDEST DUP1 ISZERO PUSH2 0x5E0 JUMPI DUP1 PUSH1 0x1F LT PUSH2 0x5B7 JUMPI PUSH2 0x100 DUP1 DUP4 SLOAD DIV MUL DUP4 MSTORE SWAP2 PUSH1 0x20 ADD SWAP2 PUSH2 0x5E0 JUMP JUMPDEST DUP3 ADD SWAP2 SWAP1 PUSH0 MSTORE PUSH1 0x20 PUSH0 KECCAK256 SWAP1 JUMPDEST DUP2 SLOAD DUP2 MSTORE SWAP1 PUSH1 0x1 ADD SWAP1 PUSH1 0x20 ADD DUP1 DUP4 GT PUSH2 0x5C3 JUMPI DUP3 SWAP1 SUB PUSH1 0x1F AND DUP3 ADD SWAP2 JUMPDEST POP POP POP POP POP SWAP1 POP SWAP5 POP SWAP5 POP SWAP5 POP SWAP5 POP POP SWAP2 SWAP4 POP SWAP2 SWAP4 JUMP JUMPDEST PUSH1 0x60 DUP1 PUSH1 0x60 PUSH0 DUP1 PUSH0 DUP7 DUP2 MSTORE PUSH1 0x20 ADD SWAP1 DUP2 MSTORE PUSH1 0x20 ADD PUSH0 KECCAK256 SWAP1 POP DUP1 PUSH1 0x3 ADD DUP1 SLOAD PUSH2 0x61E SWAP1 PUSH2 0x1520 JUMP JUMPDEST DUP1 PUSH1 0x1F ADD PUSH1 0x20 DUP1 SWAP2 DIV MUL PUSH1 0x20 ADD PUSH1 0x40 MLOAD SWAP1 DUP2 ADD PUSH1 0x40 MSTORE DUP1 SWAP3 SWAP2 SWAP1 DUP2 DUP2 MSTORE PUSH1 0x20 ADD DUP3 DUP1 SLOAD PUSH2 0x64A SWAP1 PUSH2 0x1520 JUMP JUMPDEST DUP1 ISZERO PUSH2 0x695 JUMPI DUP1 PUSH1 0x1F LT PUSH2 0x66C JUMPI PUSH2 0x100 DUP1 DUP4 SLOAD DIV MUL DUP4 MSTORE SWAP2 PUSH1 0x20 ADD SWAP2 PUSH2 0x695 JUMP JUMPDEST DUP3 ADD SWAP2 SWAP1 PUSH0 MSTORE PUSH1 0x20 PUSH0 KECCAK256 SWAP1 JUMPDEST DUP2 SLOAD DUP2 MSTORE SWAP1 PUSH1 0x1 ADD SWAP1 PUSH1 0x20 ADD DUP1 DUP4 GT PUSH2 0x678 JUMPI DUP3 SWAP1 SUB PUSH1 0x1F AND DUP3 ADD SWAP2 JUMPDEST POP POP POP POP POP SWAP4 POP PUSH0 DUP2 PUSH1 0x2 ADD DUP1 SLOAD SWAP1 POP SWAP1 POP DUP1 PUSH8 0xFFFFFFFFFFFFFFFF DUP2 GT ISZERO PUSH2 0x6C1 JUMPI PUSH2 0x6C0 PUSH2 0x1550 JUMP JUMPDEST JUMPDEST PUSH1 0x40 MLOAD SWAP1 DUP1 DUP3 MSTORE DUP1 PUSH1 0x20 MUL PUSH1 0x20 ADD DUP3 ADD PUSH1 0x40 MSTORE DUP1 ISZERO PUSH2 0x6EF JUMPI DUP2 PUSH1 0x20 ADD PUSH1 0x20 DUP3 MUL DUP1 CALLDATASIZE DUP4 CALLDATACOPY DUP1 DUP3 ADD SWAP2 POP POP SWAP1 POP JUMPDEST POP SWAP3 POP PUSH0 JUMPDEST DUP2 DUP2 PUSH1 0xFF AND LT ISZERO PUSH2 0x75B JUMPI PUSH1 0x2 PUSH0 DUP9 DUP2 MSTORE PUSH1 0x20 ADD SWAP1 DUP2 MSTORE PUSH1 0x20 ADD PUSH0 KECCAK256 PUSH0 DUP3 PUSH1 0xFF AND PUSH1 0xFF AND DUP2 MSTORE PUSH1 0x20 ADD SWAP1 DUP2 MSTORE PUSH1 0x20 ADD PUSH0 KECCAK256 SLOAD DUP5 DUP3 PUSH1 0xFF AND DUP2 MLOAD DUP2 LT PUSH2 0x73C JUMPI PUSH2 0x73B PUSH2 0x157D JUMP JUMPDEST JUMPDEST PUSH1 0x20 MUL PUSH1 0x20 ADD ADD DUP2 DUP2 MSTORE POP POP DUP1 DUP1 PUSH2 0x753 SWAP1 PUSH2 0x15D7 JUMP JUMPDEST SWAP2 POP POP PUSH2 0x6F4 JUMP JUMPDEST POP DUP5 DUP3 PUSH1 0x2 ADD DUP5 DUP2 DUP1 SLOAD DUP1 PUSH1 0x20 MUL PUSH1 0x20 ADD PUSH1 0x40 MLOAD SWAP1 DUP2 ADD PUSH1 0x40 MSTORE DUP1 SWAP3 SWAP2 SWAP1 DUP2 DUP2 MSTORE PUSH1 0x20 ADD PUSH0 SWAP1 JUMPDEST DUP3 DUP3 LT ISZERO PUSH2 0x82A JUMPI DUP4 DUP3 SWAP1 PUSH0 MSTORE PUSH1 0x20 PUSH0 KECCAK256 ADD DUP1 SLOAD PUSH2 0x79F SWAP1 PUSH2 0x1520 JUMP JUMPDEST DUP1 PUSH1 0x1F ADD PUSH1 0x20 DUP1 SWAP2 DIV MUL PUSH1 0x20 ADD PUSH1 0x40 MLOAD SWAP1 DUP2 ADD PUSH1 0x40 MSTORE DUP1 SWAP3 SWAP2 SWAP1 DUP2 DUP2 MSTORE PUSH1 0x20 ADD DUP3 DUP1 SLOAD PUSH2 0x7CB SWAP1 PUSH2 0x1520 JUMP JUMPDEST DUP1 ISZERO PUSH2 0x816 JUMPI DUP1 PUSH1 0x1F LT PUSH2 0x7ED JUMPI PUSH2 0x100 DUP1 DUP4 SLOAD DIV MUL DUP4 MSTORE SWAP2 PUSH1 0x20 ADD SWAP2 PUSH2 0x816 JUMP JUMPDEST DUP3 ADD SWAP2 SWAP1 PUSH0 MSTORE PUSH1 0x20 PUSH0 KECCAK256 SWAP1 JUMPDEST DUP2 SLOAD DUP2 MSTORE SWAP1 PUSH1 0x1 ADD SWAP1 PUSH1 0x20 ADD DUP1 DUP4 GT PUSH2 0x7F9 JUMPI DUP3 SWAP1 SUB PUSH1 0x1F AND DUP3 ADD SWAP2 JUMPDEST POP POP POP POP POP DUP2 MSTORE PUSH1 0x20 ADD SWAP1 PUSH1 0x1 ADD SWAP1 PUSH2 0x782 JUMP JUMPDEST POP POP POP POP SWAP2 POP SWAP5 POP SWAP5 POP SWAP5 POP POP POP SWAP2 SWAP4 SWAP1 SWAP3 POP JUMP JUMPDEST PUSH1 0x3 SLOAD DUP2 JUMP JUMPDEST PUSH0 DUP1 PUSH0 DUP5 DUP2 MSTORE PUSH1 0x20 ADD SWAP1 DUP2 MSTORE PUSH1 0x20 ADD PUSH0 KECCAK256 SWAP1 POP DUP1 PUSH0 ADD PUSH0 SWAP1 SLOAD SWAP1 PUSH2 0x100 EXP SWAP1 DIV PUSH1 0xFF AND PUSH2 0x8A7 JUMPI PUSH1 0x40 MLOAD PUSH32 0x8C379A000000000000000000000000000000000000000000000000000000000 DUP2 MSTORE PUSH1 0x4 ADD PUSH2 0x89E SWAP1 PUSH2 0x1649 JUMP JUMPDEST PUSH1 0x40 MLOAD DUP1 SWAP2 SUB SWAP1 REVERT JUMPDEST TIMESTAMP DUP2 PUSH1 0x1 ADD SLOAD LT ISZERO PUSH2 0x8EE JUMPI PUSH1 0x40 MLOAD PUSH32 0x8C379A000000000000000000000000000000000000000000000000000000000 DUP2 MSTORE PUSH1 0x4 ADD PUSH2 0x8E5 SWAP1 PUSH2 0x16B1 JUMP JUMPDEST PUSH1 0x40 MLOAD DUP1 SWAP2 SUB SWAP1 REVERT JUMPDEST PUSH1 0x1 PUSH0 DUP5 DUP2 MSTORE PUSH1 0x20 ADD SWAP1 DUP2 MSTORE PUSH1 0x20 ADD PUSH0 KECCAK256 PUSH0 CALLER PUSH20 0xFFFFFFFFFFFFFFFFFFFFFFFFFFFFFFFFFFFFFFFF AND PUSH20 0xFFFFFFFFFFFFFFFFFFFFFFFFFFFFFFFFFFFFFFFF AND DUP2 MSTORE PUSH1 0x20 ADD SWAP1 DUP2 MSTORE PUSH1 0x20 ADD PUSH0 KECCAK256 PUSH0 SWAP1 SLOAD SWAP1 PUSH2 0x100 EXP SWAP1 DIV PUSH1 0xFF AND ISZERO PUSH2 0x987 JUMPI PUSH1 0x40 MLOAD PUSH32 0x8C379A000000000000000000000000000000000000000000000000000000000 DUP2 MSTORE PUSH1 0x4 ADD PUSH2 0x97E SWAP1 PUSH2 0x173F JUMP JUMPDEST PUSH1 0x40 MLOAD DUP1 SWAP2 SUB SWAP1 REVERT JUMPDEST PUSH1 0x2 PUSH0 DUP5 DUP2 MSTORE PUSH1 0x20 ADD SWAP1 DUP2 MSTORE PUSH1 0x20 ADD PUSH0 KECCAK256 PUSH0 DUP4 PUSH1 0xFF AND PUSH1 0xFF AND DUP2 MSTORE PUSH1 0x20 ADD SWAP1 DUP2 MSTORE PUSH1 0x20 ADD PUSH0 KECCAK256 PUSH0 DUP2 SLOAD DUP1 SWAP3 SWAP2 SWAP1 PUSH2 0x9BD SWAP1 PUSH2 0x175D JUMP JUMPDEST SWAP2 SWAP1 POP SSTORE POP PUSH1 0x1 DUP1 PUSH0 DUP6 DUP2 MSTORE PUSH1 0x20 ADD SWAP1 DUP2 MSTORE PUSH1 0x20 ADD PUSH0 KECCAK256 PUSH0 CALLER PUSH20 0xFFFFFFFFFFFFFFFFFFFFFFFFFFFFFFFFFFFFFFFF AND PUSH20 0xFFFFFFFFFFFFFFFFFFFFFFFFFFFFFFFFFFFFFFFF AND DUP2 MSTORE PUSH1 0x20 ADD SWAP1 DUP2 MSTORE PUSH1 0x20 ADD PUSH0 KECCAK256 PUSH0 PUSH2 0x100 EXP DUP2 SLOAD DUP2 PUSH1 0xFF MUL NOT AND SWAP1 DUP4 ISZERO ISZERO MUL OR SWAP1 SSTORE POP POP POP POP JUMP JUMPDEST PUSH1 0x4 PUSH0 SWAP1 SLOAD SWAP1 PUSH2 0x100 EXP SWAP1 DIV PUSH20 0xFFFFFFFFFFFFFFFFFFFFFFFFFFFFFFFFFFFFFFFF AND PUSH20 0xFFFFFFFFFFFFFFFFFFFFFFFFFFFFFFFFFFFFFFFF AND CALLER PUSH20 0xFFFFFFFFFFFFFFFFFFFFFFFFFFFFFFFFFFFFFFFF AND EQ PUSH2 0xAB9 JUMPI PUSH1 0x40 MLOAD PUSH32 0x8C379A000000000000000000000000000000000000000000000000000000000 DUP2 MSTORE PUSH1 0x4 ADD PUSH2 0xAB0 SWAP1 PUSH2 0x17EE JUMP JUMPDEST PUSH1 0x40 MLOAD DUP1 SWAP2 SUB SWAP1 REVERT JUMPDEST PUSH1 0x2 DUP4 DUP4 SWAP1 POP GT PUSH2 0xAFF JUMPI PUSH1 0x40 MLOAD PUSH32 0x8C379A000000000000000000000000000000000000000000000000000000000 DUP2 MSTORE PUSH1 0x4 ADD PUSH2 0xAF6 SWAP1 PUSH2 0x1856 JUMP JUMPDEST PUSH1 0x40 MLOAD DUP1 SWAP2 SUB SWAP1 REVERT JUMPDEST PUSH0 PUSH1 0x3C DUP3 PUSH2 0xB0D SWAP2 SWAP1 PUSH2 0x1874 JUMP JUMPDEST TIMESTAMP PUSH2 0xB18 SWAP2 SWAP1 PUSH2 0x18B5 JUMP JUMPDEST SWAP1 POP PUSH1 0x40 MLOAD DUP1 PUSH1 0x80 ADD PUSH1 0x40 MSTORE DUP1 PUSH1 0x1 ISZERO ISZERO DUP2 MSTORE PUSH1 0x20 ADD DUP3 DUP2 MSTORE PUSH1 0x20 ADD DUP6 DUP6 SWAP1 PUSH2 0xB41 SWAP2 SWAP1 PUSH2 0x1A94 JUMP JUMPDEST DUP2 MSTORE PUSH1 0x20 ADD DUP8 DUP8 DUP1 DUP1 PUSH1 0x1F ADD PUSH1 0x20 DUP1 SWAP2 DIV MUL PUSH1 0x20 ADD PUSH1 0x40 MLOAD SWAP1 DUP2 ADD PUSH1 0x40 MSTORE DUP1 SWAP4 SWAP3 SWAP2 SWAP1 DUP2 DUP2 MSTORE PUSH1 0x20 ADD DUP4 DUP4 DUP1 DUP3 DUP5 CALLDATACOPY PUSH0 DUP2 DUP5 ADD MSTORE PUSH1 0x1F NOT PUSH1 0x1F DUP3 ADD AND SWAP1 POP DUP1 DUP4 ADD SWAP3 POP POP POP POP POP POP POP DUP2 MSTORE POP PUSH0 DUP1 PUSH1 0x3 SLOAD DUP2 MSTORE PUSH1 0x20 ADD SWAP1 DUP2 MSTORE PUSH1 0x20 ADD PUSH0 KECCAK256 PUSH0 DUP3 ADD MLOAD DUP2 PUSH0 ADD PUSH0 PUSH2 0x100 EXP DUP2 SLOAD DUP2 PUSH1 0xFF MUL NOT AND SWAP1 DUP4 ISZERO ISZERO MUL OR SWAP1 SSTORE POP PUSH1 0x20 DUP3 ADD MLOAD DUP2 PUSH1 0x1 ADD SSTORE PUSH1 0x40 DUP3 ADD MLOAD DUP2 PUSH1 0x2 ADD SWAP1 DUP1 MLOAD SWAP1 PUSH1 0x20 ADD SWAP1 PUSH2 0xBE2 SWAP3 SWAP2 SWAP1 PUSH2 0xC40 JUMP JUMPDEST POP PUSH1 0x60 DUP3 ADD MLOAD DUP2 PUSH1 0x3 ADD SWAP1 DUP2 PUSH2 0xBF8 SWAP2 SWAP1 PUSH2 0x1C45 JUMP JUMPDEST POP SWAP1 POP POP PUSH1 0x3 PUSH0 DUP2 SLOAD DUP1 SWAP3 SWAP2 SWAP1 PUSH2 0xC0E SWAP1 PUSH2 0x175D JUMP JUMPDEST SWAP2 SWAP1 POP SSTORE POP POP POP POP POP POP POP JUMP JUMPDEST PUSH1 0x4 PUSH0 SWAP1 SLOAD SWAP1 PUSH2 0x100 EXP SWAP1 DIV PUSH20 0xFFFFFFFFFFFFFFFFFFFFFFFFFFFFFFFFFFFFFFFF AND DUP2 JUMP JUMPDEST DUP3 DUP1 SLOAD DUP3 DUP3 SSTORE SWAP1 PUSH0 MSTORE PUSH1 0x20 PUSH0 KECCAK256 SWAP1 DUP2 ADD SWAP3 DUP3 ISZERO PUSH2 0xC86 JUMPI SWAP2 PUSH1 0x20 MUL DUP3 ADD JUMPDEST DUP3 DUP2 GT ISZERO PUSH2 0xC85 JUMPI DUP3 MLOAD DUP3 SWAP1 DUP2 PUSH2 0xC75 SWAP2 SWAP1 PUSH2 0x1C45 JUMP JUMPDEST POP SWAP2 PUSH1 0x20 ADD SWAP2 SWAP1 PUSH1 0x1 ADD SWAP1 PUSH2 0xC5E JUMP JUMPDEST JUMPDEST POP SWAP1 POP PUSH2 0xC93 SWAP2 SWAP1 PUSH2 0xC97 JUMP JUMPDEST POP SWAP1 JUMP JUMPDEST JUMPDEST DUP1 DUP3 GT ISZERO PUSH2 0xCB6 JUMPI PUSH0 DUP2 DUP2 PUSH2 0xCAD SWAP2 SWAP1 PUSH2 0xCBA JUMP JUMPDEST POP PUSH1 0x1 ADD PUSH2 0xC98 JUMP JUMPDEST POP SWAP1 JUMP JUMPDEST POP DUP1 SLOAD PUSH2 0xCC6 SWAP1 PUSH2 0x1520 JUMP JUMPDEST PUSH0 DUP3 SSTORE DUP1 PUSH1 0x1F LT PUSH2 0xCD7 JUMPI POP PUSH2 0xCF4 JUMP JUMPDEST PUSH1 0x1F ADD PUSH1 0x20 SWAP1 DIV SWAP1 PUSH0 MSTORE PUSH1 0x20 PUSH0 KECCAK256 SWAP1 DUP2 ADD SWAP1 PUSH2 0xCF3 SWAP2 SWAP1 PUSH2 0xCF7 JUMP JUMPDEST JUMPDEST POP JUMP JUMPDEST JUMPDEST DUP1 DUP3 GT ISZERO PUSH2 0xD0E JUMPI PUSH0 DUP2 PUSH0 SWAP1 SSTORE POP PUSH1 0x1 ADD PUSH2 0xCF8 JUMP JUMPDEST POP SWAP1 JUMP JUMPDEST PUSH0 PUSH1 0x40 MLOAD SWAP1 POP SWAP1 JUMP JUMPDEST PUSH0 DUP1 REVERT JUMPDEST PUSH0 DUP1 REVERT JUMPDEST PUSH0 DUP2 SWAP1 POP SWAP2 SWAP1 POP JUMP JUMPDEST PUSH2 0xD35 DUP2 PUSH2 0xD23 JUMP JUMPDEST DUP2 EQ PUSH2 0xD3F JUMPI PUSH0 DUP1 REVERT JUMPDEST POP JUMP JUMPDEST PUSH0 DUP2 CALLDATALOAD SWAP1 POP PUSH2 0xD50 DUP2 PUSH2 0xD2C JUMP JUMPDEST SWAP3 SWAP2 POP POP JUMP JUMPDEST PUSH0 PUSH2 0xFFFF DUP3 AND SWAP1 POP SWAP2 SWAP1 POP JUMP JUMPDEST PUSH2 0xD6C DUP2 PUSH2 0xD56 JUMP JUMPDEST DUP2 EQ PUSH2 0xD76 JUMPI PUSH0 DUP1 REVERT JUMPDEST POP JUMP JUMPDEST PUSH0 DUP2 CALLDATALOAD SWAP1 POP PUSH2 0xD87 DUP2 PUSH2 0xD63 JUMP JUMPDEST SWAP3 SWAP2 POP POP JUMP JUMPDEST PUSH0 DUP2 ISZERO ISZERO SWAP1 POP SWAP2 SWAP1 POP JUMP JUMPDEST PUSH2 0xDA1 DUP2 PUSH2 0xD8D JUMP JUMPDEST DUP2 EQ PUSH2 0xDAB JUMPI PUSH0 DUP1 REVERT JUMPDEST POP JUMP JUMPDEST PUSH0 DUP2 CALLDATALOAD SWAP1 POP PUSH2 0xDBC DUP2 PUSH2 0xD98 JUMP JUMPDEST SWAP3 SWAP2 POP POP JUMP JUMPDEST PUSH0 DUP1 PUSH0 PUSH1 0x60 DUP5 DUP7 SUB SLT ISZERO PUSH2 0xDD9 JUMPI PUSH2 0xDD8 PUSH2 0xD1B JUMP JUMPDEST JUMPDEST PUSH0 PUSH2 0xDE6 DUP7 DUP3 DUP8 ADD PUSH2 0xD42 JUMP JUMPDEST SWAP4 POP POP PUSH1 0x20 PUSH2 0xDF7 DUP7 DUP3 DUP8 ADD PUSH2 0xD79 JUMP JUMPDEST SWAP3 POP POP PUSH1 0x40 PUSH2 0xE08 DUP7 DUP3 DUP8 ADD PUSH2 0xDAE JUMP JUMPDEST SWAP2 POP POP SWAP3 POP SWAP3 POP SWAP3 JUMP JUMPDEST PUSH0 PUSH1 0x20 DUP3 DUP5 SUB SLT ISZERO PUSH2 0xE27 JUMPI PUSH2 0xE26 PUSH2 0xD1B JUMP JUMPDEST JUMPDEST PUSH0 PUSH2 0xE34 DUP5 DUP3 DUP6 ADD PUSH2 0xD42 JUMP JUMPDEST SWAP2 POP POP SWAP3 SWAP2 POP POP JUMP JUMPDEST PUSH2 0xE46 DUP2 PUSH2 0xD8D JUMP JUMPDEST DUP3 MSTORE POP POP JUMP JUMPDEST PUSH2 0xE55 DUP2 PUSH2 0xD23 JUMP JUMPDEST DUP3 MSTORE POP POP JUMP JUMPDEST PUSH0 DUP2 MLOAD SWAP1 POP SWAP2 SWAP1 POP JUMP JUMPDEST PUSH0 DUP3 DUP3 MSTORE PUSH1 0x20 DUP3 ADD SWAP1 POP SWAP3 SWAP2 POP POP JUMP JUMPDEST PUSH0 JUMPDEST DUP4 DUP2 LT ISZERO PUSH2 0xE92 JUMPI DUP1 DUP3 ADD MLOAD DUP2 DUP5 ADD MSTORE PUSH1 0x20 DUP2 ADD SWAP1 POP PUSH2 0xE77 JUMP JUMPDEST PUSH0 DUP5 DUP5 ADD MSTORE POP POP POP POP JUMP JUMPDEST PUSH0 PUSH1 0x1F NOT PUSH1 0x1F DUP4 ADD AND SWAP1 POP SWAP2 SWAP1 POP JUMP JUMPDEST PUSH0 PUSH2 0xEB7 DUP3 PUSH2 0xE5B JUMP JUMPDEST PUSH2 0xEC1 DUP2 DUP6 PUSH2 0xE65 JUMP JUMPDEST SWAP4 POP PUSH2 0xED1 DUP2 DUP6 PUSH1 0x20 DUP7 ADD PUSH2 0xE75 JUMP JUMPDEST PUSH2 0xEDA DUP2 PUSH2 0xE9D JUMP JUMPDEST DUP5 ADD SWAP2 POP POP SWAP3 SWAP2 POP POP JUMP JUMPDEST PUSH0 PUSH1 0x60 DUP3 ADD SWAP1 POP PUSH2 0xEF8 PUSH0 DUP4 ADD DUP7 PUSH2 0xE3D JUMP JUMPDEST PUSH2 0xF05 PUSH1 0x20 DUP4 ADD DUP6 PUSH2 0xE4C JUMP JUMPDEST DUP2 DUP2 SUB PUSH1 0x40 DUP4 ADD MSTORE PUSH2 0xF17 DUP2 DUP5 PUSH2 0xEAD JUMP JUMPDEST SWAP1 POP SWAP5 SWAP4 POP POP POP POP JUMP JUMPDEST PUSH0 PUSH20 0xFFFFFFFFFFFFFFFFFFFFFFFFFFFFFFFFFFFFFFFF DUP3 AND SWAP1 POP SWAP2 SWAP1 POP JUMP JUMPDEST PUSH0 PUSH2 0xF4A DUP3 PUSH2 0xF21 JUMP JUMPDEST SWAP1 POP SWAP2 SWAP1 POP JUMP JUMPDEST PUSH2 0xF5A DUP2 PUSH2 0xF40 JUMP JUMPDEST DUP2 EQ PUSH2 0xF64 JUMPI PUSH0 DUP1 REVERT JUMPDEST POP JUMP JUMPDEST PUSH0 DUP2 CALLDATALOAD SWAP1 POP PUSH2 0xF75 DUP2 PUSH2 0xF51 JUMP JUMPDEST SWAP3 SWAP2 POP POP JUMP JUMPDEST PUSH0 DUP1 PUSH1 0x40 DUP4 DUP6 SUB SLT ISZERO PUSH2 0xF91 JUMPI PUSH2 0xF90 PUSH2 0xD1B JUMP JUMPDEST JUMPDEST PUSH0 PUSH2 0xF9E DUP6 DUP3 DUP7 ADD PUSH2 0xD42 JUMP JUMPDEST SWAP3 POP POP PUSH1 0x20 PUSH2 0xFAF DUP6 DUP3 DUP7 ADD PUSH2 0xF67 JUMP JUMPDEST SWAP2 POP POP SWAP3 POP SWAP3 SWAP1 POP JUMP JUMPDEST PUSH0 PUSH1 0x20 DUP3 ADD SWAP1 POP PUSH2 0xFCC PUSH0 DUP4 ADD DUP5 PUSH2 0xE3D JUMP JUMPDEST SWAP3 SWAP2 POP POP JUMP JUMPDEST PUSH0 PUSH1 0xFF DUP3 AND SWAP1 POP SWAP2 SWAP1 POP JUMP JUMPDEST PUSH2 0xFE7 DUP2 PUSH2 0xFD2 JUMP JUMPDEST DUP2 EQ PUSH2 0xFF1 JUMPI PUSH0 DUP1 REVERT JUMPDEST POP JUMP JUMPDEST PUSH0 DUP2 CALLDATALOAD SWAP1 POP PUSH2 0x1002 DUP2 PUSH2 0xFDE JUMP JUMPDEST SWAP3 SWAP2 POP POP JUMP JUMPDEST PUSH0 DUP1 PUSH1 0x40 DUP4 DUP6 SUB SLT ISZERO PUSH2 0x101E JUMPI PUSH2 0x101D PUSH2 0xD1B JUMP JUMPDEST JUMPDEST PUSH0 PUSH2 0x102B DUP6 DUP3 DUP7 ADD PUSH2 0xD42 JUMP JUMPDEST SWAP3 POP POP PUSH1 0x20 PUSH2 0x103C DUP6 DUP3 DUP7 ADD PUSH2 0xFF4 JUMP JUMPDEST SWAP2 POP POP SWAP3 POP SWAP3 SWAP1 POP JUMP JUMPDEST PUSH0 PUSH1 0x20 DUP3 ADD SWAP1 POP PUSH2 0x1059 PUSH0 DUP4 ADD DUP5 PUSH2 0xE4C JUMP JUMPDEST SWAP3 SWAP2 POP POP JUMP JUMPDEST PUSH0 DUP2 MLOAD SWAP1 POP SWAP2 SWAP1 POP JUMP JUMPDEST PUSH0 DUP3 DUP3 MSTORE PUSH1 0x20 DUP3 ADD SWAP1 POP SWAP3 SWAP2 POP POP JUMP JUMPDEST PUSH0 DUP2 SWAP1 POP PUSH1 0x20 DUP3 ADD SWAP1 POP SWAP2 SWAP1 POP JUMP JUMPDEST PUSH0 DUP3 DUP3 MSTORE PUSH1 0x20 DUP3 ADD SWAP1 POP SWAP3 SWAP2 POP POP JUMP JUMPDEST PUSH0 PUSH2 0x10A2 DUP3 PUSH2 0xE5B JUMP JUMPDEST PUSH2 0x10AC DUP2 DUP6 PUSH2 0x1088 JUMP JUMPDEST SWAP4 POP PUSH2 0x10BC DUP2 DUP6 PUSH1 0x20 DUP7 ADD PUSH2 0xE75 JUMP JUMPDEST PUSH2 0x10C5 DUP2 PUSH2 0xE9D JUMP JUMPDEST DUP5 ADD SWAP2 POP POP SWAP3 SWAP2 POP POP JUMP JUMPDEST PUSH0 PUSH2 0x10DB DUP4 DUP4 PUSH2 0x1098 JUMP JUMPDEST SWAP1 POP SWAP3 SWAP2 POP POP JUMP JUMPDEST PUSH0 PUSH1 0x20 DUP3 ADD SWAP1 POP SWAP2 SWAP1 POP JUMP JUMPDEST PUSH0 PUSH2 0x10F9 DUP3 PUSH2 0x105F JUMP JUMPDEST PUSH2 0x1103 DUP2 DUP6 PUSH2 0x1069 JUMP JUMPDEST SWAP4 POP DUP4 PUSH1 0x20 DUP3 MUL DUP6 ADD PUSH2 0x1115 DUP6 PUSH2 0x1079 JUMP JUMPDEST DUP1 PUSH0 JUMPDEST DUP6 DUP2 LT ISZERO PUSH2 0x1150 JUMPI DUP5 DUP5 SUB DUP10 MSTORE DUP2 MLOAD PUSH2 0x1131 DUP6 DUP3 PUSH2 0x10D0 JUMP JUMPDEST SWAP5 POP PUSH2 0x113C DUP4 PUSH2 0x10E3 JUMP JUMPDEST SWAP3 POP PUSH1 0x20 DUP11 ADD SWAP10 POP POP PUSH1 0x1 DUP2 ADD SWAP1 POP PUSH2 0x1118 JUMP JUMPDEST POP DUP3 SWAP8 POP DUP8 SWAP6 POP POP POP POP POP POP SWAP3 SWAP2 POP POP JUMP JUMPDEST PUSH0 PUSH1 0x80 DUP3 ADD SWAP1 POP PUSH2 0x1175 PUSH0 DUP4 ADD DUP8 PUSH2 0xE3D JUMP JUMPDEST PUSH2 0x1182 PUSH1 0x20 DUP4 ADD DUP7 PUSH2 0xE4C JUMP JUMPDEST DUP2 DUP2 SUB PUSH1 0x40 DUP4 ADD MSTORE PUSH2 0x1194 DUP2 DUP6 PUSH2 0x10EF JUMP JUMPDEST SWAP1 POP DUP2 DUP2 SUB PUSH1 0x60 DUP4 ADD MSTORE PUSH2 0x11A8 DUP2 DUP5 PUSH2 0xEAD JUMP JUMPDEST SWAP1 POP SWAP6 SWAP5 POP POP POP POP POP JUMP JUMPDEST PUSH0 DUP2 MLOAD SWAP1 POP SWAP2 SWAP1 POP JUMP JUMPDEST PUSH0 DUP3 DUP3 MSTORE PUSH1 0x20 DUP3 ADD SWAP1 POP SWAP3 SWAP2 POP POP JUMP JUMPDEST PUSH0 DUP2 SWAP1 POP PUSH1 0x20 DUP3 ADD SWAP1 POP SWAP2 SWAP1 POP JUMP JUMPDEST PUSH2 0x11E5 DUP2 PUSH2 0xD23 JUMP JUMPDEST DUP3 MSTORE POP POP JUMP JUMPDEST PUSH0 PUSH2 0x11F6 DUP4 DUP4 PUSH2 0x11DC JUMP JUMPDEST PUSH1 0x20 DUP4 ADD SWAP1 POP SWAP3 SWAP2 POP POP JUMP JUMPDEST PUSH0 PUSH1 0x20 DUP3 ADD SWAP1 POP SWAP2 SWAP1 POP JUMP JUMPDEST PUSH0 PUSH2 0x1218 DUP3 PUSH2 0x11B3 JUMP JUMPDEST PUSH2 0x1222 DUP2 DUP6 PUSH2 0x11BD JUMP JUMPDEST SWAP4 POP PUSH2 0x122D DUP4 PUSH2 0x11CD JUMP JUMPDEST DUP1 PUSH0 JUMPDEST DUP4 DUP2 LT ISZERO PUSH2 0x125D JUMPI DUP2 MLOAD PUSH2 0x1244 DUP9 DUP3 PUSH2 0x11EB JUMP JUMPDEST SWAP8 POP PUSH2 0x124F DUP4 PUSH2 0x1202 JUMP JUMPDEST SWAP3 POP POP PUSH1 0x1 DUP2 ADD SWAP1 POP PUSH2 0x1230 JUMP JUMPDEST POP DUP6 SWAP4 POP POP POP POP SWAP3 SWAP2 POP POP JUMP JUMPDEST PUSH0 PUSH1 0x60 DUP3 ADD SWAP1 POP DUP2 DUP2 SUB PUSH0 DUP4 ADD MSTORE PUSH2 0x1282 DUP2 DUP7 PUSH2 0xEAD JUMP JUMPDEST SWAP1 POP DUP2 DUP2 SUB PUSH1 0x20 DUP4 ADD MSTORE PUSH2 0x1296 DUP2 DUP6 PUSH2 0x10EF JUMP JUMPDEST SWAP1 POP DUP2 DUP2 SUB PUSH1 0x40 DUP4 ADD MSTORE PUSH2 0x12AA DUP2 DUP5 PUSH2 0x120E JUMP JUMPDEST SWAP1 POP SWAP5 SWAP4 POP POP POP POP JUMP JUMPDEST PUSH0 DUP1 REVERT JUMPDEST PUSH0 DUP1 REVERT JUMPDEST PUSH0 DUP1 REVERT JUMPDEST PUSH0 DUP1 DUP4 PUSH1 0x1F DUP5 ADD SLT PUSH2 0x12D5 JUMPI PUSH2 0x12D4 PUSH2 0x12B4 JUMP JUMPDEST JUMPDEST DUP3 CALLDATALOAD SWAP1 POP PUSH8 0xFFFFFFFFFFFFFFFF DUP2 GT ISZERO PUSH2 0x12F2 JUMPI PUSH2 0x12F1 PUSH2 0x12B8 JUMP JUMPDEST JUMPDEST PUSH1 0x20 DUP4 ADD SWAP2 POP DUP4 PUSH1 0x1 DUP3 MUL DUP4 ADD GT ISZERO PUSH2 0x130E JUMPI PUSH2 0x130D PUSH2 0x12BC JUMP JUMPDEST JUMPDEST SWAP3 POP SWAP3 SWAP1 POP JUMP JUMPDEST PUSH0 DUP1 DUP4 PUSH1 0x1F DUP5 ADD SLT PUSH2 0x132A JUMPI PUSH2 0x1329 PUSH2 0x12B4 JUMP JUMPDEST JUMPDEST DUP3 CALLDATALOAD SWAP1 POP PUSH8 0xFFFFFFFFFFFFFFFF DUP2 GT ISZERO PUSH2 0x1347 JUMPI PUSH2 0x1346 PUSH2 0x12B8 JUMP JUMPDEST JUMPDEST PUSH1 0x20 DUP4 ADD SWAP2 POP DUP4 PUSH1 0x20 DUP3 MUL DUP4 ADD GT ISZERO PUSH2 0x1363 JUMPI PUSH2 0x1362 PUSH2 0x12BC JUMP JUMPDEST JUMPDEST SWAP3 POP SWAP3 SWAP1 POP JUMP JUMPDEST PUSH0 DUP1 PUSH0 DUP1 PUSH0 PUSH1 0x60 DUP7 DUP9 SUB SLT ISZERO PUSH2 0x1383 JUMPI PUSH2 0x1382 PUSH2 0xD1B JUMP JUMPDEST JUMPDEST PUSH0 DUP7 ADD CALLDATALOAD PUSH8 0xFFFFFFFFFFFFFFFF DUP2 GT ISZERO PUSH2 0x13A0 JUMPI PUSH2 0x139F PUSH2 0xD1F JUMP JUMPDEST JUMPDEST PUSH2 0x13AC DUP9 DUP3 DUP10 ADD PUSH2 0x12C0 JUMP JUMPDEST SWAP6 POP SWAP6 POP POP PUSH1 0x20 DUP7 ADD CALLDATALOAD PUSH8 0xFFFFFFFFFFFFFFFF DUP2 GT ISZERO PUSH2 0x13CF JUMPI PUSH2 0x13CE PUSH2 0xD1F JUMP JUMPDEST JUMPDEST PUSH2 0x13DB DUP9 DUP3 DUP10 ADD PUSH2 0x1315 JUMP JUMPDEST SWAP4 POP SWAP4 POP POP PUSH1 0x40 PUSH2 0x13EE DUP9 DUP3 DUP10 ADD PUSH2 0xD42 JUMP JUMPDEST SWAP2 POP POP SWAP3 SWAP6 POP SWAP3 SWAP6 SWAP1 SWAP4 POP JUMP JUMPDEST PUSH2 0x1404 DUP2 PUSH2 0xF40 JUMP JUMPDEST DUP3 MSTORE POP POP JUMP JUMPDEST PUSH0 PUSH1 0x20 DUP3 ADD SWAP1 POP PUSH2 0x141D PUSH0 DUP4 ADD DUP5 PUSH2 0x13FB JUMP JUMPDEST SWAP3 SWAP2 POP POP JUMP JUMPDEST PUSH32 0x6E6F7420616C696769626C6520746F206368616E676500000000000000000000 PUSH0 DUP3 ADD MSTORE POP JUMP JUMPDEST PUSH0 PUSH2 0x1457 PUSH1 0x16 DUP4 PUSH2 0xE65 JUMP JUMPDEST SWAP2 POP PUSH2 0x1462 DUP3 PUSH2 0x1423 JUMP JUMPDEST PUSH1 0x20 DUP3 ADD SWAP1 POP SWAP2 SWAP1 POP JUMP JUMPDEST PUSH0 PUSH1 0x20 DUP3 ADD SWAP1 POP DUP2 DUP2 SUB PUSH0 DUP4 ADD MSTORE PUSH2 0x1484 DUP2 PUSH2 0x144B JUMP JUMPDEST SWAP1 POP SWAP2 SWAP1 POP JUMP JUMPDEST PUSH32 0x79652074696D65206B616D20686F206A61792067610000000000000000000000 PUSH0 DUP3 ADD MSTORE POP JUMP JUMPDEST PUSH0 PUSH2 0x14BF PUSH1 0x15 DUP4 PUSH2 0xE65 JUMP JUMPDEST SWAP2 POP PUSH2 0x14CA DUP3 PUSH2 0x148B JUMP JUMPDEST PUSH1 0x20 DUP3 ADD SWAP1 POP SWAP2 SWAP1 POP JUMP JUMPDEST PUSH0 PUSH1 0x20 DUP3 ADD SWAP1 POP DUP2 DUP2 SUB PUSH0 DUP4 ADD MSTORE PUSH2 0x14EC DUP2 PUSH2 0x14B3 JUMP JUMPDEST SWAP1 POP SWAP2 SWAP1 POP JUMP JUMPDEST PUSH32 0x4E487B7100000000000000000000000000000000000000000000000000000000 PUSH0 MSTORE PUSH1 0x22 PUSH1 0x4 MSTORE PUSH1 0x24 PUSH0 REVERT JUMPDEST PUSH0 PUSH1 0x2 DUP3 DIV SWAP1 POP PUSH1 0x1 DUP3 AND DUP1 PUSH2 0x1537 JUMPI PUSH1 0x7F DUP3 AND SWAP2 POP JUMPDEST PUSH1 0x20 DUP3 LT DUP2 SUB PUSH2 0x154A JUMPI PUSH2 0x1549 PUSH2 0x14F3 JUMP JUMPDEST JUMPDEST POP SWAP2 SWAP1 POP JUMP JUMPDEST PUSH32 0x4E487B7100000000000000000000000000000000000000000000000000000000 PUSH0 MSTORE PUSH1 0x41 PUSH1 0x4 MSTORE PUSH1 0x24 PUSH0 REVERT JUMPDEST PUSH32 0x4E487B7100000000000000000000000000000000000000000000000000000000 PUSH0 MSTORE PUSH1 0x32 PUSH1 0x4 MSTORE PUSH1 0x24 PUSH0 REVERT JUMPDEST PUSH32 0x4E487B7100000000000000000000000000000000000000000000000000000000 PUSH0 MSTORE PUSH1 0x11 PUSH1 0x4 MSTORE PUSH1 0x24 PUSH0 REVERT JUMPDEST PUSH0 PUSH2 0x15E1 DUP3 PUSH2 0xFD2 JUMP JUMPDEST SWAP2 POP PUSH1 0xFF DUP3 SUB PUSH2 0x15F4 JUMPI PUSH2 0x15F3 PUSH2 0x15AA JUMP JUMPDEST JUMPDEST PUSH1 0x1 DUP3 ADD SWAP1 POP SWAP2 SWAP1 POP JUMP JUMPDEST PUSH32 0x6E6F742061637469766500000000000000000000000000000000000000000000 PUSH0 DUP3 ADD MSTORE POP JUMP JUMPDEST PUSH0 PUSH2 0x1633 PUSH1 0xA DUP4 PUSH2 0xE65 JUMP JUMPDEST SWAP2 POP PUSH2 0x163E DUP3 PUSH2 0x15FF JUMP JUMPDEST PUSH1 0x20 DUP3 ADD SWAP1 POP SWAP2 SWAP1 POP JUMP JUMPDEST PUSH0 PUSH1 0x20 DUP3 ADD SWAP1 POP DUP2 DUP2 SUB PUSH0 DUP4 ADD MSTORE PUSH2 0x1660 DUP2 PUSH2 0x1627 JUMP JUMPDEST SWAP1 POP SWAP2 SWAP1 POP JUMP JUMPDEST PUSH32 0x74696D6520686164206F76657200000000000000000000000000000000000000 PUSH0 DUP3 ADD MSTORE POP JUMP JUMPDEST PUSH0 PUSH2 0x169B PUSH1 0xD DUP4 PUSH2 0xE65 JUMP JUMPDEST SWAP2 POP PUSH2 0x16A6 DUP3 PUSH2 0x1667 JUMP JUMPDEST PUSH1 0x20 DUP3 ADD SWAP1 POP SWAP2 SWAP1 POP JUMP JUMPDEST PUSH0 PUSH1 0x20 DUP3 ADD SWAP1 POP DUP2 DUP2 SUB PUSH0 DUP4 ADD MSTORE PUSH2 0x16C8 DUP2 PUSH2 0x168F JUMP JUMPDEST SWAP1 POP SWAP2 SWAP1 POP JUMP JUMPDEST PUSH32 0x796F757220766F746520666F72207468697320706F6C6C20686173206265656E PUSH0 DUP3 ADD MSTORE PUSH32 0x206D61726B656420000000000000000000000000000000000000000000000000 PUSH1 0x20 DUP3 ADD MSTORE POP JUMP JUMPDEST PUSH0 PUSH2 0x1729 PUSH1 0x28 DUP4 PUSH2 0xE65 JUMP JUMPDEST SWAP2 POP PUSH2 0x1734 DUP3 PUSH2 0x16CF JUMP JUMPDEST PUSH1 0x40 DUP3 ADD SWAP1 POP SWAP2 SWAP1 POP JUMP JUMPDEST PUSH0 PUSH1 0x20 DUP3 ADD SWAP1 POP DUP2 DUP2 SUB PUSH0 DUP4 ADD MSTORE PUSH2 0x1756 DUP2 PUSH2 0x171D JUMP JUMPDEST SWAP1 POP SWAP2 SWAP1 POP JUMP JUMPDEST PUSH0 PUSH2 0x1767 DUP3 PUSH2 0xD23 JUMP JUMPDEST SWAP2 POP PUSH32 0xFFFFFFFFFFFFFFFFFFFFFFFFFFFFFFFFFFFFFFFFFFFFFFFFFFFFFFFFFFFFFFFF DUP3 SUB PUSH2 0x1799 JUMPI PUSH2 0x1798 PUSH2 0x15AA JUMP JUMPDEST JUMPDEST PUSH1 0x1 DUP3 ADD SWAP1 POP SWAP2 SWAP1 POP JUMP JUMPDEST PUSH32 0x796F7520617265206E6F742061646D696E000000000000000000000000000000 PUSH0 DUP3 ADD MSTORE POP JUMP JUMPDEST PUSH0 PUSH2 0x17D8 PUSH1 0x11 DUP4 PUSH2 0xE65 JUMP JUMPDEST SWAP2 POP PUSH2 0x17E3 DUP3 PUSH2 0x17A4 JUMP JUMPDEST PUSH1 0x20 DUP3 ADD SWAP1 POP SWAP2 SWAP1 POP JUMP JUMPDEST PUSH0 PUSH1 0x20 DUP3 ADD SWAP1 POP DUP2 DUP2 SUB PUSH0 DUP4 ADD MSTORE PUSH2 0x1805 DUP2 PUSH2 0x17CC JUMP JUMPDEST SWAP1 POP SWAP2 SWAP1 POP JUMP JUMPDEST PUSH32 0x6D757374206D6F7265207468616E2032206F7074696F6E730000000000000000 PUSH0 DUP3 ADD MSTORE POP JUMP JUMPDEST PUSH0 PUSH2 0x1840 PUSH1 0x18 DUP4 PUSH2 0xE65 JUMP JUMPDEST SWAP2 POP PUSH2 0x184B DUP3 PUSH2 0x180C JUMP JUMPDEST PUSH1 0x20 DUP3 ADD SWAP1 POP SWAP2 SWAP1 POP JUMP JUMPDEST PUSH0 PUSH1 0x20 DUP3 ADD SWAP1 POP DUP2 DUP2 SUB PUSH0 DUP4 ADD MSTORE PUSH2 0x186D DUP2 PUSH2 0x1834 JUMP JUMPDEST SWAP1 POP SWAP2 SWAP1 POP JUMP JUMPDEST PUSH0 PUSH2 0x187E DUP3 PUSH2 0xD23 JUMP JUMPDEST SWAP2 POP PUSH2 0x1889 DUP4 PUSH2 0xD23 JUMP JUMPDEST SWAP3 POP DUP3 DUP3 MUL PUSH2 0x1897 DUP2 PUSH2 0xD23 JUMP JUMPDEST SWAP2 POP DUP3 DUP3 DIV DUP5 EQ DUP4 ISZERO OR PUSH2 0x18AE JUMPI PUSH2 0x18AD PUSH2 0x15AA JUMP JUMPDEST JUMPDEST POP SWAP3 SWAP2 POP POP JUMP JUMPDEST PUSH0 PUSH2 0x18BF DUP3 PUSH2 0xD23 JUMP JUMPDEST SWAP2 POP PUSH2 0x18CA DUP4 PUSH2 0xD23 JUMP JUMPDEST SWAP3 POP DUP3 DUP3 ADD SWAP1 POP DUP1 DUP3 GT ISZERO PUSH2 0x18E2 JUMPI PUSH2 0x18E1 PUSH2 0x15AA JUMP JUMPDEST JUMPDEST SWAP3 SWAP2 POP POP JUMP JUMPDEST PUSH2 0x18F1 DUP3 PUSH2 0xE9D JUMP JUMPDEST DUP2 ADD DUP2 DUP2 LT PUSH8 0xFFFFFFFFFFFFFFFF DUP3 GT OR ISZERO PUSH2 0x1910 JUMPI PUSH2 0x190F PUSH2 0x1550 JUMP JUMPDEST JUMPDEST DUP1 PUSH1 0x40 MSTORE POP POP POP JUMP JUMPDEST PUSH0 PUSH2 0x1922 PUSH2 0xD12 JUMP JUMPDEST SWAP1 POP PUSH2 0x192E DUP3 DUP3 PUSH2 0x18E8 JUMP JUMPDEST SWAP2 SWAP1 POP JUMP JUMPDEST PUSH0 PUSH8 0xFFFFFFFFFFFFFFFF DUP3 GT ISZERO PUSH2 0x194D JUMPI PUSH2 0x194C PUSH2 0x1550 JUMP JUMPDEST JUMPDEST PUSH1 0x20 DUP3 MUL SWAP1 POP PUSH1 0x20 DUP2 ADD SWAP1 POP SWAP2 SWAP1 POP JUMP JUMPDEST PUSH0 DUP1 REVERT JUMPDEST PUSH0 PUSH8 0xFFFFFFFFFFFFFFFF DUP3 GT ISZERO PUSH2 0x197C JUMPI PUSH2 0x197B PUSH2 0x1550 JUMP JUMPDEST JUMPDEST PUSH2 0x1985 DUP3 PUSH2 0xE9D JUMP JUMPDEST SWAP1 POP PUSH1 0x20 DUP2 ADD SWAP1 POP SWAP2 SWAP1 POP JUMP JUMPDEST DUP3 DUP2 DUP4 CALLDATACOPY PUSH0 DUP4 DUP4 ADD MSTORE POP POP POP JUMP JUMPDEST PUSH0 PUSH2 0x19B2 PUSH2 0x19AD DUP5 PUSH2 0x1962 JUMP JUMPDEST PUSH2 0x1919 JUMP JUMPDEST SWAP1 POP DUP3 DUP2 MSTORE PUSH1 0x20 DUP2 ADD DUP5 DUP5 DUP5 ADD GT ISZERO PUSH2 0x19CE JUMPI PUSH2 0x19CD PUSH2 0x195E JUMP JUMPDEST JUMPDEST PUSH2 0x19D9 DUP5 DUP3 DUP6 PUSH2 0x1992 JUMP JUMPDEST POP SWAP4 SWAP3 POP POP POP JUMP JUMPDEST PUSH0 DUP3 PUSH1 0x1F DUP4 ADD SLT PUSH2 0x19F5 JUMPI PUSH2 0x19F4 PUSH2 0x12B4 JUMP JUMPDEST JUMPDEST DUP2 CALLDATALOAD PUSH2 0x1A05 DUP5 DUP3 PUSH1 0x20 DUP7 ADD PUSH2 0x19A0 JUMP JUMPDEST SWAP2 POP POP SWAP3 SWAP2 POP POP JUMP JUMPDEST PUSH0 PUSH2 0x1A20 PUSH2 0x1A1B DUP5 PUSH2 0x1933 JUMP JUMPDEST PUSH2 0x1919 JUMP JUMPDEST SWAP1 POP DUP1 DUP4 DUP3 MSTORE PUSH1 0x20 DUP3 ADD SWAP1 POP PUSH1 0x20 DUP5 MUL DUP4 ADD DUP6 DUP2 GT ISZERO PUSH2 0x1A43 JUMPI PUSH2 0x1A42 PUSH2 0x12BC JUMP JUMPDEST JUMPDEST DUP4 JUMPDEST DUP2 DUP2 LT ISZERO PUSH2 0x1A8A JUMPI DUP1 CALLDATALOAD PUSH8 0xFFFFFFFFFFFFFFFF DUP2 GT ISZERO PUSH2 0x1A68 JUMPI PUSH2 0x1A67 PUSH2 0x12B4 JUMP JUMPDEST JUMPDEST DUP1 DUP7 ADD PUSH2 0x1A75 DUP10 DUP3 PUSH2 0x19E1 JUMP JUMPDEST DUP6 MSTORE PUSH1 0x20 DUP6 ADD SWAP5 POP POP POP PUSH1 0x20 DUP2 ADD SWAP1 POP PUSH2 0x1A45 JUMP JUMPDEST POP POP POP SWAP4 SWAP3 POP POP POP JUMP JUMPDEST PUSH0 PUSH2 0x1AA0 CALLDATASIZE DUP5 DUP5 PUSH2 0x1A0E JUMP JUMPDEST SWAP1 POP SWAP3 SWAP2 POP POP JUMP JUMPDEST PUSH0 DUP2 SWAP1 POP DUP2 PUSH0 MSTORE PUSH1 0x20 PUSH0 KECCAK256 SWAP1 POP SWAP2 SWAP1 POP JUMP JUMPDEST PUSH0 PUSH1 0x20 PUSH1 0x1F DUP4 ADD DIV SWAP1 POP SWAP2 SWAP1 POP JUMP JUMPDEST PUSH0 DUP3 DUP3 SHL SWAP1 POP SWAP3 SWAP2 POP POP JUMP JUMPDEST PUSH0 PUSH1 0x8 DUP4 MUL PUSH2 0x1B04 PUSH32 0xFFFFFFFFFFFFFFFFFFFFFFFFFFFFFFFFFFFFFFFFFFFFFFFFFFFFFFFFFFFFFFFF DUP3 PUSH2 0x1AC9 JUMP JUMPDEST PUSH2 0x1B0E DUP7 DUP4 PUSH2 0x1AC9 JUMP JUMPDEST SWAP6 POP DUP1 NOT DUP5 AND SWAP4 POP DUP1 DUP7 AND DUP5 OR SWAP3 POP POP POP SWAP4 SWAP3 POP POP POP JUMP JUMPDEST PUSH0 DUP2 SWAP1 POP SWAP2 SWAP1 POP JUMP JUMPDEST PUSH0 PUSH2 0x1B49 PUSH2 0x1B44 PUSH2 0x1B3F DUP5 PUSH2 0xD23 JUMP JUMPDEST PUSH2 0x1B26 JUMP JUMPDEST PUSH2 0xD23 JUMP JUMPDEST SWAP1 POP SWAP2 SWAP1 POP JUMP JUMPDEST PUSH0 DUP2 SWAP1 POP SWAP2 SWAP1 POP JUMP JUMPDEST PUSH2 0x1B62 DUP4 PUSH2 0x1B2F JUMP JUMPDEST PUSH2 0x1B76 PUSH2 0x1B6E DUP3 PUSH2 0x1B50 JUMP JUMPDEST DUP5 DUP5 SLOAD PUSH2 0x1AD5 JUMP JUMPDEST DUP3 SSTORE POP POP POP POP JUMP JUMPDEST PUSH0 SWAP1 JUMP JUMPDEST PUSH2 0x1B8A PUSH2 0x1B7E JUMP JUMPDEST PUSH2 0x1B95 DUP2 DUP5 DUP5 PUSH2 0x1B59 JUMP JUMPDEST POP POP POP JUMP JUMPDEST JUMPDEST DUP2 DUP2 LT ISZERO PUSH2 0x1BB8 JUMPI PUSH2 0x1BAD PUSH0 DUP3 PUSH2 0x1B82 JUMP JUMPDEST PUSH1 0x1 DUP2 ADD SWAP1 POP PUSH2 0x1B9B JUMP JUMPDEST POP POP JUMP JUMPDEST PUSH1 0x1F DUP3 GT ISZERO PUSH2 0x1BFD JUMPI PUSH2 0x1BCE DUP2 PUSH2 0x1AA8 JUMP JUMPDEST PUSH2 0x1BD7 DUP5 PUSH2 0x1ABA JUMP JUMPDEST DUP2 ADD PUSH1 0x20 DUP6 LT ISZERO PUSH2 0x1BE6 JUMPI DUP2 SWAP1 POP JUMPDEST PUSH2 0x1BFA PUSH2 0x1BF2 DUP6 PUSH2 0x1ABA JUMP JUMPDEST DUP4 ADD DUP3 PUSH2 0x1B9A JUMP JUMPDEST POP POP JUMPDEST POP POP POP JUMP JUMPDEST PUSH0 DUP3 DUP3 SHR SWAP1 POP SWAP3 SWAP2 POP POP JUMP JUMPDEST PUSH0 PUSH2 0x1C1D PUSH0 NOT DUP5 PUSH1 0x8 MUL PUSH2 0x1C02 JUMP JUMPDEST NOT DUP1 DUP4 AND SWAP2 POP POP SWAP3 SWAP2 POP POP JUMP JUMPDEST PUSH0 PUSH2 0x1C35 DUP4 DUP4 PUSH2 0x1C0E JUMP JUMPDEST SWAP2 POP DUP3 PUSH1 0x2 MUL DUP3 OR SWAP1 POP SWAP3 SWAP2 POP POP JUMP JUMPDEST PUSH2 0x1C4E DUP3 PUSH2 0xE5B JUMP JUMPDEST PUSH8 0xFFFFFFFFFFFFFFFF DUP2 GT ISZERO PUSH2 0x1C67 JUMPI PUSH2 0x1C66 PUSH2 0x1550 JUMP JUMPDEST JUMPDEST PUSH2 0x1C71 DUP3 SLOAD PUSH2 0x1520 JUMP JUMPDEST PUSH2 0x1C7C DUP3 DUP3 DUP6 PUSH2 0x1BBC JUMP JUMPDEST PUSH0 PUSH1 0x20 SWAP1 POP PUSH1 0x1F DUP4 GT PUSH1 0x1 DUP2 EQ PUSH2 0x1CAD JUMPI PUSH0 DUP5 ISZERO PUSH2 0x1C9B JUMPI DUP3 DUP8 ADD MLOAD SWAP1 POP JUMPDEST PUSH2 0x1CA5 DUP6 DUP3 PUSH2 0x1C2A JUMP JUMPDEST DUP7 SSTORE POP PUSH2 0x1D0C JUMP JUMPDEST PUSH1 0x1F NOT DUP5 AND PUSH2 0x1CBB DUP7 PUSH2 0x1AA8 JUMP JUMPDEST PUSH0 JUMPDEST DUP3 DUP2 LT ISZERO PUSH2 0x1CE2 JUMPI DUP5 DUP10 ADD MLOAD DUP3 SSTORE PUSH1 0x1 DUP3 ADD SWAP2 POP PUSH1 0x20 DUP6 ADD SWAP5 POP PUSH1 0x20 DUP2 ADD SWAP1 POP PUSH2 0x1CBD JUMP JUMPDEST DUP7 DUP4 LT ISZERO PUSH2 0x1CFF JUMPI DUP5 DUP10 ADD MLOAD PUSH2 0x1CFB PUSH1 0x1F DUP10 AND DUP3 PUSH2 0x1C0E JUMP JUMPDEST DUP4 SSTORE POP JUMPDEST PUSH1 0x1 PUSH1 0x2 DUP9 MUL ADD DUP9 SSTORE POP POP POP JUMPDEST POP POP POP POP POP POP JUMP INVALID LOG2 PUSH5 0x6970667358 0x22 SLT KECCAK256 PUSH21 0x774C8056586299DA9C971F08F028CD06329FBC2208 0xE3 JUMPI 0xCA 0x4C ISZERO INVALID 0xAD ADD 0x1F CALLDATALOAD PUSH5 0x736F6C6343 STOP ADDMOD EQ STOP CALLER "
				},
				"gasEstimates": {
					"creation": {
						"codeDepositCost": "1499600",
						"executionCost": "25832",
						"totalCost": "1525432"
					},
					"external": {
						"AdminControl(uint256,uint16,bool)": "51681",
						"Create_poll(string,string[],uint256)": "infinite",
						"Polls(uint256)": "infinite",
						"Result(uint256)": "infinite",
						"Vote(uint256,uint8)": "infinite",
						"admin()": "2596",
						"check(uint256)": "infinite",
						"hasVoted(uint256,address)": "3116",
						"totalpolls()": "2447",
						"votesCount(uint256,uint8)": "infinite"
					}
				},
				"methodIdentifiers": {
					"AdminControl(uint256,uint16,bool)": "023441de",
					"Create_poll(string,string[],uint256)": "f716362a",
					"Polls(uint256)": "09aaf058",
					"Result(uint256)": "a9bb0fa1",
					"Vote(uint256,uint8)": "ed6ead00",
					"admin()": "f851a440",
					"check(uint256)": "5f72f450",
					"hasVoted(uint256,address)": "43859632",
					"totalpolls()": "e18f1661",
					"votesCount(uint256,uint8)": "54616059"
				}
			},
			"storageLayout": {
				"storage": [
					{
						"astId": 16,
						"contract": "contracts/votings.sol:voting",
						"label": "Polls",
						"offset": 0,
						"slot": "0",
						"type": "t_mapping(t_uint256,t_struct(poll)11_storage)"
					},
					{
						"astId": 22,
						"contract": "contracts/votings.sol:voting",
						"label": "hasVoted",
						"offset": 0,
						"slot": "1",
						"type": "t_mapping(t_uint256,t_mapping(t_address,t_bool))"
					},
					{
						"astId": 28,
						"contract": "contracts/votings.sol:voting",
						"label": "votesCount",
						"offset": 0,
						"slot": "2",
						"type": "t_mapping(t_uint256,t_mapping(t_uint8,t_uint256))"
					},
					{
						"astId": 30,
						"contract": "contracts/votings.sol:voting",
						"label": "totalpolls",
						"offset": 0,
						"slot": "3",
						"type": "t_uint256"
					},
					{
						"astId": 33,
						"contract": "contracts/votings.sol:voting",
						"label": "admin",
						"offset": 0,
						"slot": "4",
						"type": "t_address"
					}
				],
				"types": {
					"t_address": {
						"encoding": "inplace",
						"label": "address",
						"numberOfBytes": "20"
					},
					"t_array(t_string_storage)dyn_storage": {
						"base": "t_string_storage",
						"encoding": "dynamic_array",
						"label": "string[]",
						"numberOfBytes": "32"
					},
					"t_bool": {
						"encoding": "inplace",
						"label": "bool",
						"numberOfBytes": "1"
					},
					"t_mapping(t_address,t_bool)": {
						"encoding": "mapping",
						"key": "t_address",
						"label": "mapping(address => bool)",
						"numberOfBytes": "32",
						"value": "t_bool"
					},
					"t_mapping(t_uint256,t_mapping(t_address,t_bool))": {
						"encoding": "mapping",
						"key": "t_uint256",
						"label": "mapping(uint256 => mapping(address => bool))",
						"numberOfBytes": "32",
						"value": "t_mapping(t_address,t_bool)"
					},
					"t_mapping(t_uint256,t_mapping(t_uint8,t_uint256))": {
						"encoding": "mapping",
						"key": "t_uint256",
						"label": "mapping(uint256 => mapping(uint8 => uint256))",
						"numberOfBytes": "32",
						"value": "t_mapping(t_uint8,t_uint256)"
					},
					"t_mapping(t_uint256,t_struct(poll)11_storage)": {
						"encoding": "mapping",
						"key": "t_uint256",
						"label": "mapping(uint256 => struct voting.poll)",
						"numberOfBytes": "32",
						"value": "t_struct(poll)11_storage"
					},
					"t_mapping(t_uint8,t_uint256)": {
						"encoding": "mapping",
						"key": "t_uint8",
						"label": "mapping(uint8 => uint256)",
						"numberOfBytes": "32",
						"value": "t_uint256"
					},
					"t_string_storage": {
						"encoding": "bytes",
						"label": "string",
						"numberOfBytes": "32"
					},
					"t_struct(poll)11_storage": {
						"encoding": "inplace",
						"label": "struct voting.poll",
						"members": [
							{
								"astId": 3,
								"contract": "contracts/votings.sol:voting",
								"label": "isActive",
								"offset": 0,
								"slot": "0",
								"type": "t_bool"
							},
							{
								"astId": 5,
								"contract": "contracts/votings.sol:voting",
								"label": "EndTime",
								"offset": 0,
								"slot": "1",
								"type": "t_uint256"
							},
							{
								"astId": 8,
								"contract": "contracts/votings.sol:voting",
								"label": "options",
								"offset": 0,
								"slot": "2",
								"type": "t_array(t_string_storage)dyn_storage"
							},
							{
								"astId": 10,
								"contract": "contracts/votings.sol:voting",
								"label": "title",
								"offset": 0,
								"slot": "3",
								"type": "t_string_storage"
							}
						],
						"numberOfBytes": "128"
					},
					"t_uint256": {
						"encoding": "inplace",
						"label": "uint256",
						"numberOfBytes": "32"
					},
					"t_uint8": {
						"encoding": "inplace",
						"label": "uint8",
						"numberOfBytes": "1"
					}
				}
			},
			"userdoc": {
				"kind": "user",
				"methods": {},
				"version": 1
			}
		}
	}
}