{
	"contracts/blockTime.sol": {
		"CryptoLocker": {
			"abi": [
				{
					"anonymous": false,
					"inputs": [
						{
							"indexed": true,
							"internalType": "address",
							"name": "user",
							"type": "address"
						},
						{
							"indexed": false,
							"internalType": "uint256",
							"name": "amount",
							"type": "uint256"
						},
						{
							"indexed": false,
							"internalType": "uint256",
							"name": "unlockTime",
							"type": "uint256"
						},
						{
							"indexed": false,
							"internalType": "uint256",
							"name": "depositIndex",
							"type": "uint256"
						}
					],
					"name": "Deposited",
					"type": "event"
				},
				{
					"anonymous": false,
					"inputs": [
						{
							"indexed": true,
							"internalType": "address",
							"name": "user",
							"type": "address"
						},
						{
							"indexed": false,
							"internalType": "uint256",
							"name": "amount",
							"type": "uint256"
						},
						{
							"indexed": false,
							"internalType": "uint256",
							"name": "depositIndex",
							"type": "uint256"
						}
					],
					"name": "Withdrawn",
					"type": "event"
				},
				{
					"inputs": [
						{
							"internalType": "uint256",
							"name": "_lockDuration",
							"type": "uint256"
						}
					],
					"name": "deposit",
					"outputs": [],
					"stateMutability": "payable",
					"type": "function"
				},
				{
					"inputs": [],
					"name": "getContractBalance",
					"outputs": [
						{
							"internalType": "uint256",
							"name": "",
							"type": "uint256"
						}
					],
					"stateMutability": "view",
					"type": "function"
				},
				{
					"inputs": [
						{
							"internalType": "address",
							"name": "_user",
							"type": "address"
						},
						{
							"internalType": "uint256",
							"name": "_depositIndex",
							"type": "uint256"
						}
					],
					"name": "getTimeUntilUnlock",
					"outputs": [
						{
							"internalType": "uint256",
							"name": "",
							"type": "uint256"
						}
					],
					"stateMutability": "view",
					"type": "function"
				},
				{
					"inputs": [
						{
							"internalType": "address",
							"name": "_user",
							"type": "address"
						}
					],
					"name": "getUserDepositCount",
					"outputs": [
						{
							"internalType": "uint256",
							"name": "",
							"type": "uint256"
						}
					],
					"stateMutability": "view",
					"type": "function"
				},
				{
					"inputs": [
						{
							"internalType": "address",
							"name": "_user",
							"type": "address"
						}
					],
					"name": "getUserDeposits",
					"outputs": [
						{
							"components": [
								{
									"internalType": "uint256",
									"name": "amount",
									"type": "uint256"
								},
								{
									"internalType": "uint256",
									"name": "unlockTime",
									"type": "uint256"
								},
								{
									"internalType": "bool",
									"name": "withdrawn",
									"type": "bool"
								}
							],
							"internalType": "struct CryptoLocker.Deposit[]",
							"name": "",
							"type": "tuple[]"
						}
					],
					"stateMutability": "view",
					"type": "function"
				},
				{
					"inputs": [
						{
							"internalType": "address",
							"name": "_user",
							"type": "address"
						},
						{
							"internalType": "uint256",
							"name": "_depositIndex",
							"type": "uint256"
						}
					],
					"name": "isUnlocked",
					"outputs": [
						{
							"internalType": "bool",
							"name": "",
							"type": "bool"
						}
					],
					"stateMutability": "view",
					"type": "function"
				},
				{
					"inputs": [
						{
							"internalType": "address",
							"name": "",
							"type": "address"
						},
						{
							"internalType": "uint256",
							"name": "",
							"type": "uint256"
						}
					],
					"name": "userDeposits",
					"outputs": [
						{
							"internalType": "uint256",
							"name": "amount",
							"type": "uint256"
						},
						{
							"internalType": "uint256",
							"name": "unlockTime",
							"type": "uint256"
						},
						{
							"internalType": "bool",
							"name": "withdrawn",
							"type": "bool"
						}
					],
					"stateMutability": "view",
					"type": "function"
				},
				{
					"inputs": [
						{
							"internalType": "uint256",
							"name": "_depositIndex",
							"type": "uint256"
						}
					],
					"name": "withdraw",
					"outputs": [],
					"stateMutability": "nonpayable",
					"type": "function"
				}
			],
			"devdoc": {
				"kind": "dev",
				"methods": {
					"deposit(uint256)": {
						"details": "Deposit Ether with a lock-in period",
						"params": {
							"_lockDuration": "Time in seconds to lock the funds"
						}
					},
					"getTimeUntilUnlock(address,uint256)": {
						"details": "Get time remaining until unlock (in seconds)"
					},
					"getUserDepositCount(address)": {
						"details": "Get total number of deposits for a user"
					},
					"getUserDeposits(address)": {
						"details": "Get all deposits for a user"
					},
					"isUnlocked(address,uint256)": {
						"details": "Check if a specific deposit is unlocked"
					},
					"withdraw(uint256)": {
						"details": "Withdraw a specific deposit",
						"params": {
							"_depositIndex": "Index of the deposit to withdraw"
						}
					}
				},
				"version": 1
			},
			"evm": {
				"assembly": "    /* \"contracts/blockTime.sol\":60:4101  contract CryptoLocker {... */\n  mstore(0x40, 0x80)\n  callvalue\n  dup1\n  iszero\n  tag_1\n  jumpi\n  0x00\n  dup1\n  revert\ntag_1:\n  pop\n  dataSize(sub_0)\n  dup1\n  dataOffset(sub_0)\n  0x00\n  codecopy\n  0x00\n  return\nstop\n\nsub_0: assembly {\n        /* \"contracts/blockTime.sol\":60:4101  contract CryptoLocker {... */\n      mstore(0x40, 0x80)\n      jumpi(tag_1, lt(calldatasize, 0x04))\n      shr(0xe0, calldataload(0x00))\n      dup1\n      0x30dbb4e4\n      gt\n      tag_10\n      jumpi\n      dup1\n      0x30dbb4e4\n      eq\n      tag_6\n      jumpi\n      dup1\n      0x6f9fb98a\n      eq\n      tag_7\n      jumpi\n      dup1\n      0x82387c23\n      eq\n      tag_8\n      jumpi\n      dup1\n      0xb6b55f25\n      eq\n      tag_9\n      jumpi\n      jump(tag_1)\n    tag_10:\n      dup1\n      0x08f43333\n      eq\n      tag_2\n      jumpi\n      dup1\n      0x1bae91a4\n      eq\n      tag_3\n      jumpi\n      dup1\n      0x2a5bf6d2\n      eq\n      tag_4\n      jumpi\n      dup1\n      0x2e1a7d4d\n      eq\n      tag_5\n      jumpi\n    tag_1:\n      0x00\n      dup1\n      revert\n        /* \"contracts/blockTime.sol\":401:450  mapping(address => Deposit[]) public userDeposits */\n    tag_2:\n      callvalue\n      dup1\n      iszero\n      tag_11\n      jumpi\n      0x00\n      dup1\n      revert\n    tag_11:\n      pop\n      tag_12\n      0x04\n      dup1\n      calldatasize\n      sub\n      dup2\n      add\n      swap1\n      tag_13\n      swap2\n      swap1\n      tag_14\n      jump\t// in\n    tag_13:\n      tag_15\n      jump\t// in\n    tag_12:\n      mload(0x40)\n      tag_16\n      swap4\n      swap3\n      swap2\n      swap1\n      tag_17\n      jump\t// in\n    tag_16:\n      mload(0x40)\n      dup1\n      swap2\n      sub\n      swap1\n      return\n        /* \"contracts/blockTime.sol\":2939:3067  function getUserDepositCount(address _user) external view returns (uint256) {... */\n    tag_3:\n      callvalue\n      dup1\n      iszero\n      tag_18\n      jumpi\n      0x00\n      dup1\n      revert\n    tag_18:\n      pop\n      tag_19\n      0x04\n      dup1\n      calldatasize\n      sub\n      dup2\n      add\n      swap1\n      tag_20\n      swap2\n      swap1\n      tag_21\n      jump\t// in\n    tag_20:\n      tag_22\n      jump\t// in\n    tag_19:\n      mload(0x40)\n      tag_23\n      swap2\n      swap1\n      tag_24\n      jump\t// in\n    tag_23:\n      mload(0x40)\n      dup1\n      swap2\n      sub\n      swap1\n      return\n        /* \"contracts/blockTime.sol\":2730:2856  function getUserDeposits(address _user) external view returns (Deposit[] memory) {... */\n    tag_4:\n      callvalue\n      dup1\n      iszero\n      tag_25\n      jumpi\n      0x00\n      dup1\n      revert\n    tag_25:\n      pop\n      tag_26\n      0x04\n      dup1\n      calldatasize\n      sub\n      dup2\n      add\n      swap1\n      tag_27\n      swap2\n      swap1\n      tag_21\n      jump\t// in\n    tag_27:\n      tag_28\n      jump\t// in\n    tag_26:\n      mload(0x40)\n      tag_29\n      swap2\n      swap1\n      tag_30\n      jump\t// in\n    tag_29:\n      mload(0x40)\n      dup1\n      swap2\n      sub\n      swap1\n      return\n        /* \"contracts/blockTime.sol\":1694:2659  function withdraw(uint256 _depositIndex) external {... */\n    tag_5:\n      callvalue\n      dup1\n      iszero\n      tag_31\n      jumpi\n      0x00\n      dup1\n      revert\n    tag_31:\n      pop\n      tag_32\n      0x04\n      dup1\n      calldatasize\n      sub\n      dup2\n      add\n      swap1\n      tag_33\n      swap2\n      swap1\n      tag_34\n      jump\t// in\n    tag_33:\n      tag_35\n      jump\t// in\n    tag_32:\n      stop\n        /* \"contracts/blockTime.sol\":3150:3414  function isUnlocked(address _user, uint256 _depositIndex) external view returns (bool) {... */\n    tag_6:\n      callvalue\n      dup1\n      iszero\n      tag_36\n      jumpi\n      0x00\n      dup1\n      revert\n    tag_36:\n      pop\n      tag_37\n      0x04\n      dup1\n      calldatasize\n      sub\n      dup2\n      add\n      swap1\n      tag_38\n      swap2\n      swap1\n      tag_14\n      jump\t// in\n    tag_38:\n      tag_39\n      jump\t// in\n    tag_37:\n      mload(0x40)\n      tag_40\n      swap2\n      swap1\n      tag_41\n      jump\t// in\n    tag_40:\n      mload(0x40)\n      dup1\n      swap2\n      sub\n      swap1\n      return\n        /* \"contracts/blockTime.sol\":3989:4098  function getContractBalance() external view returns (uint256) {... */\n    tag_7:\n      callvalue\n      dup1\n      iszero\n      tag_42\n      jumpi\n      0x00\n      dup1\n      revert\n    tag_42:\n      pop\n      tag_43\n      tag_44\n      jump\t// in\n    tag_43:\n      mload(0x40)\n      tag_45\n      swap2\n      swap1\n      tag_24\n      jump\t// in\n    tag_45:\n      mload(0x40)\n      dup1\n      swap2\n      sub\n      swap1\n      return\n        /* \"contracts/blockTime.sol\":3502:3948  function getTimeUntilUnlock(address _user, uint256 _depositIndex) external view returns (uint256) {... */\n    tag_8:\n      callvalue\n      dup1\n      iszero\n      tag_46\n      jumpi\n      0x00\n      dup1\n      revert\n    tag_46:\n      pop\n      tag_47\n      0x04\n      dup1\n      calldatasize\n      sub\n      dup2\n      add\n      swap1\n      tag_48\n      swap2\n      swap1\n      tag_14\n      jump\t// in\n    tag_48:\n      tag_49\n      jump\t// in\n    tag_47:\n      mload(0x40)\n      tag_50\n      swap2\n      swap1\n      tag_24\n      jump\t// in\n    tag_50:\n      mload(0x40)\n      dup1\n      swap2\n      sub\n      swap1\n      return\n        /* \"contracts/blockTime.sol\":811:1561  function deposit(uint256 _lockDuration) external payable {... */\n    tag_9:\n      tag_51\n      0x04\n      dup1\n      calldatasize\n      sub\n      dup2\n      add\n      swap1\n      tag_52\n      swap2\n      swap1\n      tag_34\n      jump\t// in\n    tag_52:\n      tag_53\n      jump\t// in\n    tag_51:\n      stop\n        /* \"contracts/blockTime.sol\":401:450  mapping(address => Deposit[]) public userDeposits */\n    tag_15:\n      mstore(0x20, 0x00)\n      dup2\n      0x00\n      mstore\n      keccak256(0x00, 0x40)\n      dup2\n      dup2\n      sload\n      dup2\n      lt\n      tag_54\n      jumpi\n      0x00\n      dup1\n      revert\n    tag_54:\n      swap1\n      0x00\n      mstore\n      keccak256(0x00, 0x20)\n      swap1\n      0x03\n      mul\n      add\n      0x00\n      swap2\n      pop\n      swap2\n      pop\n      pop\n      dup1\n      0x00\n      add\n      sload\n      swap1\n      dup1\n      0x01\n      add\n      sload\n      swap1\n      dup1\n      0x02\n      add\n      0x00\n      swap1\n      sload\n      swap1\n      0x0100\n      exp\n      swap1\n      div\n      0xff\n      and\n      swap1\n      pop\n      dup4\n      jump\t// out\n        /* \"contracts/blockTime.sol\":2939:3067  function getUserDepositCount(address _user) external view returns (uint256) {... */\n    tag_22:\n        /* \"contracts/blockTime.sol\":3006:3013  uint256 */\n      0x00\n        /* \"contracts/blockTime.sol\":3033:3045  userDeposits */\n      dup1\n        /* \"contracts/blockTime.sol\":3033:3052  userDeposits[_user] */\n      0x00\n        /* \"contracts/blockTime.sol\":3046:3051  _user */\n      dup4\n        /* \"contracts/blockTime.sol\":3033:3052  userDeposits[_user] */\n      0xffffffffffffffffffffffffffffffffffffffff\n      and\n      0xffffffffffffffffffffffffffffffffffffffff\n      and\n      dup2\n      mstore\n      0x20\n      add\n      swap1\n      dup2\n      mstore\n      0x20\n      add\n      0x00\n      keccak256\n        /* \"contracts/blockTime.sol\":3033:3059  userDeposits[_user].length */\n      dup1\n      sload\n      swap1\n      pop\n        /* \"contracts/blockTime.sol\":3026:3059  return userDeposits[_user].length */\n      swap1\n      pop\n        /* \"contracts/blockTime.sol\":2939:3067  function getUserDepositCount(address _user) external view returns (uint256) {... */\n      swap2\n      swap1\n      pop\n      jump\t// out\n        /* \"contracts/blockTime.sol\":2730:2856  function getUserDeposits(address _user) external view returns (Deposit[] memory) {... */\n    tag_28:\n        /* \"contracts/blockTime.sol\":2793:2809  Deposit[] memory */\n      0x60\n        /* \"contracts/blockTime.sol\":2829:2841  userDeposits */\n      0x00\n        /* \"contracts/blockTime.sol\":2829:2848  userDeposits[_user] */\n      dup1\n        /* \"contracts/blockTime.sol\":2842:2847  _user */\n      dup4\n        /* \"contracts/blockTime.sol\":2829:2848  userDeposits[_user] */\n      0xffffffffffffffffffffffffffffffffffffffff\n      and\n      0xffffffffffffffffffffffffffffffffffffffff\n      and\n      dup2\n      mstore\n      0x20\n      add\n      swap1\n      dup2\n      mstore\n      0x20\n      add\n      0x00\n      keccak256\n        /* \"contracts/blockTime.sol\":2822:2848  return userDeposits[_user] */\n      dup1\n      sload\n      dup1\n      0x20\n      mul\n      0x20\n      add\n      mload(0x40)\n      swap1\n      dup2\n      add\n      0x40\n      mstore\n      dup1\n      swap3\n      swap2\n      swap1\n      dup2\n      dup2\n      mstore\n      0x20\n      add\n      0x00\n      swap1\n    tag_58:\n      dup3\n      dup3\n      lt\n      iszero\n      tag_59\n      jumpi\n      dup4\n      dup3\n      swap1\n      0x00\n      mstore\n      keccak256(0x00, 0x20)\n      swap1\n      0x03\n      mul\n      add\n      mload(0x40)\n      dup1\n      0x60\n      add\n      0x40\n      mstore\n      swap1\n      dup2\n      0x00\n      dup3\n      add\n      sload\n      dup2\n      mstore\n      0x20\n      add\n      0x01\n      dup3\n      add\n      sload\n      dup2\n      mstore\n      0x20\n      add\n      0x02\n      dup3\n      add\n      0x00\n      swap1\n      sload\n      swap1\n      0x0100\n      exp\n      swap1\n      div\n      0xff\n      and\n      iszero\n      iszero\n      iszero\n      iszero\n      dup2\n      mstore\n      pop\n      pop\n      dup2\n      mstore\n      0x20\n      add\n      swap1\n      0x01\n      add\n      swap1\n      jump(tag_58)\n    tag_59:\n      pop\n      pop\n      pop\n      pop\n      swap1\n      pop\n        /* \"contracts/blockTime.sol\":2730:2856  function getUserDeposits(address _user) external view returns (Deposit[] memory) {... */\n      swap2\n      swap1\n      pop\n      jump\t// out\n        /* \"contracts/blockTime.sol\":1694:2659  function withdraw(uint256 _depositIndex) external {... */\n    tag_35:\n        /* \"contracts/blockTime.sol\":1787:1813  Deposit[] storage deposits */\n      0x00\n        /* \"contracts/blockTime.sol\":1816:1828  userDeposits */\n      dup1\n        /* \"contracts/blockTime.sol\":1816:1840  userDeposits[msg.sender] */\n      0x00\n        /* \"contracts/blockTime.sol\":1829:1839  msg.sender */\n      caller\n        /* \"contracts/blockTime.sol\":1816:1840  userDeposits[msg.sender] */\n      0xffffffffffffffffffffffffffffffffffffffff\n      and\n      0xffffffffffffffffffffffffffffffffffffffff\n      and\n      dup2\n      mstore\n      0x20\n      add\n      swap1\n      dup2\n      mstore\n      0x20\n      add\n      0x00\n      keccak256\n        /* \"contracts/blockTime.sol\":1787:1840  Deposit[] storage deposits = userDeposits[msg.sender] */\n      swap1\n      pop\n        /* \"contracts/blockTime.sol\":1920:1928  deposits */\n      dup1\n        /* \"contracts/blockTime.sol\":1920:1935  deposits.length */\n      dup1\n      sload\n      swap1\n      pop\n        /* \"contracts/blockTime.sol\":1904:1917  _depositIndex */\n      dup3\n        /* \"contracts/blockTime.sol\":1904:1935  _depositIndex < deposits.length */\n      lt\n        /* \"contracts/blockTime.sol\":1896:1961  require(_depositIndex < deposits.length, \"Invalid deposit index\") */\n      tag_62\n      jumpi\n      mload(0x40)\n      0x08c379a000000000000000000000000000000000000000000000000000000000\n      dup2\n      mstore\n      0x04\n      add\n      tag_63\n      swap1\n      tag_64\n      jump\t// in\n    tag_63:\n      mload(0x40)\n      dup1\n      swap2\n      sub\n      swap1\n      revert\n    tag_62:\n        /* \"contracts/blockTime.sol\":1982:2009  Deposit storage userDeposit */\n      0x00\n        /* \"contracts/blockTime.sol\":2012:2020  deposits */\n      dup2\n        /* \"contracts/blockTime.sol\":2021:2034  _depositIndex */\n      dup4\n        /* \"contracts/blockTime.sol\":2012:2035  deposits[_depositIndex] */\n      dup2\n      sload\n      dup2\n      lt\n      tag_65\n      jumpi\n      tag_66\n      tag_67\n      jump\t// in\n    tag_66:\n    tag_65:\n      swap1\n      0x00\n      mstore\n      keccak256(0x00, 0x20)\n      swap1\n      0x03\n      mul\n      add\n        /* \"contracts/blockTime.sol\":1982:2035  Deposit storage userDeposit = deposits[_depositIndex] */\n      swap1\n      pop\n        /* \"contracts/blockTime.sol\":2104:2115  userDeposit */\n      dup1\n        /* \"contracts/blockTime.sol\":2104:2125  userDeposit.withdrawn */\n      0x02\n      add\n      0x00\n      swap1\n      sload\n      swap1\n      0x0100\n      exp\n      swap1\n      div\n      0xff\n      and\n        /* \"contracts/blockTime.sol\":2103:2125  !userDeposit.withdrawn */\n      iszero\n        /* \"contracts/blockTime.sol\":2095:2147  require(!userDeposit.withdrawn, \"Already withdrawn\") */\n      tag_69\n      jumpi\n      mload(0x40)\n      0x08c379a000000000000000000000000000000000000000000000000000000000\n      dup2\n      mstore\n      0x04\n      add\n      tag_70\n      swap1\n      tag_71\n      jump\t// in\n    tag_70:\n      mload(0x40)\n      dup1\n      swap2\n      sub\n      swap1\n      revert\n    tag_69:\n        /* \"contracts/blockTime.sol\":2237:2248  userDeposit */\n      dup1\n        /* \"contracts/blockTime.sol\":2237:2259  userDeposit.unlockTime */\n      0x01\n      add\n      sload\n        /* \"contracts/blockTime.sol\":2218:2233  block.timestamp */\n      timestamp\n        /* \"contracts/blockTime.sol\":2218:2259  block.timestamp >= userDeposit.unlockTime */\n      lt\n      iszero\n        /* \"contracts/blockTime.sol\":2210:2286  require(block.timestamp >= userDeposit.unlockTime, \"Funds are still locked\") */\n      tag_72\n      jumpi\n      mload(0x40)\n      0x08c379a000000000000000000000000000000000000000000000000000000000\n      dup2\n      mstore\n      0x04\n      add\n      tag_73\n      swap1\n      tag_74\n      jump\t// in\n    tag_73:\n      mload(0x40)\n      dup1\n      swap2\n      sub\n      swap1\n      revert\n    tag_72:\n        /* \"contracts/blockTime.sol\":2361:2365  true */\n      0x01\n        /* \"contracts/blockTime.sol\":2337:2348  userDeposit */\n      dup2\n        /* \"contracts/blockTime.sol\":2337:2358  userDeposit.withdrawn */\n      0x02\n      add\n      0x00\n        /* \"contracts/blockTime.sol\":2337:2365  userDeposit.withdrawn = true */\n      0x0100\n      exp\n      dup2\n      sload\n      dup2\n      0xff\n      mul\n      not\n      and\n      swap1\n      dup4\n      iszero\n      iszero\n      mul\n      or\n      swap1\n      sstore\n      pop\n        /* \"contracts/blockTime.sol\":2386:2400  uint256 amount */\n      0x00\n        /* \"contracts/blockTime.sol\":2403:2414  userDeposit */\n      dup2\n        /* \"contracts/blockTime.sol\":2403:2421  userDeposit.amount */\n      0x00\n      add\n      sload\n        /* \"contracts/blockTime.sol\":2386:2421  uint256 amount = userDeposit.amount */\n      swap1\n      pop\n        /* \"contracts/blockTime.sol\":2483:2495  bool success */\n      0x00\n        /* \"contracts/blockTime.sol\":2501:2511  msg.sender */\n      caller\n        /* \"contracts/blockTime.sol\":2501:2516  msg.sender.call */\n      0xffffffffffffffffffffffffffffffffffffffff\n      and\n        /* \"contracts/blockTime.sol\":2524:2530  amount */\n      dup3\n        /* \"contracts/blockTime.sol\":2501:2535  msg.sender.call{value: amount}(\"\") */\n      mload(0x40)\n      tag_75\n      swap1\n      tag_76\n      jump\t// in\n    tag_75:\n      0x00\n      mload(0x40)\n      dup1\n      dup4\n      sub\n      dup2\n      dup6\n      dup8\n      gas\n      call\n      swap3\n      pop\n      pop\n      pop\n      returndatasize\n      dup1\n      0x00\n      dup2\n      eq\n      tag_79\n      jumpi\n      mload(0x40)\n      swap2\n      pop\n      and(add(returndatasize, 0x3f), not(0x1f))\n      dup3\n      add\n      0x40\n      mstore\n      returndatasize\n      dup3\n      mstore\n      returndatasize\n      0x00\n      0x20\n      dup5\n      add\n      returndatacopy\n      jump(tag_78)\n    tag_79:\n      0x60\n      swap2\n      pop\n    tag_78:\n      pop\n        /* \"contracts/blockTime.sol\":2482:2535  (bool success, ) = msg.sender.call{value: amount}(\"\") */\n      pop\n      swap1\n      pop\n        /* \"contracts/blockTime.sol\":2554:2561  success */\n      dup1\n        /* \"contracts/blockTime.sol\":2546:2581  require(success, \"Transfer failed\") */\n      tag_80\n      jumpi\n      mload(0x40)\n      0x08c379a000000000000000000000000000000000000000000000000000000000\n      dup2\n      mstore\n      0x04\n      add\n      tag_81\n      swap1\n      tag_82\n      jump\t// in\n    tag_81:\n      mload(0x40)\n      dup1\n      swap2\n      sub\n      swap1\n      revert\n    tag_80:\n        /* \"contracts/blockTime.sol\":2617:2627  msg.sender */\n      caller\n        /* \"contracts/blockTime.sol\":2607:2651  Withdrawn(msg.sender, amount, _depositIndex) */\n      0xffffffffffffffffffffffffffffffffffffffff\n      and\n      0x92ccf450a286a957af52509bc1c9939d1a6a481783e142e41e2499f0bb66ebc6\n        /* \"contracts/blockTime.sol\":2629:2635  amount */\n      dup4\n        /* \"contracts/blockTime.sol\":2637:2650  _depositIndex */\n      dup8\n        /* \"contracts/blockTime.sol\":2607:2651  Withdrawn(msg.sender, amount, _depositIndex) */\n      mload(0x40)\n      tag_83\n      swap3\n      swap2\n      swap1\n      tag_84\n      jump\t// in\n    tag_83:\n      mload(0x40)\n      dup1\n      swap2\n      sub\n      swap1\n      log2\n        /* \"contracts/blockTime.sol\":1744:2659  {... */\n      pop\n      pop\n      pop\n      pop\n        /* \"contracts/blockTime.sol\":1694:2659  function withdraw(uint256 _depositIndex) external {... */\n      pop\n      jump\t// out\n        /* \"contracts/blockTime.sol\":3150:3414  function isUnlocked(address _user, uint256 _depositIndex) external view returns (bool) {... */\n    tag_39:\n        /* \"contracts/blockTime.sol\":3231:3235  bool */\n      0x00\n        /* \"contracts/blockTime.sol\":3272:3284  userDeposits */\n      dup1\n        /* \"contracts/blockTime.sol\":3272:3291  userDeposits[_user] */\n      0x00\n        /* \"contracts/blockTime.sol\":3285:3290  _user */\n      dup5\n        /* \"contracts/blockTime.sol\":3272:3291  userDeposits[_user] */\n      0xffffffffffffffffffffffffffffffffffffffff\n      and\n      0xffffffffffffffffffffffffffffffffffffffff\n      and\n      dup2\n      mstore\n      0x20\n      add\n      swap1\n      dup2\n      mstore\n      0x20\n      add\n      0x00\n      keccak256\n        /* \"contracts/blockTime.sol\":3272:3298  userDeposits[_user].length */\n      dup1\n      sload\n      swap1\n      pop\n        /* \"contracts/blockTime.sol\":3256:3269  _depositIndex */\n      dup3\n        /* \"contracts/blockTime.sol\":3256:3298  _depositIndex < userDeposits[_user].length */\n      lt\n        /* \"contracts/blockTime.sol\":3248:3324  require(_depositIndex < userDeposits[_user].length, \"Invalid deposit index\") */\n      tag_86\n      jumpi\n      mload(0x40)\n      0x08c379a000000000000000000000000000000000000000000000000000000000\n      dup2\n      mstore\n      0x04\n      add\n      tag_87\n      swap1\n      tag_64\n      jump\t// in\n    tag_87:\n      mload(0x40)\n      dup1\n      swap2\n      sub\n      swap1\n      revert\n    tag_86:\n        /* \"contracts/blockTime.sol\":3361:3373  userDeposits */\n      0x00\n        /* \"contracts/blockTime.sol\":3361:3380  userDeposits[_user] */\n      dup1\n        /* \"contracts/blockTime.sol\":3374:3379  _user */\n      dup5\n        /* \"contracts/blockTime.sol\":3361:3380  userDeposits[_user] */\n      0xffffffffffffffffffffffffffffffffffffffff\n      and\n      0xffffffffffffffffffffffffffffffffffffffff\n      and\n      dup2\n      mstore\n      0x20\n      add\n      swap1\n      dup2\n      mstore\n      0x20\n      add\n      0x00\n      keccak256\n        /* \"contracts/blockTime.sol\":3381:3394  _depositIndex */\n      dup3\n        /* \"contracts/blockTime.sol\":3361:3395  userDeposits[_user][_depositIndex] */\n      dup2\n      sload\n      dup2\n      lt\n      tag_88\n      jumpi\n      tag_89\n      tag_67\n      jump\t// in\n    tag_89:\n    tag_88:\n      swap1\n      0x00\n      mstore\n      keccak256(0x00, 0x20)\n      swap1\n      0x03\n      mul\n      add\n        /* \"contracts/blockTime.sol\":3361:3406  userDeposits[_user][_depositIndex].unlockTime */\n      0x01\n      add\n      sload\n        /* \"contracts/blockTime.sol\":3342:3357  block.timestamp */\n      timestamp\n        /* \"contracts/blockTime.sol\":3342:3406  block.timestamp >= userDeposits[_user][_depositIndex].unlockTime */\n      lt\n      iszero\n        /* \"contracts/blockTime.sol\":3335:3406  return block.timestamp >= userDeposits[_user][_depositIndex].unlockTime */\n      swap1\n      pop\n        /* \"contracts/blockTime.sol\":3150:3414  function isUnlocked(address _user, uint256 _depositIndex) external view returns (bool) {... */\n      swap3\n      swap2\n      pop\n      pop\n      jump\t// out\n        /* \"contracts/blockTime.sol\":3989:4098  function getContractBalance() external view returns (uint256) {... */\n    tag_44:\n        /* \"contracts/blockTime.sol\":4042:4049  uint256 */\n      0x00\n        /* \"contracts/blockTime.sol\":4069:4090  address(this).balance */\n      selfbalance\n        /* \"contracts/blockTime.sol\":4062:4090  return address(this).balance */\n      swap1\n      pop\n        /* \"contracts/blockTime.sol\":3989:4098  function getContractBalance() external view returns (uint256) {... */\n      swap1\n      jump\t// out\n        /* \"contracts/blockTime.sol\":3502:3948  function getTimeUntilUnlock(address _user, uint256 _depositIndex) external view returns (uint256) {... */\n    tag_49:\n        /* \"contracts/blockTime.sol\":3591:3598  uint256 */\n      0x00\n        /* \"contracts/blockTime.sol\":3635:3647  userDeposits */\n      dup1\n        /* \"contracts/blockTime.sol\":3635:3654  userDeposits[_user] */\n      0x00\n        /* \"contracts/blockTime.sol\":3648:3653  _user */\n      dup5\n        /* \"contracts/blockTime.sol\":3635:3654  userDeposits[_user] */\n      0xffffffffffffffffffffffffffffffffffffffff\n      and\n      0xffffffffffffffffffffffffffffffffffffffff\n      and\n      dup2\n      mstore\n      0x20\n      add\n      swap1\n      dup2\n      mstore\n      0x20\n      add\n      0x00\n      keccak256\n        /* \"contracts/blockTime.sol\":3635:3661  userDeposits[_user].length */\n      dup1\n      sload\n      swap1\n      pop\n        /* \"contracts/blockTime.sol\":3619:3632  _depositIndex */\n      dup3\n        /* \"contracts/blockTime.sol\":3619:3661  _depositIndex < userDeposits[_user].length */\n      lt\n        /* \"contracts/blockTime.sol\":3611:3687  require(_depositIndex < userDeposits[_user].length, \"Invalid deposit index\") */\n      tag_93\n      jumpi\n      mload(0x40)\n      0x08c379a000000000000000000000000000000000000000000000000000000000\n      dup2\n      mstore\n      0x04\n      add\n      tag_94\n      swap1\n      tag_64\n      jump\t// in\n    tag_94:\n      mload(0x40)\n      dup1\n      swap2\n      sub\n      swap1\n      revert\n    tag_93:\n        /* \"contracts/blockTime.sol\":3708:3726  uint256 unlockTime */\n      0x00\n        /* \"contracts/blockTime.sol\":3729:3741  userDeposits */\n      dup1\n        /* \"contracts/blockTime.sol\":3729:3748  userDeposits[_user] */\n      0x00\n        /* \"contracts/blockTime.sol\":3742:3747  _user */\n      dup6\n        /* \"contracts/blockTime.sol\":3729:3748  userDeposits[_user] */\n      0xffffffffffffffffffffffffffffffffffffffff\n      and\n      0xffffffffffffffffffffffffffffffffffffffff\n      and\n      dup2\n      mstore\n      0x20\n      add\n      swap1\n      dup2\n      mstore\n      0x20\n      add\n      0x00\n      keccak256\n        /* \"contracts/blockTime.sol\":3749:3762  _depositIndex */\n      dup4\n        /* \"contracts/blockTime.sol\":3729:3763  userDeposits[_user][_depositIndex] */\n      dup2\n      sload\n      dup2\n      lt\n      tag_95\n      jumpi\n      tag_96\n      tag_67\n      jump\t// in\n    tag_96:\n    tag_95:\n      swap1\n      0x00\n      mstore\n      keccak256(0x00, 0x20)\n      swap1\n      0x03\n      mul\n      add\n        /* \"contracts/blockTime.sol\":3729:3774  userDeposits[_user][_depositIndex].unlockTime */\n      0x01\n      add\n      sload\n        /* \"contracts/blockTime.sol\":3708:3774  uint256 unlockTime = userDeposits[_user][_depositIndex].unlockTime */\n      swap1\n      pop\n        /* \"contracts/blockTime.sol\":3818:3828  unlockTime */\n      dup1\n        /* \"contracts/blockTime.sol\":3799:3814  block.timestamp */\n      timestamp\n        /* \"contracts/blockTime.sol\":3799:3828  block.timestamp >= unlockTime */\n      lt\n        /* \"contracts/blockTime.sol\":3795:3885  if (block.timestamp >= unlockTime) {... */\n      tag_98\n      jumpi\n        /* \"contracts/blockTime.sol\":3852:3853  0 */\n      0x00\n        /* \"contracts/blockTime.sol\":3845:3853  return 0 */\n      swap2\n      pop\n      pop\n      jump(tag_92)\n        /* \"contracts/blockTime.sol\":3795:3885  if (block.timestamp >= unlockTime) {... */\n    tag_98:\n        /* \"contracts/blockTime.sol\":3925:3940  block.timestamp */\n      timestamp\n        /* \"contracts/blockTime.sol\":3912:3922  unlockTime */\n      dup2\n        /* \"contracts/blockTime.sol\":3912:3940  unlockTime - block.timestamp */\n      tag_99\n      swap2\n      swap1\n      tag_100\n      jump\t// in\n    tag_99:\n        /* \"contracts/blockTime.sol\":3905:3940  return unlockTime - block.timestamp */\n      swap2\n      pop\n      pop\n        /* \"contracts/blockTime.sol\":3502:3948  function getTimeUntilUnlock(address _user, uint256 _depositIndex) external view returns (uint256) {... */\n    tag_92:\n      swap3\n      swap2\n      pop\n      pop\n      jump\t// out\n        /* \"contracts/blockTime.sol\":811:1561  function deposit(uint256 _lockDuration) external payable {... */\n    tag_53:\n        /* \"contracts/blockTime.sol\":899:900  0 */\n      0x00\n        /* \"contracts/blockTime.sol\":887:896  msg.value */\n      callvalue\n        /* \"contracts/blockTime.sol\":887:900  msg.value > 0 */\n      gt\n        /* \"contracts/blockTime.sol\":879:942  require(msg.value > 0, \"Deposit amount must be greater than 0\") */\n      tag_102\n      jumpi\n      mload(0x40)\n      0x08c379a000000000000000000000000000000000000000000000000000000000\n      dup2\n      mstore\n      0x04\n      add\n      tag_103\n      swap1\n      tag_104\n      jump\t// in\n    tag_103:\n      mload(0x40)\n      dup1\n      swap2\n      sub\n      swap1\n      revert\n    tag_102:\n        /* \"contracts/blockTime.sol\":977:978  0 */\n      0x00\n        /* \"contracts/blockTime.sol\":961:974  _lockDuration */\n      dup2\n        /* \"contracts/blockTime.sol\":961:978  _lockDuration > 0 */\n      gt\n        /* \"contracts/blockTime.sol\":953:1019  require(_lockDuration > 0, \"Lock duration must be greater than 0\") */\n      tag_105\n      jumpi\n      mload(0x40)\n      0x08c379a000000000000000000000000000000000000000000000000000000000\n      dup2\n      mstore\n      0x04\n      add\n      tag_106\n      swap1\n      tag_107\n      jump\t// in\n    tag_106:\n      mload(0x40)\n      dup1\n      swap2\n      sub\n      swap1\n      revert\n    tag_105:\n        /* \"contracts/blockTime.sol\":1074:1092  uint256 unlockTime */\n      0x00\n        /* \"contracts/blockTime.sol\":1113:1126  _lockDuration */\n      dup2\n        /* \"contracts/blockTime.sol\":1095:1110  block.timestamp */\n      timestamp\n        /* \"contracts/blockTime.sol\":1095:1126  block.timestamp + _lockDuration */\n      tag_108\n      swap2\n      swap1\n      tag_109\n      jump\t// in\n    tag_108:\n        /* \"contracts/blockTime.sol\":1074:1126  uint256 unlockTime = block.timestamp + _lockDuration */\n      swap1\n      pop\n        /* \"contracts/blockTime.sol\":1178:1203  Deposit memory newDeposit */\n      0x00\n        /* \"contracts/blockTime.sol\":1206:1326  Deposit({... */\n      mload(0x40)\n      dup1\n      0x60\n      add\n      0x40\n      mstore\n      dup1\n        /* \"contracts/blockTime.sol\":1237:1246  msg.value */\n      callvalue\n        /* \"contracts/blockTime.sol\":1206:1326  Deposit({... */\n      dup2\n      mstore\n      0x20\n      add\n        /* \"contracts/blockTime.sol\":1273:1283  unlockTime */\n      dup4\n        /* \"contracts/blockTime.sol\":1206:1326  Deposit({... */\n      dup2\n      mstore\n      0x20\n      add\n        /* \"contracts/blockTime.sol\":1309:1314  false */\n      0x00\n        /* \"contracts/blockTime.sol\":1206:1326  Deposit({... */\n      iszero\n      iszero\n      dup2\n      mstore\n      pop\n        /* \"contracts/blockTime.sol\":1178:1326  Deposit memory newDeposit = Deposit({... */\n      swap1\n      pop\n        /* \"contracts/blockTime.sol\":1382:1394  userDeposits */\n      0x00\n        /* \"contracts/blockTime.sol\":1382:1406  userDeposits[msg.sender] */\n      dup1\n        /* \"contracts/blockTime.sol\":1395:1405  msg.sender */\n      caller\n        /* \"contracts/blockTime.sol\":1382:1406  userDeposits[msg.sender] */\n      0xffffffffffffffffffffffffffffffffffffffff\n      and\n      0xffffffffffffffffffffffffffffffffffffffff\n      and\n      dup2\n      mstore\n      0x20\n      add\n      swap1\n      dup2\n      mstore\n      0x20\n      add\n      0x00\n      keccak256\n        /* \"contracts/blockTime.sol\":1412:1422  newDeposit */\n      dup2\n        /* \"contracts/blockTime.sol\":1382:1423  userDeposits[msg.sender].push(newDeposit) */\n      swap1\n      dup1\n      0x01\n      dup2\n      sload\n      add\n      dup1\n      dup3\n      sstore\n      dup1\n      swap2\n      pop\n      pop\n      0x01\n      swap1\n      sub\n      swap1\n      0x00\n      mstore\n      keccak256(0x00, 0x20)\n      swap1\n      0x03\n      mul\n      add\n      0x00\n      swap1\n      swap2\n      swap1\n      swap2\n      swap1\n      swap2\n      pop\n      0x00\n      dup3\n      add\n      mload\n      dup2\n      0x00\n      add\n      sstore\n      0x20\n      dup3\n      add\n      mload\n      dup2\n      0x01\n      add\n      sstore\n      0x40\n      dup3\n      add\n      mload\n      dup2\n      0x02\n      add\n      exp(0x0100, 0x00)\n      dup2\n      sload\n      dup2\n      0xff\n      mul\n      not\n      and\n      swap1\n      dup4\n      iszero\n      iszero\n      mul\n      or\n      swap1\n      sstore\n      pop\n      pop\n      pop\n        /* \"contracts/blockTime.sol\":1482:1492  msg.sender */\n      caller\n        /* \"contracts/blockTime.sol\":1472:1553  Deposited(msg.sender, msg.value, unlockTime, userDeposits[msg.sender].length - 1) */\n      0xffffffffffffffffffffffffffffffffffffffff\n      and\n      0x91ede45f04a37a7c170f5c1207df3b6bc748dc1e04ad5e917a241d0f52feada3\n        /* \"contracts/blockTime.sol\":1494:1503  msg.value */\n      callvalue\n        /* \"contracts/blockTime.sol\":1505:1515  unlockTime */\n      dup5\n        /* \"contracts/blockTime.sol\":1551:1552  1 */\n      0x01\n        /* \"contracts/blockTime.sol\":1517:1529  userDeposits */\n      0x00\n        /* \"contracts/blockTime.sol\":1517:1541  userDeposits[msg.sender] */\n      dup1\n        /* \"contracts/blockTime.sol\":1530:1540  msg.sender */\n      caller\n        /* \"contracts/blockTime.sol\":1517:1541  userDeposits[msg.sender] */\n      0xffffffffffffffffffffffffffffffffffffffff\n      and\n      0xffffffffffffffffffffffffffffffffffffffff\n      and\n      dup2\n      mstore\n      0x20\n      add\n      swap1\n      dup2\n      mstore\n      0x20\n      add\n      0x00\n      keccak256\n        /* \"contracts/blockTime.sol\":1517:1548  userDeposits[msg.sender].length */\n      dup1\n      sload\n      swap1\n      pop\n        /* \"contracts/blockTime.sol\":1517:1552  userDeposits[msg.sender].length - 1 */\n      tag_111\n      swap2\n      swap1\n      tag_100\n      jump\t// in\n    tag_111:\n        /* \"contracts/blockTime.sol\":1472:1553  Deposited(msg.sender, msg.value, unlockTime, userDeposits[msg.sender].length - 1) */\n      mload(0x40)\n      tag_112\n      swap4\n      swap3\n      swap2\n      swap1\n      tag_113\n      jump\t// in\n    tag_112:\n      mload(0x40)\n      dup1\n      swap2\n      sub\n      swap1\n      log2\n        /* \"contracts/blockTime.sol\":868:1561  {... */\n      pop\n      pop\n        /* \"contracts/blockTime.sol\":811:1561  function deposit(uint256 _lockDuration) external payable {... */\n      pop\n      jump\t// out\n        /* \"#utility.yul\":88:205   */\n    tag_115:\n        /* \"#utility.yul\":197:198   */\n      0x00\n        /* \"#utility.yul\":194:195   */\n      dup1\n        /* \"#utility.yul\":187:199   */\n      revert\n        /* \"#utility.yul\":334:460   */\n    tag_117:\n        /* \"#utility.yul\":371:378   */\n      0x00\n        /* \"#utility.yul\":411:453   */\n      0xffffffffffffffffffffffffffffffffffffffff\n        /* \"#utility.yul\":404:409   */\n      dup3\n        /* \"#utility.yul\":400:454   */\n      and\n        /* \"#utility.yul\":389:454   */\n      swap1\n      pop\n        /* \"#utility.yul\":334:460   */\n      swap2\n      swap1\n      pop\n      jump\t// out\n        /* \"#utility.yul\":466:562   */\n    tag_118:\n        /* \"#utility.yul\":503:510   */\n      0x00\n        /* \"#utility.yul\":532:556   */\n      tag_159\n        /* \"#utility.yul\":550:555   */\n      dup3\n        /* \"#utility.yul\":532:556   */\n      tag_117\n      jump\t// in\n    tag_159:\n        /* \"#utility.yul\":521:556   */\n      swap1\n      pop\n        /* \"#utility.yul\":466:562   */\n      swap2\n      swap1\n      pop\n      jump\t// out\n        /* \"#utility.yul\":568:690   */\n    tag_119:\n        /* \"#utility.yul\":641:665   */\n      tag_161\n        /* \"#utility.yul\":659:664   */\n      dup2\n        /* \"#utility.yul\":641:665   */\n      tag_118\n      jump\t// in\n    tag_161:\n        /* \"#utility.yul\":634:639   */\n      dup2\n        /* \"#utility.yul\":631:666   */\n      eq\n        /* \"#utility.yul\":621:684   */\n      tag_162\n      jumpi\n        /* \"#utility.yul\":680:681   */\n      0x00\n        /* \"#utility.yul\":677:678   */\n      dup1\n        /* \"#utility.yul\":670:682   */\n      revert\n        /* \"#utility.yul\":621:684   */\n    tag_162:\n        /* \"#utility.yul\":568:690   */\n      pop\n      jump\t// out\n        /* \"#utility.yul\":696:835   */\n    tag_120:\n        /* \"#utility.yul\":742:747   */\n      0x00\n        /* \"#utility.yul\":780:786   */\n      dup2\n        /* \"#utility.yul\":767:787   */\n      calldataload\n        /* \"#utility.yul\":758:787   */\n      swap1\n      pop\n        /* \"#utility.yul\":796:829   */\n      tag_164\n        /* \"#utility.yul\":823:828   */\n      dup2\n        /* \"#utility.yul\":796:829   */\n      tag_119\n      jump\t// in\n    tag_164:\n        /* \"#utility.yul\":696:835   */\n      swap3\n      swap2\n      pop\n      pop\n      jump\t// out\n        /* \"#utility.yul\":841:918   */\n    tag_121:\n        /* \"#utility.yul\":878:885   */\n      0x00\n        /* \"#utility.yul\":907:912   */\n      dup2\n        /* \"#utility.yul\":896:912   */\n      swap1\n      pop\n        /* \"#utility.yul\":841:918   */\n      swap2\n      swap1\n      pop\n      jump\t// out\n        /* \"#utility.yul\":924:1046   */\n    tag_122:\n        /* \"#utility.yul\":997:1021   */\n      tag_167\n        /* \"#utility.yul\":1015:1020   */\n      dup2\n        /* \"#utility.yul\":997:1021   */\n      tag_121\n      jump\t// in\n    tag_167:\n        /* \"#utility.yul\":990:995   */\n      dup2\n        /* \"#utility.yul\":987:1022   */\n      eq\n        /* \"#utility.yul\":977:1040   */\n      tag_168\n      jumpi\n        /* \"#utility.yul\":1036:1037   */\n      0x00\n        /* \"#utility.yul\":1033:1034   */\n      dup1\n        /* \"#utility.yul\":1026:1038   */\n      revert\n        /* \"#utility.yul\":977:1040   */\n    tag_168:\n        /* \"#utility.yul\":924:1046   */\n      pop\n      jump\t// out\n        /* \"#utility.yul\":1052:1191   */\n    tag_123:\n        /* \"#utility.yul\":1098:1103   */\n      0x00\n        /* \"#utility.yul\":1136:1142   */\n      dup2\n        /* \"#utility.yul\":1123:1143   */\n      calldataload\n        /* \"#utility.yul\":1114:1143   */\n      swap1\n      pop\n        /* \"#utility.yul\":1152:1185   */\n      tag_170\n        /* \"#utility.yul\":1179:1184   */\n      dup2\n        /* \"#utility.yul\":1152:1185   */\n      tag_122\n      jump\t// in\n    tag_170:\n        /* \"#utility.yul\":1052:1191   */\n      swap3\n      swap2\n      pop\n      pop\n      jump\t// out\n        /* \"#utility.yul\":1197:1671   */\n    tag_14:\n        /* \"#utility.yul\":1265:1271   */\n      0x00\n        /* \"#utility.yul\":1273:1279   */\n      dup1\n        /* \"#utility.yul\":1322:1324   */\n      0x40\n        /* \"#utility.yul\":1310:1319   */\n      dup4\n        /* \"#utility.yul\":1301:1308   */\n      dup6\n        /* \"#utility.yul\":1297:1320   */\n      sub\n        /* \"#utility.yul\":1293:1325   */\n      slt\n        /* \"#utility.yul\":1290:1409   */\n      iszero\n      tag_172\n      jumpi\n        /* \"#utility.yul\":1328:1407   */\n      tag_173\n      tag_115\n      jump\t// in\n    tag_173:\n        /* \"#utility.yul\":1290:1409   */\n    tag_172:\n        /* \"#utility.yul\":1448:1449   */\n      0x00\n        /* \"#utility.yul\":1473:1526   */\n      tag_174\n        /* \"#utility.yul\":1518:1525   */\n      dup6\n        /* \"#utility.yul\":1509:1515   */\n      dup3\n        /* \"#utility.yul\":1498:1507   */\n      dup7\n        /* \"#utility.yul\":1494:1516   */\n      add\n        /* \"#utility.yul\":1473:1526   */\n      tag_120\n      jump\t// in\n    tag_174:\n        /* \"#utility.yul\":1463:1526   */\n      swap3\n      pop\n        /* \"#utility.yul\":1419:1536   */\n      pop\n        /* \"#utility.yul\":1575:1577   */\n      0x20\n        /* \"#utility.yul\":1601:1654   */\n      tag_175\n        /* \"#utility.yul\":1646:1653   */\n      dup6\n        /* \"#utility.yul\":1637:1643   */\n      dup3\n        /* \"#utility.yul\":1626:1635   */\n      dup7\n        /* \"#utility.yul\":1622:1644   */\n      add\n        /* \"#utility.yul\":1601:1654   */\n      tag_123\n      jump\t// in\n    tag_175:\n        /* \"#utility.yul\":1591:1654   */\n      swap2\n      pop\n        /* \"#utility.yul\":1546:1664   */\n      pop\n        /* \"#utility.yul\":1197:1671   */\n      swap3\n      pop\n      swap3\n      swap1\n      pop\n      jump\t// out\n        /* \"#utility.yul\":1677:1795   */\n    tag_124:\n        /* \"#utility.yul\":1764:1788   */\n      tag_177\n        /* \"#utility.yul\":1782:1787   */\n      dup2\n        /* \"#utility.yul\":1764:1788   */\n      tag_121\n      jump\t// in\n    tag_177:\n        /* \"#utility.yul\":1759:1762   */\n      dup3\n        /* \"#utility.yul\":1752:1789   */\n      mstore\n        /* \"#utility.yul\":1677:1795   */\n      pop\n      pop\n      jump\t// out\n        /* \"#utility.yul\":1801:1891   */\n    tag_125:\n        /* \"#utility.yul\":1835:1842   */\n      0x00\n        /* \"#utility.yul\":1878:1883   */\n      dup2\n        /* \"#utility.yul\":1871:1884   */\n      iszero\n        /* \"#utility.yul\":1864:1885   */\n      iszero\n        /* \"#utility.yul\":1853:1885   */\n      swap1\n      pop\n        /* \"#utility.yul\":1801:1891   */\n      swap2\n      swap1\n      pop\n      jump\t// out\n        /* \"#utility.yul\":1897:2006   */\n    tag_126:\n        /* \"#utility.yul\":1978:1999   */\n      tag_180\n        /* \"#utility.yul\":1993:1998   */\n      dup2\n        /* \"#utility.yul\":1978:1999   */\n      tag_125\n      jump\t// in\n    tag_180:\n        /* \"#utility.yul\":1973:1976   */\n      dup3\n        /* \"#utility.yul\":1966:2000   */\n      mstore\n        /* \"#utility.yul\":1897:2006   */\n      pop\n      pop\n      jump\t// out\n        /* \"#utility.yul\":2012:2442   */\n    tag_17:\n        /* \"#utility.yul\":2155:2159   */\n      0x00\n        /* \"#utility.yul\":2193:2195   */\n      0x60\n        /* \"#utility.yul\":2182:2191   */\n      dup3\n        /* \"#utility.yul\":2178:2196   */\n      add\n        /* \"#utility.yul\":2170:2196   */\n      swap1\n      pop\n        /* \"#utility.yul\":2206:2277   */\n      tag_182\n        /* \"#utility.yul\":2274:2275   */\n      0x00\n        /* \"#utility.yul\":2263:2272   */\n      dup4\n        /* \"#utility.yul\":2259:2276   */\n      add\n        /* \"#utility.yul\":2250:2256   */\n      dup7\n        /* \"#utility.yul\":2206:2277   */\n      tag_124\n      jump\t// in\n    tag_182:\n        /* \"#utility.yul\":2287:2359   */\n      tag_183\n        /* \"#utility.yul\":2355:2357   */\n      0x20\n        /* \"#utility.yul\":2344:2353   */\n      dup4\n        /* \"#utility.yul\":2340:2358   */\n      add\n        /* \"#utility.yul\":2331:2337   */\n      dup6\n        /* \"#utility.yul\":2287:2359   */\n      tag_124\n      jump\t// in\n    tag_183:\n        /* \"#utility.yul\":2369:2435   */\n      tag_184\n        /* \"#utility.yul\":2431:2433   */\n      0x40\n        /* \"#utility.yul\":2420:2429   */\n      dup4\n        /* \"#utility.yul\":2416:2434   */\n      add\n        /* \"#utility.yul\":2407:2413   */\n      dup5\n        /* \"#utility.yul\":2369:2435   */\n      tag_126\n      jump\t// in\n    tag_184:\n        /* \"#utility.yul\":2012:2442   */\n      swap5\n      swap4\n      pop\n      pop\n      pop\n      pop\n      jump\t// out\n        /* \"#utility.yul\":2448:2777   */\n    tag_21:\n        /* \"#utility.yul\":2507:2513   */\n      0x00\n        /* \"#utility.yul\":2556:2558   */\n      0x20\n        /* \"#utility.yul\":2544:2553   */\n      dup3\n        /* \"#utility.yul\":2535:2542   */\n      dup5\n        /* \"#utility.yul\":2531:2554   */\n      sub\n        /* \"#utility.yul\":2527:2559   */\n      slt\n        /* \"#utility.yul\":2524:2643   */\n      iszero\n      tag_186\n      jumpi\n        /* \"#utility.yul\":2562:2641   */\n      tag_187\n      tag_115\n      jump\t// in\n    tag_187:\n        /* \"#utility.yul\":2524:2643   */\n    tag_186:\n        /* \"#utility.yul\":2682:2683   */\n      0x00\n        /* \"#utility.yul\":2707:2760   */\n      tag_188\n        /* \"#utility.yul\":2752:2759   */\n      dup5\n        /* \"#utility.yul\":2743:2749   */\n      dup3\n        /* \"#utility.yul\":2732:2741   */\n      dup6\n        /* \"#utility.yul\":2728:2750   */\n      add\n        /* \"#utility.yul\":2707:2760   */\n      tag_120\n      jump\t// in\n    tag_188:\n        /* \"#utility.yul\":2697:2760   */\n      swap2\n      pop\n        /* \"#utility.yul\":2653:2770   */\n      pop\n        /* \"#utility.yul\":2448:2777   */\n      swap3\n      swap2\n      pop\n      pop\n      jump\t// out\n        /* \"#utility.yul\":2783:3005   */\n    tag_24:\n        /* \"#utility.yul\":2876:2880   */\n      0x00\n        /* \"#utility.yul\":2914:2916   */\n      0x20\n        /* \"#utility.yul\":2903:2912   */\n      dup3\n        /* \"#utility.yul\":2899:2917   */\n      add\n        /* \"#utility.yul\":2891:2917   */\n      swap1\n      pop\n        /* \"#utility.yul\":2927:2998   */\n      tag_190\n        /* \"#utility.yul\":2995:2996   */\n      0x00\n        /* \"#utility.yul\":2984:2993   */\n      dup4\n        /* \"#utility.yul\":2980:2997   */\n      add\n        /* \"#utility.yul\":2971:2977   */\n      dup5\n        /* \"#utility.yul\":2927:2998   */\n      tag_124\n      jump\t// in\n    tag_190:\n        /* \"#utility.yul\":2783:3005   */\n      swap3\n      swap2\n      pop\n      pop\n      jump\t// out\n        /* \"#utility.yul\":3011:3147   */\n    tag_127:\n        /* \"#utility.yul\":3100:3106   */\n      0x00\n        /* \"#utility.yul\":3134:3139   */\n      dup2\n        /* \"#utility.yul\":3128:3140   */\n      mload\n        /* \"#utility.yul\":3118:3140   */\n      swap1\n      pop\n        /* \"#utility.yul\":3011:3147   */\n      swap2\n      swap1\n      pop\n      jump\t// out\n        /* \"#utility.yul\":3153:3359   */\n    tag_128:\n        /* \"#utility.yul\":3274:3285   */\n      0x00\n        /* \"#utility.yul\":3308:3314   */\n      dup3\n        /* \"#utility.yul\":3303:3306   */\n      dup3\n        /* \"#utility.yul\":3296:3315   */\n      mstore\n        /* \"#utility.yul\":3348:3352   */\n      0x20\n        /* \"#utility.yul\":3343:3346   */\n      dup3\n        /* \"#utility.yul\":3339:3353   */\n      add\n        /* \"#utility.yul\":3324:3353   */\n      swap1\n      pop\n        /* \"#utility.yul\":3153:3359   */\n      swap3\n      swap2\n      pop\n      pop\n      jump\t// out\n        /* \"#utility.yul\":3365:3519   */\n    tag_129:\n        /* \"#utility.yul\":3454:3458   */\n      0x00\n        /* \"#utility.yul\":3477:3480   */\n      dup2\n        /* \"#utility.yul\":3469:3480   */\n      swap1\n      pop\n        /* \"#utility.yul\":3507:3511   */\n      0x20\n        /* \"#utility.yul\":3502:3505   */\n      dup3\n        /* \"#utility.yul\":3498:3512   */\n      add\n        /* \"#utility.yul\":3490:3512   */\n      swap1\n      pop\n        /* \"#utility.yul\":3365:3519   */\n      swap2\n      swap1\n      pop\n      jump\t// out\n        /* \"#utility.yul\":3525:3633   */\n    tag_130:\n        /* \"#utility.yul\":3602:3626   */\n      tag_195\n        /* \"#utility.yul\":3620:3625   */\n      dup2\n        /* \"#utility.yul\":3602:3626   */\n      tag_121\n      jump\t// in\n    tag_195:\n        /* \"#utility.yul\":3597:3600   */\n      dup3\n        /* \"#utility.yul\":3590:3627   */\n      mstore\n        /* \"#utility.yul\":3525:3633   */\n      pop\n      pop\n      jump\t// out\n        /* \"#utility.yul\":3639:3738   */\n    tag_131:\n        /* \"#utility.yul\":3710:3731   */\n      tag_197\n        /* \"#utility.yul\":3725:3730   */\n      dup2\n        /* \"#utility.yul\":3710:3731   */\n      tag_125\n      jump\t// in\n    tag_197:\n        /* \"#utility.yul\":3705:3708   */\n      dup3\n        /* \"#utility.yul\":3698:3732   */\n      mstore\n        /* \"#utility.yul\":3639:3738   */\n      pop\n      pop\n      jump\t// out\n        /* \"#utility.yul\":3810:4482   */\n    tag_132:\n        /* \"#utility.yul\":3941:3945   */\n      0x60\n        /* \"#utility.yul\":3936:3939   */\n      dup3\n        /* \"#utility.yul\":3932:3946   */\n      add\n        /* \"#utility.yul\":4030:4034   */\n      0x00\n        /* \"#utility.yul\":4023:4028   */\n      dup3\n        /* \"#utility.yul\":4019:4035   */\n      add\n        /* \"#utility.yul\":4013:4036   */\n      mload\n        /* \"#utility.yul\":4049:4112   */\n      tag_199\n        /* \"#utility.yul\":4106:4110   */\n      0x00\n        /* \"#utility.yul\":4101:4104   */\n      dup6\n        /* \"#utility.yul\":4097:4111   */\n      add\n        /* \"#utility.yul\":4083:4095   */\n      dup3\n        /* \"#utility.yul\":4049:4112   */\n      tag_130\n      jump\t// in\n    tag_199:\n        /* \"#utility.yul\":3956:4122   */\n      pop\n        /* \"#utility.yul\":4210:4214   */\n      0x20\n        /* \"#utility.yul\":4203:4208   */\n      dup3\n        /* \"#utility.yul\":4199:4215   */\n      add\n        /* \"#utility.yul\":4193:4216   */\n      mload\n        /* \"#utility.yul\":4229:4292   */\n      tag_200\n        /* \"#utility.yul\":4286:4290   */\n      0x20\n        /* \"#utility.yul\":4281:4284   */\n      dup6\n        /* \"#utility.yul\":4277:4291   */\n      add\n        /* \"#utility.yul\":4263:4275   */\n      dup3\n        /* \"#utility.yul\":4229:4292   */\n      tag_130\n      jump\t// in\n    tag_200:\n        /* \"#utility.yul\":4132:4302   */\n      pop\n        /* \"#utility.yul\":4389:4393   */\n      0x40\n        /* \"#utility.yul\":4382:4387   */\n      dup3\n        /* \"#utility.yul\":4378:4394   */\n      add\n        /* \"#utility.yul\":4372:4395   */\n      mload\n        /* \"#utility.yul\":4408:4465   */\n      tag_201\n        /* \"#utility.yul\":4459:4463   */\n      0x40\n        /* \"#utility.yul\":4454:4457   */\n      dup6\n        /* \"#utility.yul\":4450:4464   */\n      add\n        /* \"#utility.yul\":4436:4448   */\n      dup3\n        /* \"#utility.yul\":4408:4465   */\n      tag_131\n      jump\t// in\n    tag_201:\n        /* \"#utility.yul\":4312:4475   */\n      pop\n        /* \"#utility.yul\":3910:4482   */\n      pop\n        /* \"#utility.yul\":3810:4482   */\n      pop\n      pop\n      jump\t// out\n        /* \"#utility.yul\":4488:4755   */\n    tag_133:\n        /* \"#utility.yul\":4601:4611   */\n      0x00\n        /* \"#utility.yul\":4622:4712   */\n      tag_203\n        /* \"#utility.yul\":4708:4711   */\n      dup4\n        /* \"#utility.yul\":4700:4706   */\n      dup4\n        /* \"#utility.yul\":4622:4712   */\n      tag_132\n      jump\t// in\n    tag_203:\n        /* \"#utility.yul\":4744:4748   */\n      0x60\n        /* \"#utility.yul\":4739:4742   */\n      dup4\n        /* \"#utility.yul\":4735:4749   */\n      add\n        /* \"#utility.yul\":4721:4749   */\n      swap1\n      pop\n        /* \"#utility.yul\":4488:4755   */\n      swap3\n      swap2\n      pop\n      pop\n      jump\t// out\n        /* \"#utility.yul\":4761:4896   */\n    tag_134:\n        /* \"#utility.yul\":4853:4857   */\n      0x00\n        /* \"#utility.yul\":4885:4889   */\n      0x20\n        /* \"#utility.yul\":4880:4883   */\n      dup3\n        /* \"#utility.yul\":4876:4890   */\n      add\n        /* \"#utility.yul\":4868:4890   */\n      swap1\n      pop\n        /* \"#utility.yul\":4761:4896   */\n      swap2\n      swap1\n      pop\n      jump\t// out\n        /* \"#utility.yul\":4972:5880   */\n    tag_135:\n        /* \"#utility.yul\":5135:5138   */\n      0x00\n        /* \"#utility.yul\":5164:5240   */\n      tag_206\n        /* \"#utility.yul\":5234:5239   */\n      dup3\n        /* \"#utility.yul\":5164:5240   */\n      tag_127\n      jump\t// in\n    tag_206:\n        /* \"#utility.yul\":5256:5364   */\n      tag_207\n        /* \"#utility.yul\":5357:5363   */\n      dup2\n        /* \"#utility.yul\":5352:5355   */\n      dup6\n        /* \"#utility.yul\":5256:5364   */\n      tag_128\n      jump\t// in\n    tag_207:\n        /* \"#utility.yul\":5249:5364   */\n      swap4\n      pop\n        /* \"#utility.yul\":5388:5466   */\n      tag_208\n        /* \"#utility.yul\":5460:5465   */\n      dup4\n        /* \"#utility.yul\":5388:5466   */\n      tag_129\n      jump\t// in\n    tag_208:\n        /* \"#utility.yul\":5489:5496   */\n      dup1\n        /* \"#utility.yul\":5520:5521   */\n      0x00\n        /* \"#utility.yul\":5505:5855   */\n    tag_209:\n        /* \"#utility.yul\":5530:5536   */\n      dup4\n        /* \"#utility.yul\":5527:5528   */\n      dup2\n        /* \"#utility.yul\":5524:5537   */\n      lt\n        /* \"#utility.yul\":5505:5855   */\n      iszero\n      tag_211\n      jumpi\n        /* \"#utility.yul\":5606:5612   */\n      dup2\n        /* \"#utility.yul\":5600:5613   */\n      mload\n        /* \"#utility.yul\":5633:5740   */\n      tag_212\n        /* \"#utility.yul\":5736:5739   */\n      dup9\n        /* \"#utility.yul\":5721:5734   */\n      dup3\n        /* \"#utility.yul\":5633:5740   */\n      tag_133\n      jump\t// in\n    tag_212:\n        /* \"#utility.yul\":5626:5740   */\n      swap8\n      pop\n        /* \"#utility.yul\":5763:5845   */\n      tag_213\n        /* \"#utility.yul\":5838:5844   */\n      dup4\n        /* \"#utility.yul\":5763:5845   */\n      tag_134\n      jump\t// in\n    tag_213:\n        /* \"#utility.yul\":5753:5845   */\n      swap3\n      pop\n        /* \"#utility.yul\":5565:5855   */\n      pop\n        /* \"#utility.yul\":5552:5553   */\n      0x01\n        /* \"#utility.yul\":5549:5550   */\n      dup2\n        /* \"#utility.yul\":5545:5554   */\n      add\n        /* \"#utility.yul\":5540:5554   */\n      swap1\n      pop\n        /* \"#utility.yul\":5505:5855   */\n      jump(tag_209)\n    tag_211:\n        /* \"#utility.yul\":5509:5523   */\n      pop\n        /* \"#utility.yul\":5871:5874   */\n      dup6\n        /* \"#utility.yul\":5864:5874   */\n      swap4\n      pop\n        /* \"#utility.yul\":5140:5880   */\n      pop\n      pop\n      pop\n        /* \"#utility.yul\":4972:5880   */\n      swap3\n      swap2\n      pop\n      pop\n      jump\t// out\n        /* \"#utility.yul\":5886:6347   */\n    tag_30:\n        /* \"#utility.yul\":6073:6077   */\n      0x00\n        /* \"#utility.yul\":6111:6113   */\n      0x20\n        /* \"#utility.yul\":6100:6109   */\n      dup3\n        /* \"#utility.yul\":6096:6114   */\n      add\n        /* \"#utility.yul\":6088:6114   */\n      swap1\n      pop\n        /* \"#utility.yul\":6160:6169   */\n      dup2\n        /* \"#utility.yul\":6154:6158   */\n      dup2\n        /* \"#utility.yul\":6150:6170   */\n      sub\n        /* \"#utility.yul\":6146:6147   */\n      0x00\n        /* \"#utility.yul\":6135:6144   */\n      dup4\n        /* \"#utility.yul\":6131:6148   */\n      add\n        /* \"#utility.yul\":6124:6171   */\n      mstore\n        /* \"#utility.yul\":6188:6340   */\n      tag_215\n        /* \"#utility.yul\":6335:6339   */\n      dup2\n        /* \"#utility.yul\":6326:6332   */\n      dup5\n        /* \"#utility.yul\":6188:6340   */\n      tag_135\n      jump\t// in\n    tag_215:\n        /* \"#utility.yul\":6180:6340   */\n      swap1\n      pop\n        /* \"#utility.yul\":5886:6347   */\n      swap3\n      swap2\n      pop\n      pop\n      jump\t// out\n        /* \"#utility.yul\":6353:6682   */\n    tag_34:\n        /* \"#utility.yul\":6412:6418   */\n      0x00\n        /* \"#utility.yul\":6461:6463   */\n      0x20\n        /* \"#utility.yul\":6449:6458   */\n      dup3\n        /* \"#utility.yul\":6440:6447   */\n      dup5\n        /* \"#utility.yul\":6436:6459   */\n      sub\n        /* \"#utility.yul\":6432:6464   */\n      slt\n        /* \"#utility.yul\":6429:6548   */\n      iszero\n      tag_217\n      jumpi\n        /* \"#utility.yul\":6467:6546   */\n      tag_218\n      tag_115\n      jump\t// in\n    tag_218:\n        /* \"#utility.yul\":6429:6548   */\n    tag_217:\n        /* \"#utility.yul\":6587:6588   */\n      0x00\n        /* \"#utility.yul\":6612:6665   */\n      tag_219\n        /* \"#utility.yul\":6657:6664   */\n      dup5\n        /* \"#utility.yul\":6648:6654   */\n      dup3\n        /* \"#utility.yul\":6637:6646   */\n      dup6\n        /* \"#utility.yul\":6633:6655   */\n      add\n        /* \"#utility.yul\":6612:6665   */\n      tag_123\n      jump\t// in\n    tag_219:\n        /* \"#utility.yul\":6602:6665   */\n      swap2\n      pop\n        /* \"#utility.yul\":6558:6675   */\n      pop\n        /* \"#utility.yul\":6353:6682   */\n      swap3\n      swap2\n      pop\n      pop\n      jump\t// out\n        /* \"#utility.yul\":6688:6898   */\n    tag_41:\n        /* \"#utility.yul\":6775:6779   */\n      0x00\n        /* \"#utility.yul\":6813:6815   */\n      0x20\n        /* \"#utility.yul\":6802:6811   */\n      dup3\n        /* \"#utility.yul\":6798:6816   */\n      add\n        /* \"#utility.yul\":6790:6816   */\n      swap1\n      pop\n        /* \"#utility.yul\":6826:6891   */\n      tag_221\n        /* \"#utility.yul\":6888:6889   */\n      0x00\n        /* \"#utility.yul\":6877:6886   */\n      dup4\n        /* \"#utility.yul\":6873:6890   */\n      add\n        /* \"#utility.yul\":6864:6870   */\n      dup5\n        /* \"#utility.yul\":6826:6891   */\n      tag_126\n      jump\t// in\n    tag_221:\n        /* \"#utility.yul\":6688:6898   */\n      swap3\n      swap2\n      pop\n      pop\n      jump\t// out\n        /* \"#utility.yul\":6904:7073   */\n    tag_136:\n        /* \"#utility.yul\":6988:6999   */\n      0x00\n        /* \"#utility.yul\":7022:7028   */\n      dup3\n        /* \"#utility.yul\":7017:7020   */\n      dup3\n        /* \"#utility.yul\":7010:7029   */\n      mstore\n        /* \"#utility.yul\":7062:7066   */\n      0x20\n        /* \"#utility.yul\":7057:7060   */\n      dup3\n        /* \"#utility.yul\":7053:7067   */\n      add\n        /* \"#utility.yul\":7038:7067   */\n      swap1\n      pop\n        /* \"#utility.yul\":6904:7073   */\n      swap3\n      swap2\n      pop\n      pop\n      jump\t// out\n        /* \"#utility.yul\":7079:7250   */\n    tag_137:\n        /* \"#utility.yul\":7219:7242   */\n      0x496e76616c6964206465706f73697420696e6465780000000000000000000000\n        /* \"#utility.yul\":7215:7216   */\n      0x00\n        /* \"#utility.yul\":7207:7213   */\n      dup3\n        /* \"#utility.yul\":7203:7217   */\n      add\n        /* \"#utility.yul\":7196:7243   */\n      mstore\n        /* \"#utility.yul\":7079:7250   */\n      pop\n      jump\t// out\n        /* \"#utility.yul\":7256:7622   */\n    tag_138:\n        /* \"#utility.yul\":7398:7401   */\n      0x00\n        /* \"#utility.yul\":7419:7486   */\n      tag_225\n        /* \"#utility.yul\":7483:7485   */\n      0x15\n        /* \"#utility.yul\":7478:7481   */\n      dup4\n        /* \"#utility.yul\":7419:7486   */\n      tag_136\n      jump\t// in\n    tag_225:\n        /* \"#utility.yul\":7412:7486   */\n      swap2\n      pop\n        /* \"#utility.yul\":7495:7588   */\n      tag_226\n        /* \"#utility.yul\":7584:7587   */\n      dup3\n        /* \"#utility.yul\":7495:7588   */\n      tag_137\n      jump\t// in\n    tag_226:\n        /* \"#utility.yul\":7613:7615   */\n      0x20\n        /* \"#utility.yul\":7608:7611   */\n      dup3\n        /* \"#utility.yul\":7604:7616   */\n      add\n        /* \"#utility.yul\":7597:7616   */\n      swap1\n      pop\n        /* \"#utility.yul\":7256:7622   */\n      swap2\n      swap1\n      pop\n      jump\t// out\n        /* \"#utility.yul\":7628:8047   */\n    tag_64:\n        /* \"#utility.yul\":7794:7798   */\n      0x00\n        /* \"#utility.yul\":7832:7834   */\n      0x20\n        /* \"#utility.yul\":7821:7830   */\n      dup3\n        /* \"#utility.yul\":7817:7835   */\n      add\n        /* \"#utility.yul\":7809:7835   */\n      swap1\n      pop\n        /* \"#utility.yul\":7881:7890   */\n      dup2\n        /* \"#utility.yul\":7875:7879   */\n      dup2\n        /* \"#utility.yul\":7871:7891   */\n      sub\n        /* \"#utility.yul\":7867:7868   */\n      0x00\n        /* \"#utility.yul\":7856:7865   */\n      dup4\n        /* \"#utility.yul\":7852:7869   */\n      add\n        /* \"#utility.yul\":7845:7892   */\n      mstore\n        /* \"#utility.yul\":7909:8040   */\n      tag_228\n        /* \"#utility.yul\":8035:8039   */\n      dup2\n        /* \"#utility.yul\":7909:8040   */\n      tag_138\n      jump\t// in\n    tag_228:\n        /* \"#utility.yul\":7901:8040   */\n      swap1\n      pop\n        /* \"#utility.yul\":7628:8047   */\n      swap2\n      swap1\n      pop\n      jump\t// out\n        /* \"#utility.yul\":8053:8233   */\n    tag_67:\n        /* \"#utility.yul\":8101:8178   */\n      0x4e487b7100000000000000000000000000000000000000000000000000000000\n        /* \"#utility.yul\":8098:8099   */\n      0x00\n        /* \"#utility.yul\":8091:8179   */\n      mstore\n        /* \"#utility.yul\":8198:8202   */\n      0x32\n        /* \"#utility.yul\":8195:8196   */\n      0x04\n        /* \"#utility.yul\":8188:8203   */\n      mstore\n        /* \"#utility.yul\":8222:8226   */\n      0x24\n        /* \"#utility.yul\":8219:8220   */\n      0x00\n        /* \"#utility.yul\":8212:8227   */\n      revert\n        /* \"#utility.yul\":8239:8406   */\n    tag_139:\n        /* \"#utility.yul\":8379:8398   */\n      0x416c72656164792077697468647261776e000000000000000000000000000000\n        /* \"#utility.yul\":8375:8376   */\n      0x00\n        /* \"#utility.yul\":8367:8373   */\n      dup3\n        /* \"#utility.yul\":8363:8377   */\n      add\n        /* \"#utility.yul\":8356:8399   */\n      mstore\n        /* \"#utility.yul\":8239:8406   */\n      pop\n      jump\t// out\n        /* \"#utility.yul\":8412:8778   */\n    tag_140:\n        /* \"#utility.yul\":8554:8557   */\n      0x00\n        /* \"#utility.yul\":8575:8642   */\n      tag_232\n        /* \"#utility.yul\":8639:8641   */\n      0x11\n        /* \"#utility.yul\":8634:8637   */\n      dup4\n        /* \"#utility.yul\":8575:8642   */\n      tag_136\n      jump\t// in\n    tag_232:\n        /* \"#utility.yul\":8568:8642   */\n      swap2\n      pop\n        /* \"#utility.yul\":8651:8744   */\n      tag_233\n        /* \"#utility.yul\":8740:8743   */\n      dup3\n        /* \"#utility.yul\":8651:8744   */\n      tag_139\n      jump\t// in\n    tag_233:\n        /* \"#utility.yul\":8769:8771   */\n      0x20\n        /* \"#utility.yul\":8764:8767   */\n      dup3\n        /* \"#utility.yul\":8760:8772   */\n      add\n        /* \"#utility.yul\":8753:8772   */\n      swap1\n      pop\n        /* \"#utility.yul\":8412:8778   */\n      swap2\n      swap1\n      pop\n      jump\t// out\n        /* \"#utility.yul\":8784:9203   */\n    tag_71:\n        /* \"#utility.yul\":8950:8954   */\n      0x00\n        /* \"#utility.yul\":8988:8990   */\n      0x20\n        /* \"#utility.yul\":8977:8986   */\n      dup3\n        /* \"#utility.yul\":8973:8991   */\n      add\n        /* \"#utility.yul\":8965:8991   */\n      swap1\n      pop\n        /* \"#utility.yul\":9037:9046   */\n      dup2\n        /* \"#utility.yul\":9031:9035   */\n      dup2\n        /* \"#utility.yul\":9027:9047   */\n      sub\n        /* \"#utility.yul\":9023:9024   */\n      0x00\n        /* \"#utility.yul\":9012:9021   */\n      dup4\n        /* \"#utility.yul\":9008:9025   */\n      add\n        /* \"#utility.yul\":9001:9048   */\n      mstore\n        /* \"#utility.yul\":9065:9196   */\n      tag_235\n        /* \"#utility.yul\":9191:9195   */\n      dup2\n        /* \"#utility.yul\":9065:9196   */\n      tag_140\n      jump\t// in\n    tag_235:\n        /* \"#utility.yul\":9057:9196   */\n      swap1\n      pop\n        /* \"#utility.yul\":8784:9203   */\n      swap2\n      swap1\n      pop\n      jump\t// out\n        /* \"#utility.yul\":9209:9381   */\n    tag_141:\n        /* \"#utility.yul\":9349:9373   */\n      0x46756e647320617265207374696c6c206c6f636b656400000000000000000000\n        /* \"#utility.yul\":9345:9346   */\n      0x00\n        /* \"#utility.yul\":9337:9343   */\n      dup3\n        /* \"#utility.yul\":9333:9347   */\n      add\n        /* \"#utility.yul\":9326:9374   */\n      mstore\n        /* \"#utility.yul\":9209:9381   */\n      pop\n      jump\t// out\n        /* \"#utility.yul\":9387:9753   */\n    tag_142:\n        /* \"#utility.yul\":9529:9532   */\n      0x00\n        /* \"#utility.yul\":9550:9617   */\n      tag_238\n        /* \"#utility.yul\":9614:9616   */\n      0x16\n        /* \"#utility.yul\":9609:9612   */\n      dup4\n        /* \"#utility.yul\":9550:9617   */\n      tag_136\n      jump\t// in\n    tag_238:\n        /* \"#utility.yul\":9543:9617   */\n      swap2\n      pop\n        /* \"#utility.yul\":9626:9719   */\n      tag_239\n        /* \"#utility.yul\":9715:9718   */\n      dup3\n        /* \"#utility.yul\":9626:9719   */\n      tag_141\n      jump\t// in\n    tag_239:\n        /* \"#utility.yul\":9744:9746   */\n      0x20\n        /* \"#utility.yul\":9739:9742   */\n      dup3\n        /* \"#utility.yul\":9735:9747   */\n      add\n        /* \"#utility.yul\":9728:9747   */\n      swap1\n      pop\n        /* \"#utility.yul\":9387:9753   */\n      swap2\n      swap1\n      pop\n      jump\t// out\n        /* \"#utility.yul\":9759:10178   */\n    tag_74:\n        /* \"#utility.yul\":9925:9929   */\n      0x00\n        /* \"#utility.yul\":9963:9965   */\n      0x20\n        /* \"#utility.yul\":9952:9961   */\n      dup3\n        /* \"#utility.yul\":9948:9966   */\n      add\n        /* \"#utility.yul\":9940:9966   */\n      swap1\n      pop\n        /* \"#utility.yul\":10012:10021   */\n      dup2\n        /* \"#utility.yul\":10006:10010   */\n      dup2\n        /* \"#utility.yul\":10002:10022   */\n      sub\n        /* \"#utility.yul\":9998:9999   */\n      0x00\n        /* \"#utility.yul\":9987:9996   */\n      dup4\n        /* \"#utility.yul\":9983:10000   */\n      add\n        /* \"#utility.yul\":9976:10023   */\n      mstore\n        /* \"#utility.yul\":10040:10171   */\n      tag_241\n        /* \"#utility.yul\":10166:10170   */\n      dup2\n        /* \"#utility.yul\":10040:10171   */\n      tag_142\n      jump\t// in\n    tag_241:\n        /* \"#utility.yul\":10032:10171   */\n      swap1\n      pop\n        /* \"#utility.yul\":9759:10178   */\n      swap2\n      swap1\n      pop\n      jump\t// out\n        /* \"#utility.yul\":10184:10331   */\n    tag_143:\n        /* \"#utility.yul\":10285:10296   */\n      0x00\n        /* \"#utility.yul\":10322:10325   */\n      dup2\n        /* \"#utility.yul\":10307:10325   */\n      swap1\n      pop\n        /* \"#utility.yul\":10184:10331   */\n      swap3\n      swap2\n      pop\n      pop\n      jump\t// out\n        /* \"#utility.yul\":10337:10451   */\n    tag_144:\n      pop\n      jump\t// out\n        /* \"#utility.yul\":10457:10855   */\n    tag_145:\n        /* \"#utility.yul\":10616:10619   */\n      0x00\n        /* \"#utility.yul\":10637:10720   */\n      tag_245\n        /* \"#utility.yul\":10718:10719   */\n      0x00\n        /* \"#utility.yul\":10713:10716   */\n      dup4\n        /* \"#utility.yul\":10637:10720   */\n      tag_143\n      jump\t// in\n    tag_245:\n        /* \"#utility.yul\":10630:10720   */\n      swap2\n      pop\n        /* \"#utility.yul\":10729:10822   */\n      tag_246\n        /* \"#utility.yul\":10818:10821   */\n      dup3\n        /* \"#utility.yul\":10729:10822   */\n      tag_144\n      jump\t// in\n    tag_246:\n        /* \"#utility.yul\":10847:10848   */\n      0x00\n        /* \"#utility.yul\":10842:10845   */\n      dup3\n        /* \"#utility.yul\":10838:10849   */\n      add\n        /* \"#utility.yul\":10831:10849   */\n      swap1\n      pop\n        /* \"#utility.yul\":10457:10855   */\n      swap2\n      swap1\n      pop\n      jump\t// out\n        /* \"#utility.yul\":10861:11240   */\n    tag_76:\n        /* \"#utility.yul\":11045:11048   */\n      0x00\n        /* \"#utility.yul\":11067:11214   */\n      tag_248\n        /* \"#utility.yul\":11210:11213   */\n      dup3\n        /* \"#utility.yul\":11067:11214   */\n      tag_145\n      jump\t// in\n    tag_248:\n        /* \"#utility.yul\":11060:11214   */\n      swap2\n      pop\n        /* \"#utility.yul\":11231:11234   */\n      dup2\n        /* \"#utility.yul\":11224:11234   */\n      swap1\n      pop\n        /* \"#utility.yul\":10861:11240   */\n      swap2\n      swap1\n      pop\n      jump\t// out\n        /* \"#utility.yul\":11246:11411   */\n    tag_146:\n        /* \"#utility.yul\":11386:11403   */\n      0x5472616e73666572206661696c65640000000000000000000000000000000000\n        /* \"#utility.yul\":11382:11383   */\n      0x00\n        /* \"#utility.yul\":11374:11380   */\n      dup3\n        /* \"#utility.yul\":11370:11384   */\n      add\n        /* \"#utility.yul\":11363:11404   */\n      mstore\n        /* \"#utility.yul\":11246:11411   */\n      pop\n      jump\t// out\n        /* \"#utility.yul\":11417:11783   */\n    tag_147:\n        /* \"#utility.yul\":11559:11562   */\n      0x00\n        /* \"#utility.yul\":11580:11647   */\n      tag_251\n        /* \"#utility.yul\":11644:11646   */\n      0x0f\n        /* \"#utility.yul\":11639:11642   */\n      dup4\n        /* \"#utility.yul\":11580:11647   */\n      tag_136\n      jump\t// in\n    tag_251:\n        /* \"#utility.yul\":11573:11647   */\n      swap2\n      pop\n        /* \"#utility.yul\":11656:11749   */\n      tag_252\n        /* \"#utility.yul\":11745:11748   */\n      dup3\n        /* \"#utility.yul\":11656:11749   */\n      tag_146\n      jump\t// in\n    tag_252:\n        /* \"#utility.yul\":11774:11776   */\n      0x20\n        /* \"#utility.yul\":11769:11772   */\n      dup3\n        /* \"#utility.yul\":11765:11777   */\n      add\n        /* \"#utility.yul\":11758:11777   */\n      swap1\n      pop\n        /* \"#utility.yul\":11417:11783   */\n      swap2\n      swap1\n      pop\n      jump\t// out\n        /* \"#utility.yul\":11789:12208   */\n    tag_82:\n        /* \"#utility.yul\":11955:11959   */\n      0x00\n        /* \"#utility.yul\":11993:11995   */\n      0x20\n        /* \"#utility.yul\":11982:11991   */\n      dup3\n        /* \"#utility.yul\":11978:11996   */\n      add\n        /* \"#utility.yul\":11970:11996   */\n      swap1\n      pop\n        /* \"#utility.yul\":12042:12051   */\n      dup2\n        /* \"#utility.yul\":12036:12040   */\n      dup2\n        /* \"#utility.yul\":12032:12052   */\n      sub\n        /* \"#utility.yul\":12028:12029   */\n      0x00\n        /* \"#utility.yul\":12017:12026   */\n      dup4\n        /* \"#utility.yul\":12013:12030   */\n      add\n        /* \"#utility.yul\":12006:12053   */\n      mstore\n        /* \"#utility.yul\":12070:12201   */\n      tag_254\n        /* \"#utility.yul\":12196:12200   */\n      dup2\n        /* \"#utility.yul\":12070:12201   */\n      tag_147\n      jump\t// in\n    tag_254:\n        /* \"#utility.yul\":12062:12201   */\n      swap1\n      pop\n        /* \"#utility.yul\":11789:12208   */\n      swap2\n      swap1\n      pop\n      jump\t// out\n        /* \"#utility.yul\":12214:12546   */\n    tag_84:\n        /* \"#utility.yul\":12335:12339   */\n      0x00\n        /* \"#utility.yul\":12373:12375   */\n      0x40\n        /* \"#utility.yul\":12362:12371   */\n      dup3\n        /* \"#utility.yul\":12358:12376   */\n      add\n        /* \"#utility.yul\":12350:12376   */\n      swap1\n      pop\n        /* \"#utility.yul\":12386:12457   */\n      tag_256\n        /* \"#utility.yul\":12454:12455   */\n      0x00\n        /* \"#utility.yul\":12443:12452   */\n      dup4\n        /* \"#utility.yul\":12439:12456   */\n      add\n        /* \"#utility.yul\":12430:12436   */\n      dup6\n        /* \"#utility.yul\":12386:12457   */\n      tag_124\n      jump\t// in\n    tag_256:\n        /* \"#utility.yul\":12467:12539   */\n      tag_257\n        /* \"#utility.yul\":12535:12537   */\n      0x20\n        /* \"#utility.yul\":12524:12533   */\n      dup4\n        /* \"#utility.yul\":12520:12538   */\n      add\n        /* \"#utility.yul\":12511:12517   */\n      dup5\n        /* \"#utility.yul\":12467:12539   */\n      tag_124\n      jump\t// in\n    tag_257:\n        /* \"#utility.yul\":12214:12546   */\n      swap4\n      swap3\n      pop\n      pop\n      pop\n      jump\t// out\n        /* \"#utility.yul\":12552:12732   */\n    tag_148:\n        /* \"#utility.yul\":12600:12677   */\n      0x4e487b7100000000000000000000000000000000000000000000000000000000\n        /* \"#utility.yul\":12597:12598   */\n      0x00\n        /* \"#utility.yul\":12590:12678   */\n      mstore\n        /* \"#utility.yul\":12697:12701   */\n      0x11\n        /* \"#utility.yul\":12694:12695   */\n      0x04\n        /* \"#utility.yul\":12687:12702   */\n      mstore\n        /* \"#utility.yul\":12721:12725   */\n      0x24\n        /* \"#utility.yul\":12718:12719   */\n      0x00\n        /* \"#utility.yul\":12711:12726   */\n      revert\n        /* \"#utility.yul\":12738:12932   */\n    tag_100:\n        /* \"#utility.yul\":12778:12782   */\n      0x00\n        /* \"#utility.yul\":12798:12818   */\n      tag_260\n        /* \"#utility.yul\":12816:12817   */\n      dup3\n        /* \"#utility.yul\":12798:12818   */\n      tag_121\n      jump\t// in\n    tag_260:\n        /* \"#utility.yul\":12793:12818   */\n      swap2\n      pop\n        /* \"#utility.yul\":12832:12852   */\n      tag_261\n        /* \"#utility.yul\":12850:12851   */\n      dup4\n        /* \"#utility.yul\":12832:12852   */\n      tag_121\n      jump\t// in\n    tag_261:\n        /* \"#utility.yul\":12827:12852   */\n      swap3\n      pop\n        /* \"#utility.yul\":12876:12877   */\n      dup3\n        /* \"#utility.yul\":12873:12874   */\n      dup3\n        /* \"#utility.yul\":12869:12878   */\n      sub\n        /* \"#utility.yul\":12861:12878   */\n      swap1\n      pop\n        /* \"#utility.yul\":12900:12901   */\n      dup2\n        /* \"#utility.yul\":12894:12898   */\n      dup2\n        /* \"#utility.yul\":12891:12902   */\n      gt\n        /* \"#utility.yul\":12888:12925   */\n      iszero\n      tag_262\n      jumpi\n        /* \"#utility.yul\":12905:12923   */\n      tag_263\n      tag_148\n      jump\t// in\n    tag_263:\n        /* \"#utility.yul\":12888:12925   */\n    tag_262:\n        /* \"#utility.yul\":12738:12932   */\n      swap3\n      swap2\n      pop\n      pop\n      jump\t// out\n        /* \"#utility.yul\":12938:13162   */\n    tag_149:\n        /* \"#utility.yul\":13078:13112   */\n      0x4465706f73697420616d6f756e74206d75737420626520677265617465722074\n        /* \"#utility.yul\":13074:13075   */\n      0x00\n        /* \"#utility.yul\":13066:13072   */\n      dup3\n        /* \"#utility.yul\":13062:13076   */\n      add\n        /* \"#utility.yul\":13055:13113   */\n      mstore\n        /* \"#utility.yul\":13147:13154   */\n      0x68616e2030000000000000000000000000000000000000000000000000000000\n        /* \"#utility.yul\":13142:13144   */\n      0x20\n        /* \"#utility.yul\":13134:13140   */\n      dup3\n        /* \"#utility.yul\":13130:13145   */\n      add\n        /* \"#utility.yul\":13123:13155   */\n      mstore\n        /* \"#utility.yul\":12938:13162   */\n      pop\n      jump\t// out\n        /* \"#utility.yul\":13168:13534   */\n    tag_150:\n        /* \"#utility.yul\":13310:13313   */\n      0x00\n        /* \"#utility.yul\":13331:13398   */\n      tag_266\n        /* \"#utility.yul\":13395:13397   */\n      0x25\n        /* \"#utility.yul\":13390:13393   */\n      dup4\n        /* \"#utility.yul\":13331:13398   */\n      tag_136\n      jump\t// in\n    tag_266:\n        /* \"#utility.yul\":13324:13398   */\n      swap2\n      pop\n        /* \"#utility.yul\":13407:13500   */\n      tag_267\n        /* \"#utility.yul\":13496:13499   */\n      dup3\n        /* \"#utility.yul\":13407:13500   */\n      tag_149\n      jump\t// in\n    tag_267:\n        /* \"#utility.yul\":13525:13527   */\n      0x40\n        /* \"#utility.yul\":13520:13523   */\n      dup3\n        /* \"#utility.yul\":13516:13528   */\n      add\n        /* \"#utility.yul\":13509:13528   */\n      swap1\n      pop\n        /* \"#utility.yul\":13168:13534   */\n      swap2\n      swap1\n      pop\n      jump\t// out\n        /* \"#utility.yul\":13540:13959   */\n    tag_104:\n        /* \"#utility.yul\":13706:13710   */\n      0x00\n        /* \"#utility.yul\":13744:13746   */\n      0x20\n        /* \"#utility.yul\":13733:13742   */\n      dup3\n        /* \"#utility.yul\":13729:13747   */\n      add\n        /* \"#utility.yul\":13721:13747   */\n      swap1\n      pop\n        /* \"#utility.yul\":13793:13802   */\n      dup2\n        /* \"#utility.yul\":13787:13791   */\n      dup2\n        /* \"#utility.yul\":13783:13803   */\n      sub\n        /* \"#utility.yul\":13779:13780   */\n      0x00\n        /* \"#utility.yul\":13768:13777   */\n      dup4\n        /* \"#utility.yul\":13764:13781   */\n      add\n        /* \"#utility.yul\":13757:13804   */\n      mstore\n        /* \"#utility.yul\":13821:13952   */\n      tag_269\n        /* \"#utility.yul\":13947:13951   */\n      dup2\n        /* \"#utility.yul\":13821:13952   */\n      tag_150\n      jump\t// in\n    tag_269:\n        /* \"#utility.yul\":13813:13952   */\n      swap1\n      pop\n        /* \"#utility.yul\":13540:13959   */\n      swap2\n      swap1\n      pop\n      jump\t// out\n        /* \"#utility.yul\":13965:14188   */\n    tag_151:\n        /* \"#utility.yul\":14105:14139   */\n      0x4c6f636b206475726174696f6e206d7573742062652067726561746572207468\n        /* \"#utility.yul\":14101:14102   */\n      0x00\n        /* \"#utility.yul\":14093:14099   */\n      dup3\n        /* \"#utility.yul\":14089:14103   */\n      add\n        /* \"#utility.yul\":14082:14140   */\n      mstore\n        /* \"#utility.yul\":14174:14180   */\n      0x616e203000000000000000000000000000000000000000000000000000000000\n        /* \"#utility.yul\":14169:14171   */\n      0x20\n        /* \"#utility.yul\":14161:14167   */\n      dup3\n        /* \"#utility.yul\":14157:14172   */\n      add\n        /* \"#utility.yul\":14150:14181   */\n      mstore\n        /* \"#utility.yul\":13965:14188   */\n      pop\n      jump\t// out\n        /* \"#utility.yul\":14194:14560   */\n    tag_152:\n        /* \"#utility.yul\":14336:14339   */\n      0x00\n        /* \"#utility.yul\":14357:14424   */\n      tag_272\n        /* \"#utility.yul\":14421:14423   */\n      0x24\n        /* \"#utility.yul\":14416:14419   */\n      dup4\n        /* \"#utility.yul\":14357:14424   */\n      tag_136\n      jump\t// in\n    tag_272:\n        /* \"#utility.yul\":14350:14424   */\n      swap2\n      pop\n        /* \"#utility.yul\":14433:14526   */\n      tag_273\n        /* \"#utility.yul\":14522:14525   */\n      dup3\n        /* \"#utility.yul\":14433:14526   */\n      tag_151\n      jump\t// in\n    tag_273:\n        /* \"#utility.yul\":14551:14553   */\n      0x40\n        /* \"#utility.yul\":14546:14549   */\n      dup3\n        /* \"#utility.yul\":14542:14554   */\n      add\n        /* \"#utility.yul\":14535:14554   */\n      swap1\n      pop\n        /* \"#utility.yul\":14194:14560   */\n      swap2\n      swap1\n      pop\n      jump\t// out\n        /* \"#utility.yul\":14566:14985   */\n    tag_107:\n        /* \"#utility.yul\":14732:14736   */\n      0x00\n        /* \"#utility.yul\":14770:14772   */\n      0x20\n        /* \"#utility.yul\":14759:14768   */\n      dup3\n        /* \"#utility.yul\":14755:14773   */\n      add\n        /* \"#utility.yul\":14747:14773   */\n      swap1\n      pop\n        /* \"#utility.yul\":14819:14828   */\n      dup2\n        /* \"#utility.yul\":14813:14817   */\n      dup2\n        /* \"#utility.yul\":14809:14829   */\n      sub\n        /* \"#utility.yul\":14805:14806   */\n      0x00\n        /* \"#utility.yul\":14794:14803   */\n      dup4\n        /* \"#utility.yul\":14790:14807   */\n      add\n        /* \"#utility.yul\":14783:14830   */\n      mstore\n        /* \"#utility.yul\":14847:14978   */\n      tag_275\n        /* \"#utility.yul\":14973:14977   */\n      dup2\n        /* \"#utility.yul\":14847:14978   */\n      tag_152\n      jump\t// in\n    tag_275:\n        /* \"#utility.yul\":14839:14978   */\n      swap1\n      pop\n        /* \"#utility.yul\":14566:14985   */\n      swap2\n      swap1\n      pop\n      jump\t// out\n        /* \"#utility.yul\":14991:15182   */\n    tag_109:\n        /* \"#utility.yul\":15031:15034   */\n      0x00\n        /* \"#utility.yul\":15050:15070   */\n      tag_277\n        /* \"#utility.yul\":15068:15069   */\n      dup3\n        /* \"#utility.yul\":15050:15070   */\n      tag_121\n      jump\t// in\n    tag_277:\n        /* \"#utility.yul\":15045:15070   */\n      swap2\n      pop\n        /* \"#utility.yul\":15084:15104   */\n      tag_278\n        /* \"#utility.yul\":15102:15103   */\n      dup4\n        /* \"#utility.yul\":15084:15104   */\n      tag_121\n      jump\t// in\n    tag_278:\n        /* \"#utility.yul\":15079:15104   */\n      swap3\n      pop\n        /* \"#utility.yul\":15127:15128   */\n      dup3\n        /* \"#utility.yul\":15124:15125   */\n      dup3\n        /* \"#utility.yul\":15120:15129   */\n      add\n        /* \"#utility.yul\":15113:15129   */\n      swap1\n      pop\n        /* \"#utility.yul\":15148:15151   */\n      dup1\n        /* \"#utility.yul\":15145:15146   */\n      dup3\n        /* \"#utility.yul\":15142:15152   */\n      gt\n        /* \"#utility.yul\":15139:15175   */\n      iszero\n      tag_279\n      jumpi\n        /* \"#utility.yul\":15155:15173   */\n      tag_280\n      tag_148\n      jump\t// in\n    tag_280:\n        /* \"#utility.yul\":15139:15175   */\n    tag_279:\n        /* \"#utility.yul\":14991:15182   */\n      swap3\n      swap2\n      pop\n      pop\n      jump\t// out\n        /* \"#utility.yul\":15188:15630   */\n    tag_113:\n        /* \"#utility.yul\":15337:15341   */\n      0x00\n        /* \"#utility.yul\":15375:15377   */\n      0x60\n        /* \"#utility.yul\":15364:15373   */\n      dup3\n        /* \"#utility.yul\":15360:15378   */\n      add\n        /* \"#utility.yul\":15352:15378   */\n      swap1\n      pop\n        /* \"#utility.yul\":15388:15459   */\n      tag_282\n        /* \"#utility.yul\":15456:15457   */\n      0x00\n        /* \"#utility.yul\":15445:15454   */\n      dup4\n        /* \"#utility.yul\":15441:15458   */\n      add\n        /* \"#utility.yul\":15432:15438   */\n      dup7\n        /* \"#utility.yul\":15388:15459   */\n      tag_124\n      jump\t// in\n    tag_282:\n        /* \"#utility.yul\":15469:15541   */\n      tag_283\n        /* \"#utility.yul\":15537:15539   */\n      0x20\n        /* \"#utility.yul\":15526:15535   */\n      dup4\n        /* \"#utility.yul\":15522:15540   */\n      add\n        /* \"#utility.yul\":15513:15519   */\n      dup6\n        /* \"#utility.yul\":15469:15541   */\n      tag_124\n      jump\t// in\n    tag_283:\n        /* \"#utility.yul\":15551:15623   */\n      tag_284\n        /* \"#utility.yul\":15619:15621   */\n      0x40\n        /* \"#utility.yul\":15608:15617   */\n      dup4\n        /* \"#utility.yul\":15604:15622   */\n      add\n        /* \"#utility.yul\":15595:15601   */\n      dup5\n        /* \"#utility.yul\":15551:15623   */\n      tag_124\n      jump\t// in\n    tag_284:\n        /* \"#utility.yul\":15188:15630   */\n      swap5\n      swap4\n      pop\n      pop\n      pop\n      pop\n      jump\t// out\n\n    auxdata: 0xa2646970667358221220003f91e3495fa9b93ed993d4bccc7c9cf3595f284b75f1222240ba16ac9c3fdf64736f6c63430008140033\n}\n",
				"bytecode": {
					"linkReferences": {},
					"object": "608060405234801561000f575f80fd5b506110f38061001d5f395ff3fe60806040526004361061007a575f3560e01c806330dbb4e41161004d57806330dbb4e41461015c5780636f9fb98a1461019857806382387c23146101c2578063b6b55f25146101fe5761007a565b806308f433331461007e5780631bae91a4146100bc5780632a5bf6d2146100f85780632e1a7d4d14610134575b5f80fd5b348015610089575f80fd5b506100a4600480360381019061009f9190610a4a565b61021a565b6040516100b393929190610ab1565b60405180910390f35b3480156100c7575f80fd5b506100e260048036038101906100dd9190610ae6565b610265565b6040516100ef9190610b11565b60405180910390f35b348015610103575f80fd5b5061011e60048036038101906101199190610ae6565b6102ad565b60405161012b9190610c30565b60405180910390f35b34801561013f575f80fd5b5061015a60048036038101906101559190610c50565b610372565b005b348015610167575f80fd5b50610182600480360381019061017d9190610a4a565b6105d3565b60405161018f9190610c7b565b60405180910390f35b3480156101a3575f80fd5b506101ac6106be565b6040516101b99190610b11565b60405180910390f35b3480156101cd575f80fd5b506101e860048036038101906101e39190610a4a565b6106c5565b6040516101f59190610b11565b60405180910390f35b61021860048036038101906102139190610c50565b6107ce565b005b5f602052815f5260405f208181548110610232575f80fd5b905f5260205f2090600302015f9150915050805f015490806001015490806002015f9054906101000a900460ff16905083565b5f805f8373ffffffffffffffffffffffffffffffffffffffff1673ffffffffffffffffffffffffffffffffffffffff1681526020019081526020015f20805490509050919050565b60605f808373ffffffffffffffffffffffffffffffffffffffff1673ffffffffffffffffffffffffffffffffffffffff1681526020019081526020015f20805480602002602001604051908101604052809291908181526020015f905b82821015610367578382905f5260205f2090600302016040518060600160405290815f820154815260200160018201548152602001600282015f9054906101000a900460ff1615151515815250508152602001906001019061030a565b505050509050919050565b5f805f3373ffffffffffffffffffffffffffffffffffffffff1673ffffffffffffffffffffffffffffffffffffffff1681526020019081526020015f209050808054905082106103f7576040517f08c379a00000000000000000000000000000000000000000000000000000000081526004016103ee90610cee565b60405180910390fd5b5f81838154811061040b5761040a610d0c565b5b905f5260205f2090600302019050806002015f9054906101000a900460ff161561046a576040517f08c379a000000000000000000000000000000000000000000000000000000000815260040161046190610d83565b60405180910390fd5b80600101544210156104b1576040517f08c379a00000000000000000000000000000000000000000000000000000000081526004016104a890610deb565b60405180910390fd5b6001816002015f6101000a81548160ff0219169083151502179055505f815f015490505f3373ffffffffffffffffffffffffffffffffffffffff16826040516104f990610e36565b5f6040518083038185875af1925050503d805f8114610533576040519150601f19603f3d011682016040523d82523d5f602084013e610538565b606091505b505090508061057c576040517f08c379a000000000000000000000000000000000000000000000000000000000815260040161057390610e94565b60405180910390fd5b3373ffffffffffffffffffffffffffffffffffffffff167f92ccf450a286a957af52509bc1c9939d1a6a481783e142e41e2499f0bb66ebc683876040516105c4929190610eb2565b60405180910390a25050505050565b5f805f8473ffffffffffffffffffffffffffffffffffffffff1673ffffffffffffffffffffffffffffffffffffffff1681526020019081526020015f20805490508210610655576040517f08c379a000000000000000000000000000000000000000000000000000000000815260040161064c90610cee565b60405180910390fd5b5f808473ffffffffffffffffffffffffffffffffffffffff1673ffffffffffffffffffffffffffffffffffffffff1681526020019081526020015f2082815481106106a3576106a2610d0c565b5b905f5260205f20906003020160010154421015905092915050565b5f47905090565b5f805f8473ffffffffffffffffffffffffffffffffffffffff1673ffffffffffffffffffffffffffffffffffffffff1681526020019081526020015f20805490508210610747576040517f08c379a000000000000000000000000000000000000000000000000000000000815260040161073e90610cee565b60405180910390fd5b5f805f8573ffffffffffffffffffffffffffffffffffffffff1673ffffffffffffffffffffffffffffffffffffffff1681526020019081526020015f20838154811061079657610795610d0c565b5b905f5260205f2090600302016001015490508042106107b8575f9150506107c8565b42816107c49190610f06565b9150505b92915050565b5f3411610810576040517f08c379a000000000000000000000000000000000000000000000000000000000815260040161080790610fa9565b60405180910390fd5b5f8111610852576040517f08c379a000000000000000000000000000000000000000000000000000000000815260040161084990611037565b60405180910390fd5b5f814261085f9190611055565b90505f60405180606001604052803481526020018381526020015f151581525090505f803373ffffffffffffffffffffffffffffffffffffffff1673ffffffffffffffffffffffffffffffffffffffff1681526020019081526020015f2081908060018154018082558091505060019003905f5260205f2090600302015f909190919091505f820151815f0155602082015181600101556040820151816002015f6101000a81548160ff02191690831515021790555050503373ffffffffffffffffffffffffffffffffffffffff167f91ede45f04a37a7c170f5c1207df3b6bc748dc1e04ad5e917a241d0f52feada3348460015f803373ffffffffffffffffffffffffffffffffffffffff1673ffffffffffffffffffffffffffffffffffffffff1681526020019081526020015f208054905061099d9190610f06565b6040516109ac93929190611088565b60405180910390a2505050565b5f80fd5b5f73ffffffffffffffffffffffffffffffffffffffff82169050919050565b5f6109e6826109bd565b9050919050565b6109f6816109dc565b8114610a00575f80fd5b50565b5f81359050610a11816109ed565b92915050565b5f819050919050565b610a2981610a17565b8114610a33575f80fd5b50565b5f81359050610a4481610a20565b92915050565b5f8060408385031215610a6057610a5f6109b9565b5b5f610a6d85828601610a03565b9250506020610a7e85828601610a36565b9150509250929050565b610a9181610a17565b82525050565b5f8115159050919050565b610aab81610a97565b82525050565b5f606082019050610ac45f830186610a88565b610ad16020830185610a88565b610ade6040830184610aa2565b949350505050565b5f60208284031215610afb57610afa6109b9565b5b5f610b0884828501610a03565b91505092915050565b5f602082019050610b245f830184610a88565b92915050565b5f81519050919050565b5f82825260208201905092915050565b5f819050602082019050919050565b610b5c81610a17565b82525050565b610b6b81610a97565b82525050565b606082015f820151610b855f850182610b53565b506020820151610b986020850182610b53565b506040820151610bab6040850182610b62565b50505050565b5f610bbc8383610b71565b60608301905092915050565b5f602082019050919050565b5f610bde82610b2a565b610be88185610b34565b9350610bf383610b44565b805f5b83811015610c23578151610c0a8882610bb1565b9750610c1583610bc8565b925050600181019050610bf6565b5085935050505092915050565b5f6020820190508181035f830152610c488184610bd4565b905092915050565b5f60208284031215610c6557610c646109b9565b5b5f610c7284828501610a36565b91505092915050565b5f602082019050610c8e5f830184610aa2565b92915050565b5f82825260208201905092915050565b7f496e76616c6964206465706f73697420696e64657800000000000000000000005f82015250565b5f610cd8601583610c94565b9150610ce382610ca4565b602082019050919050565b5f6020820190508181035f830152610d0581610ccc565b9050919050565b7f4e487b71000000000000000000000000000000000000000000000000000000005f52603260045260245ffd5b7f416c72656164792077697468647261776e0000000000000000000000000000005f82015250565b5f610d6d601183610c94565b9150610d7882610d39565b602082019050919050565b5f6020820190508181035f830152610d9a81610d61565b9050919050565b7f46756e647320617265207374696c6c206c6f636b6564000000000000000000005f82015250565b5f610dd5601683610c94565b9150610de082610da1565b602082019050919050565b5f6020820190508181035f830152610e0281610dc9565b9050919050565b5f81905092915050565b50565b5f610e215f83610e09565b9150610e2c82610e13565b5f82019050919050565b5f610e4082610e16565b9150819050919050565b7f5472616e73666572206661696c656400000000000000000000000000000000005f82015250565b5f610e7e600f83610c94565b9150610e8982610e4a565b602082019050919050565b5f6020820190508181035f830152610eab81610e72565b9050919050565b5f604082019050610ec55f830185610a88565b610ed26020830184610a88565b9392505050565b7f4e487b71000000000000000000000000000000000000000000000000000000005f52601160045260245ffd5b5f610f1082610a17565b9150610f1b83610a17565b9250828203905081811115610f3357610f32610ed9565b5b92915050565b7f4465706f73697420616d6f756e74206d757374206265206772656174657220745f8201527f68616e2030000000000000000000000000000000000000000000000000000000602082015250565b5f610f93602583610c94565b9150610f9e82610f39565b604082019050919050565b5f6020820190508181035f830152610fc081610f87565b9050919050565b7f4c6f636b206475726174696f6e206d75737420626520677265617465722074685f8201527f616e203000000000000000000000000000000000000000000000000000000000602082015250565b5f611021602483610c94565b915061102c82610fc7565b604082019050919050565b5f6020820190508181035f83015261104e81611015565b9050919050565b5f61105f82610a17565b915061106a83610a17565b925082820190508082111561108257611081610ed9565b5b92915050565b5f60608201905061109b5f830186610a88565b6110a86020830185610a88565b6110b56040830184610a88565b94935050505056fea2646970667358221220003f91e3495fa9b93ed993d4bccc7c9cf3595f284b75f1222240ba16ac9c3fdf64736f6c63430008140033",
					"opcodes": "PUSH1 0x80 PUSH1 0x40 MSTORE CALLVALUE DUP1 ISZERO PUSH2 0xF JUMPI PUSH0 DUP1 REVERT JUMPDEST POP PUSH2 0x10F3 DUP1 PUSH2 0x1D PUSH0 CODECOPY PUSH0 RETURN INVALID PUSH1 0x80 PUSH1 0x40 MSTORE PUSH1 0x4 CALLDATASIZE LT PUSH2 0x7A JUMPI PUSH0 CALLDATALOAD PUSH1 0xE0 SHR DUP1 PUSH4 0x30DBB4E4 GT PUSH2 0x4D JUMPI DUP1 PUSH4 0x30DBB4E4 EQ PUSH2 0x15C JUMPI DUP1 PUSH4 0x6F9FB98A EQ PUSH2 0x198 JUMPI DUP1 PUSH4 0x82387C23 EQ PUSH2 0x1C2 JUMPI DUP1 PUSH4 0xB6B55F25 EQ PUSH2 0x1FE JUMPI PUSH2 0x7A JUMP JUMPDEST DUP1 PUSH4 0x8F43333 EQ PUSH2 0x7E JUMPI DUP1 PUSH4 0x1BAE91A4 EQ PUSH2 0xBC JUMPI DUP1 PUSH4 0x2A5BF6D2 EQ PUSH2 0xF8 JUMPI DUP1 PUSH4 0x2E1A7D4D EQ PUSH2 0x134 JUMPI JUMPDEST PUSH0 DUP1 REVERT JUMPDEST CALLVALUE DUP1 ISZERO PUSH2 0x89 JUMPI PUSH0 DUP1 REVERT JUMPDEST POP PUSH2 0xA4 PUSH1 0x4 DUP1 CALLDATASIZE SUB DUP2 ADD SWAP1 PUSH2 0x9F SWAP2 SWAP1 PUSH2 0xA4A JUMP JUMPDEST PUSH2 0x21A JUMP JUMPDEST PUSH1 0x40 MLOAD PUSH2 0xB3 SWAP4 SWAP3 SWAP2 SWAP1 PUSH2 0xAB1 JUMP JUMPDEST PUSH1 0x40 MLOAD DUP1 SWAP2 SUB SWAP1 RETURN JUMPDEST CALLVALUE DUP1 ISZERO PUSH2 0xC7 JUMPI PUSH0 DUP1 REVERT JUMPDEST POP PUSH2 0xE2 PUSH1 0x4 DUP1 CALLDATASIZE SUB DUP2 ADD SWAP1 PUSH2 0xDD SWAP2 SWAP1 PUSH2 0xAE6 JUMP JUMPDEST PUSH2 0x265 JUMP JUMPDEST PUSH1 0x40 MLOAD PUSH2 0xEF SWAP2 SWAP1 PUSH2 0xB11 JUMP JUMPDEST PUSH1 0x40 MLOAD DUP1 SWAP2 SUB SWAP1 RETURN JUMPDEST CALLVALUE DUP1 ISZERO PUSH2 0x103 JUMPI PUSH0 DUP1 REVERT JUMPDEST POP PUSH2 0x11E PUSH1 0x4 DUP1 CALLDATASIZE SUB DUP2 ADD SWAP1 PUSH2 0x119 SWAP2 SWAP1 PUSH2 0xAE6 JUMP JUMPDEST PUSH2 0x2AD JUMP JUMPDEST PUSH1 0x40 MLOAD PUSH2 0x12B SWAP2 SWAP1 PUSH2 0xC30 JUMP JUMPDEST PUSH1 0x40 MLOAD DUP1 SWAP2 SUB SWAP1 RETURN JUMPDEST CALLVALUE DUP1 ISZERO PUSH2 0x13F JUMPI PUSH0 DUP1 REVERT JUMPDEST POP PUSH2 0x15A PUSH1 0x4 DUP1 CALLDATASIZE SUB DUP2 ADD SWAP1 PUSH2 0x155 SWAP2 SWAP1 PUSH2 0xC50 JUMP JUMPDEST PUSH2 0x372 JUMP JUMPDEST STOP JUMPDEST CALLVALUE DUP1 ISZERO PUSH2 0x167 JUMPI PUSH0 DUP1 REVERT JUMPDEST POP PUSH2 0x182 PUSH1 0x4 DUP1 CALLDATASIZE SUB DUP2 ADD SWAP1 PUSH2 0x17D SWAP2 SWAP1 PUSH2 0xA4A JUMP JUMPDEST PUSH2 0x5D3 JUMP JUMPDEST PUSH1 0x40 MLOAD PUSH2 0x18F SWAP2 SWAP1 PUSH2 0xC7B JUMP JUMPDEST PUSH1 0x40 MLOAD DUP1 SWAP2 SUB SWAP1 RETURN JUMPDEST CALLVALUE DUP1 ISZERO PUSH2 0x1A3 JUMPI PUSH0 DUP1 REVERT JUMPDEST POP PUSH2 0x1AC PUSH2 0x6BE JUMP JUMPDEST PUSH1 0x40 MLOAD PUSH2 0x1B9 SWAP2 SWAP1 PUSH2 0xB11 JUMP JUMPDEST PUSH1 0x40 MLOAD DUP1 SWAP2 SUB SWAP1 RETURN JUMPDEST CALLVALUE DUP1 ISZERO PUSH2 0x1CD JUMPI PUSH0 DUP1 REVERT JUMPDEST POP PUSH2 0x1E8 PUSH1 0x4 DUP1 CALLDATASIZE SUB DUP2 ADD SWAP1 PUSH2 0x1E3 SWAP2 SWAP1 PUSH2 0xA4A JUMP JUMPDEST PUSH2 0x6C5 JUMP JUMPDEST PUSH1 0x40 MLOAD PUSH2 0x1F5 SWAP2 SWAP1 PUSH2 0xB11 JUMP JUMPDEST PUSH1 0x40 MLOAD DUP1 SWAP2 SUB SWAP1 RETURN JUMPDEST PUSH2 0x218 PUSH1 0x4 DUP1 CALLDATASIZE SUB DUP2 ADD SWAP1 PUSH2 0x213 SWAP2 SWAP1 PUSH2 0xC50 JUMP JUMPDEST PUSH2 0x7CE JUMP JUMPDEST STOP JUMPDEST PUSH0 PUSH1 0x20 MSTORE DUP2 PUSH0 MSTORE PUSH1 0x40 PUSH0 KECCAK256 DUP2 DUP2 SLOAD DUP2 LT PUSH2 0x232 JUMPI PUSH0 DUP1 REVERT JUMPDEST SWAP1 PUSH0 MSTORE PUSH1 0x20 PUSH0 KECCAK256 SWAP1 PUSH1 0x3 MUL ADD PUSH0 SWAP2 POP SWAP2 POP POP DUP1 PUSH0 ADD SLOAD SWAP1 DUP1 PUSH1 0x1 ADD SLOAD SWAP1 DUP1 PUSH1 0x2 ADD PUSH0 SWAP1 SLOAD SWAP1 PUSH2 0x100 EXP SWAP1 DIV PUSH1 0xFF AND SWAP1 POP DUP4 JUMP JUMPDEST PUSH0 DUP1 PUSH0 DUP4 PUSH20 0xFFFFFFFFFFFFFFFFFFFFFFFFFFFFFFFFFFFFFFFF AND PUSH20 0xFFFFFFFFFFFFFFFFFFFFFFFFFFFFFFFFFFFFFFFF AND DUP2 MSTORE PUSH1 0x20 ADD SWAP1 DUP2 MSTORE PUSH1 0x20 ADD PUSH0 KECCAK256 DUP1 SLOAD SWAP1 POP SWAP1 POP SWAP2 SWAP1 POP JUMP JUMPDEST PUSH1 0x60 PUSH0 DUP1 DUP4 PUSH20 0xFFFFFFFFFFFFFFFFFFFFFFFFFFFFFFFFFFFFFFFF AND PUSH20 0xFFFFFFFFFFFFFFFFFFFFFFFFFFFFFFFFFFFFFFFF AND DUP2 MSTORE PUSH1 0x20 ADD SWAP1 DUP2 MSTORE PUSH1 0x20 ADD PUSH0 KECCAK256 DUP1 SLOAD DUP1 PUSH1 0x20 MUL PUSH1 0x20 ADD PUSH1 0x40 MLOAD SWAP1 DUP2 ADD PUSH1 0x40 MSTORE DUP1 SWAP3 SWAP2 SWAP1 DUP2 DUP2 MSTORE PUSH1 0x20 ADD PUSH0 SWAP1 JUMPDEST DUP3 DUP3 LT ISZERO PUSH2 0x367 JUMPI DUP4 DUP3 SWAP1 PUSH0 MSTORE PUSH1 0x20 PUSH0 KECCAK256 SWAP1 PUSH1 0x3 MUL ADD PUSH1 0x40 MLOAD DUP1 PUSH1 0x60 ADD PUSH1 0x40 MSTORE SWAP1 DUP2 PUSH0 DUP3 ADD SLOAD DUP2 MSTORE PUSH1 0x20 ADD PUSH1 0x1 DUP3 ADD SLOAD DUP2 MSTORE PUSH1 0x20 ADD PUSH1 0x2 DUP3 ADD PUSH0 SWAP1 SLOAD SWAP1 PUSH2 0x100 EXP SWAP1 DIV PUSH1 0xFF AND ISZERO ISZERO ISZERO ISZERO DUP2 MSTORE POP POP DUP2 MSTORE PUSH1 0x20 ADD SWAP1 PUSH1 0x1 ADD SWAP1 PUSH2 0x30A JUMP JUMPDEST POP POP POP POP SWAP1 POP SWAP2 SWAP1 POP JUMP JUMPDEST PUSH0 DUP1 PUSH0 CALLER PUSH20 0xFFFFFFFFFFFFFFFFFFFFFFFFFFFFFFFFFFFFFFFF AND PUSH20 0xFFFFFFFFFFFFFFFFFFFFFFFFFFFFFFFFFFFFFFFF AND DUP2 MSTORE PUSH1 0x20 ADD SWAP1 DUP2 MSTORE PUSH1 0x20 ADD PUSH0 KECCAK256 SWAP1 POP DUP1 DUP1 SLOAD SWAP1 POP DUP3 LT PUSH2 0x3F7 JUMPI PUSH1 0x40 MLOAD PUSH32 0x8C379A000000000000000000000000000000000000000000000000000000000 DUP2 MSTORE PUSH1 0x4 ADD PUSH2 0x3EE SWAP1 PUSH2 0xCEE JUMP JUMPDEST PUSH1 0x40 MLOAD DUP1 SWAP2 SUB SWAP1 REVERT JUMPDEST PUSH0 DUP2 DUP4 DUP2 SLOAD DUP2 LT PUSH2 0x40B JUMPI PUSH2 0x40A PUSH2 0xD0C JUMP JUMPDEST JUMPDEST SWAP1 PUSH0 MSTORE PUSH1 0x20 PUSH0 KECCAK256 SWAP1 PUSH1 0x3 MUL ADD SWAP1 POP DUP1 PUSH1 0x2 ADD PUSH0 SWAP1 SLOAD SWAP1 PUSH2 0x100 EXP SWAP1 DIV PUSH1 0xFF AND ISZERO PUSH2 0x46A JUMPI PUSH1 0x40 MLOAD PUSH32 0x8C379A000000000000000000000000000000000000000000000000000000000 DUP2 MSTORE PUSH1 0x4 ADD PUSH2 0x461 SWAP1 PUSH2 0xD83 JUMP JUMPDEST PUSH1 0x40 MLOAD DUP1 SWAP2 SUB SWAP1 REVERT JUMPDEST DUP1 PUSH1 0x1 ADD SLOAD TIMESTAMP LT ISZERO PUSH2 0x4B1 JUMPI PUSH1 0x40 MLOAD PUSH32 0x8C379A000000000000000000000000000000000000000000000000000000000 DUP2 MSTORE PUSH1 0x4 ADD PUSH2 0x4A8 SWAP1 PUSH2 0xDEB JUMP JUMPDEST PUSH1 0x40 MLOAD DUP1 SWAP2 SUB SWAP1 REVERT JUMPDEST PUSH1 0x1 DUP2 PUSH1 0x2 ADD PUSH0 PUSH2 0x100 EXP DUP2 SLOAD DUP2 PUSH1 0xFF MUL NOT AND SWAP1 DUP4 ISZERO ISZERO MUL OR SWAP1 SSTORE POP PUSH0 DUP2 PUSH0 ADD SLOAD SWAP1 POP PUSH0 CALLER PUSH20 0xFFFFFFFFFFFFFFFFFFFFFFFFFFFFFFFFFFFFFFFF AND DUP3 PUSH1 0x40 MLOAD PUSH2 0x4F9 SWAP1 PUSH2 0xE36 JUMP JUMPDEST PUSH0 PUSH1 0x40 MLOAD DUP1 DUP4 SUB DUP2 DUP6 DUP8 GAS CALL SWAP3 POP POP POP RETURNDATASIZE DUP1 PUSH0 DUP2 EQ PUSH2 0x533 JUMPI PUSH1 0x40 MLOAD SWAP2 POP PUSH1 0x1F NOT PUSH1 0x3F RETURNDATASIZE ADD AND DUP3 ADD PUSH1 0x40 MSTORE RETURNDATASIZE DUP3 MSTORE RETURNDATASIZE PUSH0 PUSH1 0x20 DUP5 ADD RETURNDATACOPY PUSH2 0x538 JUMP JUMPDEST PUSH1 0x60 SWAP2 POP JUMPDEST POP POP SWAP1 POP DUP1 PUSH2 0x57C JUMPI PUSH1 0x40 MLOAD PUSH32 0x8C379A000000000000000000000000000000000000000000000000000000000 DUP2 MSTORE PUSH1 0x4 ADD PUSH2 0x573 SWAP1 PUSH2 0xE94 JUMP JUMPDEST PUSH1 0x40 MLOAD DUP1 SWAP2 SUB SWAP1 REVERT JUMPDEST CALLER PUSH20 0xFFFFFFFFFFFFFFFFFFFFFFFFFFFFFFFFFFFFFFFF AND PUSH32 0x92CCF450A286A957AF52509BC1C9939D1A6A481783E142E41E2499F0BB66EBC6 DUP4 DUP8 PUSH1 0x40 MLOAD PUSH2 0x5C4 SWAP3 SWAP2 SWAP1 PUSH2 0xEB2 JUMP JUMPDEST PUSH1 0x40 MLOAD DUP1 SWAP2 SUB SWAP1 LOG2 POP POP POP POP POP JUMP JUMPDEST PUSH0 DUP1 PUSH0 DUP5 PUSH20 0xFFFFFFFFFFFFFFFFFFFFFFFFFFFFFFFFFFFFFFFF AND PUSH20 0xFFFFFFFFFFFFFFFFFFFFFFFFFFFFFFFFFFFFFFFF AND DUP2 MSTORE PUSH1 0x20 ADD SWAP1 DUP2 MSTORE PUSH1 0x20 ADD PUSH0 KECCAK256 DUP1 SLOAD SWAP1 POP DUP3 LT PUSH2 0x655 JUMPI PUSH1 0x40 MLOAD PUSH32 0x8C379A000000000000000000000000000000000000000000000000000000000 DUP2 MSTORE PUSH1 0x4 ADD PUSH2 0x64C SWAP1 PUSH2 0xCEE JUMP JUMPDEST PUSH1 0x40 MLOAD DUP1 SWAP2 SUB SWAP1 REVERT JUMPDEST PUSH0 DUP1 DUP5 PUSH20 0xFFFFFFFFFFFFFFFFFFFFFFFFFFFFFFFFFFFFFFFF AND PUSH20 0xFFFFFFFFFFFFFFFFFFFFFFFFFFFFFFFFFFFFFFFF AND DUP2 MSTORE PUSH1 0x20 ADD SWAP1 DUP2 MSTORE PUSH1 0x20 ADD PUSH0 KECCAK256 DUP3 DUP2 SLOAD DUP2 LT PUSH2 0x6A3 JUMPI PUSH2 0x6A2 PUSH2 0xD0C JUMP JUMPDEST JUMPDEST SWAP1 PUSH0 MSTORE PUSH1 0x20 PUSH0 KECCAK256 SWAP1 PUSH1 0x3 MUL ADD PUSH1 0x1 ADD SLOAD TIMESTAMP LT ISZERO SWAP1 POP SWAP3 SWAP2 POP POP JUMP JUMPDEST PUSH0 SELFBALANCE SWAP1 POP SWAP1 JUMP JUMPDEST PUSH0 DUP1 PUSH0 DUP5 PUSH20 0xFFFFFFFFFFFFFFFFFFFFFFFFFFFFFFFFFFFFFFFF AND PUSH20 0xFFFFFFFFFFFFFFFFFFFFFFFFFFFFFFFFFFFFFFFF AND DUP2 MSTORE PUSH1 0x20 ADD SWAP1 DUP2 MSTORE PUSH1 0x20 ADD PUSH0 KECCAK256 DUP1 SLOAD SWAP1 POP DUP3 LT PUSH2 0x747 JUMPI PUSH1 0x40 MLOAD PUSH32 0x8C379A000000000000000000000000000000000000000000000000000000000 DUP2 MSTORE PUSH1 0x4 ADD PUSH2 0x73E SWAP1 PUSH2 0xCEE JUMP JUMPDEST PUSH1 0x40 MLOAD DUP1 SWAP2 SUB SWAP1 REVERT JUMPDEST PUSH0 DUP1 PUSH0 DUP6 PUSH20 0xFFFFFFFFFFFFFFFFFFFFFFFFFFFFFFFFFFFFFFFF AND PUSH20 0xFFFFFFFFFFFFFFFFFFFFFFFFFFFFFFFFFFFFFFFF AND DUP2 MSTORE PUSH1 0x20 ADD SWAP1 DUP2 MSTORE PUSH1 0x20 ADD PUSH0 KECCAK256 DUP4 DUP2 SLOAD DUP2 LT PUSH2 0x796 JUMPI PUSH2 0x795 PUSH2 0xD0C JUMP JUMPDEST JUMPDEST SWAP1 PUSH0 MSTORE PUSH1 0x20 PUSH0 KECCAK256 SWAP1 PUSH1 0x3 MUL ADD PUSH1 0x1 ADD SLOAD SWAP1 POP DUP1 TIMESTAMP LT PUSH2 0x7B8 JUMPI PUSH0 SWAP2 POP POP PUSH2 0x7C8 JUMP JUMPDEST TIMESTAMP DUP2 PUSH2 0x7C4 SWAP2 SWAP1 PUSH2 0xF06 JUMP JUMPDEST SWAP2 POP POP JUMPDEST SWAP3 SWAP2 POP POP JUMP JUMPDEST PUSH0 CALLVALUE GT PUSH2 0x810 JUMPI PUSH1 0x40 MLOAD PUSH32 0x8C379A000000000000000000000000000000000000000000000000000000000 DUP2 MSTORE PUSH1 0x4 ADD PUSH2 0x807 SWAP1 PUSH2 0xFA9 JUMP JUMPDEST PUSH1 0x40 MLOAD DUP1 SWAP2 SUB SWAP1 REVERT JUMPDEST PUSH0 DUP2 GT PUSH2 0x852 JUMPI PUSH1 0x40 MLOAD PUSH32 0x8C379A000000000000000000000000000000000000000000000000000000000 DUP2 MSTORE PUSH1 0x4 ADD PUSH2 0x849 SWAP1 PUSH2 0x1037 JUMP JUMPDEST PUSH1 0x40 MLOAD DUP1 SWAP2 SUB SWAP1 REVERT JUMPDEST PUSH0 DUP2 TIMESTAMP PUSH2 0x85F SWAP2 SWAP1 PUSH2 0x1055 JUMP JUMPDEST SWAP1 POP PUSH0 PUSH1 0x40 MLOAD DUP1 PUSH1 0x60 ADD PUSH1 0x40 MSTORE DUP1 CALLVALUE DUP2 MSTORE PUSH1 0x20 ADD DUP4 DUP2 MSTORE PUSH1 0x20 ADD PUSH0 ISZERO ISZERO DUP2 MSTORE POP SWAP1 POP PUSH0 DUP1 CALLER PUSH20 0xFFFFFFFFFFFFFFFFFFFFFFFFFFFFFFFFFFFFFFFF AND PUSH20 0xFFFFFFFFFFFFFFFFFFFFFFFFFFFFFFFFFFFFFFFF AND DUP2 MSTORE PUSH1 0x20 ADD SWAP1 DUP2 MSTORE PUSH1 0x20 ADD PUSH0 KECCAK256 DUP2 SWAP1 DUP1 PUSH1 0x1 DUP2 SLOAD ADD DUP1 DUP3 SSTORE DUP1 SWAP2 POP POP PUSH1 0x1 SWAP1 SUB SWAP1 PUSH0 MSTORE PUSH1 0x20 PUSH0 KECCAK256 SWAP1 PUSH1 0x3 MUL ADD PUSH0 SWAP1 SWAP2 SWAP1 SWAP2 SWAP1 SWAP2 POP PUSH0 DUP3 ADD MLOAD DUP2 PUSH0 ADD SSTORE PUSH1 0x20 DUP3 ADD MLOAD DUP2 PUSH1 0x1 ADD SSTORE PUSH1 0x40 DUP3 ADD MLOAD DUP2 PUSH1 0x2 ADD PUSH0 PUSH2 0x100 EXP DUP2 SLOAD DUP2 PUSH1 0xFF MUL NOT AND SWAP1 DUP4 ISZERO ISZERO MUL OR SWAP1 SSTORE POP POP POP CALLER PUSH20 0xFFFFFFFFFFFFFFFFFFFFFFFFFFFFFFFFFFFFFFFF AND PUSH32 0x91EDE45F04A37A7C170F5C1207DF3B6BC748DC1E04AD5E917A241D0F52FEADA3 CALLVALUE DUP5 PUSH1 0x1 PUSH0 DUP1 CALLER PUSH20 0xFFFFFFFFFFFFFFFFFFFFFFFFFFFFFFFFFFFFFFFF AND PUSH20 0xFFFFFFFFFFFFFFFFFFFFFFFFFFFFFFFFFFFFFFFF AND DUP2 MSTORE PUSH1 0x20 ADD SWAP1 DUP2 MSTORE PUSH1 0x20 ADD PUSH0 KECCAK256 DUP1 SLOAD SWAP1 POP PUSH2 0x99D SWAP2 SWAP1 PUSH2 0xF06 JUMP JUMPDEST PUSH1 0x40 MLOAD PUSH2 0x9AC SWAP4 SWAP3 SWAP2 SWAP1 PUSH2 0x1088 JUMP JUMPDEST PUSH1 0x40 MLOAD DUP1 SWAP2 SUB SWAP1 LOG2 POP POP POP JUMP JUMPDEST PUSH0 DUP1 REVERT JUMPDEST PUSH0 PUSH20 0xFFFFFFFFFFFFFFFFFFFFFFFFFFFFFFFFFFFFFFFF DUP3 AND SWAP1 POP SWAP2 SWAP1 POP JUMP JUMPDEST PUSH0 PUSH2 0x9E6 DUP3 PUSH2 0x9BD JUMP JUMPDEST SWAP1 POP SWAP2 SWAP1 POP JUMP JUMPDEST PUSH2 0x9F6 DUP2 PUSH2 0x9DC JUMP JUMPDEST DUP2 EQ PUSH2 0xA00 JUMPI PUSH0 DUP1 REVERT JUMPDEST POP JUMP JUMPDEST PUSH0 DUP2 CALLDATALOAD SWAP1 POP PUSH2 0xA11 DUP2 PUSH2 0x9ED JUMP JUMPDEST SWAP3 SWAP2 POP POP JUMP JUMPDEST PUSH0 DUP2 SWAP1 POP SWAP2 SWAP1 POP JUMP JUMPDEST PUSH2 0xA29 DUP2 PUSH2 0xA17 JUMP JUMPDEST DUP2 EQ PUSH2 0xA33 JUMPI PUSH0 DUP1 REVERT JUMPDEST POP JUMP JUMPDEST PUSH0 DUP2 CALLDATALOAD SWAP1 POP PUSH2 0xA44 DUP2 PUSH2 0xA20 JUMP JUMPDEST SWAP3 SWAP2 POP POP JUMP JUMPDEST PUSH0 DUP1 PUSH1 0x40 DUP4 DUP6 SUB SLT ISZERO PUSH2 0xA60 JUMPI PUSH2 0xA5F PUSH2 0x9B9 JUMP JUMPDEST JUMPDEST PUSH0 PUSH2 0xA6D DUP6 DUP3 DUP7 ADD PUSH2 0xA03 JUMP JUMPDEST SWAP3 POP POP PUSH1 0x20 PUSH2 0xA7E DUP6 DUP3 DUP7 ADD PUSH2 0xA36 JUMP JUMPDEST SWAP2 POP POP SWAP3 POP SWAP3 SWAP1 POP JUMP JUMPDEST PUSH2 0xA91 DUP2 PUSH2 0xA17 JUMP JUMPDEST DUP3 MSTORE POP POP JUMP JUMPDEST PUSH0 DUP2 ISZERO ISZERO SWAP1 POP SWAP2 SWAP1 POP JUMP JUMPDEST PUSH2 0xAAB DUP2 PUSH2 0xA97 JUMP JUMPDEST DUP3 MSTORE POP POP JUMP JUMPDEST PUSH0 PUSH1 0x60 DUP3 ADD SWAP1 POP PUSH2 0xAC4 PUSH0 DUP4 ADD DUP7 PUSH2 0xA88 JUMP JUMPDEST PUSH2 0xAD1 PUSH1 0x20 DUP4 ADD DUP6 PUSH2 0xA88 JUMP JUMPDEST PUSH2 0xADE PUSH1 0x40 DUP4 ADD DUP5 PUSH2 0xAA2 JUMP JUMPDEST SWAP5 SWAP4 POP POP POP POP JUMP JUMPDEST PUSH0 PUSH1 0x20 DUP3 DUP5 SUB SLT ISZERO PUSH2 0xAFB JUMPI PUSH2 0xAFA PUSH2 0x9B9 JUMP JUMPDEST JUMPDEST PUSH0 PUSH2 0xB08 DUP5 DUP3 DUP6 ADD PUSH2 0xA03 JUMP JUMPDEST SWAP2 POP POP SWAP3 SWAP2 POP POP JUMP JUMPDEST PUSH0 PUSH1 0x20 DUP3 ADD SWAP1 POP PUSH2 0xB24 PUSH0 DUP4 ADD DUP5 PUSH2 0xA88 JUMP JUMPDEST SWAP3 SWAP2 POP POP JUMP JUMPDEST PUSH0 DUP2 MLOAD SWAP1 POP SWAP2 SWAP1 POP JUMP JUMPDEST PUSH0 DUP3 DUP3 MSTORE PUSH1 0x20 DUP3 ADD SWAP1 POP SWAP3 SWAP2 POP POP JUMP JUMPDEST PUSH0 DUP2 SWAP1 POP PUSH1 0x20 DUP3 ADD SWAP1 POP SWAP2 SWAP1 POP JUMP JUMPDEST PUSH2 0xB5C DUP2 PUSH2 0xA17 JUMP JUMPDEST DUP3 MSTORE POP POP JUMP JUMPDEST PUSH2 0xB6B DUP2 PUSH2 0xA97 JUMP JUMPDEST DUP3 MSTORE POP POP JUMP JUMPDEST PUSH1 0x60 DUP3 ADD PUSH0 DUP3 ADD MLOAD PUSH2 0xB85 PUSH0 DUP6 ADD DUP3 PUSH2 0xB53 JUMP JUMPDEST POP PUSH1 0x20 DUP3 ADD MLOAD PUSH2 0xB98 PUSH1 0x20 DUP6 ADD DUP3 PUSH2 0xB53 JUMP JUMPDEST POP PUSH1 0x40 DUP3 ADD MLOAD PUSH2 0xBAB PUSH1 0x40 DUP6 ADD DUP3 PUSH2 0xB62 JUMP JUMPDEST POP POP POP POP JUMP JUMPDEST PUSH0 PUSH2 0xBBC DUP4 DUP4 PUSH2 0xB71 JUMP JUMPDEST PUSH1 0x60 DUP4 ADD SWAP1 POP SWAP3 SWAP2 POP POP JUMP JUMPDEST PUSH0 PUSH1 0x20 DUP3 ADD SWAP1 POP SWAP2 SWAP1 POP JUMP JUMPDEST PUSH0 PUSH2 0xBDE DUP3 PUSH2 0xB2A JUMP JUMPDEST PUSH2 0xBE8 DUP2 DUP6 PUSH2 0xB34 JUMP JUMPDEST SWAP4 POP PUSH2 0xBF3 DUP4 PUSH2 0xB44 JUMP JUMPDEST DUP1 PUSH0 JUMPDEST DUP4 DUP2 LT ISZERO PUSH2 0xC23 JUMPI DUP2 MLOAD PUSH2 0xC0A DUP9 DUP3 PUSH2 0xBB1 JUMP JUMPDEST SWAP8 POP PUSH2 0xC15 DUP4 PUSH2 0xBC8 JUMP JUMPDEST SWAP3 POP POP PUSH1 0x1 DUP2 ADD SWAP1 POP PUSH2 0xBF6 JUMP JUMPDEST POP DUP6 SWAP4 POP POP POP POP SWAP3 SWAP2 POP POP JUMP JUMPDEST PUSH0 PUSH1 0x20 DUP3 ADD SWAP1 POP DUP2 DUP2 SUB PUSH0 DUP4 ADD MSTORE PUSH2 0xC48 DUP2 DUP5 PUSH2 0xBD4 JUMP JUMPDEST SWAP1 POP SWAP3 SWAP2 POP POP JUMP JUMPDEST PUSH0 PUSH1 0x20 DUP3 DUP5 SUB SLT ISZERO PUSH2 0xC65 JUMPI PUSH2 0xC64 PUSH2 0x9B9 JUMP JUMPDEST JUMPDEST PUSH0 PUSH2 0xC72 DUP5 DUP3 DUP6 ADD PUSH2 0xA36 JUMP JUMPDEST SWAP2 POP POP SWAP3 SWAP2 POP POP JUMP JUMPDEST PUSH0 PUSH1 0x20 DUP3 ADD SWAP1 POP PUSH2 0xC8E PUSH0 DUP4 ADD DUP5 PUSH2 0xAA2 JUMP JUMPDEST SWAP3 SWAP2 POP POP JUMP JUMPDEST PUSH0 DUP3 DUP3 MSTORE PUSH1 0x20 DUP3 ADD SWAP1 POP SWAP3 SWAP2 POP POP JUMP JUMPDEST PUSH32 0x496E76616C6964206465706F73697420696E6465780000000000000000000000 PUSH0 DUP3 ADD MSTORE POP JUMP JUMPDEST PUSH0 PUSH2 0xCD8 PUSH1 0x15 DUP4 PUSH2 0xC94 JUMP JUMPDEST SWAP2 POP PUSH2 0xCE3 DUP3 PUSH2 0xCA4 JUMP JUMPDEST PUSH1 0x20 DUP3 ADD SWAP1 POP SWAP2 SWAP1 POP JUMP JUMPDEST PUSH0 PUSH1 0x20 DUP3 ADD SWAP1 POP DUP2 DUP2 SUB PUSH0 DUP4 ADD MSTORE PUSH2 0xD05 DUP2 PUSH2 0xCCC JUMP JUMPDEST SWAP1 POP SWAP2 SWAP1 POP JUMP JUMPDEST PUSH32 0x4E487B7100000000000000000000000000000000000000000000000000000000 PUSH0 MSTORE PUSH1 0x32 PUSH1 0x4 MSTORE PUSH1 0x24 PUSH0 REVERT JUMPDEST PUSH32 0x416C72656164792077697468647261776E000000000000000000000000000000 PUSH0 DUP3 ADD MSTORE POP JUMP JUMPDEST PUSH0 PUSH2 0xD6D PUSH1 0x11 DUP4 PUSH2 0xC94 JUMP JUMPDEST SWAP2 POP PUSH2 0xD78 DUP3 PUSH2 0xD39 JUMP JUMPDEST PUSH1 0x20 DUP3 ADD SWAP1 POP SWAP2 SWAP1 POP JUMP JUMPDEST PUSH0 PUSH1 0x20 DUP3 ADD SWAP1 POP DUP2 DUP2 SUB PUSH0 DUP4 ADD MSTORE PUSH2 0xD9A DUP2 PUSH2 0xD61 JUMP JUMPDEST SWAP1 POP SWAP2 SWAP1 POP JUMP JUMPDEST PUSH32 0x46756E647320617265207374696C6C206C6F636B656400000000000000000000 PUSH0 DUP3 ADD MSTORE POP JUMP JUMPDEST PUSH0 PUSH2 0xDD5 PUSH1 0x16 DUP4 PUSH2 0xC94 JUMP JUMPDEST SWAP2 POP PUSH2 0xDE0 DUP3 PUSH2 0xDA1 JUMP JUMPDEST PUSH1 0x20 DUP3 ADD SWAP1 POP SWAP2 SWAP1 POP JUMP JUMPDEST PUSH0 PUSH1 0x20 DUP3 ADD SWAP1 POP DUP2 DUP2 SUB PUSH0 DUP4 ADD MSTORE PUSH2 0xE02 DUP2 PUSH2 0xDC9 JUMP JUMPDEST SWAP1 POP SWAP2 SWAP1 POP JUMP JUMPDEST PUSH0 DUP2 SWAP1 POP SWAP3 SWAP2 POP POP JUMP JUMPDEST POP JUMP JUMPDEST PUSH0 PUSH2 0xE21 PUSH0 DUP4 PUSH2 0xE09 JUMP JUMPDEST SWAP2 POP PUSH2 0xE2C DUP3 PUSH2 0xE13 JUMP JUMPDEST PUSH0 DUP3 ADD SWAP1 POP SWAP2 SWAP1 POP JUMP JUMPDEST PUSH0 PUSH2 0xE40 DUP3 PUSH2 0xE16 JUMP JUMPDEST SWAP2 POP DUP2 SWAP1 POP SWAP2 SWAP1 POP JUMP JUMPDEST PUSH32 0x5472616E73666572206661696C65640000000000000000000000000000000000 PUSH0 DUP3 ADD MSTORE POP JUMP JUMPDEST PUSH0 PUSH2 0xE7E PUSH1 0xF DUP4 PUSH2 0xC94 JUMP JUMPDEST SWAP2 POP PUSH2 0xE89 DUP3 PUSH2 0xE4A JUMP JUMPDEST PUSH1 0x20 DUP3 ADD SWAP1 POP SWAP2 SWAP1 POP JUMP JUMPDEST PUSH0 PUSH1 0x20 DUP3 ADD SWAP1 POP DUP2 DUP2 SUB PUSH0 DUP4 ADD MSTORE PUSH2 0xEAB DUP2 PUSH2 0xE72 JUMP JUMPDEST SWAP1 POP SWAP2 SWAP1 POP JUMP JUMPDEST PUSH0 PUSH1 0x40 DUP3 ADD SWAP1 POP PUSH2 0xEC5 PUSH0 DUP4 ADD DUP6 PUSH2 0xA88 JUMP JUMPDEST PUSH2 0xED2 PUSH1 0x20 DUP4 ADD DUP5 PUSH2 0xA88 JUMP JUMPDEST SWAP4 SWAP3 POP POP POP JUMP JUMPDEST PUSH32 0x4E487B7100000000000000000000000000000000000000000000000000000000 PUSH0 MSTORE PUSH1 0x11 PUSH1 0x4 MSTORE PUSH1 0x24 PUSH0 REVERT JUMPDEST PUSH0 PUSH2 0xF10 DUP3 PUSH2 0xA17 JUMP JUMPDEST SWAP2 POP PUSH2 0xF1B DUP4 PUSH2 0xA17 JUMP JUMPDEST SWAP3 POP DUP3 DUP3 SUB SWAP1 POP DUP2 DUP2 GT ISZERO PUSH2 0xF33 JUMPI PUSH2 0xF32 PUSH2 0xED9 JUMP JUMPDEST JUMPDEST SWAP3 SWAP2 POP POP JUMP JUMPDEST PUSH32 0x4465706F73697420616D6F756E74206D75737420626520677265617465722074 PUSH0 DUP3 ADD MSTORE PUSH32 0x68616E2030000000000000000000000000000000000000000000000000000000 PUSH1 0x20 DUP3 ADD MSTORE POP JUMP JUMPDEST PUSH0 PUSH2 0xF93 PUSH1 0x25 DUP4 PUSH2 0xC94 JUMP JUMPDEST SWAP2 POP PUSH2 0xF9E DUP3 PUSH2 0xF39 JUMP JUMPDEST PUSH1 0x40 DUP3 ADD SWAP1 POP SWAP2 SWAP1 POP JUMP JUMPDEST PUSH0 PUSH1 0x20 DUP3 ADD SWAP1 POP DUP2 DUP2 SUB PUSH0 DUP4 ADD MSTORE PUSH2 0xFC0 DUP2 PUSH2 0xF87 JUMP JUMPDEST SWAP1 POP SWAP2 SWAP1 POP JUMP JUMPDEST PUSH32 0x4C6F636B206475726174696F6E206D7573742062652067726561746572207468 PUSH0 DUP3 ADD MSTORE PUSH32 0x616E203000000000000000000000000000000000000000000000000000000000 PUSH1 0x20 DUP3 ADD MSTORE POP JUMP JUMPDEST PUSH0 PUSH2 0x1021 PUSH1 0x24 DUP4 PUSH2 0xC94 JUMP JUMPDEST SWAP2 POP PUSH2 0x102C DUP3 PUSH2 0xFC7 JUMP JUMPDEST PUSH1 0x40 DUP3 ADD SWAP1 POP SWAP2 SWAP1 POP JUMP JUMPDEST PUSH0 PUSH1 0x20 DUP3 ADD SWAP1 POP DUP2 DUP2 SUB PUSH0 DUP4 ADD MSTORE PUSH2 0x104E DUP2 PUSH2 0x1015 JUMP JUMPDEST SWAP1 POP SWAP2 SWAP1 POP JUMP JUMPDEST PUSH0 PUSH2 0x105F DUP3 PUSH2 0xA17 JUMP JUMPDEST SWAP2 POP PUSH2 0x106A DUP4 PUSH2 0xA17 JUMP JUMPDEST SWAP3 POP DUP3 DUP3 ADD SWAP1 POP DUP1 DUP3 GT ISZERO PUSH2 0x1082 JUMPI PUSH2 0x1081 PUSH2 0xED9 JUMP JUMPDEST JUMPDEST SWAP3 SWAP2 POP POP JUMP JUMPDEST PUSH0 PUSH1 0x60 DUP3 ADD SWAP1 POP PUSH2 0x109B PUSH0 DUP4 ADD DUP7 PUSH2 0xA88 JUMP JUMPDEST PUSH2 0x10A8 PUSH1 0x20 DUP4 ADD DUP6 PUSH2 0xA88 JUMP JUMPDEST PUSH2 0x10B5 PUSH1 0x40 DUP4 ADD DUP5 PUSH2 0xA88 JUMP JUMPDEST SWAP5 SWAP4 POP POP POP POP JUMP INVALID LOG2 PUSH5 0x6970667358 0x22 SLT KECCAK256 STOP EXTCODEHASH SWAP2 0xE3 0x49 PUSH0 0xA9 0xB9 RETURNDATACOPY 0xD9 SWAP4 0xD4 0xBC 0xCC PUSH29 0x9CF3595F284B75F1222240BA16AC9C3FDF64736F6C6343000814003300 "
				},
				"gasEstimates": {
					"creation": {
						"codeDepositCost": "867800",
						"executionCost": "901",
						"totalCost": "868701"
					},
					"external": {
						"deposit(uint256)": "infinite",
						"getContractBalance()": "356",
						"getTimeUntilUnlock(address,uint256)": "infinite",
						"getUserDepositCount(address)": "2860",
						"getUserDeposits(address)": "infinite",
						"isUnlocked(address,uint256)": "7428",
						"userDeposits(address,uint256)": "infinite",
						"withdraw(uint256)": "infinite"
					}
				},
				"methodIdentifiers": {
					"deposit(uint256)": "b6b55f25",
					"getContractBalance()": "6f9fb98a",
					"getTimeUntilUnlock(address,uint256)": "82387c23",
					"getUserDepositCount(address)": "1bae91a4",
					"getUserDeposits(address)": "2a5bf6d2",
					"isUnlocked(address,uint256)": "30dbb4e4",
					"userDeposits(address,uint256)": "08f43333",
					"withdraw(uint256)": "2e1a7d4d"
				}
			},
			"storageLayout": {
				"storage": [
					{
						"astId": 14,
						"contract": "contracts/blockTime.sol:CryptoLocker",
						"label": "userDeposits",
						"offset": 0,
						"slot": "0",
						"type": "t_mapping(t_address,t_array(t_struct(Deposit)8_storage)dyn_storage)"
					}
				],
				"types": {
					"t_address": {
						"encoding": "inplace",
						"label": "address",
						"numberOfBytes": "20"
					},
					"t_array(t_struct(Deposit)8_storage)dyn_storage": {
						"base": "t_struct(Deposit)8_storage",
						"encoding": "dynamic_array",
						"label": "struct CryptoLocker.Deposit[]",
						"numberOfBytes": "32"
					},
					"t_bool": {
						"encoding": "inplace",
						"label": "bool",
						"numberOfBytes": "1"
					},
					"t_mapping(t_address,t_array(t_struct(Deposit)8_storage)dyn_storage)": {
						"encoding": "mapping",
						"key": "t_address",
						"label": "mapping(address => struct CryptoLocker.Deposit[])",
						"numberOfBytes": "32",
						"value": "t_array(t_struct(Deposit)8_storage)dyn_storage"
					},
					"t_struct(Deposit)8_storage": {
						"encoding": "inplace",
						"label": "struct CryptoLocker.Deposit",
						"members": [
							{
								"astId": 3,
								"contract": "contracts/blockTime.sol:CryptoLocker",
								"label": "amount",
								"offset": 0,
								"slot": "0",
								"type": "t_uint256"
							},
							{
								"astId": 5,
								"contract": "contracts/blockTime.sol:CryptoLocker",
								"label": "unlockTime",
								"offset": 0,
								"slot": "1",
								"type": "t_uint256"
							},
							{
								"astId": 7,
								"contract": "contracts/blockTime.sol:CryptoLocker",
								"label": "withdrawn",
								"offset": 0,
								"slot": "2",
								"type": "t_bool"
							}
						],
						"numberOfBytes": "96"
					},
					"t_uint256": {
						"encoding": "inplace",
						"label": "uint256",
						"numberOfBytes": "32"
					}
				}
			},
			"userdoc": {
				"kind": "user",
				"methods": {},
				"version": 1
			}
		}
	}
}