{
	"data": {
		"bytecode": {
			"linkReferences": {},
			"object": "608060405234801561000f575f80fd5b5061029b8061001d5f395ff3fe608060405234801561000f575f80fd5b5060043610610055575f3560e01c80630d2ed0aa146100595780633b221994146100635780635301ffec1461008157806361bc221a1461008b578063b64f54cb146100a9575b5f80fd5b6100616100c7565b005b61006b61011d565b60405161007891906101cf565b60405180910390f35b610089610142565b005b61009361017d565b6040516100a091906101cf565b60405180910390f35b6100b161018e565b6040516100be91906101cf565b60405180910390f35b5f805f9054906101000a900461ffff1661ffff16111561011b575f8081819054906101000a900461ffff16809291906100ff90610215565b91906101000a81548161ffff021916908361ffff160217905550505b565b5f805f8054906101000a900461ffff1690508061013990610215565b90508091505090565b5f8081819054906101000a900461ffff16809291906101609061023c565b91906101000a81548161ffff021916908361ffff16021790555050565b5f8054906101000a900461ffff1681565b5f805f8054906101000a900461ffff169050806101aa9061023c565b90508091505090565b5f61ffff82169050919050565b6101c9816101b3565b82525050565b5f6020820190506101e25f8301846101c0565b92915050565b7f4e487b71000000000000000000000000000000000000000000000000000000005f52601160045260245ffd5b5f61021f826101b3565b91505f8203610231576102306101e8565b5b600182039050919050565b5f610246826101b3565b915061ffff820361025a576102596101e8565b5b60018201905091905056fea2646970667358221220beb756c46d0907f480e61b6892dca2969cf39fef44c879918eab211d567733fa64736f6c63430008140033",
			"opcodes": "PUSH1 0x80 PUSH1 0x40 MSTORE CALLVALUE DUP1 ISZERO PUSH2 0xF JUMPI PUSH0 DUP1 REVERT JUMPDEST POP PUSH2 0x29B DUP1 PUSH2 0x1D PUSH0 CODECOPY PUSH0 RETURN INVALID PUSH1 0x80 PUSH1 0x40 MSTORE CALLVALUE DUP1 ISZERO PUSH2 0xF JUMPI PUSH0 DUP1 REVERT JUMPDEST POP PUSH1 0x4 CALLDATASIZE LT PUSH2 0x55 JUMPI PUSH0 CALLDATALOAD PUSH1 0xE0 SHR DUP1 PUSH4 0xD2ED0AA EQ PUSH2 0x59 JUMPI DUP1 PUSH4 0x3B221994 EQ PUSH2 0x63 JUMPI DUP1 PUSH4 0x5301FFEC EQ PUSH2 0x81 JUMPI DUP1 PUSH4 0x61BC221A EQ PUSH2 0x8B JUMPI DUP1 PUSH4 0xB64F54CB EQ PUSH2 0xA9 JUMPI JUMPDEST PUSH0 DUP1 REVERT JUMPDEST PUSH2 0x61 PUSH2 0xC7 JUMP JUMPDEST STOP JUMPDEST PUSH2 0x6B PUSH2 0x11D JUMP JUMPDEST PUSH1 0x40 MLOAD PUSH2 0x78 SWAP2 SWAP1 PUSH2 0x1CF JUMP JUMPDEST PUSH1 0x40 MLOAD DUP1 SWAP2 SUB SWAP1 RETURN JUMPDEST PUSH2 0x89 PUSH2 0x142 JUMP JUMPDEST STOP JUMPDEST PUSH2 0x93 PUSH2 0x17D JUMP JUMPDEST PUSH1 0x40 MLOAD PUSH2 0xA0 SWAP2 SWAP1 PUSH2 0x1CF JUMP JUMPDEST PUSH1 0x40 MLOAD DUP1 SWAP2 SUB SWAP1 RETURN JUMPDEST PUSH2 0xB1 PUSH2 0x18E JUMP JUMPDEST PUSH1 0x40 MLOAD PUSH2 0xBE SWAP2 SWAP1 PUSH2 0x1CF JUMP JUMPDEST PUSH1 0x40 MLOAD DUP1 SWAP2 SUB SWAP1 RETURN JUMPDEST PUSH0 DUP1 PUSH0 SWAP1 SLOAD SWAP1 PUSH2 0x100 EXP SWAP1 DIV PUSH2 0xFFFF AND PUSH2 0xFFFF AND GT ISZERO PUSH2 0x11B JUMPI PUSH0 DUP1 DUP2 DUP2 SWAP1 SLOAD SWAP1 PUSH2 0x100 EXP SWAP1 DIV PUSH2 0xFFFF AND DUP1 SWAP3 SWAP2 SWAP1 PUSH2 0xFF SWAP1 PUSH2 0x215 JUMP JUMPDEST SWAP2 SWAP1 PUSH2 0x100 EXP DUP2 SLOAD DUP2 PUSH2 0xFFFF MUL NOT AND SWAP1 DUP4 PUSH2 0xFFFF AND MUL OR SWAP1 SSTORE POP POP JUMPDEST JUMP JUMPDEST PUSH0 DUP1 PUSH0 DUP1 SLOAD SWAP1 PUSH2 0x100 EXP SWAP1 DIV PUSH2 0xFFFF AND SWAP1 POP DUP1 PUSH2 0x139 SWAP1 PUSH2 0x215 JUMP JUMPDEST SWAP1 POP DUP1 SWAP2 POP POP SWAP1 JUMP JUMPDEST PUSH0 DUP1 DUP2 DUP2 SWAP1 SLOAD SWAP1 PUSH2 0x100 EXP SWAP1 DIV PUSH2 0xFFFF AND DUP1 SWAP3 SWAP2 SWAP1 PUSH2 0x160 SWAP1 PUSH2 0x23C JUMP JUMPDEST SWAP2 SWAP1 PUSH2 0x100 EXP DUP2 SLOAD DUP2 PUSH2 0xFFFF MUL NOT AND SWAP1 DUP4 PUSH2 0xFFFF AND MUL OR SWAP1 SSTORE POP POP JUMP JUMPDEST PUSH0 DUP1 SLOAD SWAP1 PUSH2 0x100 EXP SWAP1 DIV PUSH2 0xFFFF AND DUP2 JUMP JUMPDEST PUSH0 DUP1 PUSH0 DUP1 SLOAD SWAP1 PUSH2 0x100 EXP SWAP1 DIV PUSH2 0xFFFF AND SWAP1 POP DUP1 PUSH2 0x1AA SWAP1 PUSH2 0x23C JUMP JUMPDEST SWAP1 POP DUP1 SWAP2 POP POP SWAP1 JUMP JUMPDEST PUSH0 PUSH2 0xFFFF DUP3 AND SWAP1 POP SWAP2 SWAP1 POP JUMP JUMPDEST PUSH2 0x1C9 DUP2 PUSH2 0x1B3 JUMP JUMPDEST DUP3 MSTORE POP POP JUMP JUMPDEST PUSH0 PUSH1 0x20 DUP3 ADD SWAP1 POP PUSH2 0x1E2 PUSH0 DUP4 ADD DUP5 PUSH2 0x1C0 JUMP JUMPDEST SWAP3 SWAP2 POP POP JUMP JUMPDEST PUSH32 0x4E487B7100000000000000000000000000000000000000000000000000000000 PUSH0 MSTORE PUSH1 0x11 PUSH1 0x4 MSTORE PUSH1 0x24 PUSH0 REVERT JUMPDEST PUSH0 PUSH2 0x21F DUP3 PUSH2 0x1B3 JUMP JUMPDEST SWAP2 POP PUSH0 DUP3 SUB PUSH2 0x231 JUMPI PUSH2 0x230 PUSH2 0x1E8 JUMP JUMPDEST JUMPDEST PUSH1 0x1 DUP3 SUB SWAP1 POP SWAP2 SWAP1 POP JUMP JUMPDEST PUSH0 PUSH2 0x246 DUP3 PUSH2 0x1B3 JUMP JUMPDEST SWAP2 POP PUSH2 0xFFFF DUP3 SUB PUSH2 0x25A JUMPI PUSH2 0x259 PUSH2 0x1E8 JUMP JUMPDEST JUMPDEST PUSH1 0x1 DUP3 ADD SWAP1 POP SWAP2 SWAP1 POP JUMP INVALID LOG2 PUSH5 0x6970667358 0x22 SLT KECCAK256 0xBE 0xB7 JUMP 0xC4 PUSH14 0x907F480E61B6892DCA2969CF39F 0xEF PREVRANDAO 0xC8 PUSH26 0x918EAB211D567733FA64736F6C63430008140033000000000000 "
		},
		"gasEstimates": {
			"creation": {
				"codeDepositCost": "133400",
				"executionCost": "175",
				"totalCost": "133575"
			},
			"external": {
				"Decr_real()": "28838",
				"Incr_real()": "26717",
				"counter()": "2507",
				"show_fake_Inrementing()": "infinite",
				"show_fake_decrementing()": "infinite"
			}
		},
		"methodIdentifiers": {
			"Decr_real()": "0d2ed0aa",
			"Incr_real()": "5301ffec",
			"counter()": "61bc221a",
			"show_fake_Inrementing()": "b64f54cb",
			"show_fake_decrementing()": "3b221994"
		}
	},
	"abi": [
		{
			"inputs": [],
			"name": "Decr_real",
			"outputs": [],
			"stateMutability": "nonpayable",
			"type": "function"
		},
		{
			"inputs": [],
			"name": "Incr_real",
			"outputs": [],
			"stateMutability": "nonpayable",
			"type": "function"
		},
		{
			"inputs": [],
			"name": "counter",
			"outputs": [
				{
					"internalType": "uint16",
					"name": "",
					"type": "uint16"
				}
			],
			"stateMutability": "view",
			"type": "function"
		},
		{
			"inputs": [],
			"name": "show_fake_Inrementing",
			"outputs": [
				{
					"internalType": "uint16",
					"name": "",
					"type": "uint16"
				}
			],
			"stateMutability": "view",
			"type": "function"
		},
		{
			"inputs": [],
			"name": "show_fake_decrementing",
			"outputs": [
				{
					"internalType": "uint16",
					"name": "",
					"type": "uint16"
				}
			],
			"stateMutability": "view",
			"type": "function"
		}
	]
}