{
	"data": {
		"bytecode": {
			"linkReferences": {},
			"object": "6080604052735b38da6a701c568545dcfcb03fcb875f56beddc460025f6101000a81548173ffffffffffffffffffffffffffffffffffffffff021916908373ffffffffffffffffffffffffffffffffffffffff160217905550348015610063575f80fd5b50611166806100715f395ff3fe608060405234801561000f575f80fd5b5060043610610055575f3560e01c806309aaf058146100595780635f72f4501461008b578063e18f1661146100be578063f716362a146100dc578063f851a440146100f8575b5f80fd5b610073600480360381019061006e919061069c565b610116565b6040516100829392919061077a565b60405180910390f35b6100a560048036038101906100a0919061069c565b6101cd565b6040516100b594939291906108b9565b60405180910390f35b6100c661036a565b6040516100d3919061090a565b60405180910390f35b6100f660048036038101906100f191906109d9565b610370565b005b610100610561565b60405161010d9190610aa9565b60405180910390f35b5f602052805f5260405f205f91509050805f015f9054906101000a900460ff169080600101549080600301805461014c90610aef565b80601f016020809104026020016040519081016040528092919081815260200182805461017890610aef565b80156101c35780601f1061019a576101008083540402835291602001916101c3565b820191905f5260205f20905b8154815290600101906020018083116101a657829003601f168201915b5050505050905083565b5f806060805f805f8781526020019081526020015f209050805f015f9054906101000a900460ff168160010154826002018360030181805480602002602001604051908101604052809291908181526020015f905b828210156102ca578382905f5260205f2001805461023f90610aef565b80601f016020809104026020016040519081016040528092919081815260200182805461026b90610aef565b80156102b65780601f1061028d576101008083540402835291602001916102b6565b820191905f5260205f20905b81548152906001019060200180831161029957829003601f168201915b505050505081526020019060010190610222565b5050505091508080546102dc90610aef565b80601f016020809104026020016040519081016040528092919081815260200182805461030890610aef565b80156103535780601f1061032a57610100808354040283529160200191610353565b820191905f5260205f20905b81548152906001019060200180831161033657829003601f168201915b505050505090509450945094509450509193509193565b60015481565b60025f9054906101000a900473ffffffffffffffffffffffffffffffffffffffff1673ffffffffffffffffffffffffffffffffffffffff163373ffffffffffffffffffffffffffffffffffffffff16146103ff576040517f08c379a00000000000000000000000000000000000000000000000000000000081526004016103f690610b69565b60405180910390fd5b60028383905011610445576040517f08c379a000000000000000000000000000000000000000000000000000000000815260040161043c90610bd1565b60405180910390fd5b5f603c826104539190610c1c565b4261045e9190610c5d565b905060405180608001604052806001151581526020018281526020018585906104879190610e69565b815260200187878080601f0160208091040260200160405190810160405280939291908181526020018383808284375f81840152601f19601f820116905080830192505050505050508152505f8060015481526020019081526020015f205f820151815f015f6101000a81548160ff021916908315150217905550602082015181600101556040820151816002019080519060200190610528929190610586565b50606082015181600301908161053e919061101a565b5090505060015f815480929190610554906110e9565b9190505550505050505050565b60025f9054906101000a900473ffffffffffffffffffffffffffffffffffffffff1681565b828054828255905f5260205f209081019282156105cc579160200282015b828111156105cb5782518290816105bb919061101a565b50916020019190600101906105a4565b5b5090506105d991906105dd565b5090565b5b808211156105fc575f81816105f39190610600565b506001016105de565b5090565b50805461060c90610aef565b5f825580601f1061061d575061063a565b601f0160209004905f5260205f2090810190610639919061063d565b5b50565b5b80821115610654575f815f90555060010161063e565b5090565b5f604051905090565b5f80fd5b5f80fd5b5f819050919050565b61067b81610669565b8114610685575f80fd5b50565b5f8135905061069681610672565b92915050565b5f602082840312156106b1576106b0610661565b5b5f6106be84828501610688565b91505092915050565b5f8115159050919050565b6106db816106c7565b82525050565b6106ea81610669565b82525050565b5f81519050919050565b5f82825260208201905092915050565b5f5b8381101561072757808201518184015260208101905061070c565b5f8484015250505050565b5f601f19601f8301169050919050565b5f61074c826106f0565b61075681856106fa565b935061076681856020860161070a565b61076f81610732565b840191505092915050565b5f60608201905061078d5f8301866106d2565b61079a60208301856106e1565b81810360408301526107ac8184610742565b9050949350505050565b5f81519050919050565b5f82825260208201905092915050565b5f819050602082019050919050565b5f82825260208201905092915050565b5f6107f9826106f0565b61080381856107df565b935061081381856020860161070a565b61081c81610732565b840191505092915050565b5f61083283836107ef565b905092915050565b5f602082019050919050565b5f610850826107b6565b61085a81856107c0565b93508360208202850161086c856107d0565b805f5b858110156108a757848403895281516108888582610827565b94506108938361083a565b925060208a0199505060018101905061086f565b50829750879550505050505092915050565b5f6080820190506108cc5f8301876106d2565b6108d960208301866106e1565b81810360408301526108eb8185610846565b905081810360608301526108ff8184610742565b905095945050505050565b5f60208201905061091d5f8301846106e1565b92915050565b5f80fd5b5f80fd5b5f80fd5b5f8083601f84011261094457610943610923565b5b8235905067ffffffffffffffff81111561096157610960610927565b5b60208301915083600182028301111561097d5761097c61092b565b5b9250929050565b5f8083601f84011261099957610998610923565b5b8235905067ffffffffffffffff8111156109b6576109b5610927565b5b6020830191508360208202830111156109d2576109d161092b565b5b9250929050565b5f805f805f606086880312156109f2576109f1610661565b5b5f86013567ffffffffffffffff811115610a0f57610a0e610665565b5b610a1b8882890161092f565b9550955050602086013567ffffffffffffffff811115610a3e57610a3d610665565b5b610a4a88828901610984565b93509350506040610a5d88828901610688565b9150509295509295909350565b5f73ffffffffffffffffffffffffffffffffffffffff82169050919050565b5f610a9382610a6a565b9050919050565b610aa381610a89565b82525050565b5f602082019050610abc5f830184610a9a565b92915050565b7f4e487b71000000000000000000000000000000000000000000000000000000005f52602260045260245ffd5b5f6002820490506001821680610b0657607f821691505b602082108103610b1957610b18610ac2565b5b50919050565b7f796f7520617265206e6f742061646d696e0000000000000000000000000000005f82015250565b5f610b536011836106fa565b9150610b5e82610b1f565b602082019050919050565b5f6020820190508181035f830152610b8081610b47565b9050919050565b7f6d757374206d6f7265207468616e2032206f7074696f6e7300000000000000005f82015250565b5f610bbb6018836106fa565b9150610bc682610b87565b602082019050919050565b5f6020820190508181035f830152610be881610baf565b9050919050565b7f4e487b71000000000000000000000000000000000000000000000000000000005f52601160045260245ffd5b5f610c2682610669565b9150610c3183610669565b9250828202610c3f81610669565b91508282048414831517610c5657610c55610bef565b5b5092915050565b5f610c6782610669565b9150610c7283610669565b9250828201905080821115610c8a57610c89610bef565b5b92915050565b7f4e487b71000000000000000000000000000000000000000000000000000000005f52604160045260245ffd5b610cc682610732565b810181811067ffffffffffffffff82111715610ce557610ce4610c90565b5b80604052505050565b5f610cf7610658565b9050610d038282610cbd565b919050565b5f67ffffffffffffffff821115610d2257610d21610c90565b5b602082029050602081019050919050565b5f80fd5b5f67ffffffffffffffff821115610d5157610d50610c90565b5b610d5a82610732565b9050602081019050919050565b828183375f83830152505050565b5f610d87610d8284610d37565b610cee565b905082815260208101848484011115610da357610da2610d33565b5b610dae848285610d67565b509392505050565b5f82601f830112610dca57610dc9610923565b5b8135610dda848260208601610d75565b91505092915050565b5f610df5610df084610d08565b610cee565b90508083825260208201905060208402830185811115610e1857610e1761092b565b5b835b81811015610e5f57803567ffffffffffffffff811115610e3d57610e3c610923565b5b808601610e4a8982610db6565b85526020850194505050602081019050610e1a565b5050509392505050565b5f610e75368484610de3565b905092915050565b5f819050815f5260205f209050919050565b5f6020601f8301049050919050565b5f82821b905092915050565b5f60088302610ed97fffffffffffffffffffffffffffffffffffffffffffffffffffffffffffffffff82610e9e565b610ee38683610e9e565b95508019841693508086168417925050509392505050565b5f819050919050565b5f610f1e610f19610f1484610669565b610efb565b610669565b9050919050565b5f819050919050565b610f3783610f04565b610f4b610f4382610f25565b848454610eaa565b825550505050565b5f90565b610f5f610f53565b610f6a818484610f2e565b505050565b5b81811015610f8d57610f825f82610f57565b600181019050610f70565b5050565b601f821115610fd257610fa381610e7d565b610fac84610e8f565b81016020851015610fbb578190505b610fcf610fc785610e8f565b830182610f6f565b50505b505050565b5f82821c905092915050565b5f610ff25f1984600802610fd7565b1980831691505092915050565b5f61100a8383610fe3565b9150826002028217905092915050565b611023826106f0565b67ffffffffffffffff81111561103c5761103b610c90565b5b6110468254610aef565b611051828285610f91565b5f60209050601f831160018114611082575f8415611070578287015190505b61107a8582610fff565b8655506110e1565b601f19841661109086610e7d565b5f5b828110156110b757848901518255600182019150602085019450602081019050611092565b868310156110d457848901516110d0601f891682610fe3565b8355505b6001600288020188555050505b505050505050565b5f6110f382610669565b91507fffffffffffffffffffffffffffffffffffffffffffffffffffffffffffffffff820361112557611124610bef565b5b60018201905091905056fea2646970667358221220ed445a1d12ffc96c28ef9f70ccd5d8327b8ee7158e911d2b0e221e400e17c82c64736f6c63430008140033",
			"opcodes": "PUSH1 0x80 PUSH1 0x40 MSTORE PUSH20 0x5B38DA6A701C568545DCFCB03FCB875F56BEDDC4 PUSH1 0x2 PUSH0 PUSH2 0x100 EXP DUP2 SLOAD DUP2 PUSH20 0xFFFFFFFFFFFFFFFFFFFFFFFFFFFFFFFFFFFFFFFF MUL NOT AND SWAP1 DUP4 PUSH20 0xFFFFFFFFFFFFFFFFFFFFFFFFFFFFFFFFFFFFFFFF AND MUL OR SWAP1 SSTORE POP CALLVALUE DUP1 ISZERO PUSH2 0x63 JUMPI PUSH0 DUP1 REVERT JUMPDEST POP PUSH2 0x1166 DUP1 PUSH2 0x71 PUSH0 CODECOPY PUSH0 RETURN INVALID PUSH1 0x80 PUSH1 0x40 MSTORE CALLVALUE DUP1 ISZERO PUSH2 0xF JUMPI PUSH0 DUP1 REVERT JUMPDEST POP PUSH1 0x4 CALLDATASIZE LT PUSH2 0x55 JUMPI PUSH0 CALLDATALOAD PUSH1 0xE0 SHR DUP1 PUSH4 0x9AAF058 EQ PUSH2 0x59 JUMPI DUP1 PUSH4 0x5F72F450 EQ PUSH2 0x8B JUMPI DUP1 PUSH4 0xE18F1661 EQ PUSH2 0xBE JUMPI DUP1 PUSH4 0xF716362A EQ PUSH2 0xDC JUMPI DUP1 PUSH4 0xF851A440 EQ PUSH2 0xF8 JUMPI JUMPDEST PUSH0 DUP1 REVERT JUMPDEST PUSH2 0x73 PUSH1 0x4 DUP1 CALLDATASIZE SUB DUP2 ADD SWAP1 PUSH2 0x6E SWAP2 SWAP1 PUSH2 0x69C JUMP JUMPDEST PUSH2 0x116 JUMP JUMPDEST PUSH1 0x40 MLOAD PUSH2 0x82 SWAP4 SWAP3 SWAP2 SWAP1 PUSH2 0x77A JUMP JUMPDEST PUSH1 0x40 MLOAD DUP1 SWAP2 SUB SWAP1 RETURN JUMPDEST PUSH2 0xA5 PUSH1 0x4 DUP1 CALLDATASIZE SUB DUP2 ADD SWAP1 PUSH2 0xA0 SWAP2 SWAP1 PUSH2 0x69C JUMP JUMPDEST PUSH2 0x1CD JUMP JUMPDEST PUSH1 0x40 MLOAD PUSH2 0xB5 SWAP5 SWAP4 SWAP3 SWAP2 SWAP1 PUSH2 0x8B9 JUMP JUMPDEST PUSH1 0x40 MLOAD DUP1 SWAP2 SUB SWAP1 RETURN JUMPDEST PUSH2 0xC6 PUSH2 0x36A JUMP JUMPDEST PUSH1 0x40 MLOAD PUSH2 0xD3 SWAP2 SWAP1 PUSH2 0x90A JUMP JUMPDEST PUSH1 0x40 MLOAD DUP1 SWAP2 SUB SWAP1 RETURN JUMPDEST PUSH2 0xF6 PUSH1 0x4 DUP1 CALLDATASIZE SUB DUP2 ADD SWAP1 PUSH2 0xF1 SWAP2 SWAP1 PUSH2 0x9D9 JUMP JUMPDEST PUSH2 0x370 JUMP JUMPDEST STOP JUMPDEST PUSH2 0x100 PUSH2 0x561 JUMP JUMPDEST PUSH1 0x40 MLOAD PUSH2 0x10D SWAP2 SWAP1 PUSH2 0xAA9 JUMP JUMPDEST PUSH1 0x40 MLOAD DUP1 SWAP2 SUB SWAP1 RETURN JUMPDEST PUSH0 PUSH1 0x20 MSTORE DUP1 PUSH0 MSTORE PUSH1 0x40 PUSH0 KECCAK256 PUSH0 SWAP2 POP SWAP1 POP DUP1 PUSH0 ADD PUSH0 SWAP1 SLOAD SWAP1 PUSH2 0x100 EXP SWAP1 DIV PUSH1 0xFF AND SWAP1 DUP1 PUSH1 0x1 ADD SLOAD SWAP1 DUP1 PUSH1 0x3 ADD DUP1 SLOAD PUSH2 0x14C SWAP1 PUSH2 0xAEF JUMP JUMPDEST DUP1 PUSH1 0x1F ADD PUSH1 0x20 DUP1 SWAP2 DIV MUL PUSH1 0x20 ADD PUSH1 0x40 MLOAD SWAP1 DUP2 ADD PUSH1 0x40 MSTORE DUP1 SWAP3 SWAP2 SWAP1 DUP2 DUP2 MSTORE PUSH1 0x20 ADD DUP3 DUP1 SLOAD PUSH2 0x178 SWAP1 PUSH2 0xAEF JUMP JUMPDEST DUP1 ISZERO PUSH2 0x1C3 JUMPI DUP1 PUSH1 0x1F LT PUSH2 0x19A JUMPI PUSH2 0x100 DUP1 DUP4 SLOAD DIV MUL DUP4 MSTORE SWAP2 PUSH1 0x20 ADD SWAP2 PUSH2 0x1C3 JUMP JUMPDEST DUP3 ADD SWAP2 SWAP1 PUSH0 MSTORE PUSH1 0x20 PUSH0 KECCAK256 SWAP1 JUMPDEST DUP2 SLOAD DUP2 MSTORE SWAP1 PUSH1 0x1 ADD SWAP1 PUSH1 0x20 ADD DUP1 DUP4 GT PUSH2 0x1A6 JUMPI DUP3 SWAP1 SUB PUSH1 0x1F AND DUP3 ADD SWAP2 JUMPDEST POP POP POP POP POP SWAP1 POP DUP4 JUMP JUMPDEST PUSH0 DUP1 PUSH1 0x60 DUP1 PUSH0 DUP1 PUSH0 DUP8 DUP2 MSTORE PUSH1 0x20 ADD SWAP1 DUP2 MSTORE PUSH1 0x20 ADD PUSH0 KECCAK256 SWAP1 POP DUP1 PUSH0 ADD PUSH0 SWAP1 SLOAD SWAP1 PUSH2 0x100 EXP SWAP1 DIV PUSH1 0xFF AND DUP2 PUSH1 0x1 ADD SLOAD DUP3 PUSH1 0x2 ADD DUP4 PUSH1 0x3 ADD DUP2 DUP1 SLOAD DUP1 PUSH1 0x20 MUL PUSH1 0x20 ADD PUSH1 0x40 MLOAD SWAP1 DUP2 ADD PUSH1 0x40 MSTORE DUP1 SWAP3 SWAP2 SWAP1 DUP2 DUP2 MSTORE PUSH1 0x20 ADD PUSH0 SWAP1 JUMPDEST DUP3 DUP3 LT ISZERO PUSH2 0x2CA JUMPI DUP4 DUP3 SWAP1 PUSH0 MSTORE PUSH1 0x20 PUSH0 KECCAK256 ADD DUP1 SLOAD PUSH2 0x23F SWAP1 PUSH2 0xAEF JUMP JUMPDEST DUP1 PUSH1 0x1F ADD PUSH1 0x20 DUP1 SWAP2 DIV MUL PUSH1 0x20 ADD PUSH1 0x40 MLOAD SWAP1 DUP2 ADD PUSH1 0x40 MSTORE DUP1 SWAP3 SWAP2 SWAP1 DUP2 DUP2 MSTORE PUSH1 0x20 ADD DUP3 DUP1 SLOAD PUSH2 0x26B SWAP1 PUSH2 0xAEF JUMP JUMPDEST DUP1 ISZERO PUSH2 0x2B6 JUMPI DUP1 PUSH1 0x1F LT PUSH2 0x28D JUMPI PUSH2 0x100 DUP1 DUP4 SLOAD DIV MUL DUP4 MSTORE SWAP2 PUSH1 0x20 ADD SWAP2 PUSH2 0x2B6 JUMP JUMPDEST DUP3 ADD SWAP2 SWAP1 PUSH0 MSTORE PUSH1 0x20 PUSH0 KECCAK256 SWAP1 JUMPDEST DUP2 SLOAD DUP2 MSTORE SWAP1 PUSH1 0x1 ADD SWAP1 PUSH1 0x20 ADD DUP1 DUP4 GT PUSH2 0x299 JUMPI DUP3 SWAP1 SUB PUSH1 0x1F AND DUP3 ADD SWAP2 JUMPDEST POP POP POP POP POP DUP2 MSTORE PUSH1 0x20 ADD SWAP1 PUSH1 0x1 ADD SWAP1 PUSH2 0x222 JUMP JUMPDEST POP POP POP POP SWAP2 POP DUP1 DUP1 SLOAD PUSH2 0x2DC SWAP1 PUSH2 0xAEF JUMP JUMPDEST DUP1 PUSH1 0x1F ADD PUSH1 0x20 DUP1 SWAP2 DIV MUL PUSH1 0x20 ADD PUSH1 0x40 MLOAD SWAP1 DUP2 ADD PUSH1 0x40 MSTORE DUP1 SWAP3 SWAP2 SWAP1 DUP2 DUP2 MSTORE PUSH1 0x20 ADD DUP3 DUP1 SLOAD PUSH2 0x308 SWAP1 PUSH2 0xAEF JUMP JUMPDEST DUP1 ISZERO PUSH2 0x353 JUMPI DUP1 PUSH1 0x1F LT PUSH2 0x32A JUMPI PUSH2 0x100 DUP1 DUP4 SLOAD DIV MUL DUP4 MSTORE SWAP2 PUSH1 0x20 ADD SWAP2 PUSH2 0x353 JUMP JUMPDEST DUP3 ADD SWAP2 SWAP1 PUSH0 MSTORE PUSH1 0x20 PUSH0 KECCAK256 SWAP1 JUMPDEST DUP2 SLOAD DUP2 MSTORE SWAP1 PUSH1 0x1 ADD SWAP1 PUSH1 0x20 ADD DUP1 DUP4 GT PUSH2 0x336 JUMPI DUP3 SWAP1 SUB PUSH1 0x1F AND DUP3 ADD SWAP2 JUMPDEST POP POP POP POP POP SWAP1 POP SWAP5 POP SWAP5 POP SWAP5 POP SWAP5 POP POP SWAP2 SWAP4 POP SWAP2 SWAP4 JUMP JUMPDEST PUSH1 0x1 SLOAD DUP2 JUMP JUMPDEST PUSH1 0x2 PUSH0 SWAP1 SLOAD SWAP1 PUSH2 0x100 EXP SWAP1 DIV PUSH20 0xFFFFFFFFFFFFFFFFFFFFFFFFFFFFFFFFFFFFFFFF AND PUSH20 0xFFFFFFFFFFFFFFFFFFFFFFFFFFFFFFFFFFFFFFFF AND CALLER PUSH20 0xFFFFFFFFFFFFFFFFFFFFFFFFFFFFFFFFFFFFFFFF AND EQ PUSH2 0x3FF JUMPI PUSH1 0x40 MLOAD PUSH32 0x8C379A000000000000000000000000000000000000000000000000000000000 DUP2 MSTORE PUSH1 0x4 ADD PUSH2 0x3F6 SWAP1 PUSH2 0xB69 JUMP JUMPDEST PUSH1 0x40 MLOAD DUP1 SWAP2 SUB SWAP1 REVERT JUMPDEST PUSH1 0x2 DUP4 DUP4 SWAP1 POP GT PUSH2 0x445 JUMPI PUSH1 0x40 MLOAD PUSH32 0x8C379A000000000000000000000000000000000000000000000000000000000 DUP2 MSTORE PUSH1 0x4 ADD PUSH2 0x43C SWAP1 PUSH2 0xBD1 JUMP JUMPDEST PUSH1 0x40 MLOAD DUP1 SWAP2 SUB SWAP1 REVERT JUMPDEST PUSH0 PUSH1 0x3C DUP3 PUSH2 0x453 SWAP2 SWAP1 PUSH2 0xC1C JUMP JUMPDEST TIMESTAMP PUSH2 0x45E SWAP2 SWAP1 PUSH2 0xC5D JUMP JUMPDEST SWAP1 POP PUSH1 0x40 MLOAD DUP1 PUSH1 0x80 ADD PUSH1 0x40 MSTORE DUP1 PUSH1 0x1 ISZERO ISZERO DUP2 MSTORE PUSH1 0x20 ADD DUP3 DUP2 MSTORE PUSH1 0x20 ADD DUP6 DUP6 SWAP1 PUSH2 0x487 SWAP2 SWAP1 PUSH2 0xE69 JUMP JUMPDEST DUP2 MSTORE PUSH1 0x20 ADD DUP8 DUP8 DUP1 DUP1 PUSH1 0x1F ADD PUSH1 0x20 DUP1 SWAP2 DIV MUL PUSH1 0x20 ADD PUSH1 0x40 MLOAD SWAP1 DUP2 ADD PUSH1 0x40 MSTORE DUP1 SWAP4 SWAP3 SWAP2 SWAP1 DUP2 DUP2 MSTORE PUSH1 0x20 ADD DUP4 DUP4 DUP1 DUP3 DUP5 CALLDATACOPY PUSH0 DUP2 DUP5 ADD MSTORE PUSH1 0x1F NOT PUSH1 0x1F DUP3 ADD AND SWAP1 POP DUP1 DUP4 ADD SWAP3 POP POP POP POP POP POP POP DUP2 MSTORE POP PUSH0 DUP1 PUSH1 0x1 SLOAD DUP2 MSTORE PUSH1 0x20 ADD SWAP1 DUP2 MSTORE PUSH1 0x20 ADD PUSH0 KECCAK256 PUSH0 DUP3 ADD MLOAD DUP2 PUSH0 ADD PUSH0 PUSH2 0x100 EXP DUP2 SLOAD DUP2 PUSH1 0xFF MUL NOT AND SWAP1 DUP4 ISZERO ISZERO MUL OR SWAP1 SSTORE POP PUSH1 0x20 DUP3 ADD MLOAD DUP2 PUSH1 0x1 ADD SSTORE PUSH1 0x40 DUP3 ADD MLOAD DUP2 PUSH1 0x2 ADD SWAP1 DUP1 MLOAD SWAP1 PUSH1 0x20 ADD SWAP1 PUSH2 0x528 SWAP3 SWAP2 SWAP1 PUSH2 0x586 JUMP JUMPDEST POP PUSH1 0x60 DUP3 ADD MLOAD DUP2 PUSH1 0x3 ADD SWAP1 DUP2 PUSH2 0x53E SWAP2 SWAP1 PUSH2 0x101A JUMP JUMPDEST POP SWAP1 POP POP PUSH1 0x1 PUSH0 DUP2 SLOAD DUP1 SWAP3 SWAP2 SWAP1 PUSH2 0x554 SWAP1 PUSH2 0x10E9 JUMP JUMPDEST SWAP2 SWAP1 POP SSTORE POP POP POP POP POP POP POP JUMP JUMPDEST PUSH1 0x2 PUSH0 SWAP1 SLOAD SWAP1 PUSH2 0x100 EXP SWAP1 DIV PUSH20 0xFFFFFFFFFFFFFFFFFFFFFFFFFFFFFFFFFFFFFFFF AND DUP2 JUMP JUMPDEST DUP3 DUP1 SLOAD DUP3 DUP3 SSTORE SWAP1 PUSH0 MSTORE PUSH1 0x20 PUSH0 KECCAK256 SWAP1 DUP2 ADD SWAP3 DUP3 ISZERO PUSH2 0x5CC JUMPI SWAP2 PUSH1 0x20 MUL DUP3 ADD JUMPDEST DUP3 DUP2 GT ISZERO PUSH2 0x5CB JUMPI DUP3 MLOAD DUP3 SWAP1 DUP2 PUSH2 0x5BB SWAP2 SWAP1 PUSH2 0x101A JUMP JUMPDEST POP SWAP2 PUSH1 0x20 ADD SWAP2 SWAP1 PUSH1 0x1 ADD SWAP1 PUSH2 0x5A4 JUMP JUMPDEST JUMPDEST POP SWAP1 POP PUSH2 0x5D9 SWAP2 SWAP1 PUSH2 0x5DD JUMP JUMPDEST POP SWAP1 JUMP JUMPDEST JUMPDEST DUP1 DUP3 GT ISZERO PUSH2 0x5FC JUMPI PUSH0 DUP2 DUP2 PUSH2 0x5F3 SWAP2 SWAP1 PUSH2 0x600 JUMP JUMPDEST POP PUSH1 0x1 ADD PUSH2 0x5DE JUMP JUMPDEST POP SWAP1 JUMP JUMPDEST POP DUP1 SLOAD PUSH2 0x60C SWAP1 PUSH2 0xAEF JUMP JUMPDEST PUSH0 DUP3 SSTORE DUP1 PUSH1 0x1F LT PUSH2 0x61D JUMPI POP PUSH2 0x63A JUMP JUMPDEST PUSH1 0x1F ADD PUSH1 0x20 SWAP1 DIV SWAP1 PUSH0 MSTORE PUSH1 0x20 PUSH0 KECCAK256 SWAP1 DUP2 ADD SWAP1 PUSH2 0x639 SWAP2 SWAP1 PUSH2 0x63D JUMP JUMPDEST JUMPDEST POP JUMP JUMPDEST JUMPDEST DUP1 DUP3 GT ISZERO PUSH2 0x654 JUMPI PUSH0 DUP2 PUSH0 SWAP1 SSTORE POP PUSH1 0x1 ADD PUSH2 0x63E JUMP JUMPDEST POP SWAP1 JUMP JUMPDEST PUSH0 PUSH1 0x40 MLOAD SWAP1 POP SWAP1 JUMP JUMPDEST PUSH0 DUP1 REVERT JUMPDEST PUSH0 DUP1 REVERT JUMPDEST PUSH0 DUP2 SWAP1 POP SWAP2 SWAP1 POP JUMP JUMPDEST PUSH2 0x67B DUP2 PUSH2 0x669 JUMP JUMPDEST DUP2 EQ PUSH2 0x685 JUMPI PUSH0 DUP1 REVERT JUMPDEST POP JUMP JUMPDEST PUSH0 DUP2 CALLDATALOAD SWAP1 POP PUSH2 0x696 DUP2 PUSH2 0x672 JUMP JUMPDEST SWAP3 SWAP2 POP POP JUMP JUMPDEST PUSH0 PUSH1 0x20 DUP3 DUP5 SUB SLT ISZERO PUSH2 0x6B1 JUMPI PUSH2 0x6B0 PUSH2 0x661 JUMP JUMPDEST JUMPDEST PUSH0 PUSH2 0x6BE DUP5 DUP3 DUP6 ADD PUSH2 0x688 JUMP JUMPDEST SWAP2 POP POP SWAP3 SWAP2 POP POP JUMP JUMPDEST PUSH0 DUP2 ISZERO ISZERO SWAP1 POP SWAP2 SWAP1 POP JUMP JUMPDEST PUSH2 0x6DB DUP2 PUSH2 0x6C7 JUMP JUMPDEST DUP3 MSTORE POP POP JUMP JUMPDEST PUSH2 0x6EA DUP2 PUSH2 0x669 JUMP JUMPDEST DUP3 MSTORE POP POP JUMP JUMPDEST PUSH0 DUP2 MLOAD SWAP1 POP SWAP2 SWAP1 POP JUMP JUMPDEST PUSH0 DUP3 DUP3 MSTORE PUSH1 0x20 DUP3 ADD SWAP1 POP SWAP3 SWAP2 POP POP JUMP JUMPDEST PUSH0 JUMPDEST DUP4 DUP2 LT ISZERO PUSH2 0x727 JUMPI DUP1 DUP3 ADD MLOAD DUP2 DUP5 ADD MSTORE PUSH1 0x20 DUP2 ADD SWAP1 POP PUSH2 0x70C JUMP JUMPDEST PUSH0 DUP5 DUP5 ADD MSTORE POP POP POP POP JUMP JUMPDEST PUSH0 PUSH1 0x1F NOT PUSH1 0x1F DUP4 ADD AND SWAP1 POP SWAP2 SWAP1 POP JUMP JUMPDEST PUSH0 PUSH2 0x74C DUP3 PUSH2 0x6F0 JUMP JUMPDEST PUSH2 0x756 DUP2 DUP6 PUSH2 0x6FA JUMP JUMPDEST SWAP4 POP PUSH2 0x766 DUP2 DUP6 PUSH1 0x20 DUP7 ADD PUSH2 0x70A JUMP JUMPDEST PUSH2 0x76F DUP2 PUSH2 0x732 JUMP JUMPDEST DUP5 ADD SWAP2 POP POP SWAP3 SWAP2 POP POP JUMP JUMPDEST PUSH0 PUSH1 0x60 DUP3 ADD SWAP1 POP PUSH2 0x78D PUSH0 DUP4 ADD DUP7 PUSH2 0x6D2 JUMP JUMPDEST PUSH2 0x79A PUSH1 0x20 DUP4 ADD DUP6 PUSH2 0x6E1 JUMP JUMPDEST DUP2 DUP2 SUB PUSH1 0x40 DUP4 ADD MSTORE PUSH2 0x7AC DUP2 DUP5 PUSH2 0x742 JUMP JUMPDEST SWAP1 POP SWAP5 SWAP4 POP POP POP POP JUMP JUMPDEST PUSH0 DUP2 MLOAD SWAP1 POP SWAP2 SWAP1 POP JUMP JUMPDEST PUSH0 DUP3 DUP3 MSTORE PUSH1 0x20 DUP3 ADD SWAP1 POP SWAP3 SWAP2 POP POP JUMP JUMPDEST PUSH0 DUP2 SWAP1 POP PUSH1 0x20 DUP3 ADD SWAP1 POP SWAP2 SWAP1 POP JUMP JUMPDEST PUSH0 DUP3 DUP3 MSTORE PUSH1 0x20 DUP3 ADD SWAP1 POP SWAP3 SWAP2 POP POP JUMP JUMPDEST PUSH0 PUSH2 0x7F9 DUP3 PUSH2 0x6F0 JUMP JUMPDEST PUSH2 0x803 DUP2 DUP6 PUSH2 0x7DF JUMP JUMPDEST SWAP4 POP PUSH2 0x813 DUP2 DUP6 PUSH1 0x20 DUP7 ADD PUSH2 0x70A JUMP JUMPDEST PUSH2 0x81C DUP2 PUSH2 0x732 JUMP JUMPDEST DUP5 ADD SWAP2 POP POP SWAP3 SWAP2 POP POP JUMP JUMPDEST PUSH0 PUSH2 0x832 DUP4 DUP4 PUSH2 0x7EF JUMP JUMPDEST SWAP1 POP SWAP3 SWAP2 POP POP JUMP JUMPDEST PUSH0 PUSH1 0x20 DUP3 ADD SWAP1 POP SWAP2 SWAP1 POP JUMP JUMPDEST PUSH0 PUSH2 0x850 DUP3 PUSH2 0x7B6 JUMP JUMPDEST PUSH2 0x85A DUP2 DUP6 PUSH2 0x7C0 JUMP JUMPDEST SWAP4 POP DUP4 PUSH1 0x20 DUP3 MUL DUP6 ADD PUSH2 0x86C DUP6 PUSH2 0x7D0 JUMP JUMPDEST DUP1 PUSH0 JUMPDEST DUP6 DUP2 LT ISZERO PUSH2 0x8A7 JUMPI DUP5 DUP5 SUB DUP10 MSTORE DUP2 MLOAD PUSH2 0x888 DUP6 DUP3 PUSH2 0x827 JUMP JUMPDEST SWAP5 POP PUSH2 0x893 DUP4 PUSH2 0x83A JUMP JUMPDEST SWAP3 POP PUSH1 0x20 DUP11 ADD SWAP10 POP POP PUSH1 0x1 DUP2 ADD SWAP1 POP PUSH2 0x86F JUMP JUMPDEST POP DUP3 SWAP8 POP DUP8 SWAP6 POP POP POP POP POP POP SWAP3 SWAP2 POP POP JUMP JUMPDEST PUSH0 PUSH1 0x80 DUP3 ADD SWAP1 POP PUSH2 0x8CC PUSH0 DUP4 ADD DUP8 PUSH2 0x6D2 JUMP JUMPDEST PUSH2 0x8D9 PUSH1 0x20 DUP4 ADD DUP7 PUSH2 0x6E1 JUMP JUMPDEST DUP2 DUP2 SUB PUSH1 0x40 DUP4 ADD MSTORE PUSH2 0x8EB DUP2 DUP6 PUSH2 0x846 JUMP JUMPDEST SWAP1 POP DUP2 DUP2 SUB PUSH1 0x60 DUP4 ADD MSTORE PUSH2 0x8FF DUP2 DUP5 PUSH2 0x742 JUMP JUMPDEST SWAP1 POP SWAP6 SWAP5 POP POP POP POP POP JUMP JUMPDEST PUSH0 PUSH1 0x20 DUP3 ADD SWAP1 POP PUSH2 0x91D PUSH0 DUP4 ADD DUP5 PUSH2 0x6E1 JUMP JUMPDEST SWAP3 SWAP2 POP POP JUMP JUMPDEST PUSH0 DUP1 REVERT JUMPDEST PUSH0 DUP1 REVERT JUMPDEST PUSH0 DUP1 REVERT JUMPDEST PUSH0 DUP1 DUP4 PUSH1 0x1F DUP5 ADD SLT PUSH2 0x944 JUMPI PUSH2 0x943 PUSH2 0x923 JUMP JUMPDEST JUMPDEST DUP3 CALLDATALOAD SWAP1 POP PUSH8 0xFFFFFFFFFFFFFFFF DUP2 GT ISZERO PUSH2 0x961 JUMPI PUSH2 0x960 PUSH2 0x927 JUMP JUMPDEST JUMPDEST PUSH1 0x20 DUP4 ADD SWAP2 POP DUP4 PUSH1 0x1 DUP3 MUL DUP4 ADD GT ISZERO PUSH2 0x97D JUMPI PUSH2 0x97C PUSH2 0x92B JUMP JUMPDEST JUMPDEST SWAP3 POP SWAP3 SWAP1 POP JUMP JUMPDEST PUSH0 DUP1 DUP4 PUSH1 0x1F DUP5 ADD SLT PUSH2 0x999 JUMPI PUSH2 0x998 PUSH2 0x923 JUMP JUMPDEST JUMPDEST DUP3 CALLDATALOAD SWAP1 POP PUSH8 0xFFFFFFFFFFFFFFFF DUP2 GT ISZERO PUSH2 0x9B6 JUMPI PUSH2 0x9B5 PUSH2 0x927 JUMP JUMPDEST JUMPDEST PUSH1 0x20 DUP4 ADD SWAP2 POP DUP4 PUSH1 0x20 DUP3 MUL DUP4 ADD GT ISZERO PUSH2 0x9D2 JUMPI PUSH2 0x9D1 PUSH2 0x92B JUMP JUMPDEST JUMPDEST SWAP3 POP SWAP3 SWAP1 POP JUMP JUMPDEST PUSH0 DUP1 PUSH0 DUP1 PUSH0 PUSH1 0x60 DUP7 DUP9 SUB SLT ISZERO PUSH2 0x9F2 JUMPI PUSH2 0x9F1 PUSH2 0x661 JUMP JUMPDEST JUMPDEST PUSH0 DUP7 ADD CALLDATALOAD PUSH8 0xFFFFFFFFFFFFFFFF DUP2 GT ISZERO PUSH2 0xA0F JUMPI PUSH2 0xA0E PUSH2 0x665 JUMP JUMPDEST JUMPDEST PUSH2 0xA1B DUP9 DUP3 DUP10 ADD PUSH2 0x92F JUMP JUMPDEST SWAP6 POP SWAP6 POP POP PUSH1 0x20 DUP7 ADD CALLDATALOAD PUSH8 0xFFFFFFFFFFFFFFFF DUP2 GT ISZERO PUSH2 0xA3E JUMPI PUSH2 0xA3D PUSH2 0x665 JUMP JUMPDEST JUMPDEST PUSH2 0xA4A DUP9 DUP3 DUP10 ADD PUSH2 0x984 JUMP JUMPDEST SWAP4 POP SWAP4 POP POP PUSH1 0x40 PUSH2 0xA5D DUP9 DUP3 DUP10 ADD PUSH2 0x688 JUMP JUMPDEST SWAP2 POP POP SWAP3 SWAP6 POP SWAP3 SWAP6 SWAP1 SWAP4 POP JUMP JUMPDEST PUSH0 PUSH20 0xFFFFFFFFFFFFFFFFFFFFFFFFFFFFFFFFFFFFFFFF DUP3 AND SWAP1 POP SWAP2 SWAP1 POP JUMP JUMPDEST PUSH0 PUSH2 0xA93 DUP3 PUSH2 0xA6A JUMP JUMPDEST SWAP1 POP SWAP2 SWAP1 POP JUMP JUMPDEST PUSH2 0xAA3 DUP2 PUSH2 0xA89 JUMP JUMPDEST DUP3 MSTORE POP POP JUMP JUMPDEST PUSH0 PUSH1 0x20 DUP3 ADD SWAP1 POP PUSH2 0xABC PUSH0 DUP4 ADD DUP5 PUSH2 0xA9A JUMP JUMPDEST SWAP3 SWAP2 POP POP JUMP JUMPDEST PUSH32 0x4E487B7100000000000000000000000000000000000000000000000000000000 PUSH0 MSTORE PUSH1 0x22 PUSH1 0x4 MSTORE PUSH1 0x24 PUSH0 REVERT JUMPDEST PUSH0 PUSH1 0x2 DUP3 DIV SWAP1 POP PUSH1 0x1 DUP3 AND DUP1 PUSH2 0xB06 JUMPI PUSH1 0x7F DUP3 AND SWAP2 POP JUMPDEST PUSH1 0x20 DUP3 LT DUP2 SUB PUSH2 0xB19 JUMPI PUSH2 0xB18 PUSH2 0xAC2 JUMP JUMPDEST JUMPDEST POP SWAP2 SWAP1 POP JUMP JUMPDEST PUSH32 0x796F7520617265206E6F742061646D696E000000000000000000000000000000 PUSH0 DUP3 ADD MSTORE POP JUMP JUMPDEST PUSH0 PUSH2 0xB53 PUSH1 0x11 DUP4 PUSH2 0x6FA JUMP JUMPDEST SWAP2 POP PUSH2 0xB5E DUP3 PUSH2 0xB1F JUMP JUMPDEST PUSH1 0x20 DUP3 ADD SWAP1 POP SWAP2 SWAP1 POP JUMP JUMPDEST PUSH0 PUSH1 0x20 DUP3 ADD SWAP1 POP DUP2 DUP2 SUB PUSH0 DUP4 ADD MSTORE PUSH2 0xB80 DUP2 PUSH2 0xB47 JUMP JUMPDEST SWAP1 POP SWAP2 SWAP1 POP JUMP JUMPDEST PUSH32 0x6D757374206D6F7265207468616E2032206F7074696F6E730000000000000000 PUSH0 DUP3 ADD MSTORE POP JUMP JUMPDEST PUSH0 PUSH2 0xBBB PUSH1 0x18 DUP4 PUSH2 0x6FA JUMP JUMPDEST SWAP2 POP PUSH2 0xBC6 DUP3 PUSH2 0xB87 JUMP JUMPDEST PUSH1 0x20 DUP3 ADD SWAP1 POP SWAP2 SWAP1 POP JUMP JUMPDEST PUSH0 PUSH1 0x20 DUP3 ADD SWAP1 POP DUP2 DUP2 SUB PUSH0 DUP4 ADD MSTORE PUSH2 0xBE8 DUP2 PUSH2 0xBAF JUMP JUMPDEST SWAP1 POP SWAP2 SWAP1 POP JUMP JUMPDEST PUSH32 0x4E487B7100000000000000000000000000000000000000000000000000000000 PUSH0 MSTORE PUSH1 0x11 PUSH1 0x4 MSTORE PUSH1 0x24 PUSH0 REVERT JUMPDEST PUSH0 PUSH2 0xC26 DUP3 PUSH2 0x669 JUMP JUMPDEST SWAP2 POP PUSH2 0xC31 DUP4 PUSH2 0x669 JUMP JUMPDEST SWAP3 POP DUP3 DUP3 MUL PUSH2 0xC3F DUP2 PUSH2 0x669 JUMP JUMPDEST SWAP2 POP DUP3 DUP3 DIV DUP5 EQ DUP4 ISZERO OR PUSH2 0xC56 JUMPI PUSH2 0xC55 PUSH2 0xBEF JUMP JUMPDEST JUMPDEST POP SWAP3 SWAP2 POP POP JUMP JUMPDEST PUSH0 PUSH2 0xC67 DUP3 PUSH2 0x669 JUMP JUMPDEST SWAP2 POP PUSH2 0xC72 DUP4 PUSH2 0x669 JUMP JUMPDEST SWAP3 POP DUP3 DUP3 ADD SWAP1 POP DUP1 DUP3 GT ISZERO PUSH2 0xC8A JUMPI PUSH2 0xC89 PUSH2 0xBEF JUMP JUMPDEST JUMPDEST SWAP3 SWAP2 POP POP JUMP JUMPDEST PUSH32 0x4E487B7100000000000000000000000000000000000000000000000000000000 PUSH0 MSTORE PUSH1 0x41 PUSH1 0x4 MSTORE PUSH1 0x24 PUSH0 REVERT JUMPDEST PUSH2 0xCC6 DUP3 PUSH2 0x732 JUMP JUMPDEST DUP2 ADD DUP2 DUP2 LT PUSH8 0xFFFFFFFFFFFFFFFF DUP3 GT OR ISZERO PUSH2 0xCE5 JUMPI PUSH2 0xCE4 PUSH2 0xC90 JUMP JUMPDEST JUMPDEST DUP1 PUSH1 0x40 MSTORE POP POP POP JUMP JUMPDEST PUSH0 PUSH2 0xCF7 PUSH2 0x658 JUMP JUMPDEST SWAP1 POP PUSH2 0xD03 DUP3 DUP3 PUSH2 0xCBD JUMP JUMPDEST SWAP2 SWAP1 POP JUMP JUMPDEST PUSH0 PUSH8 0xFFFFFFFFFFFFFFFF DUP3 GT ISZERO PUSH2 0xD22 JUMPI PUSH2 0xD21 PUSH2 0xC90 JUMP JUMPDEST JUMPDEST PUSH1 0x20 DUP3 MUL SWAP1 POP PUSH1 0x20 DUP2 ADD SWAP1 POP SWAP2 SWAP1 POP JUMP JUMPDEST PUSH0 DUP1 REVERT JUMPDEST PUSH0 PUSH8 0xFFFFFFFFFFFFFFFF DUP3 GT ISZERO PUSH2 0xD51 JUMPI PUSH2 0xD50 PUSH2 0xC90 JUMP JUMPDEST JUMPDEST PUSH2 0xD5A DUP3 PUSH2 0x732 JUMP JUMPDEST SWAP1 POP PUSH1 0x20 DUP2 ADD SWAP1 POP SWAP2 SWAP1 POP JUMP JUMPDEST DUP3 DUP2 DUP4 CALLDATACOPY PUSH0 DUP4 DUP4 ADD MSTORE POP POP POP JUMP JUMPDEST PUSH0 PUSH2 0xD87 PUSH2 0xD82 DUP5 PUSH2 0xD37 JUMP JUMPDEST PUSH2 0xCEE JUMP JUMPDEST SWAP1 POP DUP3 DUP2 MSTORE PUSH1 0x20 DUP2 ADD DUP5 DUP5 DUP5 ADD GT ISZERO PUSH2 0xDA3 JUMPI PUSH2 0xDA2 PUSH2 0xD33 JUMP JUMPDEST JUMPDEST PUSH2 0xDAE DUP5 DUP3 DUP6 PUSH2 0xD67 JUMP JUMPDEST POP SWAP4 SWAP3 POP POP POP JUMP JUMPDEST PUSH0 DUP3 PUSH1 0x1F DUP4 ADD SLT PUSH2 0xDCA JUMPI PUSH2 0xDC9 PUSH2 0x923 JUMP JUMPDEST JUMPDEST DUP2 CALLDATALOAD PUSH2 0xDDA DUP5 DUP3 PUSH1 0x20 DUP7 ADD PUSH2 0xD75 JUMP JUMPDEST SWAP2 POP POP SWAP3 SWAP2 POP POP JUMP JUMPDEST PUSH0 PUSH2 0xDF5 PUSH2 0xDF0 DUP5 PUSH2 0xD08 JUMP JUMPDEST PUSH2 0xCEE JUMP JUMPDEST SWAP1 POP DUP1 DUP4 DUP3 MSTORE PUSH1 0x20 DUP3 ADD SWAP1 POP PUSH1 0x20 DUP5 MUL DUP4 ADD DUP6 DUP2 GT ISZERO PUSH2 0xE18 JUMPI PUSH2 0xE17 PUSH2 0x92B JUMP JUMPDEST JUMPDEST DUP4 JUMPDEST DUP2 DUP2 LT ISZERO PUSH2 0xE5F JUMPI DUP1 CALLDATALOAD PUSH8 0xFFFFFFFFFFFFFFFF DUP2 GT ISZERO PUSH2 0xE3D JUMPI PUSH2 0xE3C PUSH2 0x923 JUMP JUMPDEST JUMPDEST DUP1 DUP7 ADD PUSH2 0xE4A DUP10 DUP3 PUSH2 0xDB6 JUMP JUMPDEST DUP6 MSTORE PUSH1 0x20 DUP6 ADD SWAP5 POP POP POP PUSH1 0x20 DUP2 ADD SWAP1 POP PUSH2 0xE1A JUMP JUMPDEST POP POP POP SWAP4 SWAP3 POP POP POP JUMP JUMPDEST PUSH0 PUSH2 0xE75 CALLDATASIZE DUP5 DUP5 PUSH2 0xDE3 JUMP JUMPDEST SWAP1 POP SWAP3 SWAP2 POP POP JUMP JUMPDEST PUSH0 DUP2 SWAP1 POP DUP2 PUSH0 MSTORE PUSH1 0x20 PUSH0 KECCAK256 SWAP1 POP SWAP2 SWAP1 POP JUMP JUMPDEST PUSH0 PUSH1 0x20 PUSH1 0x1F DUP4 ADD DIV SWAP1 POP SWAP2 SWAP1 POP JUMP JUMPDEST PUSH0 DUP3 DUP3 SHL SWAP1 POP SWAP3 SWAP2 POP POP JUMP JUMPDEST PUSH0 PUSH1 0x8 DUP4 MUL PUSH2 0xED9 PUSH32 0xFFFFFFFFFFFFFFFFFFFFFFFFFFFFFFFFFFFFFFFFFFFFFFFFFFFFFFFFFFFFFFFF DUP3 PUSH2 0xE9E JUMP JUMPDEST PUSH2 0xEE3 DUP7 DUP4 PUSH2 0xE9E JUMP JUMPDEST SWAP6 POP DUP1 NOT DUP5 AND SWAP4 POP DUP1 DUP7 AND DUP5 OR SWAP3 POP POP POP SWAP4 SWAP3 POP POP POP JUMP JUMPDEST PUSH0 DUP2 SWAP1 POP SWAP2 SWAP1 POP JUMP JUMPDEST PUSH0 PUSH2 0xF1E PUSH2 0xF19 PUSH2 0xF14 DUP5 PUSH2 0x669 JUMP JUMPDEST PUSH2 0xEFB JUMP JUMPDEST PUSH2 0x669 JUMP JUMPDEST SWAP1 POP SWAP2 SWAP1 POP JUMP JUMPDEST PUSH0 DUP2 SWAP1 POP SWAP2 SWAP1 POP JUMP JUMPDEST PUSH2 0xF37 DUP4 PUSH2 0xF04 JUMP JUMPDEST PUSH2 0xF4B PUSH2 0xF43 DUP3 PUSH2 0xF25 JUMP JUMPDEST DUP5 DUP5 SLOAD PUSH2 0xEAA JUMP JUMPDEST DUP3 SSTORE POP POP POP POP JUMP JUMPDEST PUSH0 SWAP1 JUMP JUMPDEST PUSH2 0xF5F PUSH2 0xF53 JUMP JUMPDEST PUSH2 0xF6A DUP2 DUP5 DUP5 PUSH2 0xF2E JUMP JUMPDEST POP POP POP JUMP JUMPDEST JUMPDEST DUP2 DUP2 LT ISZERO PUSH2 0xF8D JUMPI PUSH2 0xF82 PUSH0 DUP3 PUSH2 0xF57 JUMP JUMPDEST PUSH1 0x1 DUP2 ADD SWAP1 POP PUSH2 0xF70 JUMP JUMPDEST POP POP JUMP JUMPDEST PUSH1 0x1F DUP3 GT ISZERO PUSH2 0xFD2 JUMPI PUSH2 0xFA3 DUP2 PUSH2 0xE7D JUMP JUMPDEST PUSH2 0xFAC DUP5 PUSH2 0xE8F JUMP JUMPDEST DUP2 ADD PUSH1 0x20 DUP6 LT ISZERO PUSH2 0xFBB JUMPI DUP2 SWAP1 POP JUMPDEST PUSH2 0xFCF PUSH2 0xFC7 DUP6 PUSH2 0xE8F JUMP JUMPDEST DUP4 ADD DUP3 PUSH2 0xF6F JUMP JUMPDEST POP POP JUMPDEST POP POP POP JUMP JUMPDEST PUSH0 DUP3 DUP3 SHR SWAP1 POP SWAP3 SWAP2 POP POP JUMP JUMPDEST PUSH0 PUSH2 0xFF2 PUSH0 NOT DUP5 PUSH1 0x8 MUL PUSH2 0xFD7 JUMP JUMPDEST NOT DUP1 DUP4 AND SWAP2 POP POP SWAP3 SWAP2 POP POP JUMP JUMPDEST PUSH0 PUSH2 0x100A DUP4 DUP4 PUSH2 0xFE3 JUMP JUMPDEST SWAP2 POP DUP3 PUSH1 0x2 MUL DUP3 OR SWAP1 POP SWAP3 SWAP2 POP POP JUMP JUMPDEST PUSH2 0x1023 DUP3 PUSH2 0x6F0 JUMP JUMPDEST PUSH8 0xFFFFFFFFFFFFFFFF DUP2 GT ISZERO PUSH2 0x103C JUMPI PUSH2 0x103B PUSH2 0xC90 JUMP JUMPDEST JUMPDEST PUSH2 0x1046 DUP3 SLOAD PUSH2 0xAEF JUMP JUMPDEST PUSH2 0x1051 DUP3 DUP3 DUP6 PUSH2 0xF91 JUMP JUMPDEST PUSH0 PUSH1 0x20 SWAP1 POP PUSH1 0x1F DUP4 GT PUSH1 0x1 DUP2 EQ PUSH2 0x1082 JUMPI PUSH0 DUP5 ISZERO PUSH2 0x1070 JUMPI DUP3 DUP8 ADD MLOAD SWAP1 POP JUMPDEST PUSH2 0x107A DUP6 DUP3 PUSH2 0xFFF JUMP JUMPDEST DUP7 SSTORE POP PUSH2 0x10E1 JUMP JUMPDEST PUSH1 0x1F NOT DUP5 AND PUSH2 0x1090 DUP7 PUSH2 0xE7D JUMP JUMPDEST PUSH0 JUMPDEST DUP3 DUP2 LT ISZERO PUSH2 0x10B7 JUMPI DUP5 DUP10 ADD MLOAD DUP3 SSTORE PUSH1 0x1 DUP3 ADD SWAP2 POP PUSH1 0x20 DUP6 ADD SWAP5 POP PUSH1 0x20 DUP2 ADD SWAP1 POP PUSH2 0x1092 JUMP JUMPDEST DUP7 DUP4 LT ISZERO PUSH2 0x10D4 JUMPI DUP5 DUP10 ADD MLOAD PUSH2 0x10D0 PUSH1 0x1F DUP10 AND DUP3 PUSH2 0xFE3 JUMP JUMPDEST DUP4 SSTORE POP JUMPDEST PUSH1 0x1 PUSH1 0x2 DUP9 MUL ADD DUP9 SSTORE POP POP POP JUMPDEST POP POP POP POP POP POP JUMP JUMPDEST PUSH0 PUSH2 0x10F3 DUP3 PUSH2 0x669 JUMP JUMPDEST SWAP2 POP PUSH32 0xFFFFFFFFFFFFFFFFFFFFFFFFFFFFFFFFFFFFFFFFFFFFFFFFFFFFFFFFFFFFFFFF DUP3 SUB PUSH2 0x1125 JUMPI PUSH2 0x1124 PUSH2 0xBEF JUMP JUMPDEST JUMPDEST PUSH1 0x1 DUP3 ADD SWAP1 POP SWAP2 SWAP1 POP JUMP INVALID LOG2 PUSH5 0x6970667358 0x22 SLT KECCAK256 0xED PREVRANDAO GAS SAR SLT SELFDESTRUCT 0xC9 PUSH13 0x28EF9F70CCD5D8327B8EE7158E SWAP2 SAR 0x2B 0xE 0x22 0x1E BLOCKHASH 0xE OR 0xC8 0x2C PUSH5 0x736F6C6343 STOP ADDMOD EQ STOP CALLER "
		},
		"gasEstimates": {
			"creation": {
				"codeDepositCost": "890800",
				"executionCost": "25193",
				"totalCost": "915993"
			},
			"external": {
				"Create_poll(string,string[],uint256)": "infinite",
				"Polls(uint256)": "infinite",
				"admin()": "2574",
				"check(uint256)": "infinite",
				"totalpolls()": "2447"
			}
		},
		"methodIdentifiers": {
			"Create_poll(string,string[],uint256)": "f716362a",
			"Polls(uint256)": "09aaf058",
			"admin()": "f851a440",
			"check(uint256)": "5f72f450",
			"totalpolls()": "e18f1661"
		}
	},
	"abi": [
		{
			"inputs": [
				{
					"internalType": "string",
					"name": "_title",
					"type": "string"
				},
				{
					"internalType": "string[]",
					"name": "_options",
					"type": "string[]"
				},
				{
					"internalType": "uint256",
					"name": "_duration",
					"type": "uint256"
				}
			],
			"name": "Create_poll",
			"outputs": [],
			"stateMutability": "nonpayable",
			"type": "function"
		},
		{
			"inputs": [
				{
					"internalType": "uint256",
					"name": "",
					"type": "uint256"
				}
			],
			"name": "Polls",
			"outputs": [
				{
					"internalType": "bool",
					"name": "isActive",
					"type": "bool"
				},
				{
					"internalType": "uint256",
					"name": "EndTime",
					"type": "uint256"
				},
				{
					"internalType": "string",
					"name": "title",
					"type": "string"
				}
			],
			"stateMutability": "view",
			"type": "function"
		},
		{
			"inputs": [],
			"name": "admin",
			"outputs": [
				{
					"internalType": "address",
					"name": "",
					"type": "address"
				}
			],
			"stateMutability": "view",
			"type": "function"
		},
		{
			"inputs": [
				{
					"internalType": "uint256",
					"name": "_indx",
					"type": "uint256"
				}
			],
			"name": "check",
			"outputs": [
				{
					"internalType": "bool",
					"name": "isActive",
					"type": "bool"
				},
				{
					"internalType": "uint256",
					"name": "EndTime",
					"type": "uint256"
				},
				{
					"internalType": "string[]",
					"name": "options",
					"type": "string[]"
				},
				{
					"internalType": "string",
					"name": "title",
					"type": "string"
				}
			],
			"stateMutability": "view",
			"type": "function"
		},
		{
			"inputs": [],
			"name": "totalpolls",
			"outputs": [
				{
					"internalType": "uint256",
					"name": "",
					"type": "uint256"
				}
			],
			"stateMutability": "view",
			"type": "function"
		}
	]
}